{
	"Somniatoken_fixed.sol": {
		"SomniaToken": {
			"abi": [
				{
					"inputs": [
						{
							"internalType": "string",
							"name": "initialName",
							"type": "string"
						},
						{
							"internalType": "string",
							"name": "initialSymbol",
							"type": "string"
						},
						{
							"internalType": "uint256",
							"name": "initialSupply",
							"type": "uint256"
						},
						{
							"internalType": "uint256",
							"name": "initialDepositRate",
							"type": "uint256"
						}
					],
					"stateMutability": "nonpayable",
					"type": "constructor"
				},
				{
					"inputs": [
						{
							"internalType": "address",
							"name": "spender",
							"type": "address"
						},
						{
							"internalType": "uint256",
							"name": "allowance",
							"type": "uint256"
						},
						{
							"internalType": "uint256",
							"name": "needed",
							"type": "uint256"
						}
					],
					"name": "ERC20InsufficientAllowance",
					"type": "error"
				},
				{
					"inputs": [
						{
							"internalType": "address",
							"name": "sender",
							"type": "address"
						},
						{
							"internalType": "uint256",
							"name": "balance",
							"type": "uint256"
						},
						{
							"internalType": "uint256",
							"name": "needed",
							"type": "uint256"
						}
					],
					"name": "ERC20InsufficientBalance",
					"type": "error"
				},
				{
					"inputs": [
						{
							"internalType": "address",
							"name": "approver",
							"type": "address"
						}
					],
					"name": "ERC20InvalidApprover",
					"type": "error"
				},
				{
					"inputs": [
						{
							"internalType": "address",
							"name": "receiver",
							"type": "address"
						}
					],
					"name": "ERC20InvalidReceiver",
					"type": "error"
				},
				{
					"inputs": [
						{
							"internalType": "address",
							"name": "sender",
							"type": "address"
						}
					],
					"name": "ERC20InvalidSender",
					"type": "error"
				},
				{
					"inputs": [
						{
							"internalType": "address",
							"name": "spender",
							"type": "address"
						}
					],
					"name": "ERC20InvalidSpender",
					"type": "error"
				},
				{
					"inputs": [
						{
							"internalType": "address",
							"name": "owner",
							"type": "address"
						}
					],
					"name": "OwnableInvalidOwner",
					"type": "error"
				},
				{
					"inputs": [
						{
							"internalType": "address",
							"name": "account",
							"type": "address"
						}
					],
					"name": "OwnableUnauthorizedAccount",
					"type": "error"
				},
				{
					"anonymous": false,
					"inputs": [
						{
							"indexed": true,
							"internalType": "address",
							"name": "owner",
							"type": "address"
						},
						{
							"indexed": true,
							"internalType": "address",
							"name": "spender",
							"type": "address"
						},
						{
							"indexed": false,
							"internalType": "uint256",
							"name": "value",
							"type": "uint256"
						}
					],
					"name": "Approval",
					"type": "event"
				},
				{
					"anonymous": false,
					"inputs": [
						{
							"indexed": true,
							"internalType": "address",
							"name": "from",
							"type": "address"
						},
						{
							"indexed": false,
							"internalType": "uint256",
							"name": "nativeAmount",
							"type": "uint256"
						},
						{
							"indexed": false,
							"internalType": "uint256",
							"name": "mintedTokens",
							"type": "uint256"
						}
					],
					"name": "Deposit",
					"type": "event"
				},
				{
					"anonymous": false,
					"inputs": [
						{
							"indexed": false,
							"internalType": "string",
							"name": "oldName",
							"type": "string"
						},
						{
							"indexed": false,
							"internalType": "string",
							"name": "newName",
							"type": "string"
						}
					],
					"name": "NameChanged",
					"type": "event"
				},
				{
					"anonymous": false,
					"inputs": [
						{
							"indexed": true,
							"internalType": "address",
							"name": "previousOwner",
							"type": "address"
						},
						{
							"indexed": true,
							"internalType": "address",
							"name": "newOwner",
							"type": "address"
						}
					],
					"name": "OwnershipTransferred",
					"type": "event"
				},
				{
					"anonymous": false,
					"inputs": [
						{
							"indexed": false,
							"internalType": "uint256",
							"name": "oldRate",
							"type": "uint256"
						},
						{
							"indexed": false,
							"internalType": "uint256",
							"name": "newRate",
							"type": "uint256"
						}
					],
					"name": "RateChanged",
					"type": "event"
				},
				{
					"anonymous": false,
					"inputs": [
						{
							"indexed": false,
							"internalType": "string",
							"name": "oldSymbol",
							"type": "string"
						},
						{
							"indexed": false,
							"internalType": "string",
							"name": "newSymbol",
							"type": "string"
						}
					],
					"name": "SymbolChanged",
					"type": "event"
				},
				{
					"anonymous": false,
					"inputs": [
						{
							"indexed": true,
							"internalType": "address",
							"name": "from",
							"type": "address"
						},
						{
							"indexed": true,
							"internalType": "address",
							"name": "to",
							"type": "address"
						},
						{
							"indexed": false,
							"internalType": "uint256",
							"name": "value",
							"type": "uint256"
						}
					],
					"name": "Transfer",
					"type": "event"
				},
				{
					"anonymous": false,
					"inputs": [
						{
							"indexed": true,
							"internalType": "address",
							"name": "to",
							"type": "address"
						},
						{
							"indexed": false,
							"internalType": "uint256",
							"name": "amount",
							"type": "uint256"
						}
					],
					"name": "Withdraw",
					"type": "event"
				},
				{
					"stateMutability": "payable",
					"type": "fallback"
				},
				{
					"inputs": [
						{
							"internalType": "address",
							"name": "owner",
							"type": "address"
						},
						{
							"internalType": "address",
							"name": "spender",
							"type": "address"
						}
					],
					"name": "allowance",
					"outputs": [
						{
							"internalType": "uint256",
							"name": "",
							"type": "uint256"
						}
					],
					"stateMutability": "view",
					"type": "function"
				},
				{
					"inputs": [
						{
							"internalType": "address",
							"name": "spender",
							"type": "address"
						},
						{
							"internalType": "uint256",
							"name": "value",
							"type": "uint256"
						}
					],
					"name": "approve",
					"outputs": [
						{
							"internalType": "bool",
							"name": "",
							"type": "bool"
						}
					],
					"stateMutability": "nonpayable",
					"type": "function"
				},
				{
					"inputs": [
						{
							"internalType": "address",
							"name": "account",
							"type": "address"
						}
					],
					"name": "balanceOf",
					"outputs": [
						{
							"internalType": "uint256",
							"name": "",
							"type": "uint256"
						}
					],
					"stateMutability": "view",
					"type": "function"
				},
				{
					"inputs": [
						{
							"internalType": "address",
							"name": "from",
							"type": "address"
						},
						{
							"internalType": "uint256",
							"name": "amount",
							"type": "uint256"
						}
					],
					"name": "burn",
					"outputs": [],
					"stateMutability": "nonpayable",
					"type": "function"
				},
				{
					"inputs": [],
					"name": "decimals",
					"outputs": [
						{
							"internalType": "uint8",
							"name": "",
							"type": "uint8"
						}
					],
					"stateMutability": "view",
					"type": "function"
				},
				{
					"inputs": [],
					"name": "deposit",
					"outputs": [
						{
							"internalType": "uint256",
							"name": "minted",
							"type": "uint256"
						}
					],
					"stateMutability": "payable",
					"type": "function"
				},
				{
					"inputs": [],
					"name": "depositRate",
					"outputs": [
						{
							"internalType": "uint256",
							"name": "",
							"type": "uint256"
						}
					],
					"stateMutability": "view",
					"type": "function"
				},
				{
					"inputs": [
						{
							"internalType": "address",
							"name": "to",
							"type": "address"
						},
						{
							"internalType": "uint256",
							"name": "amount",
							"type": "uint256"
						}
					],
					"name": "mint",
					"outputs": [],
					"stateMutability": "nonpayable",
					"type": "function"
				},
				{
					"inputs": [],
					"name": "name",
					"outputs": [
						{
							"internalType": "string",
							"name": "",
							"type": "string"
						}
					],
					"stateMutability": "view",
					"type": "function"
				},
				{
					"inputs": [],
					"name": "owner",
					"outputs": [
						{
							"internalType": "address",
							"name": "",
							"type": "address"
						}
					],
					"stateMutability": "view",
					"type": "function"
				},
				{
					"inputs": [],
					"name": "renounceOwnership",
					"outputs": [],
					"stateMutability": "nonpayable",
					"type": "function"
				},
				{
					"inputs": [
						{
							"internalType": "address",
							"name": "tokenAddress",
							"type": "address"
						},
						{
							"internalType": "address",
							"name": "to",
							"type": "address"
						},
						{
							"internalType": "uint256",
							"name": "amount",
							"type": "uint256"
						}
					],
					"name": "rescueERC20",
					"outputs": [],
					"stateMutability": "nonpayable",
					"type": "function"
				},
				{
					"inputs": [
						{
							"internalType": "uint256",
							"name": "newRate",
							"type": "uint256"
						}
					],
					"name": "setDepositRate",
					"outputs": [],
					"stateMutability": "nonpayable",
					"type": "function"
				},
				{
					"inputs": [
						{
							"internalType": "string",
							"name": "newName",
							"type": "string"
						}
					],
					"name": "setName",
					"outputs": [],
					"stateMutability": "nonpayable",
					"type": "function"
				},
				{
					"inputs": [
						{
							"internalType": "string",
							"name": "newSymbol",
							"type": "string"
						}
					],
					"name": "setSymbol",
					"outputs": [],
					"stateMutability": "nonpayable",
					"type": "function"
				},
				{
					"inputs": [],
					"name": "symbol",
					"outputs": [
						{
							"internalType": "string",
							"name": "",
							"type": "string"
						}
					],
					"stateMutability": "view",
					"type": "function"
				},
				{
					"inputs": [],
					"name": "totalSupply",
					"outputs": [
						{
							"internalType": "uint256",
							"name": "",
							"type": "uint256"
						}
					],
					"stateMutability": "view",
					"type": "function"
				},
				{
					"inputs": [
						{
							"internalType": "address",
							"name": "to",
							"type": "address"
						},
						{
							"internalType": "uint256",
							"name": "value",
							"type": "uint256"
						}
					],
					"name": "transfer",
					"outputs": [
						{
							"internalType": "bool",
							"name": "",
							"type": "bool"
						}
					],
					"stateMutability": "nonpayable",
					"type": "function"
				},
				{
					"inputs": [
						{
							"internalType": "address",
							"name": "from",
							"type": "address"
						},
						{
							"internalType": "address",
							"name": "to",
							"type": "address"
						},
						{
							"internalType": "uint256",
							"name": "value",
							"type": "uint256"
						}
					],
					"name": "transferFrom",
					"outputs": [
						{
							"internalType": "bool",
							"name": "",
							"type": "bool"
						}
					],
					"stateMutability": "nonpayable",
					"type": "function"
				},
				{
					"inputs": [
						{
							"internalType": "address",
							"name": "newOwner",
							"type": "address"
						}
					],
					"name": "transferOwnership",
					"outputs": [],
					"stateMutability": "nonpayable",
					"type": "function"
				},
				{
					"inputs": [
						{
							"internalType": "address payable",
							"name": "to",
							"type": "address"
						},
						{
							"internalType": "uint256",
							"name": "amount",
							"type": "uint256"
						}
					],
					"name": "withdrawNative",
					"outputs": [],
					"stateMutability": "nonpayable",
					"type": "function"
				},
				{
					"stateMutability": "payable",
					"type": "receive"
				}
			],
			"devdoc": {
				"errors": {
					"ERC20InsufficientAllowance(address,uint256,uint256)": [
						{
							"details": "Indicates a failure with the `spender`’s `allowance`. Used in transfers.",
							"params": {
								"allowance": "Amount of tokens a `spender` is allowed to operate with.",
								"needed": "Minimum amount required to perform a transfer.",
								"spender": "Address that may be allowed to operate on tokens without being their owner."
							}
						}
					],
					"ERC20InsufficientBalance(address,uint256,uint256)": [
						{
							"details": "Indicates an error related to the current `balance` of a `sender`. Used in transfers.",
							"params": {
								"balance": "Current balance for the interacting account.",
								"needed": "Minimum amount required to perform a transfer.",
								"sender": "Address whose tokens are being transferred."
							}
						}
					],
					"ERC20InvalidApprover(address)": [
						{
							"details": "Indicates a failure with the `approver` of a token to be approved. Used in approvals.",
							"params": {
								"approver": "Address initiating an approval operation."
							}
						}
					],
					"ERC20InvalidReceiver(address)": [
						{
							"details": "Indicates a failure with the token `receiver`. Used in transfers.",
							"params": {
								"receiver": "Address to which tokens are being transferred."
							}
						}
					],
					"ERC20InvalidSender(address)": [
						{
							"details": "Indicates a failure with the token `sender`. Used in transfers.",
							"params": {
								"sender": "Address whose tokens are being transferred."
							}
						}
					],
					"ERC20InvalidSpender(address)": [
						{
							"details": "Indicates a failure with the `spender` to be approved. Used in approvals.",
							"params": {
								"spender": "Address that may be allowed to operate on tokens without being their owner."
							}
						}
					],
					"OwnableInvalidOwner(address)": [
						{
							"details": "The owner is not a valid owner account. (eg. `address(0)`)"
						}
					],
					"OwnableUnauthorizedAccount(address)": [
						{
							"details": "The caller account is not authorized to perform an operation."
						}
					]
				},
				"events": {
					"Approval(address,address,uint256)": {
						"details": "Emitted when the allowance of a `spender` for an `owner` is set by a call to {approve}. `value` is the new allowance."
					},
					"Transfer(address,address,uint256)": {
						"details": "Emitted when `value` tokens are moved from one account (`from`) to another (`to`). Note that `value` may be zero."
					}
				},
				"kind": "dev",
				"methods": {
					"allowance(address,address)": {
						"details": "Returns the remaining number of tokens that `spender` will be allowed to spend on behalf of `owner` through {transferFrom}. This is zero by default. This value changes when {approve} or {transferFrom} are called."
					},
					"approve(address,uint256)": {
						"details": "See {IERC20-approve}. NOTE: If `value` is the maximum `uint256`, the allowance is not updated on `transferFrom`. This is semantically equivalent to an infinite approval. Requirements: - `spender` cannot be the zero address."
					},
					"balanceOf(address)": {
						"details": "Returns the value of tokens owned by `account`."
					},
					"decimals()": {
						"details": "Returns the number of decimals used to get its user representation. For example, if `decimals` equals `2`, a balance of `505` tokens should be displayed to a user as `5.05` (`505 / 10 ** 2`). Tokens usually opt for a value of 18, imitating the relationship between Ether and Wei. This is the default value returned by this function, unless it's overridden. NOTE: This information is only used for _display_ purposes: it in no way affects any of the arithmetic of the contract, including {IERC20-balanceOf} and {IERC20-transfer}."
					},
					"name()": {
						"details": "Returns the name of the token."
					},
					"owner()": {
						"details": "Returns the address of the current owner."
					},
					"renounceOwnership()": {
						"details": "Leaves the contract without owner. It will not be possible to call `onlyOwner` functions. Can only be called by the current owner. NOTE: Renouncing ownership will leave the contract without an owner, thereby disabling any functionality that is only available to the owner."
					},
					"symbol()": {
						"details": "Returns the symbol of the token, usually a shorter version of the name."
					},
					"totalSupply()": {
						"details": "Returns the value of tokens in existence."
					},
					"transfer(address,uint256)": {
						"details": "See {IERC20-transfer}. Requirements: - `to` cannot be the zero address. - the caller must have a balance of at least `value`."
					},
					"transferFrom(address,address,uint256)": {
						"details": "See {IERC20-transferFrom}. Skips emitting an {Approval} event indicating an allowance update. This is not required by the ERC. See {xref-ERC20-_approve-address-address-uint256-bool-}[_approve]. NOTE: Does not update the allowance if the current allowance is the maximum `uint256`. Requirements: - `from` and `to` cannot be the zero address. - `from` must have a balance of at least `value`. - the caller must have allowance for ``from``'s tokens of at least `value`."
					},
					"transferOwnership(address)": {
						"details": "Transfers ownership of the contract to a new account (`newOwner`). Can only be called by the current owner."
					}
				},
				"version": 1
			},
			"evm": {
				"assembly": "    /* \"Somniatoken_fixed.sol\":522:3714  contract SomniaToken is ERC20, Ownable {... */\n  mstore(0x40, 0x80)\n    /* \"Somniatoken_fixed.sol\":981:1405  constructor(... */\n  callvalue\n  dup1\n  iszero\n  tag_1\n  jumpi\n  revert(0x00, 0x00)\ntag_1:\n  pop\n  mload(0x40)\n  sub(codesize, bytecodeSize)\n  dup1\n  bytecodeSize\n  dup4\n  codecopy\n  dup2\n  dup2\n  add\n  0x40\n  mstore\n  dup2\n  add\n  swap1\n  tag_2\n  swap2\n  swap1\n  tag_3\n  jump\t// in\ntag_2:\n    /* \"Somniatoken_fixed.sol\":1180:1190  msg.sender */\n  caller\n    /* \"Somniatoken_fixed.sol\":1144:1155  initialName */\n  dup5\n    /* \"Somniatoken_fixed.sol\":1157:1170  initialSymbol */\n  dup5\n    /* \"https://github.com/OpenZeppelin/openzeppelin-contracts/blob/master/contracts/token/ERC20/ERC20.sol\":1656:1661  name_ */\n  dup2\n    /* \"https://github.com/OpenZeppelin/openzeppelin-contracts/blob/master/contracts/token/ERC20/ERC20.sol\":1648:1653  _name */\n  0x03\n    /* \"https://github.com/OpenZeppelin/openzeppelin-contracts/blob/master/contracts/token/ERC20/ERC20.sol\":1648:1661  _name = name_ */\n  swap1\n  dup2\n  tag_8\n  swap2\n  swap1\n  tag_9\n  jump\t// in\ntag_8:\n  pop\n    /* \"https://github.com/OpenZeppelin/openzeppelin-contracts/blob/master/contracts/token/ERC20/ERC20.sol\":1681:1688  symbol_ */\n  dup1\n    /* \"https://github.com/OpenZeppelin/openzeppelin-contracts/blob/master/contracts/token/ERC20/ERC20.sol\":1671:1678  _symbol */\n  0x04\n    /* \"https://github.com/OpenZeppelin/openzeppelin-contracts/blob/master/contracts/token/ERC20/ERC20.sol\":1671:1688  _symbol = symbol_ */\n  swap1\n  dup2\n  tag_10\n  swap2\n  swap1\n  tag_9\n  jump\t// in\ntag_10:\n  pop\n    /* \"https://github.com/OpenZeppelin/openzeppelin-contracts/blob/master/contracts/token/ERC20/ERC20.sol\":1582:1695  constructor(string memory name_, string memory symbol_) {... */\n  pop\n  pop\n    /* \"https://github.com/OpenZeppelin/openzeppelin-contracts/blob/master/contracts/access/Ownable.sol\":1297:1298  0 */\n  0x00\n    /* \"https://github.com/OpenZeppelin/openzeppelin-contracts/blob/master/contracts/access/Ownable.sol\":1273:1299  initialOwner == address(0) */\n  0xffffffffffffffffffffffffffffffffffffffff\n  and\n    /* \"https://github.com/OpenZeppelin/openzeppelin-contracts/blob/master/contracts/access/Ownable.sol\":1273:1285  initialOwner */\n  dup2\n    /* \"https://github.com/OpenZeppelin/openzeppelin-contracts/blob/master/contracts/access/Ownable.sol\":1273:1299  initialOwner == address(0) */\n  0xffffffffffffffffffffffffffffffffffffffff\n  and\n  sub\n    /* \"https://github.com/OpenZeppelin/openzeppelin-contracts/blob/master/contracts/access/Ownable.sol\":1269:1364  if (initialOwner == address(0)) {... */\n  tag_12\n  jumpi\n    /* \"https://github.com/OpenZeppelin/openzeppelin-contracts/blob/master/contracts/access/Ownable.sol\":1350:1351  0 */\n  0x00\n    /* \"https://github.com/OpenZeppelin/openzeppelin-contracts/blob/master/contracts/access/Ownable.sol\":1322:1353  OwnableInvalidOwner(address(0)) */\n  mload(0x40)\n  0x1e4fbdf700000000000000000000000000000000000000000000000000000000\n  dup2\n  mstore\n  0x04\n  add\n  tag_13\n  swap2\n  swap1\n  tag_14\n  jump\t// in\ntag_13:\n  mload(0x40)\n  dup1\n  swap2\n  sub\n  swap1\n  revert\n    /* \"https://github.com/OpenZeppelin/openzeppelin-contracts/blob/master/contracts/access/Ownable.sol\":1269:1364  if (initialOwner == address(0)) {... */\ntag_12:\n    /* \"https://github.com/OpenZeppelin/openzeppelin-contracts/blob/master/contracts/access/Ownable.sol\":1373:1405  _transferOwnership(initialOwner) */\n  tag_15\n    /* \"https://github.com/OpenZeppelin/openzeppelin-contracts/blob/master/contracts/access/Ownable.sol\":1392:1404  initialOwner */\n  dup2\n    /* \"https://github.com/OpenZeppelin/openzeppelin-contracts/blob/master/contracts/access/Ownable.sol\":1373:1391  _transferOwnership */\n  shl(0x20, tag_16)\n    /* \"https://github.com/OpenZeppelin/openzeppelin-contracts/blob/master/contracts/access/Ownable.sol\":1373:1405  _transferOwnership(initialOwner) */\n  0x20\n  shr\n  jump\t// in\ntag_15:\n    /* \"https://github.com/OpenZeppelin/openzeppelin-contracts/blob/master/contracts/access/Ownable.sol\":1225:1412  constructor(address initialOwner) {... */\n  pop\n    /* \"Somniatoken_fixed.sol\":1216:1227  initialName */\n  dup4\n    /* \"Somniatoken_fixed.sol\":1202:1213  _customName */\n  0x06\n    /* \"Somniatoken_fixed.sol\":1202:1227  _customName = initialName */\n  swap1\n  dup2\n  tag_18\n  swap2\n  swap1\n  tag_9\n  jump\t// in\ntag_18:\n  pop\n    /* \"Somniatoken_fixed.sol\":1253:1266  initialSymbol */\n  dup3\n    /* \"Somniatoken_fixed.sol\":1237:1250  _customSymbol */\n  0x07\n    /* \"Somniatoken_fixed.sol\":1237:1266  _customSymbol = initialSymbol */\n  swap1\n  dup2\n  tag_19\n  swap2\n  swap1\n  tag_9\n  jump\t// in\ntag_19:\n  pop\n    /* \"Somniatoken_fixed.sol\":1290:1308  initialDepositRate */\n  dup1\n    /* \"Somniatoken_fixed.sol\":1276:1287  depositRate */\n  0x08\n    /* \"Somniatoken_fixed.sol\":1276:1308  depositRate = initialDepositRate */\n  dup2\n  swap1\n  sstore\n  pop\n    /* \"Somniatoken_fixed.sol\":1339:1340  0 */\n  0x00\n    /* \"Somniatoken_fixed.sol\":1323:1336  initialSupply */\n  dup3\n    /* \"Somniatoken_fixed.sol\":1323:1340  initialSupply > 0 */\n  gt\n    /* \"Somniatoken_fixed.sol\":1319:1399  if (initialSupply > 0) {... */\n  iszero\n  tag_20\n  jumpi\n    /* \"Somniatoken_fixed.sol\":1356:1388  _mint(msg.sender, initialSupply) */\n  tag_21\n    /* \"Somniatoken_fixed.sol\":1362:1372  msg.sender */\n  caller\n    /* \"Somniatoken_fixed.sol\":1374:1387  initialSupply */\n  dup4\n    /* \"Somniatoken_fixed.sol\":1356:1361  _mint */\n  shl(0x20, tag_22)\n    /* \"Somniatoken_fixed.sol\":1356:1388  _mint(msg.sender, initialSupply) */\n  0x20\n  shr\n  jump\t// in\ntag_21:\n    /* \"Somniatoken_fixed.sol\":1319:1399  if (initialSupply > 0) {... */\ntag_20:\n    /* \"Somniatoken_fixed.sol\":981:1405  constructor(... */\n  pop\n  pop\n  pop\n  pop\n    /* \"Somniatoken_fixed.sol\":522:3714  contract SomniaToken is ERC20, Ownable {... */\n  jump(tag_23)\n    /* \"https://github.com/OpenZeppelin/openzeppelin-contracts/blob/master/contracts/access/Ownable.sol\":2912:3099  function _transferOwnership(address newOwner) internal virtual {... */\ntag_16:\n    /* \"https://github.com/OpenZeppelin/openzeppelin-contracts/blob/master/contracts/access/Ownable.sol\":2985:3001  address oldOwner */\n  0x00\n    /* \"https://github.com/OpenZeppelin/openzeppelin-contracts/blob/master/contracts/access/Ownable.sol\":3004:3010  _owner */\n  0x05\n  0x00\n  swap1\n  sload\n  swap1\n  0x0100\n  exp\n  swap1\n  div\n  0xffffffffffffffffffffffffffffffffffffffff\n  and\n    /* \"https://github.com/OpenZeppelin/openzeppelin-contracts/blob/master/contracts/access/Ownable.sol\":2985:3010  address oldOwner = _owner */\n  swap1\n  pop\n    /* \"https://github.com/OpenZeppelin/openzeppelin-contracts/blob/master/contracts/access/Ownable.sol\":3029:3037  newOwner */\n  dup2\n    /* \"https://github.com/OpenZeppelin/openzeppelin-contracts/blob/master/contracts/access/Ownable.sol\":3020:3026  _owner */\n  0x05\n  0x00\n    /* \"https://github.com/OpenZeppelin/openzeppelin-contracts/blob/master/contracts/access/Ownable.sol\":3020:3037  _owner = newOwner */\n  0x0100\n  exp\n  dup2\n  sload\n  dup2\n  0xffffffffffffffffffffffffffffffffffffffff\n  mul\n  not\n  and\n  swap1\n  dup4\n  0xffffffffffffffffffffffffffffffffffffffff\n  and\n  mul\n  or\n  swap1\n  sstore\n  pop\n    /* \"https://github.com/OpenZeppelin/openzeppelin-contracts/blob/master/contracts/access/Ownable.sol\":3083:3091  newOwner */\n  dup2\n    /* \"https://github.com/OpenZeppelin/openzeppelin-contracts/blob/master/contracts/access/Ownable.sol\":3052:3092  OwnershipTransferred(oldOwner, newOwner) */\n  0xffffffffffffffffffffffffffffffffffffffff\n  and\n    /* \"https://github.com/OpenZeppelin/openzeppelin-contracts/blob/master/contracts/access/Ownable.sol\":3073:3081  oldOwner */\n  dup2\n    /* \"https://github.com/OpenZeppelin/openzeppelin-contracts/blob/master/contracts/access/Ownable.sol\":3052:3092  OwnershipTransferred(oldOwner, newOwner) */\n  0xffffffffffffffffffffffffffffffffffffffff\n  and\n  0x8be0079c531659141344cd1fd0a4f28419497f9722a3daafe3b4186f6b6457e0\n  mload(0x40)\n  mload(0x40)\n  dup1\n  swap2\n  sub\n  swap1\n  log3\n    /* \"https://github.com/OpenZeppelin/openzeppelin-contracts/blob/master/contracts/access/Ownable.sol\":2975:3099  {... */\n  pop\n    /* \"https://github.com/OpenZeppelin/openzeppelin-contracts/blob/master/contracts/access/Ownable.sol\":2912:3099  function _transferOwnership(address newOwner) internal virtual {... */\n  pop\n  jump\t// out\n    /* \"https://github.com/OpenZeppelin/openzeppelin-contracts/blob/master/contracts/token/ERC20/ERC20.sol\":7362:7570  function _mint(address account, uint256 value) internal {... */\ntag_22:\n    /* \"https://github.com/OpenZeppelin/openzeppelin-contracts/blob/master/contracts/token/ERC20/ERC20.sol\":7451:7452  0 */\n  0x00\n    /* \"https://github.com/OpenZeppelin/openzeppelin-contracts/blob/master/contracts/token/ERC20/ERC20.sol\":7432:7453  account == address(0) */\n  0xffffffffffffffffffffffffffffffffffffffff\n  and\n    /* \"https://github.com/OpenZeppelin/openzeppelin-contracts/blob/master/contracts/token/ERC20/ERC20.sol\":7432:7439  account */\n  dup3\n    /* \"https://github.com/OpenZeppelin/openzeppelin-contracts/blob/master/contracts/token/ERC20/ERC20.sol\":7432:7453  account == address(0) */\n  0xffffffffffffffffffffffffffffffffffffffff\n  and\n  sub\n    /* \"https://github.com/OpenZeppelin/openzeppelin-contracts/blob/master/contracts/token/ERC20/ERC20.sol\":7428:7519  if (account == address(0)) {... */\n  tag_26\n  jumpi\n    /* \"https://github.com/OpenZeppelin/openzeppelin-contracts/blob/master/contracts/token/ERC20/ERC20.sol\":7505:7506  0 */\n  0x00\n    /* \"https://github.com/OpenZeppelin/openzeppelin-contracts/blob/master/contracts/token/ERC20/ERC20.sol\":7476:7508  ERC20InvalidReceiver(address(0)) */\n  mload(0x40)\n  0xec442f0500000000000000000000000000000000000000000000000000000000\n  dup2\n  mstore\n  0x04\n  add\n  tag_27\n  swap2\n  swap1\n  tag_14\n  jump\t// in\ntag_27:\n  mload(0x40)\n  dup1\n  swap2\n  sub\n  swap1\n  revert\n    /* \"https://github.com/OpenZeppelin/openzeppelin-contracts/blob/master/contracts/token/ERC20/ERC20.sol\":7428:7519  if (account == address(0)) {... */\ntag_26:\n    /* \"https://github.com/OpenZeppelin/openzeppelin-contracts/blob/master/contracts/token/ERC20/ERC20.sol\":7528:7563  _update(address(0), account, value) */\n  tag_28\n    /* \"https://github.com/OpenZeppelin/openzeppelin-contracts/blob/master/contracts/token/ERC20/ERC20.sol\":7544:7545  0 */\n  0x00\n    /* \"https://github.com/OpenZeppelin/openzeppelin-contracts/blob/master/contracts/token/ERC20/ERC20.sol\":7548:7555  account */\n  dup4\n    /* \"https://github.com/OpenZeppelin/openzeppelin-contracts/blob/master/contracts/token/ERC20/ERC20.sol\":7557:7562  value */\n  dup4\n    /* \"https://github.com/OpenZeppelin/openzeppelin-contracts/blob/master/contracts/token/ERC20/ERC20.sol\":7528:7535  _update */\n  shl(0x20, tag_29)\n    /* \"https://github.com/OpenZeppelin/openzeppelin-contracts/blob/master/contracts/token/ERC20/ERC20.sol\":7528:7563  _update(address(0), account, value) */\n  0x20\n  shr\n  jump\t// in\ntag_28:\n    /* \"https://github.com/OpenZeppelin/openzeppelin-contracts/blob/master/contracts/token/ERC20/ERC20.sol\":7362:7570  function _mint(address account, uint256 value) internal {... */\n  pop\n  pop\n  jump\t// out\n    /* \"https://github.com/OpenZeppelin/openzeppelin-contracts/blob/master/contracts/token/ERC20/ERC20.sol\":5912:7019  function _update(address from, address to, uint256 value) internal virtual {... */\ntag_29:\n    /* \"https://github.com/OpenZeppelin/openzeppelin-contracts/blob/master/contracts/token/ERC20/ERC20.sol\":6017:6018  0 */\n  0x00\n    /* \"https://github.com/OpenZeppelin/openzeppelin-contracts/blob/master/contracts/token/ERC20/ERC20.sol\":6001:6019  from == address(0) */\n  0xffffffffffffffffffffffffffffffffffffffff\n  and\n    /* \"https://github.com/OpenZeppelin/openzeppelin-contracts/blob/master/contracts/token/ERC20/ERC20.sol\":6001:6005  from */\n  dup4\n    /* \"https://github.com/OpenZeppelin/openzeppelin-contracts/blob/master/contracts/token/ERC20/ERC20.sol\":6001:6019  from == address(0) */\n  0xffffffffffffffffffffffffffffffffffffffff\n  and\n  sub\n    /* \"https://github.com/OpenZeppelin/openzeppelin-contracts/blob/master/contracts/token/ERC20/ERC20.sol\":5997:6537  if (from == address(0)) {... */\n  tag_31\n  jumpi\n    /* \"https://github.com/OpenZeppelin/openzeppelin-contracts/blob/master/contracts/token/ERC20/ERC20.sol\":6153:6158  value */\n  dup1\n    /* \"https://github.com/OpenZeppelin/openzeppelin-contracts/blob/master/contracts/token/ERC20/ERC20.sol\":6137:6149  _totalSupply */\n  0x02\n  0x00\n    /* \"https://github.com/OpenZeppelin/openzeppelin-contracts/blob/master/contracts/token/ERC20/ERC20.sol\":6137:6158  _totalSupply += value */\n  dup3\n  dup3\n  sload\n  tag_32\n  swap2\n  swap1\n  tag_33\n  jump\t// in\ntag_32:\n  swap3\n  pop\n  pop\n  dup2\n  swap1\n  sstore\n  pop\n    /* \"https://github.com/OpenZeppelin/openzeppelin-contracts/blob/master/contracts/token/ERC20/ERC20.sol\":5997:6537  if (from == address(0)) {... */\n  jump(tag_34)\ntag_31:\n    /* \"https://github.com/OpenZeppelin/openzeppelin-contracts/blob/master/contracts/token/ERC20/ERC20.sol\":6189:6208  uint256 fromBalance */\n  0x00\n    /* \"https://github.com/OpenZeppelin/openzeppelin-contracts/blob/master/contracts/token/ERC20/ERC20.sol\":6211:6220  _balances */\n  0x00\n    /* \"https://github.com/OpenZeppelin/openzeppelin-contracts/blob/master/contracts/token/ERC20/ERC20.sol\":6211:6226  _balances[from] */\n  0x00\n    /* \"https://github.com/OpenZeppelin/openzeppelin-contracts/blob/master/contracts/token/ERC20/ERC20.sol\":6221:6225  from */\n  dup6\n    /* \"https://github.com/OpenZeppelin/openzeppelin-contracts/blob/master/contracts/token/ERC20/ERC20.sol\":6211:6226  _balances[from] */\n  0xffffffffffffffffffffffffffffffffffffffff\n  and\n  0xffffffffffffffffffffffffffffffffffffffff\n  and\n  dup2\n  mstore\n  0x20\n  add\n  swap1\n  dup2\n  mstore\n  0x20\n  add\n  0x00\n  keccak256\n  sload\n    /* \"https://github.com/OpenZeppelin/openzeppelin-contracts/blob/master/contracts/token/ERC20/ERC20.sol\":6189:6226  uint256 fromBalance = _balances[from] */\n  swap1\n  pop\n    /* \"https://github.com/OpenZeppelin/openzeppelin-contracts/blob/master/contracts/token/ERC20/ERC20.sol\":6258:6263  value */\n  dup2\n    /* \"https://github.com/OpenZeppelin/openzeppelin-contracts/blob/master/contracts/token/ERC20/ERC20.sol\":6244:6255  fromBalance */\n  dup2\n    /* \"https://github.com/OpenZeppelin/openzeppelin-contracts/blob/master/contracts/token/ERC20/ERC20.sol\":6244:6263  fromBalance < value */\n  lt\n    /* \"https://github.com/OpenZeppelin/openzeppelin-contracts/blob/master/contracts/token/ERC20/ERC20.sol\":6240:6355  if (fromBalance < value) {... */\n  iszero\n  tag_35\n  jumpi\n    /* \"https://github.com/OpenZeppelin/openzeppelin-contracts/blob/master/contracts/token/ERC20/ERC20.sol\":6315:6319  from */\n  dup4\n    /* \"https://github.com/OpenZeppelin/openzeppelin-contracts/blob/master/contracts/token/ERC20/ERC20.sol\":6321:6332  fromBalance */\n  dup2\n    /* \"https://github.com/OpenZeppelin/openzeppelin-contracts/blob/master/contracts/token/ERC20/ERC20.sol\":6334:6339  value */\n  dup4\n    /* \"https://github.com/OpenZeppelin/openzeppelin-contracts/blob/master/contracts/token/ERC20/ERC20.sol\":6290:6340  ERC20InsufficientBalance(from, fromBalance, value) */\n  mload(0x40)\n  0xe450d38c00000000000000000000000000000000000000000000000000000000\n  dup2\n  mstore\n  0x04\n  add\n  tag_36\n  swap4\n  swap3\n  swap2\n  swap1\n  tag_37\n  jump\t// in\ntag_36:\n  mload(0x40)\n  dup1\n  swap2\n  sub\n  swap1\n  revert\n    /* \"https://github.com/OpenZeppelin/openzeppelin-contracts/blob/master/contracts/token/ERC20/ERC20.sol\":6240:6355  if (fromBalance < value) {... */\ntag_35:\n    /* \"https://github.com/OpenZeppelin/openzeppelin-contracts/blob/master/contracts/token/ERC20/ERC20.sol\":6507:6512  value */\n  dup2\n    /* \"https://github.com/OpenZeppelin/openzeppelin-contracts/blob/master/contracts/token/ERC20/ERC20.sol\":6493:6504  fromBalance */\n  dup2\n    /* \"https://github.com/OpenZeppelin/openzeppelin-contracts/blob/master/contracts/token/ERC20/ERC20.sol\":6493:6512  fromBalance - value */\n  sub\n    /* \"https://github.com/OpenZeppelin/openzeppelin-contracts/blob/master/contracts/token/ERC20/ERC20.sol\":6475:6484  _balances */\n  0x00\n    /* \"https://github.com/OpenZeppelin/openzeppelin-contracts/blob/master/contracts/token/ERC20/ERC20.sol\":6475:6490  _balances[from] */\n  0x00\n    /* \"https://github.com/OpenZeppelin/openzeppelin-contracts/blob/master/contracts/token/ERC20/ERC20.sol\":6485:6489  from */\n  dup7\n    /* \"https://github.com/OpenZeppelin/openzeppelin-contracts/blob/master/contracts/token/ERC20/ERC20.sol\":6475:6490  _balances[from] */\n  0xffffffffffffffffffffffffffffffffffffffff\n  and\n  0xffffffffffffffffffffffffffffffffffffffff\n  and\n  dup2\n  mstore\n  0x20\n  add\n  swap1\n  dup2\n  mstore\n  0x20\n  add\n  0x00\n  keccak256\n    /* \"https://github.com/OpenZeppelin/openzeppelin-contracts/blob/master/contracts/token/ERC20/ERC20.sol\":6475:6512  _balances[from] = fromBalance - value */\n  dup2\n  swap1\n  sstore\n  pop\n    /* \"https://github.com/OpenZeppelin/openzeppelin-contracts/blob/master/contracts/token/ERC20/ERC20.sol\":6175:6537  {... */\n  pop\n    /* \"https://github.com/OpenZeppelin/openzeppelin-contracts/blob/master/contracts/token/ERC20/ERC20.sol\":5997:6537  if (from == address(0)) {... */\ntag_34:\n    /* \"https://github.com/OpenZeppelin/openzeppelin-contracts/blob/master/contracts/token/ERC20/ERC20.sol\":6565:6566  0 */\n  0x00\n    /* \"https://github.com/OpenZeppelin/openzeppelin-contracts/blob/master/contracts/token/ERC20/ERC20.sol\":6551:6567  to == address(0) */\n  0xffffffffffffffffffffffffffffffffffffffff\n  and\n    /* \"https://github.com/OpenZeppelin/openzeppelin-contracts/blob/master/contracts/token/ERC20/ERC20.sol\":6551:6553  to */\n  dup3\n    /* \"https://github.com/OpenZeppelin/openzeppelin-contracts/blob/master/contracts/token/ERC20/ERC20.sol\":6551:6567  to == address(0) */\n  0xffffffffffffffffffffffffffffffffffffffff\n  and\n  sub\n    /* \"https://github.com/OpenZeppelin/openzeppelin-contracts/blob/master/contracts/token/ERC20/ERC20.sol\":6547:6972  if (to == address(0)) {... */\n  tag_38\n  jumpi\n    /* \"https://github.com/OpenZeppelin/openzeppelin-contracts/blob/master/contracts/token/ERC20/ERC20.sol\":6730:6735  value */\n  dup1\n    /* \"https://github.com/OpenZeppelin/openzeppelin-contracts/blob/master/contracts/token/ERC20/ERC20.sol\":6714:6726  _totalSupply */\n  0x02\n  0x00\n    /* \"https://github.com/OpenZeppelin/openzeppelin-contracts/blob/master/contracts/token/ERC20/ERC20.sol\":6714:6735  _totalSupply -= value */\n  dup3\n  dup3\n  sload\n  sub\n  swap3\n  pop\n  pop\n  dup2\n  swap1\n  sstore\n  pop\n    /* \"https://github.com/OpenZeppelin/openzeppelin-contracts/blob/master/contracts/token/ERC20/ERC20.sol\":6547:6972  if (to == address(0)) {... */\n  jump(tag_39)\ntag_38:\n    /* \"https://github.com/OpenZeppelin/openzeppelin-contracts/blob/master/contracts/token/ERC20/ERC20.sol\":6942:6947  value */\n  dup1\n    /* \"https://github.com/OpenZeppelin/openzeppelin-contracts/blob/master/contracts/token/ERC20/ERC20.sol\":6925:6934  _balances */\n  0x00\n    /* \"https://github.com/OpenZeppelin/openzeppelin-contracts/blob/master/contracts/token/ERC20/ERC20.sol\":6925:6938  _balances[to] */\n  0x00\n    /* \"https://github.com/OpenZeppelin/openzeppelin-contracts/blob/master/contracts/token/ERC20/ERC20.sol\":6935:6937  to */\n  dup5\n    /* \"https://github.com/OpenZeppelin/openzeppelin-contracts/blob/master/contracts/token/ERC20/ERC20.sol\":6925:6938  _balances[to] */\n  0xffffffffffffffffffffffffffffffffffffffff\n  and\n  0xffffffffffffffffffffffffffffffffffffffff\n  and\n  dup2\n  mstore\n  0x20\n  add\n  swap1\n  dup2\n  mstore\n  0x20\n  add\n  0x00\n  keccak256\n  0x00\n    /* \"https://github.com/OpenZeppelin/openzeppelin-contracts/blob/master/contracts/token/ERC20/ERC20.sol\":6925:6947  _balances[to] += value */\n  dup3\n  dup3\n  sload\n  add\n  swap3\n  pop\n  pop\n  dup2\n  swap1\n  sstore\n  pop\n    /* \"https://github.com/OpenZeppelin/openzeppelin-contracts/blob/master/contracts/token/ERC20/ERC20.sol\":6547:6972  if (to == address(0)) {... */\ntag_39:\n    /* \"https://github.com/OpenZeppelin/openzeppelin-contracts/blob/master/contracts/token/ERC20/ERC20.sol\":7002:7004  to */\n  dup2\n    /* \"https://github.com/OpenZeppelin/openzeppelin-contracts/blob/master/contracts/token/ERC20/ERC20.sol\":6987:7012  Transfer(from, to, value) */\n  0xffffffffffffffffffffffffffffffffffffffff\n  and\n    /* \"https://github.com/OpenZeppelin/openzeppelin-contracts/blob/master/contracts/token/ERC20/ERC20.sol\":6996:7000  from */\n  dup4\n    /* \"https://github.com/OpenZeppelin/openzeppelin-contracts/blob/master/contracts/token/ERC20/ERC20.sol\":6987:7012  Transfer(from, to, value) */\n  0xffffffffffffffffffffffffffffffffffffffff\n  and\n  0xddf252ad1be2c89b69c2b068fc378daa952ba7f163c4a11628f55a4df523b3ef\n    /* \"https://github.com/OpenZeppelin/openzeppelin-contracts/blob/master/contracts/token/ERC20/ERC20.sol\":7006:7011  value */\n  dup4\n    /* \"https://github.com/OpenZeppelin/openzeppelin-contracts/blob/master/contracts/token/ERC20/ERC20.sol\":6987:7012  Transfer(from, to, value) */\n  mload(0x40)\n  tag_40\n  swap2\n  swap1\n  tag_41\n  jump\t// in\ntag_40:\n  mload(0x40)\n  dup1\n  swap2\n  sub\n  swap1\n  log3\n    /* \"https://github.com/OpenZeppelin/openzeppelin-contracts/blob/master/contracts/token/ERC20/ERC20.sol\":5912:7019  function _update(address from, address to, uint256 value) internal virtual {... */\n  pop\n  pop\n  pop\n  jump\t// out\n    /* \"#utility.yul\":7:82   */\ntag_42:\n    /* \"#utility.yul\":40:46   */\n  0x00\n    /* \"#utility.yul\":73:75   */\n  0x40\n    /* \"#utility.yul\":67:76   */\n  mload\n    /* \"#utility.yul\":57:76   */\n  swap1\n  pop\n    /* \"#utility.yul\":7:82   */\n  swap1\n  jump\t// out\n    /* \"#utility.yul\":88:205   */\ntag_43:\n    /* \"#utility.yul\":197:198   */\n  0x00\n    /* \"#utility.yul\":194:195   */\n  0x00\n    /* \"#utility.yul\":187:199   */\n  revert\n    /* \"#utility.yul\":211:328   */\ntag_44:\n    /* \"#utility.yul\":320:321   */\n  0x00\n    /* \"#utility.yul\":317:318   */\n  0x00\n    /* \"#utility.yul\":310:322   */\n  revert\n    /* \"#utility.yul\":334:451   */\ntag_45:\n    /* \"#utility.yul\":443:444   */\n  0x00\n    /* \"#utility.yul\":440:441   */\n  0x00\n    /* \"#utility.yul\":433:445   */\n  revert\n    /* \"#utility.yul\":457:574   */\ntag_46:\n    /* \"#utility.yul\":566:567   */\n  0x00\n    /* \"#utility.yul\":563:564   */\n  0x00\n    /* \"#utility.yul\":556:568   */\n  revert\n    /* \"#utility.yul\":580:682   */\ntag_47:\n    /* \"#utility.yul\":621:627   */\n  0x00\n    /* \"#utility.yul\":672:674   */\n  0x1f\n    /* \"#utility.yul\":668:675   */\n  not\n    /* \"#utility.yul\":663:665   */\n  0x1f\n    /* \"#utility.yul\":656:661   */\n  dup4\n    /* \"#utility.yul\":652:666   */\n  add\n    /* \"#utility.yul\":648:676   */\n  and\n    /* \"#utility.yul\":638:676   */\n  swap1\n  pop\n    /* \"#utility.yul\":580:682   */\n  swap2\n  swap1\n  pop\n  jump\t// out\n    /* \"#utility.yul\":688:868   */\ntag_48:\n    /* \"#utility.yul\":736:813   */\n  0x4e487b7100000000000000000000000000000000000000000000000000000000\n    /* \"#utility.yul\":733:734   */\n  0x00\n    /* \"#utility.yul\":726:814   */\n  mstore\n    /* \"#utility.yul\":833:837   */\n  0x41\n    /* \"#utility.yul\":830:831   */\n  0x04\n    /* \"#utility.yul\":823:838   */\n  mstore\n    /* \"#utility.yul\":857:861   */\n  0x24\n    /* \"#utility.yul\":854:855   */\n  0x00\n    /* \"#utility.yul\":847:862   */\n  revert\n    /* \"#utility.yul\":874:1155   */\ntag_49:\n    /* \"#utility.yul\":957:984   */\n  tag_90\n    /* \"#utility.yul\":979:983   */\n  dup3\n    /* \"#utility.yul\":957:984   */\n  tag_47\n  jump\t// in\ntag_90:\n    /* \"#utility.yul\":949:955   */\n  dup2\n    /* \"#utility.yul\":945:985   */\n  add\n    /* \"#utility.yul\":1087:1093   */\n  dup2\n    /* \"#utility.yul\":1075:1085   */\n  dup2\n    /* \"#utility.yul\":1072:1094   */\n  lt\n    /* \"#utility.yul\":1051:1069   */\n  0xffffffffffffffff\n    /* \"#utility.yul\":1039:1049   */\n  dup3\n    /* \"#utility.yul\":1036:1070   */\n  gt\n    /* \"#utility.yul\":1033:1095   */\n  or\n    /* \"#utility.yul\":1030:1118   */\n  iszero\n  tag_91\n  jumpi\n    /* \"#utility.yul\":1098:1116   */\n  tag_92\n  tag_48\n  jump\t// in\ntag_92:\n    /* \"#utility.yul\":1030:1118   */\ntag_91:\n    /* \"#utility.yul\":1138:1148   */\n  dup1\n    /* \"#utility.yul\":1134:1136   */\n  0x40\n    /* \"#utility.yul\":1127:1149   */\n  mstore\n    /* \"#utility.yul\":917:1155   */\n  pop\n    /* \"#utility.yul\":874:1155   */\n  pop\n  pop\n  jump\t// out\n    /* \"#utility.yul\":1161:1290   */\ntag_50:\n    /* \"#utility.yul\":1195:1201   */\n  0x00\n    /* \"#utility.yul\":1222:1242   */\n  tag_94\n  tag_42\n  jump\t// in\ntag_94:\n    /* \"#utility.yul\":1212:1242   */\n  swap1\n  pop\n    /* \"#utility.yul\":1251:1284   */\n  tag_95\n    /* \"#utility.yul\":1279:1283   */\n  dup3\n    /* \"#utility.yul\":1271:1277   */\n  dup3\n    /* \"#utility.yul\":1251:1284   */\n  tag_49\n  jump\t// in\ntag_95:\n    /* \"#utility.yul\":1161:1290   */\n  swap2\n  swap1\n  pop\n  jump\t// out\n    /* \"#utility.yul\":1296:1604   */\ntag_51:\n    /* \"#utility.yul\":1358:1362   */\n  0x00\n    /* \"#utility.yul\":1448:1466   */\n  0xffffffffffffffff\n    /* \"#utility.yul\":1440:1446   */\n  dup3\n    /* \"#utility.yul\":1437:1467   */\n  gt\n    /* \"#utility.yul\":1434:1490   */\n  iszero\n  tag_97\n  jumpi\n    /* \"#utility.yul\":1470:1488   */\n  tag_98\n  tag_48\n  jump\t// in\ntag_98:\n    /* \"#utility.yul\":1434:1490   */\ntag_97:\n    /* \"#utility.yul\":1508:1537   */\n  tag_99\n    /* \"#utility.yul\":1530:1536   */\n  dup3\n    /* \"#utility.yul\":1508:1537   */\n  tag_47\n  jump\t// in\ntag_99:\n    /* \"#utility.yul\":1500:1537   */\n  swap1\n  pop\n    /* \"#utility.yul\":1592:1596   */\n  0x20\n    /* \"#utility.yul\":1586:1590   */\n  dup2\n    /* \"#utility.yul\":1582:1597   */\n  add\n    /* \"#utility.yul\":1574:1597   */\n  swap1\n  pop\n    /* \"#utility.yul\":1296:1604   */\n  swap2\n  swap1\n  pop\n  jump\t// out\n    /* \"#utility.yul\":1610:1749   */\ntag_52:\n    /* \"#utility.yul\":1699:1705   */\n  dup3\n    /* \"#utility.yul\":1694:1697   */\n  dup2\n    /* \"#utility.yul\":1689:1692   */\n  dup4\n    /* \"#utility.yul\":1683:1706   */\n  mcopy\n    /* \"#utility.yul\":1740:1741   */\n  0x00\n    /* \"#utility.yul\":1731:1737   */\n  dup4\n    /* \"#utility.yul\":1726:1729   */\n  dup4\n    /* \"#utility.yul\":1722:1738   */\n  add\n    /* \"#utility.yul\":1715:1742   */\n  mstore\n    /* \"#utility.yul\":1610:1749   */\n  pop\n  pop\n  pop\n  jump\t// out\n    /* \"#utility.yul\":1755:2189   */\ntag_53:\n    /* \"#utility.yul\":1844:1849   */\n  0x00\n    /* \"#utility.yul\":1869:1935   */\n  tag_102\n    /* \"#utility.yul\":1885:1934   */\n  tag_103\n    /* \"#utility.yul\":1927:1933   */\n  dup5\n    /* \"#utility.yul\":1885:1934   */\n  tag_51\n  jump\t// in\ntag_103:\n    /* \"#utility.yul\":1869:1935   */\n  tag_50\n  jump\t// in\ntag_102:\n    /* \"#utility.yul\":1860:1935   */\n  swap1\n  pop\n    /* \"#utility.yul\":1958:1964   */\n  dup3\n    /* \"#utility.yul\":1951:1956   */\n  dup2\n    /* \"#utility.yul\":1944:1965   */\n  mstore\n    /* \"#utility.yul\":1996:2000   */\n  0x20\n    /* \"#utility.yul\":1989:1994   */\n  dup2\n    /* \"#utility.yul\":1985:2001   */\n  add\n    /* \"#utility.yul\":2034:2037   */\n  dup5\n    /* \"#utility.yul\":2025:2031   */\n  dup5\n    /* \"#utility.yul\":2020:2023   */\n  dup5\n    /* \"#utility.yul\":2016:2032   */\n  add\n    /* \"#utility.yul\":2013:2038   */\n  gt\n    /* \"#utility.yul\":2010:2122   */\n  iszero\n  tag_104\n  jumpi\n    /* \"#utility.yul\":2041:2120   */\n  tag_105\n  tag_46\n  jump\t// in\ntag_105:\n    /* \"#utility.yul\":2010:2122   */\ntag_104:\n    /* \"#utility.yul\":2131:2183   */\n  tag_106\n    /* \"#utility.yul\":2176:2182   */\n  dup5\n    /* \"#utility.yul\":2171:2174   */\n  dup3\n    /* \"#utility.yul\":2166:2169   */\n  dup6\n    /* \"#utility.yul\":2131:2183   */\n  tag_52\n  jump\t// in\ntag_106:\n    /* \"#utility.yul\":1850:2189   */\n  pop\n    /* \"#utility.yul\":1755:2189   */\n  swap4\n  swap3\n  pop\n  pop\n  pop\n  jump\t// out\n    /* \"#utility.yul\":2209:2564   */\ntag_54:\n    /* \"#utility.yul\":2276:2281   */\n  0x00\n    /* \"#utility.yul\":2325:2328   */\n  dup3\n    /* \"#utility.yul\":2318:2322   */\n  0x1f\n    /* \"#utility.yul\":2310:2316   */\n  dup4\n    /* \"#utility.yul\":2306:2323   */\n  add\n    /* \"#utility.yul\":2302:2329   */\n  slt\n    /* \"#utility.yul\":2292:2414   */\n  tag_108\n  jumpi\n    /* \"#utility.yul\":2333:2412   */\n  tag_109\n  tag_45\n  jump\t// in\ntag_109:\n    /* \"#utility.yul\":2292:2414   */\ntag_108:\n    /* \"#utility.yul\":2443:2449   */\n  dup2\n    /* \"#utility.yul\":2437:2450   */\n  mload\n    /* \"#utility.yul\":2468:2558   */\n  tag_110\n    /* \"#utility.yul\":2554:2557   */\n  dup5\n    /* \"#utility.yul\":2546:2552   */\n  dup3\n    /* \"#utility.yul\":2539:2543   */\n  0x20\n    /* \"#utility.yul\":2531:2537   */\n  dup7\n    /* \"#utility.yul\":2527:2544   */\n  add\n    /* \"#utility.yul\":2468:2558   */\n  tag_53\n  jump\t// in\ntag_110:\n    /* \"#utility.yul\":2459:2558   */\n  swap2\n  pop\n    /* \"#utility.yul\":2282:2564   */\n  pop\n    /* \"#utility.yul\":2209:2564   */\n  swap3\n  swap2\n  pop\n  pop\n  jump\t// out\n    /* \"#utility.yul\":2570:2647   */\ntag_55:\n    /* \"#utility.yul\":2607:2614   */\n  0x00\n    /* \"#utility.yul\":2636:2641   */\n  dup2\n    /* \"#utility.yul\":2625:2641   */\n  swap1\n  pop\n    /* \"#utility.yul\":2570:2647   */\n  swap2\n  swap1\n  pop\n  jump\t// out\n    /* \"#utility.yul\":2653:2775   */\ntag_56:\n    /* \"#utility.yul\":2726:2750   */\n  tag_113\n    /* \"#utility.yul\":2744:2749   */\n  dup2\n    /* \"#utility.yul\":2726:2750   */\n  tag_55\n  jump\t// in\ntag_113:\n    /* \"#utility.yul\":2719:2724   */\n  dup2\n    /* \"#utility.yul\":2716:2751   */\n  eq\n    /* \"#utility.yul\":2706:2769   */\n  tag_114\n  jumpi\n    /* \"#utility.yul\":2765:2766   */\n  0x00\n    /* \"#utility.yul\":2762:2763   */\n  0x00\n    /* \"#utility.yul\":2755:2767   */\n  revert\n    /* \"#utility.yul\":2706:2769   */\ntag_114:\n    /* \"#utility.yul\":2653:2775   */\n  pop\n  jump\t// out\n    /* \"#utility.yul\":2781:2924   */\ntag_57:\n    /* \"#utility.yul\":2838:2843   */\n  0x00\n    /* \"#utility.yul\":2869:2875   */\n  dup2\n    /* \"#utility.yul\":2863:2876   */\n  mload\n    /* \"#utility.yul\":2854:2876   */\n  swap1\n  pop\n    /* \"#utility.yul\":2885:2918   */\n  tag_116\n    /* \"#utility.yul\":2912:2917   */\n  dup2\n    /* \"#utility.yul\":2885:2918   */\n  tag_56\n  jump\t// in\ntag_116:\n    /* \"#utility.yul\":2781:2924   */\n  swap3\n  swap2\n  pop\n  pop\n  jump\t// out\n    /* \"#utility.yul\":2930:4096   */\ntag_3:\n    /* \"#utility.yul\":3047:3053   */\n  0x00\n    /* \"#utility.yul\":3055:3061   */\n  0x00\n    /* \"#utility.yul\":3063:3069   */\n  0x00\n    /* \"#utility.yul\":3071:3077   */\n  0x00\n    /* \"#utility.yul\":3120:3123   */\n  0x80\n    /* \"#utility.yul\":3108:3117   */\n  dup6\n    /* \"#utility.yul\":3099:3106   */\n  dup8\n    /* \"#utility.yul\":3095:3118   */\n  sub\n    /* \"#utility.yul\":3091:3124   */\n  slt\n    /* \"#utility.yul\":3088:3208   */\n  iszero\n  tag_118\n  jumpi\n    /* \"#utility.yul\":3127:3206   */\n  tag_119\n  tag_43\n  jump\t// in\ntag_119:\n    /* \"#utility.yul\":3088:3208   */\ntag_118:\n    /* \"#utility.yul\":3268:3269   */\n  0x00\n    /* \"#utility.yul\":3257:3266   */\n  dup6\n    /* \"#utility.yul\":3253:3270   */\n  add\n    /* \"#utility.yul\":3247:3271   */\n  mload\n    /* \"#utility.yul\":3298:3316   */\n  0xffffffffffffffff\n    /* \"#utility.yul\":3290:3296   */\n  dup2\n    /* \"#utility.yul\":3287:3317   */\n  gt\n    /* \"#utility.yul\":3284:3401   */\n  iszero\n  tag_120\n  jumpi\n    /* \"#utility.yul\":3320:3399   */\n  tag_121\n  tag_44\n  jump\t// in\ntag_121:\n    /* \"#utility.yul\":3284:3401   */\ntag_120:\n    /* \"#utility.yul\":3425:3499   */\n  tag_122\n    /* \"#utility.yul\":3491:3498   */\n  dup8\n    /* \"#utility.yul\":3482:3488   */\n  dup3\n    /* \"#utility.yul\":3471:3480   */\n  dup9\n    /* \"#utility.yul\":3467:3489   */\n  add\n    /* \"#utility.yul\":3425:3499   */\n  tag_54\n  jump\t// in\ntag_122:\n    /* \"#utility.yul\":3415:3499   */\n  swap5\n  pop\n    /* \"#utility.yul\":3218:3509   */\n  pop\n    /* \"#utility.yul\":3569:3571   */\n  0x20\n    /* \"#utility.yul\":3558:3567   */\n  dup6\n    /* \"#utility.yul\":3554:3572   */\n  add\n    /* \"#utility.yul\":3548:3573   */\n  mload\n    /* \"#utility.yul\":3600:3618   */\n  0xffffffffffffffff\n    /* \"#utility.yul\":3592:3598   */\n  dup2\n    /* \"#utility.yul\":3589:3619   */\n  gt\n    /* \"#utility.yul\":3586:3703   */\n  iszero\n  tag_123\n  jumpi\n    /* \"#utility.yul\":3622:3701   */\n  tag_124\n  tag_44\n  jump\t// in\ntag_124:\n    /* \"#utility.yul\":3586:3703   */\ntag_123:\n    /* \"#utility.yul\":3727:3801   */\n  tag_125\n    /* \"#utility.yul\":3793:3800   */\n  dup8\n    /* \"#utility.yul\":3784:3790   */\n  dup3\n    /* \"#utility.yul\":3773:3782   */\n  dup9\n    /* \"#utility.yul\":3769:3791   */\n  add\n    /* \"#utility.yul\":3727:3801   */\n  tag_54\n  jump\t// in\ntag_125:\n    /* \"#utility.yul\":3717:3801   */\n  swap4\n  pop\n    /* \"#utility.yul\":3519:3811   */\n  pop\n    /* \"#utility.yul\":3850:3852   */\n  0x40\n    /* \"#utility.yul\":3876:3940   */\n  tag_126\n    /* \"#utility.yul\":3932:3939   */\n  dup8\n    /* \"#utility.yul\":3923:3929   */\n  dup3\n    /* \"#utility.yul\":3912:3921   */\n  dup9\n    /* \"#utility.yul\":3908:3930   */\n  add\n    /* \"#utility.yul\":3876:3940   */\n  tag_57\n  jump\t// in\ntag_126:\n    /* \"#utility.yul\":3866:3940   */\n  swap3\n  pop\n    /* \"#utility.yul\":3821:3950   */\n  pop\n    /* \"#utility.yul\":3989:3991   */\n  0x60\n    /* \"#utility.yul\":4015:4079   */\n  tag_127\n    /* \"#utility.yul\":4071:4078   */\n  dup8\n    /* \"#utility.yul\":4062:4068   */\n  dup3\n    /* \"#utility.yul\":4051:4060   */\n  dup9\n    /* \"#utility.yul\":4047:4069   */\n  add\n    /* \"#utility.yul\":4015:4079   */\n  tag_57\n  jump\t// in\ntag_127:\n    /* \"#utility.yul\":4005:4079   */\n  swap2\n  pop\n    /* \"#utility.yul\":3960:4089   */\n  pop\n    /* \"#utility.yul\":2930:4096   */\n  swap3\n  swap6\n  swap2\n  swap5\n  pop\n  swap3\n  pop\n  jump\t// out\n    /* \"#utility.yul\":4102:4201   */\ntag_58:\n    /* \"#utility.yul\":4154:4160   */\n  0x00\n    /* \"#utility.yul\":4188:4193   */\n  dup2\n    /* \"#utility.yul\":4182:4194   */\n  mload\n    /* \"#utility.yul\":4172:4194   */\n  swap1\n  pop\n    /* \"#utility.yul\":4102:4201   */\n  swap2\n  swap1\n  pop\n  jump\t// out\n    /* \"#utility.yul\":4207:4387   */\ntag_59:\n    /* \"#utility.yul\":4255:4332   */\n  0x4e487b7100000000000000000000000000000000000000000000000000000000\n    /* \"#utility.yul\":4252:4253   */\n  0x00\n    /* \"#utility.yul\":4245:4333   */\n  mstore\n    /* \"#utility.yul\":4352:4356   */\n  0x22\n    /* \"#utility.yul\":4349:4350   */\n  0x04\n    /* \"#utility.yul\":4342:4357   */\n  mstore\n    /* \"#utility.yul\":4376:4380   */\n  0x24\n    /* \"#utility.yul\":4373:4374   */\n  0x00\n    /* \"#utility.yul\":4366:4381   */\n  revert\n    /* \"#utility.yul\":4393:4713   */\ntag_60:\n    /* \"#utility.yul\":4437:4443   */\n  0x00\n    /* \"#utility.yul\":4474:4475   */\n  0x02\n    /* \"#utility.yul\":4468:4472   */\n  dup3\n    /* \"#utility.yul\":4464:4476   */\n  div\n    /* \"#utility.yul\":4454:4476   */\n  swap1\n  pop\n    /* \"#utility.yul\":4521:4522   */\n  0x01\n    /* \"#utility.yul\":4515:4519   */\n  dup3\n    /* \"#utility.yul\":4511:4523   */\n  and\n    /* \"#utility.yul\":4542:4560   */\n  dup1\n    /* \"#utility.yul\":4532:4613   */\n  tag_131\n  jumpi\n    /* \"#utility.yul\":4598:4602   */\n  0x7f\n    /* \"#utility.yul\":4590:4596   */\n  dup3\n    /* \"#utility.yul\":4586:4603   */\n  and\n    /* \"#utility.yul\":4576:4603   */\n  swap2\n  pop\n    /* \"#utility.yul\":4532:4613   */\ntag_131:\n    /* \"#utility.yul\":4660:4662   */\n  0x20\n    /* \"#utility.yul\":4652:4658   */\n  dup3\n    /* \"#utility.yul\":4649:4663   */\n  lt\n    /* \"#utility.yul\":4629:4647   */\n  dup2\n    /* \"#utility.yul\":4626:4664   */\n  sub\n    /* \"#utility.yul\":4623:4707   */\n  tag_132\n  jumpi\n    /* \"#utility.yul\":4679:4697   */\n  tag_133\n  tag_59\n  jump\t// in\ntag_133:\n    /* \"#utility.yul\":4623:4707   */\ntag_132:\n    /* \"#utility.yul\":4444:4713   */\n  pop\n    /* \"#utility.yul\":4393:4713   */\n  swap2\n  swap1\n  pop\n  jump\t// out\n    /* \"#utility.yul\":4719:4860   */\ntag_61:\n    /* \"#utility.yul\":4768:4772   */\n  0x00\n    /* \"#utility.yul\":4791:4794   */\n  dup2\n    /* \"#utility.yul\":4783:4794   */\n  swap1\n  pop\n    /* \"#utility.yul\":4814:4817   */\n  dup2\n    /* \"#utility.yul\":4811:4812   */\n  0x00\n    /* \"#utility.yul\":4804:4818   */\n  mstore\n    /* \"#utility.yul\":4848:4852   */\n  0x20\n    /* \"#utility.yul\":4845:4846   */\n  0x00\n    /* \"#utility.yul\":4835:4853   */\n  keccak256\n    /* \"#utility.yul\":4827:4853   */\n  swap1\n  pop\n    /* \"#utility.yul\":4719:4860   */\n  swap2\n  swap1\n  pop\n  jump\t// out\n    /* \"#utility.yul\":4866:4959   */\ntag_62:\n    /* \"#utility.yul\":4903:4909   */\n  0x00\n    /* \"#utility.yul\":4950:4952   */\n  0x20\n    /* \"#utility.yul\":4945:4947   */\n  0x1f\n    /* \"#utility.yul\":4938:4943   */\n  dup4\n    /* \"#utility.yul\":4934:4948   */\n  add\n    /* \"#utility.yul\":4930:4953   */\n  div\n    /* \"#utility.yul\":4920:4953   */\n  swap1\n  pop\n    /* \"#utility.yul\":4866:4959   */\n  swap2\n  swap1\n  pop\n  jump\t// out\n    /* \"#utility.yul\":4965:5072   */\ntag_63:\n    /* \"#utility.yul\":5009:5017   */\n  0x00\n    /* \"#utility.yul\":5059:5064   */\n  dup3\n    /* \"#utility.yul\":5053:5057   */\n  dup3\n    /* \"#utility.yul\":5049:5065   */\n  shl\n    /* \"#utility.yul\":5028:5065   */\n  swap1\n  pop\n    /* \"#utility.yul\":4965:5072   */\n  swap3\n  swap2\n  pop\n  pop\n  jump\t// out\n    /* \"#utility.yul\":5078:5471   */\ntag_64:\n    /* \"#utility.yul\":5147:5153   */\n  0x00\n    /* \"#utility.yul\":5197:5198   */\n  0x08\n    /* \"#utility.yul\":5185:5195   */\n  dup4\n    /* \"#utility.yul\":5181:5199   */\n  mul\n    /* \"#utility.yul\":5220:5317   */\n  tag_138\n    /* \"#utility.yul\":5250:5316   */\n  0xffffffffffffffffffffffffffffffffffffffffffffffffffffffffffffffff\n    /* \"#utility.yul\":5239:5248   */\n  dup3\n    /* \"#utility.yul\":5220:5317   */\n  tag_63\n  jump\t// in\ntag_138:\n    /* \"#utility.yul\":5338:5377   */\n  tag_139\n    /* \"#utility.yul\":5368:5376   */\n  dup7\n    /* \"#utility.yul\":5357:5366   */\n  dup4\n    /* \"#utility.yul\":5338:5377   */\n  tag_63\n  jump\t// in\ntag_139:\n    /* \"#utility.yul\":5326:5377   */\n  swap6\n  pop\n    /* \"#utility.yul\":5410:5414   */\n  dup1\n    /* \"#utility.yul\":5406:5415   */\n  not\n    /* \"#utility.yul\":5399:5404   */\n  dup5\n    /* \"#utility.yul\":5395:5416   */\n  and\n    /* \"#utility.yul\":5386:5416   */\n  swap4\n  pop\n    /* \"#utility.yul\":5459:5463   */\n  dup1\n    /* \"#utility.yul\":5449:5457   */\n  dup7\n    /* \"#utility.yul\":5445:5464   */\n  and\n    /* \"#utility.yul\":5438:5443   */\n  dup5\n    /* \"#utility.yul\":5435:5465   */\n  or\n    /* \"#utility.yul\":5425:5465   */\n  swap3\n  pop\n    /* \"#utility.yul\":5154:5471   */\n  pop\n  pop\n    /* \"#utility.yul\":5078:5471   */\n  swap4\n  swap3\n  pop\n  pop\n  pop\n  jump\t// out\n    /* \"#utility.yul\":5477:5537   */\ntag_65:\n    /* \"#utility.yul\":5505:5508   */\n  0x00\n    /* \"#utility.yul\":5526:5531   */\n  dup2\n    /* \"#utility.yul\":5519:5531   */\n  swap1\n  pop\n    /* \"#utility.yul\":5477:5537   */\n  swap2\n  swap1\n  pop\n  jump\t// out\n    /* \"#utility.yul\":5543:5685   */\ntag_66:\n    /* \"#utility.yul\":5593:5602   */\n  0x00\n    /* \"#utility.yul\":5626:5679   */\n  tag_142\n    /* \"#utility.yul\":5644:5678   */\n  tag_143\n    /* \"#utility.yul\":5653:5677   */\n  tag_144\n    /* \"#utility.yul\":5671:5676   */\n  dup5\n    /* \"#utility.yul\":5653:5677   */\n  tag_55\n  jump\t// in\ntag_144:\n    /* \"#utility.yul\":5644:5678   */\n  tag_65\n  jump\t// in\ntag_143:\n    /* \"#utility.yul\":5626:5679   */\n  tag_55\n  jump\t// in\ntag_142:\n    /* \"#utility.yul\":5613:5679   */\n  swap1\n  pop\n    /* \"#utility.yul\":5543:5685   */\n  swap2\n  swap1\n  pop\n  jump\t// out\n    /* \"#utility.yul\":5691:5766   */\ntag_67:\n    /* \"#utility.yul\":5734:5737   */\n  0x00\n    /* \"#utility.yul\":5755:5760   */\n  dup2\n    /* \"#utility.yul\":5748:5760   */\n  swap1\n  pop\n    /* \"#utility.yul\":5691:5766   */\n  swap2\n  swap1\n  pop\n  jump\t// out\n    /* \"#utility.yul\":5772:6041   */\ntag_68:\n    /* \"#utility.yul\":5882:5921   */\n  tag_147\n    /* \"#utility.yul\":5913:5920   */\n  dup4\n    /* \"#utility.yul\":5882:5921   */\n  tag_66\n  jump\t// in\ntag_147:\n    /* \"#utility.yul\":5943:6034   */\n  tag_148\n    /* \"#utility.yul\":5992:6033   */\n  tag_149\n    /* \"#utility.yul\":6016:6032   */\n  dup3\n    /* \"#utility.yul\":5992:6033   */\n  tag_67\n  jump\t// in\ntag_149:\n    /* \"#utility.yul\":5984:5990   */\n  dup5\n    /* \"#utility.yul\":5977:5981   */\n  dup5\n    /* \"#utility.yul\":5971:5982   */\n  sload\n    /* \"#utility.yul\":5943:6034   */\n  tag_64\n  jump\t// in\ntag_148:\n    /* \"#utility.yul\":5937:5941   */\n  dup3\n    /* \"#utility.yul\":5930:6035   */\n  sstore\n    /* \"#utility.yul\":5848:6041   */\n  pop\n    /* \"#utility.yul\":5772:6041   */\n  pop\n  pop\n  pop\n  jump\t// out\n    /* \"#utility.yul\":6047:6120   */\ntag_69:\n    /* \"#utility.yul\":6092:6095   */\n  0x00\n    /* \"#utility.yul\":6113:6114   */\n  0x00\n    /* \"#utility.yul\":6106:6114   */\n  swap1\n  pop\n    /* \"#utility.yul\":6047:6120   */\n  swap1\n  jump\t// out\n    /* \"#utility.yul\":6126:6315   */\ntag_70:\n    /* \"#utility.yul\":6203:6235   */\n  tag_152\n  tag_69\n  jump\t// in\ntag_152:\n    /* \"#utility.yul\":6244:6309   */\n  tag_153\n    /* \"#utility.yul\":6302:6308   */\n  dup2\n    /* \"#utility.yul\":6294:6300   */\n  dup5\n    /* \"#utility.yul\":6288:6292   */\n  dup5\n    /* \"#utility.yul\":6244:6309   */\n  tag_68\n  jump\t// in\ntag_153:\n    /* \"#utility.yul\":6179:6315   */\n  pop\n    /* \"#utility.yul\":6126:6315   */\n  pop\n  pop\n  jump\t// out\n    /* \"#utility.yul\":6321:6507   */\ntag_71:\n    /* \"#utility.yul\":6381:6501   */\ntag_155:\n    /* \"#utility.yul\":6398:6401   */\n  dup2\n    /* \"#utility.yul\":6391:6396   */\n  dup2\n    /* \"#utility.yul\":6388:6402   */\n  lt\n    /* \"#utility.yul\":6381:6501   */\n  iszero\n  tag_157\n  jumpi\n    /* \"#utility.yul\":6452:6491   */\n  tag_158\n    /* \"#utility.yul\":6489:6490   */\n  0x00\n    /* \"#utility.yul\":6482:6487   */\n  dup3\n    /* \"#utility.yul\":6452:6491   */\n  tag_70\n  jump\t// in\ntag_158:\n    /* \"#utility.yul\":6425:6426   */\n  0x01\n    /* \"#utility.yul\":6418:6423   */\n  dup2\n    /* \"#utility.yul\":6414:6427   */\n  add\n    /* \"#utility.yul\":6405:6427   */\n  swap1\n  pop\n    /* \"#utility.yul\":6381:6501   */\n  jump(tag_155)\ntag_157:\n    /* \"#utility.yul\":6321:6507   */\n  pop\n  pop\n  jump\t// out\n    /* \"#utility.yul\":6513:7056   */\ntag_72:\n    /* \"#utility.yul\":6614:6616   */\n  0x1f\n    /* \"#utility.yul\":6609:6612   */\n  dup3\n    /* \"#utility.yul\":6606:6617   */\n  gt\n    /* \"#utility.yul\":6603:7049   */\n  iszero\n  tag_160\n  jumpi\n    /* \"#utility.yul\":6648:6686   */\n  tag_161\n    /* \"#utility.yul\":6680:6685   */\n  dup2\n    /* \"#utility.yul\":6648:6686   */\n  tag_61\n  jump\t// in\ntag_161:\n    /* \"#utility.yul\":6732:6761   */\n  tag_162\n    /* \"#utility.yul\":6750:6760   */\n  dup5\n    /* \"#utility.yul\":6732:6761   */\n  tag_62\n  jump\t// in\ntag_162:\n    /* \"#utility.yul\":6722:6730   */\n  dup2\n    /* \"#utility.yul\":6718:6762   */\n  add\n    /* \"#utility.yul\":6915:6917   */\n  0x20\n    /* \"#utility.yul\":6903:6913   */\n  dup6\n    /* \"#utility.yul\":6900:6918   */\n  lt\n    /* \"#utility.yul\":6897:6946   */\n  iszero\n  tag_163\n  jumpi\n    /* \"#utility.yul\":6936:6944   */\n  dup2\n    /* \"#utility.yul\":6921:6944   */\n  swap1\n  pop\n    /* \"#utility.yul\":6897:6946   */\ntag_163:\n    /* \"#utility.yul\":6959:7039   */\n  tag_164\n    /* \"#utility.yul\":7015:7037   */\n  tag_165\n    /* \"#utility.yul\":7033:7036   */\n  dup6\n    /* \"#utility.yul\":7015:7037   */\n  tag_62\n  jump\t// in\ntag_165:\n    /* \"#utility.yul\":7005:7013   */\n  dup4\n    /* \"#utility.yul\":7001:7038   */\n  add\n    /* \"#utility.yul\":6988:6999   */\n  dup3\n    /* \"#utility.yul\":6959:7039   */\n  tag_71\n  jump\t// in\ntag_164:\n    /* \"#utility.yul\":6618:7049   */\n  pop\n  pop\n    /* \"#utility.yul\":6603:7049   */\ntag_160:\n    /* \"#utility.yul\":6513:7056   */\n  pop\n  pop\n  pop\n  jump\t// out\n    /* \"#utility.yul\":7062:7179   */\ntag_73:\n    /* \"#utility.yul\":7116:7124   */\n  0x00\n    /* \"#utility.yul\":7166:7171   */\n  dup3\n    /* \"#utility.yul\":7160:7164   */\n  dup3\n    /* \"#utility.yul\":7156:7172   */\n  shr\n    /* \"#utility.yul\":7135:7172   */\n  swap1\n  pop\n    /* \"#utility.yul\":7062:7179   */\n  swap3\n  swap2\n  pop\n  pop\n  jump\t// out\n    /* \"#utility.yul\":7185:7354   */\ntag_74:\n    /* \"#utility.yul\":7229:7235   */\n  0x00\n    /* \"#utility.yul\":7262:7313   */\n  tag_168\n    /* \"#utility.yul\":7310:7311   */\n  0x00\n    /* \"#utility.yul\":7306:7312   */\n  not\n    /* \"#utility.yul\":7298:7303   */\n  dup5\n    /* \"#utility.yul\":7295:7296   */\n  0x08\n    /* \"#utility.yul\":7291:7304   */\n  mul\n    /* \"#utility.yul\":7262:7313   */\n  tag_73\n  jump\t// in\ntag_168:\n    /* \"#utility.yul\":7258:7314   */\n  not\n    /* \"#utility.yul\":7343:7347   */\n  dup1\n    /* \"#utility.yul\":7337:7341   */\n  dup4\n    /* \"#utility.yul\":7333:7348   */\n  and\n    /* \"#utility.yul\":7323:7348   */\n  swap2\n  pop\n    /* \"#utility.yul\":7236:7354   */\n  pop\n    /* \"#utility.yul\":7185:7354   */\n  swap3\n  swap2\n  pop\n  pop\n  jump\t// out\n    /* \"#utility.yul\":7359:7654   */\ntag_75:\n    /* \"#utility.yul\":7435:7439   */\n  0x00\n    /* \"#utility.yul\":7581:7610   */\n  tag_170\n    /* \"#utility.yul\":7606:7609   */\n  dup4\n    /* \"#utility.yul\":7600:7604   */\n  dup4\n    /* \"#utility.yul\":7581:7610   */\n  tag_74\n  jump\t// in\ntag_170:\n    /* \"#utility.yul\":7573:7610   */\n  swap2\n  pop\n    /* \"#utility.yul\":7643:7646   */\n  dup3\n    /* \"#utility.yul\":7640:7641   */\n  0x02\n    /* \"#utility.yul\":7636:7647   */\n  mul\n    /* \"#utility.yul\":7630:7634   */\n  dup3\n    /* \"#utility.yul\":7627:7648   */\n  or\n    /* \"#utility.yul\":7619:7648   */\n  swap1\n  pop\n    /* \"#utility.yul\":7359:7654   */\n  swap3\n  swap2\n  pop\n  pop\n  jump\t// out\n    /* \"#utility.yul\":7659:9054   */\ntag_9:\n    /* \"#utility.yul\":7776:7813   */\n  tag_172\n    /* \"#utility.yul\":7809:7812   */\n  dup3\n    /* \"#utility.yul\":7776:7813   */\n  tag_58\n  jump\t// in\ntag_172:\n    /* \"#utility.yul\":7878:7896   */\n  0xffffffffffffffff\n    /* \"#utility.yul\":7870:7876   */\n  dup2\n    /* \"#utility.yul\":7867:7897   */\n  gt\n    /* \"#utility.yul\":7864:7920   */\n  iszero\n  tag_173\n  jumpi\n    /* \"#utility.yul\":7900:7918   */\n  tag_174\n  tag_48\n  jump\t// in\ntag_174:\n    /* \"#utility.yul\":7864:7920   */\ntag_173:\n    /* \"#utility.yul\":7944:7982   */\n  tag_175\n    /* \"#utility.yul\":7976:7980   */\n  dup3\n    /* \"#utility.yul\":7970:7981   */\n  sload\n    /* \"#utility.yul\":7944:7982   */\n  tag_60\n  jump\t// in\ntag_175:\n    /* \"#utility.yul\":8029:8096   */\n  tag_176\n    /* \"#utility.yul\":8089:8095   */\n  dup3\n    /* \"#utility.yul\":8081:8087   */\n  dup3\n    /* \"#utility.yul\":8075:8079   */\n  dup6\n    /* \"#utility.yul\":8029:8096   */\n  tag_72\n  jump\t// in\ntag_176:\n    /* \"#utility.yul\":8123:8124   */\n  0x00\n    /* \"#utility.yul\":8147:8151   */\n  0x20\n    /* \"#utility.yul\":8134:8151   */\n  swap1\n  pop\n    /* \"#utility.yul\":8179:8181   */\n  0x1f\n    /* \"#utility.yul\":8171:8177   */\n  dup4\n    /* \"#utility.yul\":8168:8182   */\n  gt\n    /* \"#utility.yul\":8196:8197   */\n  0x01\n    /* \"#utility.yul\":8191:8809   */\n  dup2\n  eq\n  tag_178\n  jumpi\n    /* \"#utility.yul\":8853:8854   */\n  0x00\n    /* \"#utility.yul\":8870:8876   */\n  dup5\n    /* \"#utility.yul\":8867:8944   */\n  iszero\n  tag_179\n  jumpi\n    /* \"#utility.yul\":8919:8928   */\n  dup3\n    /* \"#utility.yul\":8914:8917   */\n  dup8\n    /* \"#utility.yul\":8910:8929   */\n  add\n    /* \"#utility.yul\":8904:8930   */\n  mload\n    /* \"#utility.yul\":8895:8930   */\n  swap1\n  pop\n    /* \"#utility.yul\":8867:8944   */\ntag_179:\n    /* \"#utility.yul\":8970:9037   */\n  tag_180\n    /* \"#utility.yul\":9030:9036   */\n  dup6\n    /* \"#utility.yul\":9023:9028   */\n  dup3\n    /* \"#utility.yul\":8970:9037   */\n  tag_75\n  jump\t// in\ntag_180:\n    /* \"#utility.yul\":8964:8968   */\n  dup7\n    /* \"#utility.yul\":8957:9038   */\n  sstore\n    /* \"#utility.yul\":8826:9048   */\n  pop\n    /* \"#utility.yul\":8161:9048   */\n  jump(tag_177)\n    /* \"#utility.yul\":8191:8809   */\ntag_178:\n    /* \"#utility.yul\":8243:8247   */\n  0x1f\n    /* \"#utility.yul\":8239:8248   */\n  not\n    /* \"#utility.yul\":8231:8237   */\n  dup5\n    /* \"#utility.yul\":8227:8249   */\n  and\n    /* \"#utility.yul\":8277:8314   */\n  tag_181\n    /* \"#utility.yul\":8309:8313   */\n  dup7\n    /* \"#utility.yul\":8277:8314   */\n  tag_61\n  jump\t// in\ntag_181:\n    /* \"#utility.yul\":8336:8337   */\n  0x00\n    /* \"#utility.yul\":8350:8558   */\ntag_182:\n    /* \"#utility.yul\":8364:8371   */\n  dup3\n    /* \"#utility.yul\":8361:8362   */\n  dup2\n    /* \"#utility.yul\":8358:8372   */\n  lt\n    /* \"#utility.yul\":8350:8558   */\n  iszero\n  tag_184\n  jumpi\n    /* \"#utility.yul\":8443:8452   */\n  dup5\n    /* \"#utility.yul\":8438:8441   */\n  dup10\n    /* \"#utility.yul\":8434:8453   */\n  add\n    /* \"#utility.yul\":8428:8454   */\n  mload\n    /* \"#utility.yul\":8420:8426   */\n  dup3\n    /* \"#utility.yul\":8413:8455   */\n  sstore\n    /* \"#utility.yul\":8494:8495   */\n  0x01\n    /* \"#utility.yul\":8486:8492   */\n  dup3\n    /* \"#utility.yul\":8482:8496   */\n  add\n    /* \"#utility.yul\":8472:8496   */\n  swap2\n  pop\n    /* \"#utility.yul\":8541:8543   */\n  0x20\n    /* \"#utility.yul\":8530:8539   */\n  dup6\n    /* \"#utility.yul\":8526:8544   */\n  add\n    /* \"#utility.yul\":8513:8544   */\n  swap5\n  pop\n    /* \"#utility.yul\":8387:8391   */\n  0x20\n    /* \"#utility.yul\":8384:8385   */\n  dup2\n    /* \"#utility.yul\":8380:8392   */\n  add\n    /* \"#utility.yul\":8375:8392   */\n  swap1\n  pop\n    /* \"#utility.yul\":8350:8558   */\n  jump(tag_182)\ntag_184:\n    /* \"#utility.yul\":8586:8592   */\n  dup7\n    /* \"#utility.yul\":8577:8584   */\n  dup4\n    /* \"#utility.yul\":8574:8593   */\n  lt\n    /* \"#utility.yul\":8571:8750   */\n  iszero\n  tag_185\n  jumpi\n    /* \"#utility.yul\":8644:8653   */\n  dup5\n    /* \"#utility.yul\":8639:8642   */\n  dup10\n    /* \"#utility.yul\":8635:8654   */\n  add\n    /* \"#utility.yul\":8629:8655   */\n  mload\n    /* \"#utility.yul\":8687:8735   */\n  tag_186\n    /* \"#utility.yul\":8729:8733   */\n  0x1f\n    /* \"#utility.yul\":8721:8727   */\n  dup10\n    /* \"#utility.yul\":8717:8734   */\n  and\n    /* \"#utility.yul\":8706:8715   */\n  dup3\n    /* \"#utility.yul\":8687:8735   */\n  tag_74\n  jump\t// in\ntag_186:\n    /* \"#utility.yul\":8679:8685   */\n  dup4\n    /* \"#utility.yul\":8672:8736   */\n  sstore\n    /* \"#utility.yul\":8594:8750   */\n  pop\n    /* \"#utility.yul\":8571:8750   */\ntag_185:\n    /* \"#utility.yul\":8796:8797   */\n  0x01\n    /* \"#utility.yul\":8792:8793   */\n  0x02\n    /* \"#utility.yul\":8784:8790   */\n  dup9\n    /* \"#utility.yul\":8780:8794   */\n  mul\n    /* \"#utility.yul\":8776:8798   */\n  add\n    /* \"#utility.yul\":8770:8774   */\n  dup9\n    /* \"#utility.yul\":8763:8799   */\n  sstore\n    /* \"#utility.yul\":8198:8809   */\n  pop\n  pop\n  pop\n    /* \"#utility.yul\":8161:9048   */\ntag_177:\n  pop\n    /* \"#utility.yul\":7751:9054   */\n  pop\n  pop\n  pop\n    /* \"#utility.yul\":7659:9054   */\n  pop\n  pop\n  jump\t// out\n    /* \"#utility.yul\":9060:9186   */\ntag_76:\n    /* \"#utility.yul\":9097:9104   */\n  0x00\n    /* \"#utility.yul\":9137:9179   */\n  0xffffffffffffffffffffffffffffffffffffffff\n    /* \"#utility.yul\":9130:9135   */\n  dup3\n    /* \"#utility.yul\":9126:9180   */\n  and\n    /* \"#utility.yul\":9115:9180   */\n  swap1\n  pop\n    /* \"#utility.yul\":9060:9186   */\n  swap2\n  swap1\n  pop\n  jump\t// out\n    /* \"#utility.yul\":9192:9288   */\ntag_77:\n    /* \"#utility.yul\":9229:9236   */\n  0x00\n    /* \"#utility.yul\":9258:9282   */\n  tag_189\n    /* \"#utility.yul\":9276:9281   */\n  dup3\n    /* \"#utility.yul\":9258:9282   */\n  tag_76\n  jump\t// in\ntag_189:\n    /* \"#utility.yul\":9247:9282   */\n  swap1\n  pop\n    /* \"#utility.yul\":9192:9288   */\n  swap2\n  swap1\n  pop\n  jump\t// out\n    /* \"#utility.yul\":9294:9412   */\ntag_78:\n    /* \"#utility.yul\":9381:9405   */\n  tag_191\n    /* \"#utility.yul\":9399:9404   */\n  dup2\n    /* \"#utility.yul\":9381:9405   */\n  tag_77\n  jump\t// in\ntag_191:\n    /* \"#utility.yul\":9376:9379   */\n  dup3\n    /* \"#utility.yul\":9369:9406   */\n  mstore\n    /* \"#utility.yul\":9294:9412   */\n  pop\n  pop\n  jump\t// out\n    /* \"#utility.yul\":9418:9640   */\ntag_14:\n    /* \"#utility.yul\":9511:9515   */\n  0x00\n    /* \"#utility.yul\":9549:9551   */\n  0x20\n    /* \"#utility.yul\":9538:9547   */\n  dup3\n    /* \"#utility.yul\":9534:9552   */\n  add\n    /* \"#utility.yul\":9526:9552   */\n  swap1\n  pop\n    /* \"#utility.yul\":9562:9633   */\n  tag_193\n    /* \"#utility.yul\":9630:9631   */\n  0x00\n    /* \"#utility.yul\":9619:9628   */\n  dup4\n    /* \"#utility.yul\":9615:9632   */\n  add\n    /* \"#utility.yul\":9606:9612   */\n  dup5\n    /* \"#utility.yul\":9562:9633   */\n  tag_78\n  jump\t// in\ntag_193:\n    /* \"#utility.yul\":9418:9640   */\n  swap3\n  swap2\n  pop\n  pop\n  jump\t// out\n    /* \"#utility.yul\":9646:9826   */\ntag_79:\n    /* \"#utility.yul\":9694:9771   */\n  0x4e487b7100000000000000000000000000000000000000000000000000000000\n    /* \"#utility.yul\":9691:9692   */\n  0x00\n    /* \"#utility.yul\":9684:9772   */\n  mstore\n    /* \"#utility.yul\":9791:9795   */\n  0x11\n    /* \"#utility.yul\":9788:9789   */\n  0x04\n    /* \"#utility.yul\":9781:9796   */\n  mstore\n    /* \"#utility.yul\":9815:9819   */\n  0x24\n    /* \"#utility.yul\":9812:9813   */\n  0x00\n    /* \"#utility.yul\":9805:9820   */\n  revert\n    /* \"#utility.yul\":9832:10023   */\ntag_33:\n    /* \"#utility.yul\":9872:9875   */\n  0x00\n    /* \"#utility.yul\":9891:9911   */\n  tag_196\n    /* \"#utility.yul\":9909:9910   */\n  dup3\n    /* \"#utility.yul\":9891:9911   */\n  tag_55\n  jump\t// in\ntag_196:\n    /* \"#utility.yul\":9886:9911   */\n  swap2\n  pop\n    /* \"#utility.yul\":9925:9945   */\n  tag_197\n    /* \"#utility.yul\":9943:9944   */\n  dup4\n    /* \"#utility.yul\":9925:9945   */\n  tag_55\n  jump\t// in\ntag_197:\n    /* \"#utility.yul\":9920:9945   */\n  swap3\n  pop\n    /* \"#utility.yul\":9968:9969   */\n  dup3\n    /* \"#utility.yul\":9965:9966   */\n  dup3\n    /* \"#utility.yul\":9961:9970   */\n  add\n    /* \"#utility.yul\":9954:9970   */\n  swap1\n  pop\n    /* \"#utility.yul\":9989:9992   */\n  dup1\n    /* \"#utility.yul\":9986:9987   */\n  dup3\n    /* \"#utility.yul\":9983:9993   */\n  gt\n    /* \"#utility.yul\":9980:10016   */\n  iszero\n  tag_198\n  jumpi\n    /* \"#utility.yul\":9996:10014   */\n  tag_199\n  tag_79\n  jump\t// in\ntag_199:\n    /* \"#utility.yul\":9980:10016   */\ntag_198:\n    /* \"#utility.yul\":9832:10023   */\n  swap3\n  swap2\n  pop\n  pop\n  jump\t// out\n    /* \"#utility.yul\":10029:10147   */\ntag_80:\n    /* \"#utility.yul\":10116:10140   */\n  tag_201\n    /* \"#utility.yul\":10134:10139   */\n  dup2\n    /* \"#utility.yul\":10116:10140   */\n  tag_55\n  jump\t// in\ntag_201:\n    /* \"#utility.yul\":10111:10114   */\n  dup3\n    /* \"#utility.yul\":10104:10141   */\n  mstore\n    /* \"#utility.yul\":10029:10147   */\n  pop\n  pop\n  jump\t// out\n    /* \"#utility.yul\":10153:10595   */\ntag_37:\n    /* \"#utility.yul\":10302:10306   */\n  0x00\n    /* \"#utility.yul\":10340:10342   */\n  0x60\n    /* \"#utility.yul\":10329:10338   */\n  dup3\n    /* \"#utility.yul\":10325:10343   */\n  add\n    /* \"#utility.yul\":10317:10343   */\n  swap1\n  pop\n    /* \"#utility.yul\":10353:10424   */\n  tag_203\n    /* \"#utility.yul\":10421:10422   */\n  0x00\n    /* \"#utility.yul\":10410:10419   */\n  dup4\n    /* \"#utility.yul\":10406:10423   */\n  add\n    /* \"#utility.yul\":10397:10403   */\n  dup7\n    /* \"#utility.yul\":10353:10424   */\n  tag_78\n  jump\t// in\ntag_203:\n    /* \"#utility.yul\":10434:10506   */\n  tag_204\n    /* \"#utility.yul\":10502:10504   */\n  0x20\n    /* \"#utility.yul\":10491:10500   */\n  dup4\n    /* \"#utility.yul\":10487:10505   */\n  add\n    /* \"#utility.yul\":10478:10484   */\n  dup6\n    /* \"#utility.yul\":10434:10506   */\n  tag_80\n  jump\t// in\ntag_204:\n    /* \"#utility.yul\":10516:10588   */\n  tag_205\n    /* \"#utility.yul\":10584:10586   */\n  0x40\n    /* \"#utility.yul\":10573:10582   */\n  dup4\n    /* \"#utility.yul\":10569:10587   */\n  add\n    /* \"#utility.yul\":10560:10566   */\n  dup5\n    /* \"#utility.yul\":10516:10588   */\n  tag_80\n  jump\t// in\ntag_205:\n    /* \"#utility.yul\":10153:10595   */\n  swap5\n  swap4\n  pop\n  pop\n  pop\n  pop\n  jump\t// out\n    /* \"#utility.yul\":10601:10823   */\ntag_41:\n    /* \"#utility.yul\":10694:10698   */\n  0x00\n    /* \"#utility.yul\":10732:10734   */\n  0x20\n    /* \"#utility.yul\":10721:10730   */\n  dup3\n    /* \"#utility.yul\":10717:10735   */\n  add\n    /* \"#utility.yul\":10709:10735   */\n  swap1\n  pop\n    /* \"#utility.yul\":10745:10816   */\n  tag_207\n    /* \"#utility.yul\":10813:10814   */\n  0x00\n    /* \"#utility.yul\":10802:10811   */\n  dup4\n    /* \"#utility.yul\":10798:10815   */\n  add\n    /* \"#utility.yul\":10789:10795   */\n  dup5\n    /* \"#utility.yul\":10745:10816   */\n  tag_80\n  jump\t// in\ntag_207:\n    /* \"#utility.yul\":10601:10823   */\n  swap3\n  swap2\n  pop\n  pop\n  jump\t// out\n    /* \"Somniatoken_fixed.sol\":522:3714  contract SomniaToken is ERC20, Ownable {... */\ntag_23:\n  dataSize(sub_0)\n  dup1\n  dataOffset(sub_0)\n  0x00\n  codecopy\n  0x00\n  return\nstop\n\nsub_0: assembly {\n        /* \"Somniatoken_fixed.sol\":522:3714  contract SomniaToken is ERC20, Ownable {... */\n      mstore(0x40, 0x80)\n      jumpi(tag_1, lt(calldatasize, 0x04))\n      shr(0xe0, calldataload(0x00))\n      dup1\n      0x8da5cb5b\n      gt\n      tag_24\n      jumpi\n      dup1\n      0xb84c8246\n      gt\n      tag_25\n      jumpi\n      dup1\n      0xb84c8246\n      eq\n      tag_18\n      jumpi\n      dup1\n      0xbf35588b\n      eq\n      tag_19\n      jumpi\n      dup1\n      0xc47f0027\n      eq\n      tag_20\n      jumpi\n      dup1\n      0xd0e30db0\n      eq\n      tag_21\n      jumpi\n      dup1\n      0xdd62ed3e\n      eq\n      tag_22\n      jumpi\n      dup1\n      0xf2fde38b\n      eq\n      tag_23\n      jumpi\n      jump(tag_2)\n    tag_25:\n      dup1\n      0x8da5cb5b\n      eq\n      tag_13\n      jumpi\n      dup1\n      0x95d89b41\n      eq\n      tag_14\n      jumpi\n      dup1\n      0x9dc29fac\n      eq\n      tag_15\n      jumpi\n      dup1\n      0xa9059cbb\n      eq\n      tag_16\n      jumpi\n      dup1\n      0xb2118a8d\n      eq\n      tag_17\n      jumpi\n      jump(tag_2)\n    tag_24:\n      dup1\n      0x313ce567\n      gt\n      tag_26\n      jumpi\n      dup1\n      0x313ce567\n      eq\n      tag_8\n      jumpi\n      dup1\n      0x40c10f19\n      eq\n      tag_9\n      jumpi\n      dup1\n      0x70a08231\n      eq\n      tag_10\n      jumpi\n      dup1\n      0x715018a6\n      eq\n      tag_11\n      jumpi\n      dup1\n      0x7e74a1ed\n      eq\n      tag_12\n      jumpi\n      jump(tag_2)\n    tag_26:\n      dup1\n      0x06fdde03\n      eq\n      tag_3\n      jumpi\n      dup1\n      0x07b18bde\n      eq\n      tag_4\n      jumpi\n      dup1\n      0x095ea7b3\n      eq\n      tag_5\n      jumpi\n      dup1\n      0x18160ddd\n      eq\n      tag_6\n      jumpi\n      dup1\n      0x23b872dd\n      eq\n      tag_7\n      jumpi\n      jump(tag_2)\n    tag_1:\n      jumpi(tag_2, calldatasize)\n        /* \"Somniatoken_fixed.sol\":2425:2462  _handleDeposit(msg.sender, msg.value) */\n      tag_29\n        /* \"Somniatoken_fixed.sol\":2440:2450  msg.sender */\n      caller\n        /* \"Somniatoken_fixed.sol\":2452:2461  msg.value */\n      callvalue\n        /* \"Somniatoken_fixed.sol\":2425:2439  _handleDeposit */\n      tag_30\n        /* \"Somniatoken_fixed.sol\":2425:2462  _handleDeposit(msg.sender, msg.value) */\n      jump\t// in\n    tag_29:\n        /* \"Somniatoken_fixed.sol\":522:3714  contract SomniaToken is ERC20, Ownable {... */\n      stop\n    tag_2:\n        /* \"Somniatoken_fixed.sol\":2513:2550  _handleDeposit(msg.sender, msg.value) */\n      tag_33\n        /* \"Somniatoken_fixed.sol\":2528:2538  msg.sender */\n      caller\n        /* \"Somniatoken_fixed.sol\":2540:2549  msg.value */\n      callvalue\n        /* \"Somniatoken_fixed.sol\":2513:2527  _handleDeposit */\n      tag_30\n        /* \"Somniatoken_fixed.sol\":2513:2550  _handleDeposit(msg.sender, msg.value) */\n      jump\t// in\n    tag_33:\n        /* \"Somniatoken_fixed.sol\":522:3714  contract SomniaToken is ERC20, Ownable {... */\n      stop\n        /* \"Somniatoken_fixed.sol\":1467:1563  function name() public view override returns (string memory) {... */\n    tag_3:\n      callvalue\n      dup1\n      iszero\n      tag_34\n      jumpi\n      revert(0x00, 0x00)\n    tag_34:\n      pop\n      tag_35\n      tag_36\n      jump\t// in\n    tag_35:\n      mload(0x40)\n      tag_37\n      swap2\n      swap1\n      tag_38\n      jump\t// in\n    tag_37:\n      mload(0x40)\n      dup1\n      swap2\n      sub\n      swap1\n      return\n        /* \"Somniatoken_fixed.sol\":3044:3329  function withdrawNative(address payable to, uint256 amount) external onlyOwner {... */\n    tag_4:\n      callvalue\n      dup1\n      iszero\n      tag_39\n      jumpi\n      revert(0x00, 0x00)\n    tag_39:\n      pop\n      tag_40\n      0x04\n      dup1\n      calldatasize\n      sub\n      dup2\n      add\n      swap1\n      tag_41\n      swap2\n      swap1\n      tag_42\n      jump\t// in\n    tag_41:\n      tag_43\n      jump\t// in\n    tag_40:\n      stop\n        /* \"https://github.com/OpenZeppelin/openzeppelin-contracts/blob/master/contracts/token/ERC20/ERC20.sol\":3902:4088  function approve(address spender, uint256 value) public virtual returns (bool) {... */\n    tag_5:\n      callvalue\n      dup1\n      iszero\n      tag_44\n      jumpi\n      revert(0x00, 0x00)\n    tag_44:\n      pop\n      tag_45\n      0x04\n      dup1\n      calldatasize\n      sub\n      dup2\n      add\n      swap1\n      tag_46\n      swap2\n      swap1\n      tag_47\n      jump\t// in\n    tag_46:\n      tag_48\n      jump\t// in\n    tag_45:\n      mload(0x40)\n      tag_49\n      swap2\n      swap1\n      tag_50\n      jump\t// in\n    tag_49:\n      mload(0x40)\n      dup1\n      swap2\n      sub\n      swap1\n      return\n        /* \"https://github.com/OpenZeppelin/openzeppelin-contracts/blob/master/contracts/token/ERC20/ERC20.sol\":2803:2900  function totalSupply() public view virtual returns (uint256) {... */\n    tag_6:\n      callvalue\n      dup1\n      iszero\n      tag_51\n      jumpi\n      revert(0x00, 0x00)\n    tag_51:\n      pop\n      tag_52\n      tag_53\n      jump\t// in\n    tag_52:\n      mload(0x40)\n      tag_54\n      swap2\n      swap1\n      tag_55\n      jump\t// in\n    tag_54:\n      mload(0x40)\n      dup1\n      swap2\n      sub\n      swap1\n      return\n        /* \"https://github.com/OpenZeppelin/openzeppelin-contracts/blob/master/contracts/token/ERC20/ERC20.sol\":4680:4924  function transferFrom(address from, address to, uint256 value) public virtual returns (bool) {... */\n    tag_7:\n      callvalue\n      dup1\n      iszero\n      tag_56\n      jumpi\n      revert(0x00, 0x00)\n    tag_56:\n      pop\n      tag_57\n      0x04\n      dup1\n      calldatasize\n      sub\n      dup2\n      add\n      swap1\n      tag_58\n      swap2\n      swap1\n      tag_59\n      jump\t// in\n    tag_58:\n      tag_60\n      jump\t// in\n    tag_57:\n      mload(0x40)\n      tag_61\n      swap2\n      swap1\n      tag_50\n      jump\t// in\n    tag_61:\n      mload(0x40)\n      dup1\n      swap2\n      sub\n      swap1\n      return\n        /* \"https://github.com/OpenZeppelin/openzeppelin-contracts/blob/master/contracts/token/ERC20/ERC20.sol\":2688:2770  function decimals() public view virtual returns (uint8) {... */\n    tag_8:\n      callvalue\n      dup1\n      iszero\n      tag_62\n      jumpi\n      revert(0x00, 0x00)\n    tag_62:\n      pop\n      tag_63\n      tag_64\n      jump\t// in\n    tag_63:\n      mload(0x40)\n      tag_65\n      swap2\n      swap1\n      tag_66\n      jump\t// in\n    tag_65:\n      mload(0x40)\n      dup1\n      swap2\n      sub\n      swap1\n      return\n        /* \"Somniatoken_fixed.sol\":2125:2220  function mint(address to, uint256 amount) external onlyOwner {... */\n    tag_9:\n      callvalue\n      dup1\n      iszero\n      tag_67\n      jumpi\n      revert(0x00, 0x00)\n    tag_67:\n      pop\n      tag_68\n      0x04\n      dup1\n      calldatasize\n      sub\n      dup2\n      add\n      swap1\n      tag_69\n      swap2\n      swap1\n      tag_47\n      jump\t// in\n    tag_69:\n      tag_70\n      jump\t// in\n    tag_68:\n      stop\n        /* \"https://github.com/OpenZeppelin/openzeppelin-contracts/blob/master/contracts/token/ERC20/ERC20.sol\":2933:3049  function balanceOf(address account) public view virtual returns (uint256) {... */\n    tag_10:\n      callvalue\n      dup1\n      iszero\n      tag_71\n      jumpi\n      revert(0x00, 0x00)\n    tag_71:\n      pop\n      tag_72\n      0x04\n      dup1\n      calldatasize\n      sub\n      dup2\n      add\n      swap1\n      tag_73\n      swap2\n      swap1\n      tag_74\n      jump\t// in\n    tag_73:\n      tag_75\n      jump\t// in\n    tag_72:\n      mload(0x40)\n      tag_76\n      swap2\n      swap1\n      tag_55\n      jump\t// in\n    tag_76:\n      mload(0x40)\n      dup1\n      swap2\n      sub\n      swap1\n      return\n        /* \"https://github.com/OpenZeppelin/openzeppelin-contracts/blob/master/contracts/access/Ownable.sol\":2293:2394  function renounceOwnership() public virtual onlyOwner {... */\n    tag_11:\n      callvalue\n      dup1\n      iszero\n      tag_77\n      jumpi\n      revert(0x00, 0x00)\n    tag_77:\n      pop\n      tag_78\n      tag_79\n      jump\t// in\n    tag_78:\n      stop\n        /* \"Somniatoken_fixed.sol\":633:659  uint256 public depositRate */\n    tag_12:\n      callvalue\n      dup1\n      iszero\n      tag_80\n      jumpi\n      revert(0x00, 0x00)\n    tag_80:\n      pop\n      tag_81\n      tag_82\n      jump\t// in\n    tag_81:\n      mload(0x40)\n      tag_83\n      swap2\n      swap1\n      tag_55\n      jump\t// in\n    tag_83:\n      mload(0x40)\n      dup1\n      swap2\n      sub\n      swap1\n      return\n        /* \"https://github.com/OpenZeppelin/openzeppelin-contracts/blob/master/contracts/access/Ownable.sol\":1638:1723  function owner() public view virtual returns (address) {... */\n    tag_13:\n      callvalue\n      dup1\n      iszero\n      tag_84\n      jumpi\n      revert(0x00, 0x00)\n    tag_84:\n      pop\n      tag_85\n      tag_86\n      jump\t// in\n    tag_85:\n      mload(0x40)\n      tag_87\n      swap2\n      swap1\n      tag_88\n      jump\t// in\n    tag_87:\n      mload(0x40)\n      dup1\n      swap2\n      sub\n      swap1\n      return\n        /* \"Somniatoken_fixed.sol\":1569:1669  function symbol() public view override returns (string memory) {... */\n    tag_14:\n      callvalue\n      dup1\n      iszero\n      tag_89\n      jumpi\n      revert(0x00, 0x00)\n    tag_89:\n      pop\n      tag_90\n      tag_91\n      jump\t// in\n    tag_90:\n      mload(0x40)\n      tag_92\n      swap2\n      swap1\n      tag_38\n      jump\t// in\n    tag_92:\n      mload(0x40)\n      dup1\n      swap2\n      sub\n      swap1\n      return\n        /* \"Somniatoken_fixed.sol\":2226:2325  function burn(address from, uint256 amount) external onlyOwner {... */\n    tag_15:\n      callvalue\n      dup1\n      iszero\n      tag_93\n      jumpi\n      revert(0x00, 0x00)\n    tag_93:\n      pop\n      tag_94\n      0x04\n      dup1\n      calldatasize\n      sub\n      dup2\n      add\n      swap1\n      tag_95\n      swap2\n      swap1\n      tag_47\n      jump\t// in\n    tag_95:\n      tag_96\n      jump\t// in\n    tag_94:\n      stop\n        /* \"https://github.com/OpenZeppelin/openzeppelin-contracts/blob/master/contracts/token/ERC20/ERC20.sol\":3244:3422  function transfer(address to, uint256 value) public virtual returns (bool) {... */\n    tag_16:\n      callvalue\n      dup1\n      iszero\n      tag_97\n      jumpi\n      revert(0x00, 0x00)\n    tag_97:\n      pop\n      tag_98\n      0x04\n      dup1\n      calldatasize\n      sub\n      dup2\n      add\n      swap1\n      tag_99\n      swap2\n      swap1\n      tag_47\n      jump\t// in\n    tag_99:\n      tag_100\n      jump\t// in\n    tag_98:\n      mload(0x40)\n      tag_101\n      swap2\n      swap1\n      tag_50\n      jump\t// in\n    tag_101:\n      mload(0x40)\n      dup1\n      swap2\n      sub\n      swap1\n      return\n        /* \"Somniatoken_fixed.sol\":3564:3712  function rescueERC20(address tokenAddress, address to, uint256 amount) external onlyOwner {... */\n    tag_17:\n      callvalue\n      dup1\n      iszero\n      tag_102\n      jumpi\n      revert(0x00, 0x00)\n    tag_102:\n      pop\n      tag_103\n      0x04\n      dup1\n      calldatasize\n      sub\n      dup2\n      add\n      swap1\n      tag_104\n      swap2\n      swap1\n      tag_59\n      jump\t// in\n    tag_104:\n      tag_105\n      jump\t// in\n    tag_103:\n      stop\n        /* \"Somniatoken_fixed.sol\":1894:2086  function setSymbol(string memory newSymbol) external onlyOwner {... */\n    tag_18:\n      callvalue\n      dup1\n      iszero\n      tag_106\n      jumpi\n      revert(0x00, 0x00)\n    tag_106:\n      pop\n      tag_107\n      0x04\n      dup1\n      calldatasize\n      sub\n      dup2\n      add\n      swap1\n      tag_108\n      swap2\n      swap1\n      tag_109\n      jump\t// in\n    tag_108:\n      tag_110\n      jump\t// in\n    tag_107:\n      stop\n        /* \"Somniatoken_fixed.sol\":3367:3513  function setDepositRate(uint256 newRate) external onlyOwner {... */\n    tag_19:\n      callvalue\n      dup1\n      iszero\n      tag_111\n      jumpi\n      revert(0x00, 0x00)\n    tag_111:\n      pop\n      tag_112\n      0x04\n      dup1\n      calldatasize\n      sub\n      dup2\n      add\n      swap1\n      tag_113\n      swap2\n      swap1\n      tag_114\n      jump\t// in\n    tag_113:\n      tag_115\n      jump\t// in\n    tag_112:\n      stop\n        /* \"Somniatoken_fixed.sol\":1710:1888  function setName(string memory newName) external onlyOwner {... */\n    tag_20:\n      callvalue\n      dup1\n      iszero\n      tag_116\n      jumpi\n      revert(0x00, 0x00)\n    tag_116:\n      pop\n      tag_117\n      0x04\n      dup1\n      calldatasize\n      sub\n      dup2\n      add\n      swap1\n      tag_118\n      swap2\n      swap1\n      tag_109\n      jump\t// in\n    tag_118:\n      tag_119\n      jump\t// in\n    tag_117:\n      stop\n        /* \"Somniatoken_fixed.sol\":2563:2718  function deposit() external payable returns (uint256 minted) {... */\n    tag_21:\n      tag_120\n      tag_121\n      jump\t// in\n    tag_120:\n      mload(0x40)\n      tag_122\n      swap2\n      swap1\n      tag_55\n      jump\t// in\n    tag_122:\n      mload(0x40)\n      dup1\n      swap2\n      sub\n      swap1\n      return\n        /* \"https://github.com/OpenZeppelin/openzeppelin-contracts/blob/master/contracts/token/ERC20/ERC20.sol\":3455:3595  function allowance(address owner, address spender) public view virtual returns (uint256) {... */\n    tag_22:\n      callvalue\n      dup1\n      iszero\n      tag_123\n      jumpi\n      revert(0x00, 0x00)\n    tag_123:\n      pop\n      tag_124\n      0x04\n      dup1\n      calldatasize\n      sub\n      dup2\n      add\n      swap1\n      tag_125\n      swap2\n      swap1\n      tag_126\n      jump\t// in\n    tag_125:\n      tag_127\n      jump\t// in\n    tag_124:\n      mload(0x40)\n      tag_128\n      swap2\n      swap1\n      tag_55\n      jump\t// in\n    tag_128:\n      mload(0x40)\n      dup1\n      swap2\n      sub\n      swap1\n      return\n        /* \"https://github.com/OpenZeppelin/openzeppelin-contracts/blob/master/contracts/access/Ownable.sol\":2543:2758  function transferOwnership(address newOwner) public virtual onlyOwner {... */\n    tag_23:\n      callvalue\n      dup1\n      iszero\n      tag_129\n      jumpi\n      revert(0x00, 0x00)\n    tag_129:\n      pop\n      tag_130\n      0x04\n      dup1\n      calldatasize\n      sub\n      dup2\n      add\n      swap1\n      tag_131\n      swap2\n      swap1\n      tag_74\n      jump\t// in\n    tag_131:\n      tag_132\n      jump\t// in\n    tag_130:\n      stop\n        /* \"Somniatoken_fixed.sol\":2724:3009  function _handleDeposit(address user, uint256 nativeAmount) internal {... */\n    tag_30:\n        /* \"Somniatoken_fixed.sol\":2826:2827  0 */\n      0x00\n        /* \"Somniatoken_fixed.sol\":2811:2823  nativeAmount */\n      dup2\n        /* \"Somniatoken_fixed.sol\":2811:2827  nativeAmount > 0 */\n      gt\n        /* \"Somniatoken_fixed.sol\":2803:2852  require(nativeAmount > 0, \"No native value sent\") */\n      tag_134\n      jumpi\n      mload(0x40)\n      0x08c379a000000000000000000000000000000000000000000000000000000000\n      dup2\n      mstore\n      0x04\n      add\n      tag_135\n      swap1\n      tag_136\n      jump\t// in\n    tag_135:\n      mload(0x40)\n      dup1\n      swap2\n      sub\n      swap1\n      revert\n    tag_134:\n        /* \"Somniatoken_fixed.sol\":2862:2882  uint256 tokensToMint */\n      0x00\n        /* \"Somniatoken_fixed.sol\":2900:2911  depositRate */\n      sload(0x08)\n        /* \"Somniatoken_fixed.sol\":2885:2897  nativeAmount */\n      dup3\n        /* \"Somniatoken_fixed.sol\":2885:2911  nativeAmount * depositRate */\n      tag_137\n      swap2\n      swap1\n      tag_138\n      jump\t// in\n    tag_137:\n        /* \"Somniatoken_fixed.sol\":2862:2911  uint256 tokensToMint = nativeAmount * depositRate */\n      swap1\n      pop\n        /* \"Somniatoken_fixed.sol\":2921:2946  _mint(user, tokensToMint) */\n      tag_139\n        /* \"Somniatoken_fixed.sol\":2927:2931  user */\n      dup4\n        /* \"Somniatoken_fixed.sol\":2933:2945  tokensToMint */\n      dup3\n        /* \"Somniatoken_fixed.sol\":2921:2926  _mint */\n      tag_140\n        /* \"Somniatoken_fixed.sol\":2921:2946  _mint(user, tokensToMint) */\n      jump\t// in\n    tag_139:\n        /* \"Somniatoken_fixed.sol\":2969:2973  user */\n      dup3\n        /* \"Somniatoken_fixed.sol\":2961:3002  Deposit(user, nativeAmount, tokensToMint) */\n      0xffffffffffffffffffffffffffffffffffffffff\n      and\n      0x90890809c654f11d6e72a28fa60149770a0d11ec6c92319d6ceb2bb0a4ea1a15\n        /* \"Somniatoken_fixed.sol\":2975:2987  nativeAmount */\n      dup4\n        /* \"Somniatoken_fixed.sol\":2989:3001  tokensToMint */\n      dup4\n        /* \"Somniatoken_fixed.sol\":2961:3002  Deposit(user, nativeAmount, tokensToMint) */\n      mload(0x40)\n      tag_141\n      swap3\n      swap2\n      swap1\n      tag_142\n      jump\t// in\n    tag_141:\n      mload(0x40)\n      dup1\n      swap2\n      sub\n      swap1\n      log2\n        /* \"Somniatoken_fixed.sol\":2793:3009  {... */\n      pop\n        /* \"Somniatoken_fixed.sol\":2724:3009  function _handleDeposit(address user, uint256 nativeAmount) internal {... */\n      pop\n      pop\n      jump\t// out\n        /* \"Somniatoken_fixed.sol\":1467:1563  function name() public view override returns (string memory) {... */\n    tag_36:\n        /* \"Somniatoken_fixed.sol\":1513:1526  string memory */\n      0x60\n        /* \"Somniatoken_fixed.sol\":1545:1556  _customName */\n      0x06\n        /* \"Somniatoken_fixed.sol\":1538:1556  return _customName */\n      dup1\n      sload\n      tag_144\n      swap1\n      tag_145\n      jump\t// in\n    tag_144:\n      dup1\n      0x1f\n      add\n      0x20\n      dup1\n      swap2\n      div\n      mul\n      0x20\n      add\n      mload(0x40)\n      swap1\n      dup2\n      add\n      0x40\n      mstore\n      dup1\n      swap3\n      swap2\n      swap1\n      dup2\n      dup2\n      mstore\n      0x20\n      add\n      dup3\n      dup1\n      sload\n      tag_146\n      swap1\n      tag_145\n      jump\t// in\n    tag_146:\n      dup1\n      iszero\n      tag_147\n      jumpi\n      dup1\n      0x1f\n      lt\n      tag_148\n      jumpi\n      0x0100\n      dup1\n      dup4\n      sload\n      div\n      mul\n      dup4\n      mstore\n      swap2\n      0x20\n      add\n      swap2\n      jump(tag_147)\n    tag_148:\n      dup3\n      add\n      swap2\n      swap1\n      0x00\n      mstore\n      keccak256(0x00, 0x20)\n      swap1\n    tag_149:\n      dup2\n      sload\n      dup2\n      mstore\n      swap1\n      0x01\n      add\n      swap1\n      0x20\n      add\n      dup1\n      dup4\n      gt\n      tag_149\n      jumpi\n      dup3\n      swap1\n      sub\n      0x1f\n      and\n      dup3\n      add\n      swap2\n    tag_147:\n      pop\n      pop\n      pop\n      pop\n      pop\n      swap1\n      pop\n        /* \"Somniatoken_fixed.sol\":1467:1563  function name() public view override returns (string memory) {... */\n      swap1\n      jump\t// out\n        /* \"Somniatoken_fixed.sol\":3044:3329  function withdrawNative(address payable to, uint256 amount) external onlyOwner {... */\n    tag_43:\n        /* \"https://github.com/OpenZeppelin/openzeppelin-contracts/blob/master/contracts/access/Ownable.sol\":1531:1544  _checkOwner() */\n      tag_151\n        /* \"https://github.com/OpenZeppelin/openzeppelin-contracts/blob/master/contracts/access/Ownable.sol\":1531:1542  _checkOwner */\n      tag_152\n        /* \"https://github.com/OpenZeppelin/openzeppelin-contracts/blob/master/contracts/access/Ownable.sol\":1531:1544  _checkOwner() */\n      jump\t// in\n    tag_151:\n        /* \"Somniatoken_fixed.sol\":3166:3172  amount */\n      dup1\n        /* \"Somniatoken_fixed.sol\":3141:3162  address(this).balance */\n      selfbalance\n        /* \"Somniatoken_fixed.sol\":3141:3172  address(this).balance >= amount */\n      lt\n      iszero\n        /* \"Somniatoken_fixed.sol\":3133:3197  require(address(this).balance >= amount, \"Insufficient balance\") */\n      tag_154\n      jumpi\n      mload(0x40)\n      0x08c379a000000000000000000000000000000000000000000000000000000000\n      dup2\n      mstore\n      0x04\n      add\n      tag_155\n      swap1\n      tag_156\n      jump\t// in\n    tag_155:\n      mload(0x40)\n      dup1\n      swap2\n      sub\n      swap1\n      revert\n    tag_154:\n        /* \"Somniatoken_fixed.sol\":3208:3215  bool ok */\n      0x00\n        /* \"Somniatoken_fixed.sol\":3221:3223  to */\n      dup3\n        /* \"Somniatoken_fixed.sol\":3221:3228  to.call */\n      0xffffffffffffffffffffffffffffffffffffffff\n      and\n        /* \"Somniatoken_fixed.sol\":3236:3242  amount */\n      dup3\n        /* \"Somniatoken_fixed.sol\":3221:3247  to.call{value: amount}(\"\") */\n      mload(0x40)\n      tag_157\n      swap1\n      tag_158\n      jump\t// in\n    tag_157:\n      0x00\n      mload(0x40)\n      dup1\n      dup4\n      sub\n      dup2\n      dup6\n      dup8\n      gas\n      call\n      swap3\n      pop\n      pop\n      pop\n      returndatasize\n      dup1\n      0x00\n      dup2\n      eq\n      tag_161\n      jumpi\n      mload(0x40)\n      swap2\n      pop\n      and(add(returndatasize, 0x3f), not(0x1f))\n      dup3\n      add\n      0x40\n      mstore\n      returndatasize\n      dup3\n      mstore\n      returndatasize\n      0x00\n      0x20\n      dup5\n      add\n      returndatacopy\n      jump(tag_160)\n    tag_161:\n      0x60\n      swap2\n      pop\n    tag_160:\n      pop\n        /* \"Somniatoken_fixed.sol\":3207:3247  (bool ok, ) = to.call{value: amount}(\"\") */\n      pop\n      swap1\n      pop\n        /* \"Somniatoken_fixed.sol\":3265:3267  ok */\n      dup1\n        /* \"Somniatoken_fixed.sol\":3257:3287  require(ok, \"Transfer failed\") */\n      tag_162\n      jumpi\n      mload(0x40)\n      0x08c379a000000000000000000000000000000000000000000000000000000000\n      dup2\n      mstore\n      0x04\n      add\n      tag_163\n      swap1\n      tag_164\n      jump\t// in\n    tag_163:\n      mload(0x40)\n      dup1\n      swap2\n      sub\n      swap1\n      revert\n    tag_162:\n        /* \"Somniatoken_fixed.sol\":3311:3313  to */\n      dup3\n        /* \"Somniatoken_fixed.sol\":3302:3322  Withdraw(to, amount) */\n      0xffffffffffffffffffffffffffffffffffffffff\n      and\n      0x884edad9ce6fa2440d8a54cc123490eb96d2768479d49ff9c7366125a9424364\n        /* \"Somniatoken_fixed.sol\":3315:3321  amount */\n      dup4\n        /* \"Somniatoken_fixed.sol\":3302:3322  Withdraw(to, amount) */\n      mload(0x40)\n      tag_165\n      swap2\n      swap1\n      tag_55\n      jump\t// in\n    tag_165:\n      mload(0x40)\n      dup1\n      swap2\n      sub\n      swap1\n      log2\n        /* \"Somniatoken_fixed.sol\":3123:3329  {... */\n      pop\n        /* \"Somniatoken_fixed.sol\":3044:3329  function withdrawNative(address payable to, uint256 amount) external onlyOwner {... */\n      pop\n      pop\n      jump\t// out\n        /* \"https://github.com/OpenZeppelin/openzeppelin-contracts/blob/master/contracts/token/ERC20/ERC20.sol\":3902:4088  function approve(address spender, uint256 value) public virtual returns (bool) {... */\n    tag_48:\n        /* \"https://github.com/OpenZeppelin/openzeppelin-contracts/blob/master/contracts/token/ERC20/ERC20.sol\":3975:3979  bool */\n      0x00\n        /* \"https://github.com/OpenZeppelin/openzeppelin-contracts/blob/master/contracts/token/ERC20/ERC20.sol\":3991:4004  address owner */\n      0x00\n        /* \"https://github.com/OpenZeppelin/openzeppelin-contracts/blob/master/contracts/token/ERC20/ERC20.sol\":4007:4019  _msgSender() */\n      tag_167\n        /* \"https://github.com/OpenZeppelin/openzeppelin-contracts/blob/master/contracts/token/ERC20/ERC20.sol\":4007:4017  _msgSender */\n      tag_168\n        /* \"https://github.com/OpenZeppelin/openzeppelin-contracts/blob/master/contracts/token/ERC20/ERC20.sol\":4007:4019  _msgSender() */\n      jump\t// in\n    tag_167:\n        /* \"https://github.com/OpenZeppelin/openzeppelin-contracts/blob/master/contracts/token/ERC20/ERC20.sol\":3991:4019  address owner = _msgSender() */\n      swap1\n      pop\n        /* \"https://github.com/OpenZeppelin/openzeppelin-contracts/blob/master/contracts/token/ERC20/ERC20.sol\":4029:4060  _approve(owner, spender, value) */\n      tag_169\n        /* \"https://github.com/OpenZeppelin/openzeppelin-contracts/blob/master/contracts/token/ERC20/ERC20.sol\":4038:4043  owner */\n      dup2\n        /* \"https://github.com/OpenZeppelin/openzeppelin-contracts/blob/master/contracts/token/ERC20/ERC20.sol\":4045:4052  spender */\n      dup6\n        /* \"https://github.com/OpenZeppelin/openzeppelin-contracts/blob/master/contracts/token/ERC20/ERC20.sol\":4054:4059  value */\n      dup6\n        /* \"https://github.com/OpenZeppelin/openzeppelin-contracts/blob/master/contracts/token/ERC20/ERC20.sol\":4029:4037  _approve */\n      tag_170\n        /* \"https://github.com/OpenZeppelin/openzeppelin-contracts/blob/master/contracts/token/ERC20/ERC20.sol\":4029:4060  _approve(owner, spender, value) */\n      jump\t// in\n    tag_169:\n        /* \"https://github.com/OpenZeppelin/openzeppelin-contracts/blob/master/contracts/token/ERC20/ERC20.sol\":4077:4081  true */\n      0x01\n        /* \"https://github.com/OpenZeppelin/openzeppelin-contracts/blob/master/contracts/token/ERC20/ERC20.sol\":4070:4081  return true */\n      swap2\n      pop\n      pop\n        /* \"https://github.com/OpenZeppelin/openzeppelin-contracts/blob/master/contracts/token/ERC20/ERC20.sol\":3902:4088  function approve(address spender, uint256 value) public virtual returns (bool) {... */\n      swap3\n      swap2\n      pop\n      pop\n      jump\t// out\n        /* \"https://github.com/OpenZeppelin/openzeppelin-contracts/blob/master/contracts/token/ERC20/ERC20.sol\":2803:2900  function totalSupply() public view virtual returns (uint256) {... */\n    tag_53:\n        /* \"https://github.com/OpenZeppelin/openzeppelin-contracts/blob/master/contracts/token/ERC20/ERC20.sol\":2855:2862  uint256 */\n      0x00\n        /* \"https://github.com/OpenZeppelin/openzeppelin-contracts/blob/master/contracts/token/ERC20/ERC20.sol\":2881:2893  _totalSupply */\n      sload(0x02)\n        /* \"https://github.com/OpenZeppelin/openzeppelin-contracts/blob/master/contracts/token/ERC20/ERC20.sol\":2874:2893  return _totalSupply */\n      swap1\n      pop\n        /* \"https://github.com/OpenZeppelin/openzeppelin-contracts/blob/master/contracts/token/ERC20/ERC20.sol\":2803:2900  function totalSupply() public view virtual returns (uint256) {... */\n      swap1\n      jump\t// out\n        /* \"https://github.com/OpenZeppelin/openzeppelin-contracts/blob/master/contracts/token/ERC20/ERC20.sol\":4680:4924  function transferFrom(address from, address to, uint256 value) public virtual returns (bool) {... */\n    tag_60:\n        /* \"https://github.com/OpenZeppelin/openzeppelin-contracts/blob/master/contracts/token/ERC20/ERC20.sol\":4767:4771  bool */\n      0x00\n        /* \"https://github.com/OpenZeppelin/openzeppelin-contracts/blob/master/contracts/token/ERC20/ERC20.sol\":4783:4798  address spender */\n      0x00\n        /* \"https://github.com/OpenZeppelin/openzeppelin-contracts/blob/master/contracts/token/ERC20/ERC20.sol\":4801:4813  _msgSender() */\n      tag_173\n        /* \"https://github.com/OpenZeppelin/openzeppelin-contracts/blob/master/contracts/token/ERC20/ERC20.sol\":4801:4811  _msgSender */\n      tag_168\n        /* \"https://github.com/OpenZeppelin/openzeppelin-contracts/blob/master/contracts/token/ERC20/ERC20.sol\":4801:4813  _msgSender() */\n      jump\t// in\n    tag_173:\n        /* \"https://github.com/OpenZeppelin/openzeppelin-contracts/blob/master/contracts/token/ERC20/ERC20.sol\":4783:4813  address spender = _msgSender() */\n      swap1\n      pop\n        /* \"https://github.com/OpenZeppelin/openzeppelin-contracts/blob/master/contracts/token/ERC20/ERC20.sol\":4823:4860  _spendAllowance(from, spender, value) */\n      tag_174\n        /* \"https://github.com/OpenZeppelin/openzeppelin-contracts/blob/master/contracts/token/ERC20/ERC20.sol\":4839:4843  from */\n      dup6\n        /* \"https://github.com/OpenZeppelin/openzeppelin-contracts/blob/master/contracts/token/ERC20/ERC20.sol\":4845:4852  spender */\n      dup3\n        /* \"https://github.com/OpenZeppelin/openzeppelin-contracts/blob/master/contracts/token/ERC20/ERC20.sol\":4854:4859  value */\n      dup6\n        /* \"https://github.com/OpenZeppelin/openzeppelin-contracts/blob/master/contracts/token/ERC20/ERC20.sol\":4823:4838  _spendAllowance */\n      tag_175\n        /* \"https://github.com/OpenZeppelin/openzeppelin-contracts/blob/master/contracts/token/ERC20/ERC20.sol\":4823:4860  _spendAllowance(from, spender, value) */\n      jump\t// in\n    tag_174:\n        /* \"https://github.com/OpenZeppelin/openzeppelin-contracts/blob/master/contracts/token/ERC20/ERC20.sol\":4870:4896  _transfer(from, to, value) */\n      tag_176\n        /* \"https://github.com/OpenZeppelin/openzeppelin-contracts/blob/master/contracts/token/ERC20/ERC20.sol\":4880:4884  from */\n      dup6\n        /* \"https://github.com/OpenZeppelin/openzeppelin-contracts/blob/master/contracts/token/ERC20/ERC20.sol\":4886:4888  to */\n      dup6\n        /* \"https://github.com/OpenZeppelin/openzeppelin-contracts/blob/master/contracts/token/ERC20/ERC20.sol\":4890:4895  value */\n      dup6\n        /* \"https://github.com/OpenZeppelin/openzeppelin-contracts/blob/master/contracts/token/ERC20/ERC20.sol\":4870:4879  _transfer */\n      tag_177\n        /* \"https://github.com/OpenZeppelin/openzeppelin-contracts/blob/master/contracts/token/ERC20/ERC20.sol\":4870:4896  _transfer(from, to, value) */\n      jump\t// in\n    tag_176:\n        /* \"https://github.com/OpenZeppelin/openzeppelin-contracts/blob/master/contracts/token/ERC20/ERC20.sol\":4913:4917  true */\n      0x01\n        /* \"https://github.com/OpenZeppelin/openzeppelin-contracts/blob/master/contracts/token/ERC20/ERC20.sol\":4906:4917  return true */\n      swap2\n      pop\n      pop\n        /* \"https://github.com/OpenZeppelin/openzeppelin-contracts/blob/master/contracts/token/ERC20/ERC20.sol\":4680:4924  function transferFrom(address from, address to, uint256 value) public virtual returns (bool) {... */\n      swap4\n      swap3\n      pop\n      pop\n      pop\n      jump\t// out\n        /* \"https://github.com/OpenZeppelin/openzeppelin-contracts/blob/master/contracts/token/ERC20/ERC20.sol\":2688:2770  function decimals() public view virtual returns (uint8) {... */\n    tag_64:\n        /* \"https://github.com/OpenZeppelin/openzeppelin-contracts/blob/master/contracts/token/ERC20/ERC20.sol\":2737:2742  uint8 */\n      0x00\n        /* \"https://github.com/OpenZeppelin/openzeppelin-contracts/blob/master/contracts/token/ERC20/ERC20.sol\":2761:2763  18 */\n      0x12\n        /* \"https://github.com/OpenZeppelin/openzeppelin-contracts/blob/master/contracts/token/ERC20/ERC20.sol\":2754:2763  return 18 */\n      swap1\n      pop\n        /* \"https://github.com/OpenZeppelin/openzeppelin-contracts/blob/master/contracts/token/ERC20/ERC20.sol\":2688:2770  function decimals() public view virtual returns (uint8) {... */\n      swap1\n      jump\t// out\n        /* \"Somniatoken_fixed.sol\":2125:2220  function mint(address to, uint256 amount) external onlyOwner {... */\n    tag_70:\n        /* \"https://github.com/OpenZeppelin/openzeppelin-contracts/blob/master/contracts/access/Ownable.sol\":1531:1544  _checkOwner() */\n      tag_180\n        /* \"https://github.com/OpenZeppelin/openzeppelin-contracts/blob/master/contracts/access/Ownable.sol\":1531:1542  _checkOwner */\n      tag_152\n        /* \"https://github.com/OpenZeppelin/openzeppelin-contracts/blob/master/contracts/access/Ownable.sol\":1531:1544  _checkOwner() */\n      jump\t// in\n    tag_180:\n        /* \"Somniatoken_fixed.sol\":2196:2213  _mint(to, amount) */\n      tag_182\n        /* \"Somniatoken_fixed.sol\":2202:2204  to */\n      dup3\n        /* \"Somniatoken_fixed.sol\":2206:2212  amount */\n      dup3\n        /* \"Somniatoken_fixed.sol\":2196:2201  _mint */\n      tag_140\n        /* \"Somniatoken_fixed.sol\":2196:2213  _mint(to, amount) */\n      jump\t// in\n    tag_182:\n        /* \"Somniatoken_fixed.sol\":2125:2220  function mint(address to, uint256 amount) external onlyOwner {... */\n      pop\n      pop\n      jump\t// out\n        /* \"https://github.com/OpenZeppelin/openzeppelin-contracts/blob/master/contracts/token/ERC20/ERC20.sol\":2933:3049  function balanceOf(address account) public view virtual returns (uint256) {... */\n    tag_75:\n        /* \"https://github.com/OpenZeppelin/openzeppelin-contracts/blob/master/contracts/token/ERC20/ERC20.sol\":2998:3005  uint256 */\n      0x00\n        /* \"https://github.com/OpenZeppelin/openzeppelin-contracts/blob/master/contracts/token/ERC20/ERC20.sol\":3024:3033  _balances */\n      0x00\n        /* \"https://github.com/OpenZeppelin/openzeppelin-contracts/blob/master/contracts/token/ERC20/ERC20.sol\":3024:3042  _balances[account] */\n      0x00\n        /* \"https://github.com/OpenZeppelin/openzeppelin-contracts/blob/master/contracts/token/ERC20/ERC20.sol\":3034:3041  account */\n      dup4\n        /* \"https://github.com/OpenZeppelin/openzeppelin-contracts/blob/master/contracts/token/ERC20/ERC20.sol\":3024:3042  _balances[account] */\n      0xffffffffffffffffffffffffffffffffffffffff\n      and\n      0xffffffffffffffffffffffffffffffffffffffff\n      and\n      dup2\n      mstore\n      0x20\n      add\n      swap1\n      dup2\n      mstore\n      0x20\n      add\n      0x00\n      keccak256\n      sload\n        /* \"https://github.com/OpenZeppelin/openzeppelin-contracts/blob/master/contracts/token/ERC20/ERC20.sol\":3017:3042  return _balances[account] */\n      swap1\n      pop\n        /* \"https://github.com/OpenZeppelin/openzeppelin-contracts/blob/master/contracts/token/ERC20/ERC20.sol\":2933:3049  function balanceOf(address account) public view virtual returns (uint256) {... */\n      swap2\n      swap1\n      pop\n      jump\t// out\n        /* \"https://github.com/OpenZeppelin/openzeppelin-contracts/blob/master/contracts/access/Ownable.sol\":2293:2394  function renounceOwnership() public virtual onlyOwner {... */\n    tag_79:\n        /* \"https://github.com/OpenZeppelin/openzeppelin-contracts/blob/master/contracts/access/Ownable.sol\":1531:1544  _checkOwner() */\n      tag_185\n        /* \"https://github.com/OpenZeppelin/openzeppelin-contracts/blob/master/contracts/access/Ownable.sol\":1531:1542  _checkOwner */\n      tag_152\n        /* \"https://github.com/OpenZeppelin/openzeppelin-contracts/blob/master/contracts/access/Ownable.sol\":1531:1544  _checkOwner() */\n      jump\t// in\n    tag_185:\n        /* \"https://github.com/OpenZeppelin/openzeppelin-contracts/blob/master/contracts/access/Ownable.sol\":2357:2387  _transferOwnership(address(0)) */\n      tag_187\n        /* \"https://github.com/OpenZeppelin/openzeppelin-contracts/blob/master/contracts/access/Ownable.sol\":2384:2385  0 */\n      0x00\n        /* \"https://github.com/OpenZeppelin/openzeppelin-contracts/blob/master/contracts/access/Ownable.sol\":2357:2375  _transferOwnership */\n      tag_188\n        /* \"https://github.com/OpenZeppelin/openzeppelin-contracts/blob/master/contracts/access/Ownable.sol\":2357:2387  _transferOwnership(address(0)) */\n      jump\t// in\n    tag_187:\n        /* \"https://github.com/OpenZeppelin/openzeppelin-contracts/blob/master/contracts/access/Ownable.sol\":2293:2394  function renounceOwnership() public virtual onlyOwner {... */\n      jump\t// out\n        /* \"Somniatoken_fixed.sol\":633:659  uint256 public depositRate */\n    tag_82:\n      sload(0x08)\n      dup2\n      jump\t// out\n        /* \"https://github.com/OpenZeppelin/openzeppelin-contracts/blob/master/contracts/access/Ownable.sol\":1638:1723  function owner() public view virtual returns (address) {... */\n    tag_86:\n        /* \"https://github.com/OpenZeppelin/openzeppelin-contracts/blob/master/contracts/access/Ownable.sol\":1684:1691  address */\n      0x00\n        /* \"https://github.com/OpenZeppelin/openzeppelin-contracts/blob/master/contracts/access/Ownable.sol\":1710:1716  _owner */\n      0x05\n      0x00\n      swap1\n      sload\n      swap1\n      0x0100\n      exp\n      swap1\n      div\n      0xffffffffffffffffffffffffffffffffffffffff\n      and\n        /* \"https://github.com/OpenZeppelin/openzeppelin-contracts/blob/master/contracts/access/Ownable.sol\":1703:1716  return _owner */\n      swap1\n      pop\n        /* \"https://github.com/OpenZeppelin/openzeppelin-contracts/blob/master/contracts/access/Ownable.sol\":1638:1723  function owner() public view virtual returns (address) {... */\n      swap1\n      jump\t// out\n        /* \"Somniatoken_fixed.sol\":1569:1669  function symbol() public view override returns (string memory) {... */\n    tag_91:\n        /* \"Somniatoken_fixed.sol\":1617:1630  string memory */\n      0x60\n        /* \"Somniatoken_fixed.sol\":1649:1662  _customSymbol */\n      0x07\n        /* \"Somniatoken_fixed.sol\":1642:1662  return _customSymbol */\n      dup1\n      sload\n      tag_191\n      swap1\n      tag_145\n      jump\t// in\n    tag_191:\n      dup1\n      0x1f\n      add\n      0x20\n      dup1\n      swap2\n      div\n      mul\n      0x20\n      add\n      mload(0x40)\n      swap1\n      dup2\n      add\n      0x40\n      mstore\n      dup1\n      swap3\n      swap2\n      swap1\n      dup2\n      dup2\n      mstore\n      0x20\n      add\n      dup3\n      dup1\n      sload\n      tag_192\n      swap1\n      tag_145\n      jump\t// in\n    tag_192:\n      dup1\n      iszero\n      tag_193\n      jumpi\n      dup1\n      0x1f\n      lt\n      tag_194\n      jumpi\n      0x0100\n      dup1\n      dup4\n      sload\n      div\n      mul\n      dup4\n      mstore\n      swap2\n      0x20\n      add\n      swap2\n      jump(tag_193)\n    tag_194:\n      dup3\n      add\n      swap2\n      swap1\n      0x00\n      mstore\n      keccak256(0x00, 0x20)\n      swap1\n    tag_195:\n      dup2\n      sload\n      dup2\n      mstore\n      swap1\n      0x01\n      add\n      swap1\n      0x20\n      add\n      dup1\n      dup4\n      gt\n      tag_195\n      jumpi\n      dup3\n      swap1\n      sub\n      0x1f\n      and\n      dup3\n      add\n      swap2\n    tag_193:\n      pop\n      pop\n      pop\n      pop\n      pop\n      swap1\n      pop\n        /* \"Somniatoken_fixed.sol\":1569:1669  function symbol() public view override returns (string memory) {... */\n      swap1\n      jump\t// out\n        /* \"Somniatoken_fixed.sol\":2226:2325  function burn(address from, uint256 amount) external onlyOwner {... */\n    tag_96:\n        /* \"https://github.com/OpenZeppelin/openzeppelin-contracts/blob/master/contracts/access/Ownable.sol\":1531:1544  _checkOwner() */\n      tag_197\n        /* \"https://github.com/OpenZeppelin/openzeppelin-contracts/blob/master/contracts/access/Ownable.sol\":1531:1542  _checkOwner */\n      tag_152\n        /* \"https://github.com/OpenZeppelin/openzeppelin-contracts/blob/master/contracts/access/Ownable.sol\":1531:1544  _checkOwner() */\n      jump\t// in\n    tag_197:\n        /* \"Somniatoken_fixed.sol\":2299:2318  _burn(from, amount) */\n      tag_199\n        /* \"Somniatoken_fixed.sol\":2305:2309  from */\n      dup3\n        /* \"Somniatoken_fixed.sol\":2311:2317  amount */\n      dup3\n        /* \"Somniatoken_fixed.sol\":2299:2304  _burn */\n      tag_200\n        /* \"Somniatoken_fixed.sol\":2299:2318  _burn(from, amount) */\n      jump\t// in\n    tag_199:\n        /* \"Somniatoken_fixed.sol\":2226:2325  function burn(address from, uint256 amount) external onlyOwner {... */\n      pop\n      pop\n      jump\t// out\n        /* \"https://github.com/OpenZeppelin/openzeppelin-contracts/blob/master/contracts/token/ERC20/ERC20.sol\":3244:3422  function transfer(address to, uint256 value) public virtual returns (bool) {... */\n    tag_100:\n        /* \"https://github.com/OpenZeppelin/openzeppelin-contracts/blob/master/contracts/token/ERC20/ERC20.sol\":3313:3317  bool */\n      0x00\n        /* \"https://github.com/OpenZeppelin/openzeppelin-contracts/blob/master/contracts/token/ERC20/ERC20.sol\":3329:3342  address owner */\n      0x00\n        /* \"https://github.com/OpenZeppelin/openzeppelin-contracts/blob/master/contracts/token/ERC20/ERC20.sol\":3345:3357  _msgSender() */\n      tag_202\n        /* \"https://github.com/OpenZeppelin/openzeppelin-contracts/blob/master/contracts/token/ERC20/ERC20.sol\":3345:3355  _msgSender */\n      tag_168\n        /* \"https://github.com/OpenZeppelin/openzeppelin-contracts/blob/master/contracts/token/ERC20/ERC20.sol\":3345:3357  _msgSender() */\n      jump\t// in\n    tag_202:\n        /* \"https://github.com/OpenZeppelin/openzeppelin-contracts/blob/master/contracts/token/ERC20/ERC20.sol\":3329:3357  address owner = _msgSender() */\n      swap1\n      pop\n        /* \"https://github.com/OpenZeppelin/openzeppelin-contracts/blob/master/contracts/token/ERC20/ERC20.sol\":3367:3394  _transfer(owner, to, value) */\n      tag_203\n        /* \"https://github.com/OpenZeppelin/openzeppelin-contracts/blob/master/contracts/token/ERC20/ERC20.sol\":3377:3382  owner */\n      dup2\n        /* \"https://github.com/OpenZeppelin/openzeppelin-contracts/blob/master/contracts/token/ERC20/ERC20.sol\":3384:3386  to */\n      dup6\n        /* \"https://github.com/OpenZeppelin/openzeppelin-contracts/blob/master/contracts/token/ERC20/ERC20.sol\":3388:3393  value */\n      dup6\n        /* \"https://github.com/OpenZeppelin/openzeppelin-contracts/blob/master/contracts/token/ERC20/ERC20.sol\":3367:3376  _transfer */\n      tag_177\n        /* \"https://github.com/OpenZeppelin/openzeppelin-contracts/blob/master/contracts/token/ERC20/ERC20.sol\":3367:3394  _transfer(owner, to, value) */\n      jump\t// in\n    tag_203:\n        /* \"https://github.com/OpenZeppelin/openzeppelin-contracts/blob/master/contracts/token/ERC20/ERC20.sol\":3411:3415  true */\n      0x01\n        /* \"https://github.com/OpenZeppelin/openzeppelin-contracts/blob/master/contracts/token/ERC20/ERC20.sol\":3404:3415  return true */\n      swap2\n      pop\n      pop\n        /* \"https://github.com/OpenZeppelin/openzeppelin-contracts/blob/master/contracts/token/ERC20/ERC20.sol\":3244:3422  function transfer(address to, uint256 value) public virtual returns (bool) {... */\n      swap3\n      swap2\n      pop\n      pop\n      jump\t// out\n        /* \"Somniatoken_fixed.sol\":3564:3712  function rescueERC20(address tokenAddress, address to, uint256 amount) external onlyOwner {... */\n    tag_105:\n        /* \"https://github.com/OpenZeppelin/openzeppelin-contracts/blob/master/contracts/access/Ownable.sol\":1531:1544  _checkOwner() */\n      tag_205\n        /* \"https://github.com/OpenZeppelin/openzeppelin-contracts/blob/master/contracts/access/Ownable.sol\":1531:1542  _checkOwner */\n      tag_152\n        /* \"https://github.com/OpenZeppelin/openzeppelin-contracts/blob/master/contracts/access/Ownable.sol\":1531:1544  _checkOwner() */\n      jump\t// in\n    tag_205:\n        /* \"Somniatoken_fixed.sol\":3671:3683  tokenAddress */\n      dup3\n        /* \"Somniatoken_fixed.sol\":3664:3693  IERC20(tokenAddress).transfer */\n      0xffffffffffffffffffffffffffffffffffffffff\n      and\n      0xa9059cbb\n        /* \"Somniatoken_fixed.sol\":3694:3696  to */\n      dup4\n        /* \"Somniatoken_fixed.sol\":3698:3704  amount */\n      dup4\n        /* \"Somniatoken_fixed.sol\":3664:3705  IERC20(tokenAddress).transfer(to, amount) */\n      mload(0x40)\n      dup4\n      0xffffffff\n      and\n      0xe0\n      shl\n      dup2\n      mstore\n      0x04\n      add\n      tag_207\n      swap3\n      swap2\n      swap1\n      tag_208\n      jump\t// in\n    tag_207:\n      0x20\n      mload(0x40)\n      dup1\n      dup4\n      sub\n      dup2\n      0x00\n      dup8\n      gas\n      call\n      iszero\n      dup1\n      iszero\n      tag_210\n      jumpi\n      returndatacopy(0x00, 0x00, returndatasize)\n      revert(0x00, returndatasize)\n    tag_210:\n      pop\n      pop\n      pop\n      pop\n      mload(0x40)\n      returndatasize\n      not(0x1f)\n      0x1f\n      dup3\n      add\n      and\n      dup3\n      add\n      dup1\n      0x40\n      mstore\n      pop\n      dup2\n      add\n      swap1\n      tag_211\n      swap2\n      swap1\n      tag_212\n      jump\t// in\n    tag_211:\n      pop\n        /* \"Somniatoken_fixed.sol\":3564:3712  function rescueERC20(address tokenAddress, address to, uint256 amount) external onlyOwner {... */\n      pop\n      pop\n      pop\n      jump\t// out\n        /* \"Somniatoken_fixed.sol\":1894:2086  function setSymbol(string memory newSymbol) external onlyOwner {... */\n    tag_110:\n        /* \"https://github.com/OpenZeppelin/openzeppelin-contracts/blob/master/contracts/access/Ownable.sol\":1531:1544  _checkOwner() */\n      tag_214\n        /* \"https://github.com/OpenZeppelin/openzeppelin-contracts/blob/master/contracts/access/Ownable.sol\":1531:1542  _checkOwner */\n      tag_152\n        /* \"https://github.com/OpenZeppelin/openzeppelin-contracts/blob/master/contracts/access/Ownable.sol\":1531:1544  _checkOwner() */\n      jump\t// in\n    tag_214:\n        /* \"Somniatoken_fixed.sol\":1967:1984  string memory old */\n      0x00\n        /* \"Somniatoken_fixed.sol\":1987:2000  _customSymbol */\n      0x07\n        /* \"Somniatoken_fixed.sol\":1967:2000  string memory old = _customSymbol */\n      dup1\n      sload\n      tag_216\n      swap1\n      tag_145\n      jump\t// in\n    tag_216:\n      dup1\n      0x1f\n      add\n      0x20\n      dup1\n      swap2\n      div\n      mul\n      0x20\n      add\n      mload(0x40)\n      swap1\n      dup2\n      add\n      0x40\n      mstore\n      dup1\n      swap3\n      swap2\n      swap1\n      dup2\n      dup2\n      mstore\n      0x20\n      add\n      dup3\n      dup1\n      sload\n      tag_217\n      swap1\n      tag_145\n      jump\t// in\n    tag_217:\n      dup1\n      iszero\n      tag_218\n      jumpi\n      dup1\n      0x1f\n      lt\n      tag_219\n      jumpi\n      0x0100\n      dup1\n      dup4\n      sload\n      div\n      mul\n      dup4\n      mstore\n      swap2\n      0x20\n      add\n      swap2\n      jump(tag_218)\n    tag_219:\n      dup3\n      add\n      swap2\n      swap1\n      0x00\n      mstore\n      keccak256(0x00, 0x20)\n      swap1\n    tag_220:\n      dup2\n      sload\n      dup2\n      mstore\n      swap1\n      0x01\n      add\n      swap1\n      0x20\n      add\n      dup1\n      dup4\n      gt\n      tag_220\n      jumpi\n      dup3\n      swap1\n      sub\n      0x1f\n      and\n      dup3\n      add\n      swap2\n    tag_218:\n      pop\n      pop\n      pop\n      pop\n      pop\n      swap1\n      pop\n        /* \"Somniatoken_fixed.sol\":2026:2035  newSymbol */\n      dup2\n        /* \"Somniatoken_fixed.sol\":2010:2023  _customSymbol */\n      0x07\n        /* \"Somniatoken_fixed.sol\":2010:2035  _customSymbol = newSymbol */\n      swap1\n      dup2\n      tag_221\n      swap2\n      swap1\n      tag_222\n      jump\t// in\n    tag_221:\n      pop\n        /* \"Somniatoken_fixed.sol\":2050:2079  SymbolChanged(old, newSymbol) */\n      0xd7ad744cc76ebad190995130eec8ba506b3605612d23b5b9cef8e27f14d138b4\n        /* \"Somniatoken_fixed.sol\":2064:2067  old */\n      dup2\n        /* \"Somniatoken_fixed.sol\":2069:2078  newSymbol */\n      dup4\n        /* \"Somniatoken_fixed.sol\":2050:2079  SymbolChanged(old, newSymbol) */\n      mload(0x40)\n      tag_223\n      swap3\n      swap2\n      swap1\n      tag_224\n      jump\t// in\n    tag_223:\n      mload(0x40)\n      dup1\n      swap2\n      sub\n      swap1\n      log1\n        /* \"Somniatoken_fixed.sol\":1957:2086  {... */\n      pop\n        /* \"Somniatoken_fixed.sol\":1894:2086  function setSymbol(string memory newSymbol) external onlyOwner {... */\n      pop\n      jump\t// out\n        /* \"Somniatoken_fixed.sol\":3367:3513  function setDepositRate(uint256 newRate) external onlyOwner {... */\n    tag_115:\n        /* \"https://github.com/OpenZeppelin/openzeppelin-contracts/blob/master/contracts/access/Ownable.sol\":1531:1544  _checkOwner() */\n      tag_226\n        /* \"https://github.com/OpenZeppelin/openzeppelin-contracts/blob/master/contracts/access/Ownable.sol\":1531:1542  _checkOwner */\n      tag_152\n        /* \"https://github.com/OpenZeppelin/openzeppelin-contracts/blob/master/contracts/access/Ownable.sol\":1531:1544  _checkOwner() */\n      jump\t// in\n    tag_226:\n        /* \"Somniatoken_fixed.sol\":3442:3475  RateChanged(depositRate, newRate) */\n      0x4ac9052a820bf4f8c02d7588587cae835573b5b99ea7ad4ca002f17f319f7186\n        /* \"Somniatoken_fixed.sol\":3454:3465  depositRate */\n      sload(0x08)\n        /* \"Somniatoken_fixed.sol\":3467:3474  newRate */\n      dup3\n        /* \"Somniatoken_fixed.sol\":3442:3475  RateChanged(depositRate, newRate) */\n      mload(0x40)\n      tag_228\n      swap3\n      swap2\n      swap1\n      tag_142\n      jump\t// in\n    tag_228:\n      mload(0x40)\n      dup1\n      swap2\n      sub\n      swap1\n      log1\n        /* \"Somniatoken_fixed.sol\":3499:3506  newRate */\n      dup1\n        /* \"Somniatoken_fixed.sol\":3485:3496  depositRate */\n      0x08\n        /* \"Somniatoken_fixed.sol\":3485:3506  depositRate = newRate */\n      dup2\n      swap1\n      sstore\n      pop\n        /* \"Somniatoken_fixed.sol\":3367:3513  function setDepositRate(uint256 newRate) external onlyOwner {... */\n      pop\n      jump\t// out\n        /* \"Somniatoken_fixed.sol\":1710:1888  function setName(string memory newName) external onlyOwner {... */\n    tag_119:\n        /* \"https://github.com/OpenZeppelin/openzeppelin-contracts/blob/master/contracts/access/Ownable.sol\":1531:1544  _checkOwner() */\n      tag_230\n        /* \"https://github.com/OpenZeppelin/openzeppelin-contracts/blob/master/contracts/access/Ownable.sol\":1531:1542  _checkOwner */\n      tag_152\n        /* \"https://github.com/OpenZeppelin/openzeppelin-contracts/blob/master/contracts/access/Ownable.sol\":1531:1544  _checkOwner() */\n      jump\t// in\n    tag_230:\n        /* \"Somniatoken_fixed.sol\":1779:1796  string memory old */\n      0x00\n        /* \"Somniatoken_fixed.sol\":1799:1810  _customName */\n      0x06\n        /* \"Somniatoken_fixed.sol\":1779:1810  string memory old = _customName */\n      dup1\n      sload\n      tag_232\n      swap1\n      tag_145\n      jump\t// in\n    tag_232:\n      dup1\n      0x1f\n      add\n      0x20\n      dup1\n      swap2\n      div\n      mul\n      0x20\n      add\n      mload(0x40)\n      swap1\n      dup2\n      add\n      0x40\n      mstore\n      dup1\n      swap3\n      swap2\n      swap1\n      dup2\n      dup2\n      mstore\n      0x20\n      add\n      dup3\n      dup1\n      sload\n      tag_233\n      swap1\n      tag_145\n      jump\t// in\n    tag_233:\n      dup1\n      iszero\n      tag_234\n      jumpi\n      dup1\n      0x1f\n      lt\n      tag_235\n      jumpi\n      0x0100\n      dup1\n      dup4\n      sload\n      div\n      mul\n      dup4\n      mstore\n      swap2\n      0x20\n      add\n      swap2\n      jump(tag_234)\n    tag_235:\n      dup3\n      add\n      swap2\n      swap1\n      0x00\n      mstore\n      keccak256(0x00, 0x20)\n      swap1\n    tag_236:\n      dup2\n      sload\n      dup2\n      mstore\n      swap1\n      0x01\n      add\n      swap1\n      0x20\n      add\n      dup1\n      dup4\n      gt\n      tag_236\n      jumpi\n      dup3\n      swap1\n      sub\n      0x1f\n      and\n      dup3\n      add\n      swap2\n    tag_234:\n      pop\n      pop\n      pop\n      pop\n      pop\n      swap1\n      pop\n        /* \"Somniatoken_fixed.sol\":1834:1841  newName */\n      dup2\n        /* \"Somniatoken_fixed.sol\":1820:1831  _customName */\n      0x06\n        /* \"Somniatoken_fixed.sol\":1820:1841  _customName = newName */\n      swap1\n      dup2\n      tag_237\n      swap2\n      swap1\n      tag_222\n      jump\t// in\n    tag_237:\n      pop\n        /* \"Somniatoken_fixed.sol\":1856:1881  NameChanged(old, newName) */\n      0x6c20b91d1723b78732eba64ff11ebd7966a6e4af568a00fa4f6b72c20f58b02a\n        /* \"Somniatoken_fixed.sol\":1868:1871  old */\n      dup2\n        /* \"Somniatoken_fixed.sol\":1873:1880  newName */\n      dup4\n        /* \"Somniatoken_fixed.sol\":1856:1881  NameChanged(old, newName) */\n      mload(0x40)\n      tag_238\n      swap3\n      swap2\n      swap1\n      tag_224\n      jump\t// in\n    tag_238:\n      mload(0x40)\n      dup1\n      swap2\n      sub\n      swap1\n      log1\n        /* \"Somniatoken_fixed.sol\":1769:1888  {... */\n      pop\n        /* \"Somniatoken_fixed.sol\":1710:1888  function setName(string memory newName) external onlyOwner {... */\n      pop\n      jump\t// out\n        /* \"Somniatoken_fixed.sol\":2563:2718  function deposit() external payable returns (uint256 minted) {... */\n    tag_121:\n        /* \"Somniatoken_fixed.sol\":2608:2622  uint256 minted */\n      0x00\n        /* \"Somniatoken_fixed.sol\":2634:2671  _handleDeposit(msg.sender, msg.value) */\n      tag_240\n        /* \"Somniatoken_fixed.sol\":2649:2659  msg.sender */\n      caller\n        /* \"Somniatoken_fixed.sol\":2661:2670  msg.value */\n      callvalue\n        /* \"Somniatoken_fixed.sol\":2634:2648  _handleDeposit */\n      tag_30\n        /* \"Somniatoken_fixed.sol\":2634:2671  _handleDeposit(msg.sender, msg.value) */\n      jump\t// in\n    tag_240:\n        /* \"Somniatoken_fixed.sol\":2700:2711  depositRate */\n      sload(0x08)\n        /* \"Somniatoken_fixed.sol\":2688:2697  msg.value */\n      callvalue\n        /* \"Somniatoken_fixed.sol\":2688:2711  msg.value * depositRate */\n      tag_241\n      swap2\n      swap1\n      tag_138\n      jump\t// in\n    tag_241:\n        /* \"Somniatoken_fixed.sol\":2681:2711  return msg.value * depositRate */\n      swap1\n      pop\n        /* \"Somniatoken_fixed.sol\":2563:2718  function deposit() external payable returns (uint256 minted) {... */\n      swap1\n      jump\t// out\n        /* \"https://github.com/OpenZeppelin/openzeppelin-contracts/blob/master/contracts/token/ERC20/ERC20.sol\":3455:3595  function allowance(address owner, address spender) public view virtual returns (uint256) {... */\n    tag_127:\n        /* \"https://github.com/OpenZeppelin/openzeppelin-contracts/blob/master/contracts/token/ERC20/ERC20.sol\":3535:3542  uint256 */\n      0x00\n        /* \"https://github.com/OpenZeppelin/openzeppelin-contracts/blob/master/contracts/token/ERC20/ERC20.sol\":3561:3572  _allowances */\n      0x01\n        /* \"https://github.com/OpenZeppelin/openzeppelin-contracts/blob/master/contracts/token/ERC20/ERC20.sol\":3561:3579  _allowances[owner] */\n      0x00\n        /* \"https://github.com/OpenZeppelin/openzeppelin-contracts/blob/master/contracts/token/ERC20/ERC20.sol\":3573:3578  owner */\n      dup5\n        /* \"https://github.com/OpenZeppelin/openzeppelin-contracts/blob/master/contracts/token/ERC20/ERC20.sol\":3561:3579  _allowances[owner] */\n      0xffffffffffffffffffffffffffffffffffffffff\n      and\n      0xffffffffffffffffffffffffffffffffffffffff\n      and\n      dup2\n      mstore\n      0x20\n      add\n      swap1\n      dup2\n      mstore\n      0x20\n      add\n      0x00\n      keccak256\n        /* \"https://github.com/OpenZeppelin/openzeppelin-contracts/blob/master/contracts/token/ERC20/ERC20.sol\":3561:3588  _allowances[owner][spender] */\n      0x00\n        /* \"https://github.com/OpenZeppelin/openzeppelin-contracts/blob/master/contracts/token/ERC20/ERC20.sol\":3580:3587  spender */\n      dup4\n        /* \"https://github.com/OpenZeppelin/openzeppelin-contracts/blob/master/contracts/token/ERC20/ERC20.sol\":3561:3588  _allowances[owner][spender] */\n      0xffffffffffffffffffffffffffffffffffffffff\n      and\n      0xffffffffffffffffffffffffffffffffffffffff\n      and\n      dup2\n      mstore\n      0x20\n      add\n      swap1\n      dup2\n      mstore\n      0x20\n      add\n      0x00\n      keccak256\n      sload\n        /* \"https://github.com/OpenZeppelin/openzeppelin-contracts/blob/master/contracts/token/ERC20/ERC20.sol\":3554:3588  return _allowances[owner][spender] */\n      swap1\n      pop\n        /* \"https://github.com/OpenZeppelin/openzeppelin-contracts/blob/master/contracts/token/ERC20/ERC20.sol\":3455:3595  function allowance(address owner, address spender) public view virtual returns (uint256) {... */\n      swap3\n      swap2\n      pop\n      pop\n      jump\t// out\n        /* \"https://github.com/OpenZeppelin/openzeppelin-contracts/blob/master/contracts/access/Ownable.sol\":2543:2758  function transferOwnership(address newOwner) public virtual onlyOwner {... */\n    tag_132:\n        /* \"https://github.com/OpenZeppelin/openzeppelin-contracts/blob/master/contracts/access/Ownable.sol\":1531:1544  _checkOwner() */\n      tag_244\n        /* \"https://github.com/OpenZeppelin/openzeppelin-contracts/blob/master/contracts/access/Ownable.sol\":1531:1542  _checkOwner */\n      tag_152\n        /* \"https://github.com/OpenZeppelin/openzeppelin-contracts/blob/master/contracts/access/Ownable.sol\":1531:1544  _checkOwner() */\n      jump\t// in\n    tag_244:\n        /* \"https://github.com/OpenZeppelin/openzeppelin-contracts/blob/master/contracts/access/Ownable.sol\":2647:2648  0 */\n      0x00\n        /* \"https://github.com/OpenZeppelin/openzeppelin-contracts/blob/master/contracts/access/Ownable.sol\":2627:2649  newOwner == address(0) */\n      0xffffffffffffffffffffffffffffffffffffffff\n      and\n        /* \"https://github.com/OpenZeppelin/openzeppelin-contracts/blob/master/contracts/access/Ownable.sol\":2627:2635  newOwner */\n      dup2\n        /* \"https://github.com/OpenZeppelin/openzeppelin-contracts/blob/master/contracts/access/Ownable.sol\":2627:2649  newOwner == address(0) */\n      0xffffffffffffffffffffffffffffffffffffffff\n      and\n      sub\n        /* \"https://github.com/OpenZeppelin/openzeppelin-contracts/blob/master/contracts/access/Ownable.sol\":2623:2714  if (newOwner == address(0)) {... */\n      tag_246\n      jumpi\n        /* \"https://github.com/OpenZeppelin/openzeppelin-contracts/blob/master/contracts/access/Ownable.sol\":2700:2701  0 */\n      0x00\n        /* \"https://github.com/OpenZeppelin/openzeppelin-contracts/blob/master/contracts/access/Ownable.sol\":2672:2703  OwnableInvalidOwner(address(0)) */\n      mload(0x40)\n      0x1e4fbdf700000000000000000000000000000000000000000000000000000000\n      dup2\n      mstore\n      0x04\n      add\n      tag_247\n      swap2\n      swap1\n      tag_88\n      jump\t// in\n    tag_247:\n      mload(0x40)\n      dup1\n      swap2\n      sub\n      swap1\n      revert\n        /* \"https://github.com/OpenZeppelin/openzeppelin-contracts/blob/master/contracts/access/Ownable.sol\":2623:2714  if (newOwner == address(0)) {... */\n    tag_246:\n        /* \"https://github.com/OpenZeppelin/openzeppelin-contracts/blob/master/contracts/access/Ownable.sol\":2723:2751  _transferOwnership(newOwner) */\n      tag_248\n        /* \"https://github.com/OpenZeppelin/openzeppelin-contracts/blob/master/contracts/access/Ownable.sol\":2742:2750  newOwner */\n      dup2\n        /* \"https://github.com/OpenZeppelin/openzeppelin-contracts/blob/master/contracts/access/Ownable.sol\":2723:2741  _transferOwnership */\n      tag_188\n        /* \"https://github.com/OpenZeppelin/openzeppelin-contracts/blob/master/contracts/access/Ownable.sol\":2723:2751  _transferOwnership(newOwner) */\n      jump\t// in\n    tag_248:\n        /* \"https://github.com/OpenZeppelin/openzeppelin-contracts/blob/master/contracts/access/Ownable.sol\":2543:2758  function transferOwnership(address newOwner) public virtual onlyOwner {... */\n      pop\n      jump\t// out\n        /* \"https://github.com/OpenZeppelin/openzeppelin-contracts/blob/master/contracts/token/ERC20/ERC20.sol\":7362:7570  function _mint(address account, uint256 value) internal {... */\n    tag_140:\n        /* \"https://github.com/OpenZeppelin/openzeppelin-contracts/blob/master/contracts/token/ERC20/ERC20.sol\":7451:7452  0 */\n      0x00\n        /* \"https://github.com/OpenZeppelin/openzeppelin-contracts/blob/master/contracts/token/ERC20/ERC20.sol\":7432:7453  account == address(0) */\n      0xffffffffffffffffffffffffffffffffffffffff\n      and\n        /* \"https://github.com/OpenZeppelin/openzeppelin-contracts/blob/master/contracts/token/ERC20/ERC20.sol\":7432:7439  account */\n      dup3\n        /* \"https://github.com/OpenZeppelin/openzeppelin-contracts/blob/master/contracts/token/ERC20/ERC20.sol\":7432:7453  account == address(0) */\n      0xffffffffffffffffffffffffffffffffffffffff\n      and\n      sub\n        /* \"https://github.com/OpenZeppelin/openzeppelin-contracts/blob/master/contracts/token/ERC20/ERC20.sol\":7428:7519  if (account == address(0)) {... */\n      tag_250\n      jumpi\n        /* \"https://github.com/OpenZeppelin/openzeppelin-contracts/blob/master/contracts/token/ERC20/ERC20.sol\":7505:7506  0 */\n      0x00\n        /* \"https://github.com/OpenZeppelin/openzeppelin-contracts/blob/master/contracts/token/ERC20/ERC20.sol\":7476:7508  ERC20InvalidReceiver(address(0)) */\n      mload(0x40)\n      0xec442f0500000000000000000000000000000000000000000000000000000000\n      dup2\n      mstore\n      0x04\n      add\n      tag_251\n      swap2\n      swap1\n      tag_88\n      jump\t// in\n    tag_251:\n      mload(0x40)\n      dup1\n      swap2\n      sub\n      swap1\n      revert\n        /* \"https://github.com/OpenZeppelin/openzeppelin-contracts/blob/master/contracts/token/ERC20/ERC20.sol\":7428:7519  if (account == address(0)) {... */\n    tag_250:\n        /* \"https://github.com/OpenZeppelin/openzeppelin-contracts/blob/master/contracts/token/ERC20/ERC20.sol\":7528:7563  _update(address(0), account, value) */\n      tag_252\n        /* \"https://github.com/OpenZeppelin/openzeppelin-contracts/blob/master/contracts/token/ERC20/ERC20.sol\":7544:7545  0 */\n      0x00\n        /* \"https://github.com/OpenZeppelin/openzeppelin-contracts/blob/master/contracts/token/ERC20/ERC20.sol\":7548:7555  account */\n      dup4\n        /* \"https://github.com/OpenZeppelin/openzeppelin-contracts/blob/master/contracts/token/ERC20/ERC20.sol\":7557:7562  value */\n      dup4\n        /* \"https://github.com/OpenZeppelin/openzeppelin-contracts/blob/master/contracts/token/ERC20/ERC20.sol\":7528:7535  _update */\n      tag_253\n        /* \"https://github.com/OpenZeppelin/openzeppelin-contracts/blob/master/contracts/token/ERC20/ERC20.sol\":7528:7563  _update(address(0), account, value) */\n      jump\t// in\n    tag_252:\n        /* \"https://github.com/OpenZeppelin/openzeppelin-contracts/blob/master/contracts/token/ERC20/ERC20.sol\":7362:7570  function _mint(address account, uint256 value) internal {... */\n      pop\n      pop\n      jump\t// out\n        /* \"https://github.com/OpenZeppelin/openzeppelin-contracts/blob/master/contracts/access/Ownable.sol\":1796:1958  function _checkOwner() internal view virtual {... */\n    tag_152:\n        /* \"https://github.com/OpenZeppelin/openzeppelin-contracts/blob/master/contracts/access/Ownable.sol\":1866:1878  _msgSender() */\n      tag_255\n        /* \"https://github.com/OpenZeppelin/openzeppelin-contracts/blob/master/contracts/access/Ownable.sol\":1866:1876  _msgSender */\n      tag_168\n        /* \"https://github.com/OpenZeppelin/openzeppelin-contracts/blob/master/contracts/access/Ownable.sol\":1866:1878  _msgSender() */\n      jump\t// in\n    tag_255:\n        /* \"https://github.com/OpenZeppelin/openzeppelin-contracts/blob/master/contracts/access/Ownable.sol\":1855:1878  owner() != _msgSender() */\n      0xffffffffffffffffffffffffffffffffffffffff\n      and\n        /* \"https://github.com/OpenZeppelin/openzeppelin-contracts/blob/master/contracts/access/Ownable.sol\":1855:1862  owner() */\n      tag_256\n        /* \"https://github.com/OpenZeppelin/openzeppelin-contracts/blob/master/contracts/access/Ownable.sol\":1855:1860  owner */\n      tag_86\n        /* \"https://github.com/OpenZeppelin/openzeppelin-contracts/blob/master/contracts/access/Ownable.sol\":1855:1862  owner() */\n      jump\t// in\n    tag_256:\n        /* \"https://github.com/OpenZeppelin/openzeppelin-contracts/blob/master/contracts/access/Ownable.sol\":1855:1878  owner() != _msgSender() */\n      0xffffffffffffffffffffffffffffffffffffffff\n      and\n      eq\n        /* \"https://github.com/OpenZeppelin/openzeppelin-contracts/blob/master/contracts/access/Ownable.sol\":1851:1952  if (owner() != _msgSender()) {... */\n      tag_257\n      jumpi\n        /* \"https://github.com/OpenZeppelin/openzeppelin-contracts/blob/master/contracts/access/Ownable.sol\":1928:1940  _msgSender() */\n      tag_258\n        /* \"https://github.com/OpenZeppelin/openzeppelin-contracts/blob/master/contracts/access/Ownable.sol\":1928:1938  _msgSender */\n      tag_168\n        /* \"https://github.com/OpenZeppelin/openzeppelin-contracts/blob/master/contracts/access/Ownable.sol\":1928:1940  _msgSender() */\n      jump\t// in\n    tag_258:\n        /* \"https://github.com/OpenZeppelin/openzeppelin-contracts/blob/master/contracts/access/Ownable.sol\":1901:1941  OwnableUnauthorizedAccount(_msgSender()) */\n      mload(0x40)\n      0x118cdaa700000000000000000000000000000000000000000000000000000000\n      dup2\n      mstore\n      0x04\n      add\n      tag_259\n      swap2\n      swap1\n      tag_88\n      jump\t// in\n    tag_259:\n      mload(0x40)\n      dup1\n      swap2\n      sub\n      swap1\n      revert\n        /* \"https://github.com/OpenZeppelin/openzeppelin-contracts/blob/master/contracts/access/Ownable.sol\":1851:1952  if (owner() != _msgSender()) {... */\n    tag_257:\n        /* \"https://github.com/OpenZeppelin/openzeppelin-contracts/blob/master/contracts/access/Ownable.sol\":1796:1958  function _checkOwner() internal view virtual {... */\n      jump\t// out\n        /* \"https://github.com/OpenZeppelin/openzeppelin-contracts/blob/master/contracts/utils/Context.sol\":656:752  function _msgSender() internal view virtual returns (address) {... */\n    tag_168:\n        /* \"https://github.com/OpenZeppelin/openzeppelin-contracts/blob/master/contracts/utils/Context.sol\":709:716  address */\n      0x00\n        /* \"https://github.com/OpenZeppelin/openzeppelin-contracts/blob/master/contracts/utils/Context.sol\":735:745  msg.sender */\n      caller\n        /* \"https://github.com/OpenZeppelin/openzeppelin-contracts/blob/master/contracts/utils/Context.sol\":728:745  return msg.sender */\n      swap1\n      pop\n        /* \"https://github.com/OpenZeppelin/openzeppelin-contracts/blob/master/contracts/utils/Context.sol\":656:752  function _msgSender() internal view virtual returns (address) {... */\n      swap1\n      jump\t// out\n        /* \"https://github.com/OpenZeppelin/openzeppelin-contracts/blob/master/contracts/token/ERC20/ERC20.sol\":8630:8758  function _approve(address owner, address spender, uint256 value) internal {... */\n    tag_170:\n        /* \"https://github.com/OpenZeppelin/openzeppelin-contracts/blob/master/contracts/token/ERC20/ERC20.sol\":8714:8751  _approve(owner, spender, value, true) */\n      tag_262\n        /* \"https://github.com/OpenZeppelin/openzeppelin-contracts/blob/master/contracts/token/ERC20/ERC20.sol\":8723:8728  owner */\n      dup4\n        /* \"https://github.com/OpenZeppelin/openzeppelin-contracts/blob/master/contracts/token/ERC20/ERC20.sol\":8730:8737  spender */\n      dup4\n        /* \"https://github.com/OpenZeppelin/openzeppelin-contracts/blob/master/contracts/token/ERC20/ERC20.sol\":8739:8744  value */\n      dup4\n        /* \"https://github.com/OpenZeppelin/openzeppelin-contracts/blob/master/contracts/token/ERC20/ERC20.sol\":8746:8750  true */\n      0x01\n        /* \"https://github.com/OpenZeppelin/openzeppelin-contracts/blob/master/contracts/token/ERC20/ERC20.sol\":8714:8722  _approve */\n      tag_263\n        /* \"https://github.com/OpenZeppelin/openzeppelin-contracts/blob/master/contracts/token/ERC20/ERC20.sol\":8714:8751  _approve(owner, spender, value, true) */\n      jump\t// in\n    tag_262:\n        /* \"https://github.com/OpenZeppelin/openzeppelin-contracts/blob/master/contracts/token/ERC20/ERC20.sol\":8630:8758  function _approve(address owner, address spender, uint256 value) internal {... */\n      pop\n      pop\n      pop\n      jump\t// out\n        /* \"https://github.com/OpenZeppelin/openzeppelin-contracts/blob/master/contracts/token/ERC20/ERC20.sol\":10321:10797  function _spendAllowance(address owner, address spender, uint256 value) internal virtual {... */\n    tag_175:\n        /* \"https://github.com/OpenZeppelin/openzeppelin-contracts/blob/master/contracts/token/ERC20/ERC20.sol\":10420:10444  uint256 currentAllowance */\n      0x00\n        /* \"https://github.com/OpenZeppelin/openzeppelin-contracts/blob/master/contracts/token/ERC20/ERC20.sol\":10447:10472  allowance(owner, spender) */\n      tag_265\n        /* \"https://github.com/OpenZeppelin/openzeppelin-contracts/blob/master/contracts/token/ERC20/ERC20.sol\":10457:10462  owner */\n      dup5\n        /* \"https://github.com/OpenZeppelin/openzeppelin-contracts/blob/master/contracts/token/ERC20/ERC20.sol\":10464:10471  spender */\n      dup5\n        /* \"https://github.com/OpenZeppelin/openzeppelin-contracts/blob/master/contracts/token/ERC20/ERC20.sol\":10447:10456  allowance */\n      tag_127\n        /* \"https://github.com/OpenZeppelin/openzeppelin-contracts/blob/master/contracts/token/ERC20/ERC20.sol\":10447:10472  allowance(owner, spender) */\n      jump\t// in\n    tag_265:\n        /* \"https://github.com/OpenZeppelin/openzeppelin-contracts/blob/master/contracts/token/ERC20/ERC20.sol\":10420:10472  uint256 currentAllowance = allowance(owner, spender) */\n      swap1\n      pop\n        /* \"https://github.com/OpenZeppelin/openzeppelin-contracts/blob/master/contracts/token/ERC20/ERC20.sol\":10505:10522  type(uint256).max */\n      0xffffffffffffffffffffffffffffffffffffffffffffffffffffffffffffffff\n        /* \"https://github.com/OpenZeppelin/openzeppelin-contracts/blob/master/contracts/token/ERC20/ERC20.sol\":10486:10502  currentAllowance */\n      dup2\n        /* \"https://github.com/OpenZeppelin/openzeppelin-contracts/blob/master/contracts/token/ERC20/ERC20.sol\":10486:10522  currentAllowance < type(uint256).max */\n      lt\n        /* \"https://github.com/OpenZeppelin/openzeppelin-contracts/blob/master/contracts/token/ERC20/ERC20.sol\":10482:10791  if (currentAllowance < type(uint256).max) {... */\n      iszero\n      tag_266\n      jumpi\n        /* \"https://github.com/OpenZeppelin/openzeppelin-contracts/blob/master/contracts/token/ERC20/ERC20.sol\":10561:10566  value */\n      dup2\n        /* \"https://github.com/OpenZeppelin/openzeppelin-contracts/blob/master/contracts/token/ERC20/ERC20.sol\":10542:10558  currentAllowance */\n      dup2\n        /* \"https://github.com/OpenZeppelin/openzeppelin-contracts/blob/master/contracts/token/ERC20/ERC20.sol\":10542:10566  currentAllowance < value */\n      lt\n        /* \"https://github.com/OpenZeppelin/openzeppelin-contracts/blob/master/contracts/token/ERC20/ERC20.sol\":10538:10668  if (currentAllowance < value) {... */\n      iszero\n      tag_267\n      jumpi\n        /* \"https://github.com/OpenZeppelin/openzeppelin-contracts/blob/master/contracts/token/ERC20/ERC20.sol\":10620:10627  spender */\n      dup3\n        /* \"https://github.com/OpenZeppelin/openzeppelin-contracts/blob/master/contracts/token/ERC20/ERC20.sol\":10629:10645  currentAllowance */\n      dup2\n        /* \"https://github.com/OpenZeppelin/openzeppelin-contracts/blob/master/contracts/token/ERC20/ERC20.sol\":10647:10652  value */\n      dup4\n        /* \"https://github.com/OpenZeppelin/openzeppelin-contracts/blob/master/contracts/token/ERC20/ERC20.sol\":10593:10653  ERC20InsufficientAllowance(spender, currentAllowance, value) */\n      mload(0x40)\n      0xfb8f41b200000000000000000000000000000000000000000000000000000000\n      dup2\n      mstore\n      0x04\n      add\n      tag_268\n      swap4\n      swap3\n      swap2\n      swap1\n      tag_269\n      jump\t// in\n    tag_268:\n      mload(0x40)\n      dup1\n      swap2\n      sub\n      swap1\n      revert\n        /* \"https://github.com/OpenZeppelin/openzeppelin-contracts/blob/master/contracts/token/ERC20/ERC20.sol\":10538:10668  if (currentAllowance < value) {... */\n    tag_267:\n        /* \"https://github.com/OpenZeppelin/openzeppelin-contracts/blob/master/contracts/token/ERC20/ERC20.sol\":10709:10766  _approve(owner, spender, currentAllowance - value, false) */\n      tag_270\n        /* \"https://github.com/OpenZeppelin/openzeppelin-contracts/blob/master/contracts/token/ERC20/ERC20.sol\":10718:10723  owner */\n      dup5\n        /* \"https://github.com/OpenZeppelin/openzeppelin-contracts/blob/master/contracts/token/ERC20/ERC20.sol\":10725:10732  spender */\n      dup5\n        /* \"https://github.com/OpenZeppelin/openzeppelin-contracts/blob/master/contracts/token/ERC20/ERC20.sol\":10753:10758  value */\n      dup5\n        /* \"https://github.com/OpenZeppelin/openzeppelin-contracts/blob/master/contracts/token/ERC20/ERC20.sol\":10734:10750  currentAllowance */\n      dup5\n        /* \"https://github.com/OpenZeppelin/openzeppelin-contracts/blob/master/contracts/token/ERC20/ERC20.sol\":10734:10758  currentAllowance - value */\n      sub\n        /* \"https://github.com/OpenZeppelin/openzeppelin-contracts/blob/master/contracts/token/ERC20/ERC20.sol\":10760:10765  false */\n      0x00\n        /* \"https://github.com/OpenZeppelin/openzeppelin-contracts/blob/master/contracts/token/ERC20/ERC20.sol\":10709:10717  _approve */\n      tag_263\n        /* \"https://github.com/OpenZeppelin/openzeppelin-contracts/blob/master/contracts/token/ERC20/ERC20.sol\":10709:10766  _approve(owner, spender, currentAllowance - value, false) */\n      jump\t// in\n    tag_270:\n        /* \"https://github.com/OpenZeppelin/openzeppelin-contracts/blob/master/contracts/token/ERC20/ERC20.sol\":10482:10791  if (currentAllowance < type(uint256).max) {... */\n    tag_266:\n        /* \"https://github.com/OpenZeppelin/openzeppelin-contracts/blob/master/contracts/token/ERC20/ERC20.sol\":10410:10797  {... */\n      pop\n        /* \"https://github.com/OpenZeppelin/openzeppelin-contracts/blob/master/contracts/token/ERC20/ERC20.sol\":10321:10797  function _spendAllowance(address owner, address spender, uint256 value) internal virtual {... */\n      pop\n      pop\n      pop\n      jump\t// out\n        /* \"https://github.com/OpenZeppelin/openzeppelin-contracts/blob/master/contracts/token/ERC20/ERC20.sol\":5297:5597  function _transfer(address from, address to, uint256 value) internal {... */\n    tag_177:\n        /* \"https://github.com/OpenZeppelin/openzeppelin-contracts/blob/master/contracts/token/ERC20/ERC20.sol\":5396:5397  0 */\n      0x00\n        /* \"https://github.com/OpenZeppelin/openzeppelin-contracts/blob/master/contracts/token/ERC20/ERC20.sol\":5380:5398  from == address(0) */\n      0xffffffffffffffffffffffffffffffffffffffff\n      and\n        /* \"https://github.com/OpenZeppelin/openzeppelin-contracts/blob/master/contracts/token/ERC20/ERC20.sol\":5380:5384  from */\n      dup4\n        /* \"https://github.com/OpenZeppelin/openzeppelin-contracts/blob/master/contracts/token/ERC20/ERC20.sol\":5380:5398  from == address(0) */\n      0xffffffffffffffffffffffffffffffffffffffff\n      and\n      sub\n        /* \"https://github.com/OpenZeppelin/openzeppelin-contracts/blob/master/contracts/token/ERC20/ERC20.sol\":5376:5462  if (from == address(0)) {... */\n      tag_272\n      jumpi\n        /* \"https://github.com/OpenZeppelin/openzeppelin-contracts/blob/master/contracts/token/ERC20/ERC20.sol\":5448:5449  0 */\n      0x00\n        /* \"https://github.com/OpenZeppelin/openzeppelin-contracts/blob/master/contracts/token/ERC20/ERC20.sol\":5421:5451  ERC20InvalidSender(address(0)) */\n      mload(0x40)\n      0x96c6fd1e00000000000000000000000000000000000000000000000000000000\n      dup2\n      mstore\n      0x04\n      add\n      tag_273\n      swap2\n      swap1\n      tag_88\n      jump\t// in\n    tag_273:\n      mload(0x40)\n      dup1\n      swap2\n      sub\n      swap1\n      revert\n        /* \"https://github.com/OpenZeppelin/openzeppelin-contracts/blob/master/contracts/token/ERC20/ERC20.sol\":5376:5462  if (from == address(0)) {... */\n    tag_272:\n        /* \"https://github.com/OpenZeppelin/openzeppelin-contracts/blob/master/contracts/token/ERC20/ERC20.sol\":5489:5490  0 */\n      0x00\n        /* \"https://github.com/OpenZeppelin/openzeppelin-contracts/blob/master/contracts/token/ERC20/ERC20.sol\":5475:5491  to == address(0) */\n      0xffffffffffffffffffffffffffffffffffffffff\n      and\n        /* \"https://github.com/OpenZeppelin/openzeppelin-contracts/blob/master/contracts/token/ERC20/ERC20.sol\":5475:5477  to */\n      dup3\n        /* \"https://github.com/OpenZeppelin/openzeppelin-contracts/blob/master/contracts/token/ERC20/ERC20.sol\":5475:5491  to == address(0) */\n      0xffffffffffffffffffffffffffffffffffffffff\n      and\n      sub\n        /* \"https://github.com/OpenZeppelin/openzeppelin-contracts/blob/master/contracts/token/ERC20/ERC20.sol\":5471:5557  if (to == address(0)) {... */\n      tag_274\n      jumpi\n        /* \"https://github.com/OpenZeppelin/openzeppelin-contracts/blob/master/contracts/token/ERC20/ERC20.sol\":5543:5544  0 */\n      0x00\n        /* \"https://github.com/OpenZeppelin/openzeppelin-contracts/blob/master/contracts/token/ERC20/ERC20.sol\":5514:5546  ERC20InvalidReceiver(address(0)) */\n      mload(0x40)\n      0xec442f0500000000000000000000000000000000000000000000000000000000\n      dup2\n      mstore\n      0x04\n      add\n      tag_275\n      swap2\n      swap1\n      tag_88\n      jump\t// in\n    tag_275:\n      mload(0x40)\n      dup1\n      swap2\n      sub\n      swap1\n      revert\n        /* \"https://github.com/OpenZeppelin/openzeppelin-contracts/blob/master/contracts/token/ERC20/ERC20.sol\":5471:5557  if (to == address(0)) {... */\n    tag_274:\n        /* \"https://github.com/OpenZeppelin/openzeppelin-contracts/blob/master/contracts/token/ERC20/ERC20.sol\":5566:5590  _update(from, to, value) */\n      tag_276\n        /* \"https://github.com/OpenZeppelin/openzeppelin-contracts/blob/master/contracts/token/ERC20/ERC20.sol\":5574:5578  from */\n      dup4\n        /* \"https://github.com/OpenZeppelin/openzeppelin-contracts/blob/master/contracts/token/ERC20/ERC20.sol\":5580:5582  to */\n      dup4\n        /* \"https://github.com/OpenZeppelin/openzeppelin-contracts/blob/master/contracts/token/ERC20/ERC20.sol\":5584:5589  value */\n      dup4\n        /* \"https://github.com/OpenZeppelin/openzeppelin-contracts/blob/master/contracts/token/ERC20/ERC20.sol\":5566:5573  _update */\n      tag_253\n        /* \"https://github.com/OpenZeppelin/openzeppelin-contracts/blob/master/contracts/token/ERC20/ERC20.sol\":5566:5590  _update(from, to, value) */\n      jump\t// in\n    tag_276:\n        /* \"https://github.com/OpenZeppelin/openzeppelin-contracts/blob/master/contracts/token/ERC20/ERC20.sol\":5297:5597  function _transfer(address from, address to, uint256 value) internal {... */\n      pop\n      pop\n      pop\n      jump\t// out\n        /* \"https://github.com/OpenZeppelin/openzeppelin-contracts/blob/master/contracts/access/Ownable.sol\":2912:3099  function _transferOwnership(address newOwner) internal virtual {... */\n    tag_188:\n        /* \"https://github.com/OpenZeppelin/openzeppelin-contracts/blob/master/contracts/access/Ownable.sol\":2985:3001  address oldOwner */\n      0x00\n        /* \"https://github.com/OpenZeppelin/openzeppelin-contracts/blob/master/contracts/access/Ownable.sol\":3004:3010  _owner */\n      0x05\n      0x00\n      swap1\n      sload\n      swap1\n      0x0100\n      exp\n      swap1\n      div\n      0xffffffffffffffffffffffffffffffffffffffff\n      and\n        /* \"https://github.com/OpenZeppelin/openzeppelin-contracts/blob/master/contracts/access/Ownable.sol\":2985:3010  address oldOwner = _owner */\n      swap1\n      pop\n        /* \"https://github.com/OpenZeppelin/openzeppelin-contracts/blob/master/contracts/access/Ownable.sol\":3029:3037  newOwner */\n      dup2\n        /* \"https://github.com/OpenZeppelin/openzeppelin-contracts/blob/master/contracts/access/Ownable.sol\":3020:3026  _owner */\n      0x05\n      0x00\n        /* \"https://github.com/OpenZeppelin/openzeppelin-contracts/blob/master/contracts/access/Ownable.sol\":3020:3037  _owner = newOwner */\n      0x0100\n      exp\n      dup2\n      sload\n      dup2\n      0xffffffffffffffffffffffffffffffffffffffff\n      mul\n      not\n      and\n      swap1\n      dup4\n      0xffffffffffffffffffffffffffffffffffffffff\n      and\n      mul\n      or\n      swap1\n      sstore\n      pop\n        /* \"https://github.com/OpenZeppelin/openzeppelin-contracts/blob/master/contracts/access/Ownable.sol\":3083:3091  newOwner */\n      dup2\n        /* \"https://github.com/OpenZeppelin/openzeppelin-contracts/blob/master/contracts/access/Ownable.sol\":3052:3092  OwnershipTransferred(oldOwner, newOwner) */\n      0xffffffffffffffffffffffffffffffffffffffff\n      and\n        /* \"https://github.com/OpenZeppelin/openzeppelin-contracts/blob/master/contracts/access/Ownable.sol\":3073:3081  oldOwner */\n      dup2\n        /* \"https://github.com/OpenZeppelin/openzeppelin-contracts/blob/master/contracts/access/Ownable.sol\":3052:3092  OwnershipTransferred(oldOwner, newOwner) */\n      0xffffffffffffffffffffffffffffffffffffffff\n      and\n      0x8be0079c531659141344cd1fd0a4f28419497f9722a3daafe3b4186f6b6457e0\n      mload(0x40)\n      mload(0x40)\n      dup1\n      swap2\n      sub\n      swap1\n      log3\n        /* \"https://github.com/OpenZeppelin/openzeppelin-contracts/blob/master/contracts/access/Ownable.sol\":2975:3099  {... */\n      pop\n        /* \"https://github.com/OpenZeppelin/openzeppelin-contracts/blob/master/contracts/access/Ownable.sol\":2912:3099  function _transferOwnership(address newOwner) internal virtual {... */\n      pop\n      jump\t// out\n        /* \"https://github.com/OpenZeppelin/openzeppelin-contracts/blob/master/contracts/token/ERC20/ERC20.sol\":7888:8094  function _burn(address account, uint256 value) internal {... */\n    tag_200:\n        /* \"https://github.com/OpenZeppelin/openzeppelin-contracts/blob/master/contracts/token/ERC20/ERC20.sol\":7977:7978  0 */\n      0x00\n        /* \"https://github.com/OpenZeppelin/openzeppelin-contracts/blob/master/contracts/token/ERC20/ERC20.sol\":7958:7979  account == address(0) */\n      0xffffffffffffffffffffffffffffffffffffffff\n      and\n        /* \"https://github.com/OpenZeppelin/openzeppelin-contracts/blob/master/contracts/token/ERC20/ERC20.sol\":7958:7965  account */\n      dup3\n        /* \"https://github.com/OpenZeppelin/openzeppelin-contracts/blob/master/contracts/token/ERC20/ERC20.sol\":7958:7979  account == address(0) */\n      0xffffffffffffffffffffffffffffffffffffffff\n      and\n      sub\n        /* \"https://github.com/OpenZeppelin/openzeppelin-contracts/blob/master/contracts/token/ERC20/ERC20.sol\":7954:8043  if (account == address(0)) {... */\n      tag_279\n      jumpi\n        /* \"https://github.com/OpenZeppelin/openzeppelin-contracts/blob/master/contracts/token/ERC20/ERC20.sol\":8029:8030  0 */\n      0x00\n        /* \"https://github.com/OpenZeppelin/openzeppelin-contracts/blob/master/contracts/token/ERC20/ERC20.sol\":8002:8032  ERC20InvalidSender(address(0)) */\n      mload(0x40)\n      0x96c6fd1e00000000000000000000000000000000000000000000000000000000\n      dup2\n      mstore\n      0x04\n      add\n      tag_280\n      swap2\n      swap1\n      tag_88\n      jump\t// in\n    tag_280:\n      mload(0x40)\n      dup1\n      swap2\n      sub\n      swap1\n      revert\n        /* \"https://github.com/OpenZeppelin/openzeppelin-contracts/blob/master/contracts/token/ERC20/ERC20.sol\":7954:8043  if (account == address(0)) {... */\n    tag_279:\n        /* \"https://github.com/OpenZeppelin/openzeppelin-contracts/blob/master/contracts/token/ERC20/ERC20.sol\":8052:8087  _update(account, address(0), value) */\n      tag_281\n        /* \"https://github.com/OpenZeppelin/openzeppelin-contracts/blob/master/contracts/token/ERC20/ERC20.sol\":8060:8067  account */\n      dup3\n        /* \"https://github.com/OpenZeppelin/openzeppelin-contracts/blob/master/contracts/token/ERC20/ERC20.sol\":8077:8078  0 */\n      0x00\n        /* \"https://github.com/OpenZeppelin/openzeppelin-contracts/blob/master/contracts/token/ERC20/ERC20.sol\":8081:8086  value */\n      dup4\n        /* \"https://github.com/OpenZeppelin/openzeppelin-contracts/blob/master/contracts/token/ERC20/ERC20.sol\":8052:8059  _update */\n      tag_253\n        /* \"https://github.com/OpenZeppelin/openzeppelin-contracts/blob/master/contracts/token/ERC20/ERC20.sol\":8052:8087  _update(account, address(0), value) */\n      jump\t// in\n    tag_281:\n        /* \"https://github.com/OpenZeppelin/openzeppelin-contracts/blob/master/contracts/token/ERC20/ERC20.sol\":7888:8094  function _burn(address account, uint256 value) internal {... */\n      pop\n      pop\n      jump\t// out\n        /* \"https://github.com/OpenZeppelin/openzeppelin-contracts/blob/master/contracts/token/ERC20/ERC20.sol\":5912:7019  function _update(address from, address to, uint256 value) internal virtual {... */\n    tag_253:\n        /* \"https://github.com/OpenZeppelin/openzeppelin-contracts/blob/master/contracts/token/ERC20/ERC20.sol\":6017:6018  0 */\n      0x00\n        /* \"https://github.com/OpenZeppelin/openzeppelin-contracts/blob/master/contracts/token/ERC20/ERC20.sol\":6001:6019  from == address(0) */\n      0xffffffffffffffffffffffffffffffffffffffff\n      and\n        /* \"https://github.com/OpenZeppelin/openzeppelin-contracts/blob/master/contracts/token/ERC20/ERC20.sol\":6001:6005  from */\n      dup4\n        /* \"https://github.com/OpenZeppelin/openzeppelin-contracts/blob/master/contracts/token/ERC20/ERC20.sol\":6001:6019  from == address(0) */\n      0xffffffffffffffffffffffffffffffffffffffff\n      and\n      sub\n        /* \"https://github.com/OpenZeppelin/openzeppelin-contracts/blob/master/contracts/token/ERC20/ERC20.sol\":5997:6537  if (from == address(0)) {... */\n      tag_283\n      jumpi\n        /* \"https://github.com/OpenZeppelin/openzeppelin-contracts/blob/master/contracts/token/ERC20/ERC20.sol\":6153:6158  value */\n      dup1\n        /* \"https://github.com/OpenZeppelin/openzeppelin-contracts/blob/master/contracts/token/ERC20/ERC20.sol\":6137:6149  _totalSupply */\n      0x02\n      0x00\n        /* \"https://github.com/OpenZeppelin/openzeppelin-contracts/blob/master/contracts/token/ERC20/ERC20.sol\":6137:6158  _totalSupply += value */\n      dup3\n      dup3\n      sload\n      tag_284\n      swap2\n      swap1\n      tag_285\n      jump\t// in\n    tag_284:\n      swap3\n      pop\n      pop\n      dup2\n      swap1\n      sstore\n      pop\n        /* \"https://github.com/OpenZeppelin/openzeppelin-contracts/blob/master/contracts/token/ERC20/ERC20.sol\":5997:6537  if (from == address(0)) {... */\n      jump(tag_286)\n    tag_283:\n        /* \"https://github.com/OpenZeppelin/openzeppelin-contracts/blob/master/contracts/token/ERC20/ERC20.sol\":6189:6208  uint256 fromBalance */\n      0x00\n        /* \"https://github.com/OpenZeppelin/openzeppelin-contracts/blob/master/contracts/token/ERC20/ERC20.sol\":6211:6220  _balances */\n      0x00\n        /* \"https://github.com/OpenZeppelin/openzeppelin-contracts/blob/master/contracts/token/ERC20/ERC20.sol\":6211:6226  _balances[from] */\n      0x00\n        /* \"https://github.com/OpenZeppelin/openzeppelin-contracts/blob/master/contracts/token/ERC20/ERC20.sol\":6221:6225  from */\n      dup6\n        /* \"https://github.com/OpenZeppelin/openzeppelin-contracts/blob/master/contracts/token/ERC20/ERC20.sol\":6211:6226  _balances[from] */\n      0xffffffffffffffffffffffffffffffffffffffff\n      and\n      0xffffffffffffffffffffffffffffffffffffffff\n      and\n      dup2\n      mstore\n      0x20\n      add\n      swap1\n      dup2\n      mstore\n      0x20\n      add\n      0x00\n      keccak256\n      sload\n        /* \"https://github.com/OpenZeppelin/openzeppelin-contracts/blob/master/contracts/token/ERC20/ERC20.sol\":6189:6226  uint256 fromBalance = _balances[from] */\n      swap1\n      pop\n        /* \"https://github.com/OpenZeppelin/openzeppelin-contracts/blob/master/contracts/token/ERC20/ERC20.sol\":6258:6263  value */\n      dup2\n        /* \"https://github.com/OpenZeppelin/openzeppelin-contracts/blob/master/contracts/token/ERC20/ERC20.sol\":6244:6255  fromBalance */\n      dup2\n        /* \"https://github.com/OpenZeppelin/openzeppelin-contracts/blob/master/contracts/token/ERC20/ERC20.sol\":6244:6263  fromBalance < value */\n      lt\n        /* \"https://github.com/OpenZeppelin/openzeppelin-contracts/blob/master/contracts/token/ERC20/ERC20.sol\":6240:6355  if (fromBalance < value) {... */\n      iszero\n      tag_287\n      jumpi\n        /* \"https://github.com/OpenZeppelin/openzeppelin-contracts/blob/master/contracts/token/ERC20/ERC20.sol\":6315:6319  from */\n      dup4\n        /* \"https://github.com/OpenZeppelin/openzeppelin-contracts/blob/master/contracts/token/ERC20/ERC20.sol\":6321:6332  fromBalance */\n      dup2\n        /* \"https://github.com/OpenZeppelin/openzeppelin-contracts/blob/master/contracts/token/ERC20/ERC20.sol\":6334:6339  value */\n      dup4\n        /* \"https://github.com/OpenZeppelin/openzeppelin-contracts/blob/master/contracts/token/ERC20/ERC20.sol\":6290:6340  ERC20InsufficientBalance(from, fromBalance, value) */\n      mload(0x40)\n      0xe450d38c00000000000000000000000000000000000000000000000000000000\n      dup2\n      mstore\n      0x04\n      add\n      tag_288\n      swap4\n      swap3\n      swap2\n      swap1\n      tag_269\n      jump\t// in\n    tag_288:\n      mload(0x40)\n      dup1\n      swap2\n      sub\n      swap1\n      revert\n        /* \"https://github.com/OpenZeppelin/openzeppelin-contracts/blob/master/contracts/token/ERC20/ERC20.sol\":6240:6355  if (fromBalance < value) {... */\n    tag_287:\n        /* \"https://github.com/OpenZeppelin/openzeppelin-contracts/blob/master/contracts/token/ERC20/ERC20.sol\":6507:6512  value */\n      dup2\n        /* \"https://github.com/OpenZeppelin/openzeppelin-contracts/blob/master/contracts/token/ERC20/ERC20.sol\":6493:6504  fromBalance */\n      dup2\n        /* \"https://github.com/OpenZeppelin/openzeppelin-contracts/blob/master/contracts/token/ERC20/ERC20.sol\":6493:6512  fromBalance - value */\n      sub\n        /* \"https://github.com/OpenZeppelin/openzeppelin-contracts/blob/master/contracts/token/ERC20/ERC20.sol\":6475:6484  _balances */\n      0x00\n        /* \"https://github.com/OpenZeppelin/openzeppelin-contracts/blob/master/contracts/token/ERC20/ERC20.sol\":6475:6490  _balances[from] */\n      0x00\n        /* \"https://github.com/OpenZeppelin/openzeppelin-contracts/blob/master/contracts/token/ERC20/ERC20.sol\":6485:6489  from */\n      dup7\n        /* \"https://github.com/OpenZeppelin/openzeppelin-contracts/blob/master/contracts/token/ERC20/ERC20.sol\":6475:6490  _balances[from] */\n      0xffffffffffffffffffffffffffffffffffffffff\n      and\n      0xffffffffffffffffffffffffffffffffffffffff\n      and\n      dup2\n      mstore\n      0x20\n      add\n      swap1\n      dup2\n      mstore\n      0x20\n      add\n      0x00\n      keccak256\n        /* \"https://github.com/OpenZeppelin/openzeppelin-contracts/blob/master/contracts/token/ERC20/ERC20.sol\":6475:6512  _balances[from] = fromBalance - value */\n      dup2\n      swap1\n      sstore\n      pop\n        /* \"https://github.com/OpenZeppelin/openzeppelin-contracts/blob/master/contracts/token/ERC20/ERC20.sol\":6175:6537  {... */\n      pop\n        /* \"https://github.com/OpenZeppelin/openzeppelin-contracts/blob/master/contracts/token/ERC20/ERC20.sol\":5997:6537  if (from == address(0)) {... */\n    tag_286:\n        /* \"https://github.com/OpenZeppelin/openzeppelin-contracts/blob/master/contracts/token/ERC20/ERC20.sol\":6565:6566  0 */\n      0x00\n        /* \"https://github.com/OpenZeppelin/openzeppelin-contracts/blob/master/contracts/token/ERC20/ERC20.sol\":6551:6567  to == address(0) */\n      0xffffffffffffffffffffffffffffffffffffffff\n      and\n        /* \"https://github.com/OpenZeppelin/openzeppelin-contracts/blob/master/contracts/token/ERC20/ERC20.sol\":6551:6553  to */\n      dup3\n        /* \"https://github.com/OpenZeppelin/openzeppelin-contracts/blob/master/contracts/token/ERC20/ERC20.sol\":6551:6567  to == address(0) */\n      0xffffffffffffffffffffffffffffffffffffffff\n      and\n      sub\n        /* \"https://github.com/OpenZeppelin/openzeppelin-contracts/blob/master/contracts/token/ERC20/ERC20.sol\":6547:6972  if (to == address(0)) {... */\n      tag_289\n      jumpi\n        /* \"https://github.com/OpenZeppelin/openzeppelin-contracts/blob/master/contracts/token/ERC20/ERC20.sol\":6730:6735  value */\n      dup1\n        /* \"https://github.com/OpenZeppelin/openzeppelin-contracts/blob/master/contracts/token/ERC20/ERC20.sol\":6714:6726  _totalSupply */\n      0x02\n      0x00\n        /* \"https://github.com/OpenZeppelin/openzeppelin-contracts/blob/master/contracts/token/ERC20/ERC20.sol\":6714:6735  _totalSupply -= value */\n      dup3\n      dup3\n      sload\n      sub\n      swap3\n      pop\n      pop\n      dup2\n      swap1\n      sstore\n      pop\n        /* \"https://github.com/OpenZeppelin/openzeppelin-contracts/blob/master/contracts/token/ERC20/ERC20.sol\":6547:6972  if (to == address(0)) {... */\n      jump(tag_290)\n    tag_289:\n        /* \"https://github.com/OpenZeppelin/openzeppelin-contracts/blob/master/contracts/token/ERC20/ERC20.sol\":6942:6947  value */\n      dup1\n        /* \"https://github.com/OpenZeppelin/openzeppelin-contracts/blob/master/contracts/token/ERC20/ERC20.sol\":6925:6934  _balances */\n      0x00\n        /* \"https://github.com/OpenZeppelin/openzeppelin-contracts/blob/master/contracts/token/ERC20/ERC20.sol\":6925:6938  _balances[to] */\n      0x00\n        /* \"https://github.com/OpenZeppelin/openzeppelin-contracts/blob/master/contracts/token/ERC20/ERC20.sol\":6935:6937  to */\n      dup5\n        /* \"https://github.com/OpenZeppelin/openzeppelin-contracts/blob/master/contracts/token/ERC20/ERC20.sol\":6925:6938  _balances[to] */\n      0xffffffffffffffffffffffffffffffffffffffff\n      and\n      0xffffffffffffffffffffffffffffffffffffffff\n      and\n      dup2\n      mstore\n      0x20\n      add\n      swap1\n      dup2\n      mstore\n      0x20\n      add\n      0x00\n      keccak256\n      0x00\n        /* \"https://github.com/OpenZeppelin/openzeppelin-contracts/blob/master/contracts/token/ERC20/ERC20.sol\":6925:6947  _balances[to] += value */\n      dup3\n      dup3\n      sload\n      add\n      swap3\n      pop\n      pop\n      dup2\n      swap1\n      sstore\n      pop\n        /* \"https://github.com/OpenZeppelin/openzeppelin-contracts/blob/master/contracts/token/ERC20/ERC20.sol\":6547:6972  if (to == address(0)) {... */\n    tag_290:\n        /* \"https://github.com/OpenZeppelin/openzeppelin-contracts/blob/master/contracts/token/ERC20/ERC20.sol\":7002:7004  to */\n      dup2\n        /* \"https://github.com/OpenZeppelin/openzeppelin-contracts/blob/master/contracts/token/ERC20/ERC20.sol\":6987:7012  Transfer(from, to, value) */\n      0xffffffffffffffffffffffffffffffffffffffff\n      and\n        /* \"https://github.com/OpenZeppelin/openzeppelin-contracts/blob/master/contracts/token/ERC20/ERC20.sol\":6996:7000  from */\n      dup4\n        /* \"https://github.com/OpenZeppelin/openzeppelin-contracts/blob/master/contracts/token/ERC20/ERC20.sol\":6987:7012  Transfer(from, to, value) */\n      0xffffffffffffffffffffffffffffffffffffffff\n      and\n      0xddf252ad1be2c89b69c2b068fc378daa952ba7f163c4a11628f55a4df523b3ef\n        /* \"https://github.com/OpenZeppelin/openzeppelin-contracts/blob/master/contracts/token/ERC20/ERC20.sol\":7006:7011  value */\n      dup4\n        /* \"https://github.com/OpenZeppelin/openzeppelin-contracts/blob/master/contracts/token/ERC20/ERC20.sol\":6987:7012  Transfer(from, to, value) */\n      mload(0x40)\n      tag_291\n      swap2\n      swap1\n      tag_55\n      jump\t// in\n    tag_291:\n      mload(0x40)\n      dup1\n      swap2\n      sub\n      swap1\n      log3\n        /* \"https://github.com/OpenZeppelin/openzeppelin-contracts/blob/master/contracts/token/ERC20/ERC20.sol\":5912:7019  function _update(address from, address to, uint256 value) internal virtual {... */\n      pop\n      pop\n      pop\n      jump\t// out\n        /* \"https://github.com/OpenZeppelin/openzeppelin-contracts/blob/master/contracts/token/ERC20/ERC20.sol\":9607:10039  function _approve(address owner, address spender, uint256 value, bool emitEvent) internal virtual {... */\n    tag_263:\n        /* \"https://github.com/OpenZeppelin/openzeppelin-contracts/blob/master/contracts/token/ERC20/ERC20.sol\":9736:9737  0 */\n      0x00\n        /* \"https://github.com/OpenZeppelin/openzeppelin-contracts/blob/master/contracts/token/ERC20/ERC20.sol\":9719:9738  owner == address(0) */\n      0xffffffffffffffffffffffffffffffffffffffff\n      and\n        /* \"https://github.com/OpenZeppelin/openzeppelin-contracts/blob/master/contracts/token/ERC20/ERC20.sol\":9719:9724  owner */\n      dup5\n        /* \"https://github.com/OpenZeppelin/openzeppelin-contracts/blob/master/contracts/token/ERC20/ERC20.sol\":9719:9738  owner == address(0) */\n      0xffffffffffffffffffffffffffffffffffffffff\n      and\n      sub\n        /* \"https://github.com/OpenZeppelin/openzeppelin-contracts/blob/master/contracts/token/ERC20/ERC20.sol\":9715:9804  if (owner == address(0)) {... */\n      tag_293\n      jumpi\n        /* \"https://github.com/OpenZeppelin/openzeppelin-contracts/blob/master/contracts/token/ERC20/ERC20.sol\":9790:9791  0 */\n      0x00\n        /* \"https://github.com/OpenZeppelin/openzeppelin-contracts/blob/master/contracts/token/ERC20/ERC20.sol\":9761:9793  ERC20InvalidApprover(address(0)) */\n      mload(0x40)\n      0xe602df0500000000000000000000000000000000000000000000000000000000\n      dup2\n      mstore\n      0x04\n      add\n      tag_294\n      swap2\n      swap1\n      tag_88\n      jump\t// in\n    tag_294:\n      mload(0x40)\n      dup1\n      swap2\n      sub\n      swap1\n      revert\n        /* \"https://github.com/OpenZeppelin/openzeppelin-contracts/blob/master/contracts/token/ERC20/ERC20.sol\":9715:9804  if (owner == address(0)) {... */\n    tag_293:\n        /* \"https://github.com/OpenZeppelin/openzeppelin-contracts/blob/master/contracts/token/ERC20/ERC20.sol\":9836:9837  0 */\n      0x00\n        /* \"https://github.com/OpenZeppelin/openzeppelin-contracts/blob/master/contracts/token/ERC20/ERC20.sol\":9817:9838  spender == address(0) */\n      0xffffffffffffffffffffffffffffffffffffffff\n      and\n        /* \"https://github.com/OpenZeppelin/openzeppelin-contracts/blob/master/contracts/token/ERC20/ERC20.sol\":9817:9824  spender */\n      dup4\n        /* \"https://github.com/OpenZeppelin/openzeppelin-contracts/blob/master/contracts/token/ERC20/ERC20.sol\":9817:9838  spender == address(0) */\n      0xffffffffffffffffffffffffffffffffffffffff\n      and\n      sub\n        /* \"https://github.com/OpenZeppelin/openzeppelin-contracts/blob/master/contracts/token/ERC20/ERC20.sol\":9813:9903  if (spender == address(0)) {... */\n      tag_295\n      jumpi\n        /* \"https://github.com/OpenZeppelin/openzeppelin-contracts/blob/master/contracts/token/ERC20/ERC20.sol\":9889:9890  0 */\n      0x00\n        /* \"https://github.com/OpenZeppelin/openzeppelin-contracts/blob/master/contracts/token/ERC20/ERC20.sol\":9861:9892  ERC20InvalidSpender(address(0)) */\n      mload(0x40)\n      0x94280d6200000000000000000000000000000000000000000000000000000000\n      dup2\n      mstore\n      0x04\n      add\n      tag_296\n      swap2\n      swap1\n      tag_88\n      jump\t// in\n    tag_296:\n      mload(0x40)\n      dup1\n      swap2\n      sub\n      swap1\n      revert\n        /* \"https://github.com/OpenZeppelin/openzeppelin-contracts/blob/master/contracts/token/ERC20/ERC20.sol\":9813:9903  if (spender == address(0)) {... */\n    tag_295:\n        /* \"https://github.com/OpenZeppelin/openzeppelin-contracts/blob/master/contracts/token/ERC20/ERC20.sol\":9942:9947  value */\n      dup2\n        /* \"https://github.com/OpenZeppelin/openzeppelin-contracts/blob/master/contracts/token/ERC20/ERC20.sol\":9912:9923  _allowances */\n      0x01\n        /* \"https://github.com/OpenZeppelin/openzeppelin-contracts/blob/master/contracts/token/ERC20/ERC20.sol\":9912:9930  _allowances[owner] */\n      0x00\n        /* \"https://github.com/OpenZeppelin/openzeppelin-contracts/blob/master/contracts/token/ERC20/ERC20.sol\":9924:9929  owner */\n      dup7\n        /* \"https://github.com/OpenZeppelin/openzeppelin-contracts/blob/master/contracts/token/ERC20/ERC20.sol\":9912:9930  _allowances[owner] */\n      0xffffffffffffffffffffffffffffffffffffffff\n      and\n      0xffffffffffffffffffffffffffffffffffffffff\n      and\n      dup2\n      mstore\n      0x20\n      add\n      swap1\n      dup2\n      mstore\n      0x20\n      add\n      0x00\n      keccak256\n        /* \"https://github.com/OpenZeppelin/openzeppelin-contracts/blob/master/contracts/token/ERC20/ERC20.sol\":9912:9939  _allowances[owner][spender] */\n      0x00\n        /* \"https://github.com/OpenZeppelin/openzeppelin-contracts/blob/master/contracts/token/ERC20/ERC20.sol\":9931:9938  spender */\n      dup6\n        /* \"https://github.com/OpenZeppelin/openzeppelin-contracts/blob/master/contracts/token/ERC20/ERC20.sol\":9912:9939  _allowances[owner][spender] */\n      0xffffffffffffffffffffffffffffffffffffffff\n      and\n      0xffffffffffffffffffffffffffffffffffffffff\n      and\n      dup2\n      mstore\n      0x20\n      add\n      swap1\n      dup2\n      mstore\n      0x20\n      add\n      0x00\n      keccak256\n        /* \"https://github.com/OpenZeppelin/openzeppelin-contracts/blob/master/contracts/token/ERC20/ERC20.sol\":9912:9947  _allowances[owner][spender] = value */\n      dup2\n      swap1\n      sstore\n      pop\n        /* \"https://github.com/OpenZeppelin/openzeppelin-contracts/blob/master/contracts/token/ERC20/ERC20.sol\":9961:9970  emitEvent */\n      dup1\n        /* \"https://github.com/OpenZeppelin/openzeppelin-contracts/blob/master/contracts/token/ERC20/ERC20.sol\":9957:10033  if (emitEvent) {... */\n      iszero\n      tag_297\n      jumpi\n        /* \"https://github.com/OpenZeppelin/openzeppelin-contracts/blob/master/contracts/token/ERC20/ERC20.sol\":10007:10014  spender */\n      dup3\n        /* \"https://github.com/OpenZeppelin/openzeppelin-contracts/blob/master/contracts/token/ERC20/ERC20.sol\":9991:10022  Approval(owner, spender, value) */\n      0xffffffffffffffffffffffffffffffffffffffff\n      and\n        /* \"https://github.com/OpenZeppelin/openzeppelin-contracts/blob/master/contracts/token/ERC20/ERC20.sol\":10000:10005  owner */\n      dup5\n        /* \"https://github.com/OpenZeppelin/openzeppelin-contracts/blob/master/contracts/token/ERC20/ERC20.sol\":9991:10022  Approval(owner, spender, value) */\n      0xffffffffffffffffffffffffffffffffffffffff\n      and\n      0x8c5be1e5ebec7d5bd14f71427d1e84f3dd0314c0f7b2291e5b200ac8c7c3b925\n        /* \"https://github.com/OpenZeppelin/openzeppelin-contracts/blob/master/contracts/token/ERC20/ERC20.sol\":10016:10021  value */\n      dup5\n        /* \"https://github.com/OpenZeppelin/openzeppelin-contracts/blob/master/contracts/token/ERC20/ERC20.sol\":9991:10022  Approval(owner, spender, value) */\n      mload(0x40)\n      tag_298\n      swap2\n      swap1\n      tag_55\n      jump\t// in\n    tag_298:\n      mload(0x40)\n      dup1\n      swap2\n      sub\n      swap1\n      log3\n        /* \"https://github.com/OpenZeppelin/openzeppelin-contracts/blob/master/contracts/token/ERC20/ERC20.sol\":9957:10033  if (emitEvent) {... */\n    tag_297:\n        /* \"https://github.com/OpenZeppelin/openzeppelin-contracts/blob/master/contracts/token/ERC20/ERC20.sol\":9607:10039  function _approve(address owner, address spender, uint256 value, bool emitEvent) internal virtual {... */\n      pop\n      pop\n      pop\n      pop\n      jump\t// out\n        /* \"#utility.yul\":7:106   */\n    tag_299:\n        /* \"#utility.yul\":59:65   */\n      0x00\n        /* \"#utility.yul\":93:98   */\n      dup2\n        /* \"#utility.yul\":87:99   */\n      mload\n        /* \"#utility.yul\":77:99   */\n      swap1\n      pop\n        /* \"#utility.yul\":7:106   */\n      swap2\n      swap1\n      pop\n      jump\t// out\n        /* \"#utility.yul\":112:281   */\n    tag_300:\n        /* \"#utility.yul\":196:207   */\n      0x00\n        /* \"#utility.yul\":230:236   */\n      dup3\n        /* \"#utility.yul\":225:228   */\n      dup3\n        /* \"#utility.yul\":218:237   */\n      mstore\n        /* \"#utility.yul\":270:274   */\n      0x20\n        /* \"#utility.yul\":265:268   */\n      dup3\n        /* \"#utility.yul\":261:275   */\n      add\n        /* \"#utility.yul\":246:275   */\n      swap1\n      pop\n        /* \"#utility.yul\":112:281   */\n      swap3\n      swap2\n      pop\n      pop\n      jump\t// out\n        /* \"#utility.yul\":287:426   */\n    tag_301:\n        /* \"#utility.yul\":376:382   */\n      dup3\n        /* \"#utility.yul\":371:374   */\n      dup2\n        /* \"#utility.yul\":366:369   */\n      dup4\n        /* \"#utility.yul\":360:383   */\n      mcopy\n        /* \"#utility.yul\":417:418   */\n      0x00\n        /* \"#utility.yul\":408:414   */\n      dup4\n        /* \"#utility.yul\":403:406   */\n      dup4\n        /* \"#utility.yul\":399:415   */\n      add\n        /* \"#utility.yul\":392:419   */\n      mstore\n        /* \"#utility.yul\":287:426   */\n      pop\n      pop\n      pop\n      jump\t// out\n        /* \"#utility.yul\":432:534   */\n    tag_302:\n        /* \"#utility.yul\":473:479   */\n      0x00\n        /* \"#utility.yul\":524:526   */\n      0x1f\n        /* \"#utility.yul\":520:527   */\n      not\n        /* \"#utility.yul\":515:517   */\n      0x1f\n        /* \"#utility.yul\":508:513   */\n      dup4\n        /* \"#utility.yul\":504:518   */\n      add\n        /* \"#utility.yul\":500:528   */\n      and\n        /* \"#utility.yul\":490:528   */\n      swap1\n      pop\n        /* \"#utility.yul\":432:534   */\n      swap2\n      swap1\n      pop\n      jump\t// out\n        /* \"#utility.yul\":540:917   */\n    tag_303:\n        /* \"#utility.yul\":628:631   */\n      0x00\n        /* \"#utility.yul\":656:695   */\n      tag_366\n        /* \"#utility.yul\":689:694   */\n      dup3\n        /* \"#utility.yul\":656:695   */\n      tag_299\n      jump\t// in\n    tag_366:\n        /* \"#utility.yul\":711:782   */\n      tag_367\n        /* \"#utility.yul\":775:781   */\n      dup2\n        /* \"#utility.yul\":770:773   */\n      dup6\n        /* \"#utility.yul\":711:782   */\n      tag_300\n      jump\t// in\n    tag_367:\n        /* \"#utility.yul\":704:782   */\n      swap4\n      pop\n        /* \"#utility.yul\":791:856   */\n      tag_368\n        /* \"#utility.yul\":849:855   */\n      dup2\n        /* \"#utility.yul\":844:847   */\n      dup6\n        /* \"#utility.yul\":837:841   */\n      0x20\n        /* \"#utility.yul\":830:835   */\n      dup7\n        /* \"#utility.yul\":826:842   */\n      add\n        /* \"#utility.yul\":791:856   */\n      tag_301\n      jump\t// in\n    tag_368:\n        /* \"#utility.yul\":881:910   */\n      tag_369\n        /* \"#utility.yul\":903:909   */\n      dup2\n        /* \"#utility.yul\":881:910   */\n      tag_302\n      jump\t// in\n    tag_369:\n        /* \"#utility.yul\":876:879   */\n      dup5\n        /* \"#utility.yul\":872:911   */\n      add\n        /* \"#utility.yul\":865:911   */\n      swap2\n      pop\n        /* \"#utility.yul\":632:917   */\n      pop\n        /* \"#utility.yul\":540:917   */\n      swap3\n      swap2\n      pop\n      pop\n      jump\t// out\n        /* \"#utility.yul\":923:1236   */\n    tag_38:\n        /* \"#utility.yul\":1036:1040   */\n      0x00\n        /* \"#utility.yul\":1074:1076   */\n      0x20\n        /* \"#utility.yul\":1063:1072   */\n      dup3\n        /* \"#utility.yul\":1059:1077   */\n      add\n        /* \"#utility.yul\":1051:1077   */\n      swap1\n      pop\n        /* \"#utility.yul\":1123:1132   */\n      dup2\n        /* \"#utility.yul\":1117:1121   */\n      dup2\n        /* \"#utility.yul\":1113:1133   */\n      sub\n        /* \"#utility.yul\":1109:1110   */\n      0x00\n        /* \"#utility.yul\":1098:1107   */\n      dup4\n        /* \"#utility.yul\":1094:1111   */\n      add\n        /* \"#utility.yul\":1087:1134   */\n      mstore\n        /* \"#utility.yul\":1151:1229   */\n      tag_371\n        /* \"#utility.yul\":1224:1228   */\n      dup2\n        /* \"#utility.yul\":1215:1221   */\n      dup5\n        /* \"#utility.yul\":1151:1229   */\n      tag_303\n      jump\t// in\n    tag_371:\n        /* \"#utility.yul\":1143:1229   */\n      swap1\n      pop\n        /* \"#utility.yul\":923:1236   */\n      swap3\n      swap2\n      pop\n      pop\n      jump\t// out\n        /* \"#utility.yul\":1242:1317   */\n    tag_304:\n        /* \"#utility.yul\":1275:1281   */\n      0x00\n        /* \"#utility.yul\":1308:1310   */\n      0x40\n        /* \"#utility.yul\":1302:1311   */\n      mload\n        /* \"#utility.yul\":1292:1311   */\n      swap1\n      pop\n        /* \"#utility.yul\":1242:1317   */\n      swap1\n      jump\t// out\n        /* \"#utility.yul\":1323:1440   */\n    tag_305:\n        /* \"#utility.yul\":1432:1433   */\n      0x00\n        /* \"#utility.yul\":1429:1430   */\n      0x00\n        /* \"#utility.yul\":1422:1434   */\n      revert\n        /* \"#utility.yul\":1446:1563   */\n    tag_306:\n        /* \"#utility.yul\":1555:1556   */\n      0x00\n        /* \"#utility.yul\":1552:1553   */\n      0x00\n        /* \"#utility.yul\":1545:1557   */\n      revert\n        /* \"#utility.yul\":1569:1695   */\n    tag_307:\n        /* \"#utility.yul\":1606:1613   */\n      0x00\n        /* \"#utility.yul\":1646:1688   */\n      0xffffffffffffffffffffffffffffffffffffffff\n        /* \"#utility.yul\":1639:1644   */\n      dup3\n        /* \"#utility.yul\":1635:1689   */\n      and\n        /* \"#utility.yul\":1624:1689   */\n      swap1\n      pop\n        /* \"#utility.yul\":1569:1695   */\n      swap2\n      swap1\n      pop\n      jump\t// out\n        /* \"#utility.yul\":1701:1805   */\n    tag_308:\n        /* \"#utility.yul\":1746:1753   */\n      0x00\n        /* \"#utility.yul\":1775:1799   */\n      tag_377\n        /* \"#utility.yul\":1793:1798   */\n      dup3\n        /* \"#utility.yul\":1775:1799   */\n      tag_307\n      jump\t// in\n    tag_377:\n        /* \"#utility.yul\":1764:1799   */\n      swap1\n      pop\n        /* \"#utility.yul\":1701:1805   */\n      swap2\n      swap1\n      pop\n      jump\t// out\n        /* \"#utility.yul\":1811:1949   */\n    tag_309:\n        /* \"#utility.yul\":1892:1924   */\n      tag_379\n        /* \"#utility.yul\":1918:1923   */\n      dup2\n        /* \"#utility.yul\":1892:1924   */\n      tag_308\n      jump\t// in\n    tag_379:\n        /* \"#utility.yul\":1885:1890   */\n      dup2\n        /* \"#utility.yul\":1882:1925   */\n      eq\n        /* \"#utility.yul\":1872:1943   */\n      tag_380\n      jumpi\n        /* \"#utility.yul\":1939:1940   */\n      0x00\n        /* \"#utility.yul\":1936:1937   */\n      0x00\n        /* \"#utility.yul\":1929:1941   */\n      revert\n        /* \"#utility.yul\":1872:1943   */\n    tag_380:\n        /* \"#utility.yul\":1811:1949   */\n      pop\n      jump\t// out\n        /* \"#utility.yul\":1955:2110   */\n    tag_310:\n        /* \"#utility.yul\":2009:2014   */\n      0x00\n        /* \"#utility.yul\":2047:2053   */\n      dup2\n        /* \"#utility.yul\":2034:2054   */\n      calldataload\n        /* \"#utility.yul\":2025:2054   */\n      swap1\n      pop\n        /* \"#utility.yul\":2063:2104   */\n      tag_382\n        /* \"#utility.yul\":2098:2103   */\n      dup2\n        /* \"#utility.yul\":2063:2104   */\n      tag_309\n      jump\t// in\n    tag_382:\n        /* \"#utility.yul\":1955:2110   */\n      swap3\n      swap2\n      pop\n      pop\n      jump\t// out\n        /* \"#utility.yul\":2116:2193   */\n    tag_311:\n        /* \"#utility.yul\":2153:2160   */\n      0x00\n        /* \"#utility.yul\":2182:2187   */\n      dup2\n        /* \"#utility.yul\":2171:2187   */\n      swap1\n      pop\n        /* \"#utility.yul\":2116:2193   */\n      swap2\n      swap1\n      pop\n      jump\t// out\n        /* \"#utility.yul\":2199:2321   */\n    tag_312:\n        /* \"#utility.yul\":2272:2296   */\n      tag_385\n        /* \"#utility.yul\":2290:2295   */\n      dup2\n        /* \"#utility.yul\":2272:2296   */\n      tag_311\n      jump\t// in\n    tag_385:\n        /* \"#utility.yul\":2265:2270   */\n      dup2\n        /* \"#utility.yul\":2262:2297   */\n      eq\n        /* \"#utility.yul\":2252:2315   */\n      tag_386\n      jumpi\n        /* \"#utility.yul\":2311:2312   */\n      0x00\n        /* \"#utility.yul\":2308:2309   */\n      0x00\n        /* \"#utility.yul\":2301:2313   */\n      revert\n        /* \"#utility.yul\":2252:2315   */\n    tag_386:\n        /* \"#utility.yul\":2199:2321   */\n      pop\n      jump\t// out\n        /* \"#utility.yul\":2327:2466   */\n    tag_313:\n        /* \"#utility.yul\":2373:2378   */\n      0x00\n        /* \"#utility.yul\":2411:2417   */\n      dup2\n        /* \"#utility.yul\":2398:2418   */\n      calldataload\n        /* \"#utility.yul\":2389:2418   */\n      swap1\n      pop\n        /* \"#utility.yul\":2427:2460   */\n      tag_388\n        /* \"#utility.yul\":2454:2459   */\n      dup2\n        /* \"#utility.yul\":2427:2460   */\n      tag_312\n      jump\t// in\n    tag_388:\n        /* \"#utility.yul\":2327:2466   */\n      swap3\n      swap2\n      pop\n      pop\n      jump\t// out\n        /* \"#utility.yul\":2472:2962   */\n    tag_42:\n        /* \"#utility.yul\":2548:2554   */\n      0x00\n        /* \"#utility.yul\":2556:2562   */\n      0x00\n        /* \"#utility.yul\":2605:2607   */\n      0x40\n        /* \"#utility.yul\":2593:2602   */\n      dup4\n        /* \"#utility.yul\":2584:2591   */\n      dup6\n        /* \"#utility.yul\":2580:2603   */\n      sub\n        /* \"#utility.yul\":2576:2608   */\n      slt\n        /* \"#utility.yul\":2573:2692   */\n      iszero\n      tag_390\n      jumpi\n        /* \"#utility.yul\":2611:2690   */\n      tag_391\n      tag_305\n      jump\t// in\n    tag_391:\n        /* \"#utility.yul\":2573:2692   */\n    tag_390:\n        /* \"#utility.yul\":2731:2732   */\n      0x00\n        /* \"#utility.yul\":2756:2817   */\n      tag_392\n        /* \"#utility.yul\":2809:2816   */\n      dup6\n        /* \"#utility.yul\":2800:2806   */\n      dup3\n        /* \"#utility.yul\":2789:2798   */\n      dup7\n        /* \"#utility.yul\":2785:2807   */\n      add\n        /* \"#utility.yul\":2756:2817   */\n      tag_310\n      jump\t// in\n    tag_392:\n        /* \"#utility.yul\":2746:2817   */\n      swap3\n      pop\n        /* \"#utility.yul\":2702:2827   */\n      pop\n        /* \"#utility.yul\":2866:2868   */\n      0x20\n        /* \"#utility.yul\":2892:2945   */\n      tag_393\n        /* \"#utility.yul\":2937:2944   */\n      dup6\n        /* \"#utility.yul\":2928:2934   */\n      dup3\n        /* \"#utility.yul\":2917:2926   */\n      dup7\n        /* \"#utility.yul\":2913:2935   */\n      add\n        /* \"#utility.yul\":2892:2945   */\n      tag_313\n      jump\t// in\n    tag_393:\n        /* \"#utility.yul\":2882:2945   */\n      swap2\n      pop\n        /* \"#utility.yul\":2837:2955   */\n      pop\n        /* \"#utility.yul\":2472:2962   */\n      swap3\n      pop\n      swap3\n      swap1\n      pop\n      jump\t// out\n        /* \"#utility.yul\":2968:3064   */\n    tag_314:\n        /* \"#utility.yul\":3005:3012   */\n      0x00\n        /* \"#utility.yul\":3034:3058   */\n      tag_395\n        /* \"#utility.yul\":3052:3057   */\n      dup3\n        /* \"#utility.yul\":3034:3058   */\n      tag_307\n      jump\t// in\n    tag_395:\n        /* \"#utility.yul\":3023:3058   */\n      swap1\n      pop\n        /* \"#utility.yul\":2968:3064   */\n      swap2\n      swap1\n      pop\n      jump\t// out\n        /* \"#utility.yul\":3070:3192   */\n    tag_315:\n        /* \"#utility.yul\":3143:3167   */\n      tag_397\n        /* \"#utility.yul\":3161:3166   */\n      dup2\n        /* \"#utility.yul\":3143:3167   */\n      tag_314\n      jump\t// in\n    tag_397:\n        /* \"#utility.yul\":3136:3141   */\n      dup2\n        /* \"#utility.yul\":3133:3168   */\n      eq\n        /* \"#utility.yul\":3123:3186   */\n      tag_398\n      jumpi\n        /* \"#utility.yul\":3182:3183   */\n      0x00\n        /* \"#utility.yul\":3179:3180   */\n      0x00\n        /* \"#utility.yul\":3172:3184   */\n      revert\n        /* \"#utility.yul\":3123:3186   */\n    tag_398:\n        /* \"#utility.yul\":3070:3192   */\n      pop\n      jump\t// out\n        /* \"#utility.yul\":3198:3337   */\n    tag_316:\n        /* \"#utility.yul\":3244:3249   */\n      0x00\n        /* \"#utility.yul\":3282:3288   */\n      dup2\n        /* \"#utility.yul\":3269:3289   */\n      calldataload\n        /* \"#utility.yul\":3260:3289   */\n      swap1\n      pop\n        /* \"#utility.yul\":3298:3331   */\n      tag_400\n        /* \"#utility.yul\":3325:3330   */\n      dup2\n        /* \"#utility.yul\":3298:3331   */\n      tag_315\n      jump\t// in\n    tag_400:\n        /* \"#utility.yul\":3198:3337   */\n      swap3\n      swap2\n      pop\n      pop\n      jump\t// out\n        /* \"#utility.yul\":3343:3817   */\n    tag_47:\n        /* \"#utility.yul\":3411:3417   */\n      0x00\n        /* \"#utility.yul\":3419:3425   */\n      0x00\n        /* \"#utility.yul\":3468:3470   */\n      0x40\n        /* \"#utility.yul\":3456:3465   */\n      dup4\n        /* \"#utility.yul\":3447:3454   */\n      dup6\n        /* \"#utility.yul\":3443:3466   */\n      sub\n        /* \"#utility.yul\":3439:3471   */\n      slt\n        /* \"#utility.yul\":3436:3555   */\n      iszero\n      tag_402\n      jumpi\n        /* \"#utility.yul\":3474:3553   */\n      tag_403\n      tag_305\n      jump\t// in\n    tag_403:\n        /* \"#utility.yul\":3436:3555   */\n    tag_402:\n        /* \"#utility.yul\":3594:3595   */\n      0x00\n        /* \"#utility.yul\":3619:3672   */\n      tag_404\n        /* \"#utility.yul\":3664:3671   */\n      dup6\n        /* \"#utility.yul\":3655:3661   */\n      dup3\n        /* \"#utility.yul\":3644:3653   */\n      dup7\n        /* \"#utility.yul\":3640:3662   */\n      add\n        /* \"#utility.yul\":3619:3672   */\n      tag_316\n      jump\t// in\n    tag_404:\n        /* \"#utility.yul\":3609:3672   */\n      swap3\n      pop\n        /* \"#utility.yul\":3565:3682   */\n      pop\n        /* \"#utility.yul\":3721:3723   */\n      0x20\n        /* \"#utility.yul\":3747:3800   */\n      tag_405\n        /* \"#utility.yul\":3792:3799   */\n      dup6\n        /* \"#utility.yul\":3783:3789   */\n      dup3\n        /* \"#utility.yul\":3772:3781   */\n      dup7\n        /* \"#utility.yul\":3768:3790   */\n      add\n        /* \"#utility.yul\":3747:3800   */\n      tag_313\n      jump\t// in\n    tag_405:\n        /* \"#utility.yul\":3737:3800   */\n      swap2\n      pop\n        /* \"#utility.yul\":3692:3810   */\n      pop\n        /* \"#utility.yul\":3343:3817   */\n      swap3\n      pop\n      swap3\n      swap1\n      pop\n      jump\t// out\n        /* \"#utility.yul\":3823:3913   */\n    tag_317:\n        /* \"#utility.yul\":3857:3864   */\n      0x00\n        /* \"#utility.yul\":3900:3905   */\n      dup2\n        /* \"#utility.yul\":3893:3906   */\n      iszero\n        /* \"#utility.yul\":3886:3907   */\n      iszero\n        /* \"#utility.yul\":3875:3907   */\n      swap1\n      pop\n        /* \"#utility.yul\":3823:3913   */\n      swap2\n      swap1\n      pop\n      jump\t// out\n        /* \"#utility.yul\":3919:4028   */\n    tag_318:\n        /* \"#utility.yul\":4000:4021   */\n      tag_408\n        /* \"#utility.yul\":4015:4020   */\n      dup2\n        /* \"#utility.yul\":4000:4021   */\n      tag_317\n      jump\t// in\n    tag_408:\n        /* \"#utility.yul\":3995:3998   */\n      dup3\n        /* \"#utility.yul\":3988:4022   */\n      mstore\n        /* \"#utility.yul\":3919:4028   */\n      pop\n      pop\n      jump\t// out\n        /* \"#utility.yul\":4034:4244   */\n    tag_50:\n        /* \"#utility.yul\":4121:4125   */\n      0x00\n        /* \"#utility.yul\":4159:4161   */\n      0x20\n        /* \"#utility.yul\":4148:4157   */\n      dup3\n        /* \"#utility.yul\":4144:4162   */\n      add\n        /* \"#utility.yul\":4136:4162   */\n      swap1\n      pop\n        /* \"#utility.yul\":4172:4237   */\n      tag_410\n        /* \"#utility.yul\":4234:4235   */\n      0x00\n        /* \"#utility.yul\":4223:4232   */\n      dup4\n        /* \"#utility.yul\":4219:4236   */\n      add\n        /* \"#utility.yul\":4210:4216   */\n      dup5\n        /* \"#utility.yul\":4172:4237   */\n      tag_318\n      jump\t// in\n    tag_410:\n        /* \"#utility.yul\":4034:4244   */\n      swap3\n      swap2\n      pop\n      pop\n      jump\t// out\n        /* \"#utility.yul\":4250:4368   */\n    tag_319:\n        /* \"#utility.yul\":4337:4361   */\n      tag_412\n        /* \"#utility.yul\":4355:4360   */\n      dup2\n        /* \"#utility.yul\":4337:4361   */\n      tag_311\n      jump\t// in\n    tag_412:\n        /* \"#utility.yul\":4332:4335   */\n      dup3\n        /* \"#utility.yul\":4325:4362   */\n      mstore\n        /* \"#utility.yul\":4250:4368   */\n      pop\n      pop\n      jump\t// out\n        /* \"#utility.yul\":4374:4596   */\n    tag_55:\n        /* \"#utility.yul\":4467:4471   */\n      0x00\n        /* \"#utility.yul\":4505:4507   */\n      0x20\n        /* \"#utility.yul\":4494:4503   */\n      dup3\n        /* \"#utility.yul\":4490:4508   */\n      add\n        /* \"#utility.yul\":4482:4508   */\n      swap1\n      pop\n        /* \"#utility.yul\":4518:4589   */\n      tag_414\n        /* \"#utility.yul\":4586:4587   */\n      0x00\n        /* \"#utility.yul\":4575:4584   */\n      dup4\n        /* \"#utility.yul\":4571:4588   */\n      add\n        /* \"#utility.yul\":4562:4568   */\n      dup5\n        /* \"#utility.yul\":4518:4589   */\n      tag_319\n      jump\t// in\n    tag_414:\n        /* \"#utility.yul\":4374:4596   */\n      swap3\n      swap2\n      pop\n      pop\n      jump\t// out\n        /* \"#utility.yul\":4602:5221   */\n    tag_59:\n        /* \"#utility.yul\":4679:4685   */\n      0x00\n        /* \"#utility.yul\":4687:4693   */\n      0x00\n        /* \"#utility.yul\":4695:4701   */\n      0x00\n        /* \"#utility.yul\":4744:4746   */\n      0x60\n        /* \"#utility.yul\":4732:4741   */\n      dup5\n        /* \"#utility.yul\":4723:4730   */\n      dup7\n        /* \"#utility.yul\":4719:4742   */\n      sub\n        /* \"#utility.yul\":4715:4747   */\n      slt\n        /* \"#utility.yul\":4712:4831   */\n      iszero\n      tag_416\n      jumpi\n        /* \"#utility.yul\":4750:4829   */\n      tag_417\n      tag_305\n      jump\t// in\n    tag_417:\n        /* \"#utility.yul\":4712:4831   */\n    tag_416:\n        /* \"#utility.yul\":4870:4871   */\n      0x00\n        /* \"#utility.yul\":4895:4948   */\n      tag_418\n        /* \"#utility.yul\":4940:4947   */\n      dup7\n        /* \"#utility.yul\":4931:4937   */\n      dup3\n        /* \"#utility.yul\":4920:4929   */\n      dup8\n        /* \"#utility.yul\":4916:4938   */\n      add\n        /* \"#utility.yul\":4895:4948   */\n      tag_316\n      jump\t// in\n    tag_418:\n        /* \"#utility.yul\":4885:4948   */\n      swap4\n      pop\n        /* \"#utility.yul\":4841:4958   */\n      pop\n        /* \"#utility.yul\":4997:4999   */\n      0x20\n        /* \"#utility.yul\":5023:5076   */\n      tag_419\n        /* \"#utility.yul\":5068:5075   */\n      dup7\n        /* \"#utility.yul\":5059:5065   */\n      dup3\n        /* \"#utility.yul\":5048:5057   */\n      dup8\n        /* \"#utility.yul\":5044:5066   */\n      add\n        /* \"#utility.yul\":5023:5076   */\n      tag_316\n      jump\t// in\n    tag_419:\n        /* \"#utility.yul\":5013:5076   */\n      swap3\n      pop\n        /* \"#utility.yul\":4968:5086   */\n      pop\n        /* \"#utility.yul\":5125:5127   */\n      0x40\n        /* \"#utility.yul\":5151:5204   */\n      tag_420\n        /* \"#utility.yul\":5196:5203   */\n      dup7\n        /* \"#utility.yul\":5187:5193   */\n      dup3\n        /* \"#utility.yul\":5176:5185   */\n      dup8\n        /* \"#utility.yul\":5172:5194   */\n      add\n        /* \"#utility.yul\":5151:5204   */\n      tag_313\n      jump\t// in\n    tag_420:\n        /* \"#utility.yul\":5141:5204   */\n      swap2\n      pop\n        /* \"#utility.yul\":5096:5214   */\n      pop\n        /* \"#utility.yul\":4602:5221   */\n      swap3\n      pop\n      swap3\n      pop\n      swap3\n      jump\t// out\n        /* \"#utility.yul\":5227:5313   */\n    tag_320:\n        /* \"#utility.yul\":5262:5269   */\n      0x00\n        /* \"#utility.yul\":5302:5306   */\n      0xff\n        /* \"#utility.yul\":5295:5300   */\n      dup3\n        /* \"#utility.yul\":5291:5307   */\n      and\n        /* \"#utility.yul\":5280:5307   */\n      swap1\n      pop\n        /* \"#utility.yul\":5227:5313   */\n      swap2\n      swap1\n      pop\n      jump\t// out\n        /* \"#utility.yul\":5319:5431   */\n    tag_321:\n        /* \"#utility.yul\":5402:5424   */\n      tag_423\n        /* \"#utility.yul\":5418:5423   */\n      dup2\n        /* \"#utility.yul\":5402:5424   */\n      tag_320\n      jump\t// in\n    tag_423:\n        /* \"#utility.yul\":5397:5400   */\n      dup3\n        /* \"#utility.yul\":5390:5425   */\n      mstore\n        /* \"#utility.yul\":5319:5431   */\n      pop\n      pop\n      jump\t// out\n        /* \"#utility.yul\":5437:5651   */\n    tag_66:\n        /* \"#utility.yul\":5526:5530   */\n      0x00\n        /* \"#utility.yul\":5564:5566   */\n      0x20\n        /* \"#utility.yul\":5553:5562   */\n      dup3\n        /* \"#utility.yul\":5549:5567   */\n      add\n        /* \"#utility.yul\":5541:5567   */\n      swap1\n      pop\n        /* \"#utility.yul\":5577:5644   */\n      tag_425\n        /* \"#utility.yul\":5641:5642   */\n      0x00\n        /* \"#utility.yul\":5630:5639   */\n      dup4\n        /* \"#utility.yul\":5626:5643   */\n      add\n        /* \"#utility.yul\":5617:5623   */\n      dup5\n        /* \"#utility.yul\":5577:5644   */\n      tag_321\n      jump\t// in\n    tag_425:\n        /* \"#utility.yul\":5437:5651   */\n      swap3\n      swap2\n      pop\n      pop\n      jump\t// out\n        /* \"#utility.yul\":5657:5986   */\n    tag_74:\n        /* \"#utility.yul\":5716:5722   */\n      0x00\n        /* \"#utility.yul\":5765:5767   */\n      0x20\n        /* \"#utility.yul\":5753:5762   */\n      dup3\n        /* \"#utility.yul\":5744:5751   */\n      dup5\n        /* \"#utility.yul\":5740:5763   */\n      sub\n        /* \"#utility.yul\":5736:5768   */\n      slt\n        /* \"#utility.yul\":5733:5852   */\n      iszero\n      tag_427\n      jumpi\n        /* \"#utility.yul\":5771:5850   */\n      tag_428\n      tag_305\n      jump\t// in\n    tag_428:\n        /* \"#utility.yul\":5733:5852   */\n    tag_427:\n        /* \"#utility.yul\":5891:5892   */\n      0x00\n        /* \"#utility.yul\":5916:5969   */\n      tag_429\n        /* \"#utility.yul\":5961:5968   */\n      dup5\n        /* \"#utility.yul\":5952:5958   */\n      dup3\n        /* \"#utility.yul\":5941:5950   */\n      dup6\n        /* \"#utility.yul\":5937:5959   */\n      add\n        /* \"#utility.yul\":5916:5969   */\n      tag_316\n      jump\t// in\n    tag_429:\n        /* \"#utility.yul\":5906:5969   */\n      swap2\n      pop\n        /* \"#utility.yul\":5862:5979   */\n      pop\n        /* \"#utility.yul\":5657:5986   */\n      swap3\n      swap2\n      pop\n      pop\n      jump\t// out\n        /* \"#utility.yul\":5992:6110   */\n    tag_322:\n        /* \"#utility.yul\":6079:6103   */\n      tag_431\n        /* \"#utility.yul\":6097:6102   */\n      dup2\n        /* \"#utility.yul\":6079:6103   */\n      tag_314\n      jump\t// in\n    tag_431:\n        /* \"#utility.yul\":6074:6077   */\n      dup3\n        /* \"#utility.yul\":6067:6104   */\n      mstore\n        /* \"#utility.yul\":5992:6110   */\n      pop\n      pop\n      jump\t// out\n        /* \"#utility.yul\":6116:6338   */\n    tag_88:\n        /* \"#utility.yul\":6209:6213   */\n      0x00\n        /* \"#utility.yul\":6247:6249   */\n      0x20\n        /* \"#utility.yul\":6236:6245   */\n      dup3\n        /* \"#utility.yul\":6232:6250   */\n      add\n        /* \"#utility.yul\":6224:6250   */\n      swap1\n      pop\n        /* \"#utility.yul\":6260:6331   */\n      tag_433\n        /* \"#utility.yul\":6328:6329   */\n      0x00\n        /* \"#utility.yul\":6317:6326   */\n      dup4\n        /* \"#utility.yul\":6313:6330   */\n      add\n        /* \"#utility.yul\":6304:6310   */\n      dup5\n        /* \"#utility.yul\":6260:6331   */\n      tag_322\n      jump\t// in\n    tag_433:\n        /* \"#utility.yul\":6116:6338   */\n      swap3\n      swap2\n      pop\n      pop\n      jump\t// out\n        /* \"#utility.yul\":6344:6461   */\n    tag_323:\n        /* \"#utility.yul\":6453:6454   */\n      0x00\n        /* \"#utility.yul\":6450:6451   */\n      0x00\n        /* \"#utility.yul\":6443:6455   */\n      revert\n        /* \"#utility.yul\":6467:6584   */\n    tag_324:\n        /* \"#utility.yul\":6576:6577   */\n      0x00\n        /* \"#utility.yul\":6573:6574   */\n      0x00\n        /* \"#utility.yul\":6566:6578   */\n      revert\n        /* \"#utility.yul\":6590:6770   */\n    tag_325:\n        /* \"#utility.yul\":6638:6715   */\n      0x4e487b7100000000000000000000000000000000000000000000000000000000\n        /* \"#utility.yul\":6635:6636   */\n      0x00\n        /* \"#utility.yul\":6628:6716   */\n      mstore\n        /* \"#utility.yul\":6735:6739   */\n      0x41\n        /* \"#utility.yul\":6732:6733   */\n      0x04\n        /* \"#utility.yul\":6725:6740   */\n      mstore\n        /* \"#utility.yul\":6759:6763   */\n      0x24\n        /* \"#utility.yul\":6756:6757   */\n      0x00\n        /* \"#utility.yul\":6749:6764   */\n      revert\n        /* \"#utility.yul\":6776:7057   */\n    tag_326:\n        /* \"#utility.yul\":6859:6886   */\n      tag_438\n        /* \"#utility.yul\":6881:6885   */\n      dup3\n        /* \"#utility.yul\":6859:6886   */\n      tag_302\n      jump\t// in\n    tag_438:\n        /* \"#utility.yul\":6851:6857   */\n      dup2\n        /* \"#utility.yul\":6847:6887   */\n      add\n        /* \"#utility.yul\":6989:6995   */\n      dup2\n        /* \"#utility.yul\":6977:6987   */\n      dup2\n        /* \"#utility.yul\":6974:6996   */\n      lt\n        /* \"#utility.yul\":6953:6971   */\n      0xffffffffffffffff\n        /* \"#utility.yul\":6941:6951   */\n      dup3\n        /* \"#utility.yul\":6938:6972   */\n      gt\n        /* \"#utility.yul\":6935:6997   */\n      or\n        /* \"#utility.yul\":6932:7020   */\n      iszero\n      tag_439\n      jumpi\n        /* \"#utility.yul\":7000:7018   */\n      tag_440\n      tag_325\n      jump\t// in\n    tag_440:\n        /* \"#utility.yul\":6932:7020   */\n    tag_439:\n        /* \"#utility.yul\":7040:7050   */\n      dup1\n        /* \"#utility.yul\":7036:7038   */\n      0x40\n        /* \"#utility.yul\":7029:7051   */\n      mstore\n        /* \"#utility.yul\":6819:7057   */\n      pop\n        /* \"#utility.yul\":6776:7057   */\n      pop\n      pop\n      jump\t// out\n        /* \"#utility.yul\":7063:7192   */\n    tag_327:\n        /* \"#utility.yul\":7097:7103   */\n      0x00\n        /* \"#utility.yul\":7124:7144   */\n      tag_442\n      tag_304\n      jump\t// in\n    tag_442:\n        /* \"#utility.yul\":7114:7144   */\n      swap1\n      pop\n        /* \"#utility.yul\":7153:7186   */\n      tag_443\n        /* \"#utility.yul\":7181:7185   */\n      dup3\n        /* \"#utility.yul\":7173:7179   */\n      dup3\n        /* \"#utility.yul\":7153:7186   */\n      tag_326\n      jump\t// in\n    tag_443:\n        /* \"#utility.yul\":7063:7192   */\n      swap2\n      swap1\n      pop\n      jump\t// out\n        /* \"#utility.yul\":7198:7506   */\n    tag_328:\n        /* \"#utility.yul\":7260:7264   */\n      0x00\n        /* \"#utility.yul\":7350:7368   */\n      0xffffffffffffffff\n        /* \"#utility.yul\":7342:7348   */\n      dup3\n        /* \"#utility.yul\":7339:7369   */\n      gt\n        /* \"#utility.yul\":7336:7392   */\n      iszero\n      tag_445\n      jumpi\n        /* \"#utility.yul\":7372:7390   */\n      tag_446\n      tag_325\n      jump\t// in\n    tag_446:\n        /* \"#utility.yul\":7336:7392   */\n    tag_445:\n        /* \"#utility.yul\":7410:7439   */\n      tag_447\n        /* \"#utility.yul\":7432:7438   */\n      dup3\n        /* \"#utility.yul\":7410:7439   */\n      tag_302\n      jump\t// in\n    tag_447:\n        /* \"#utility.yul\":7402:7439   */\n      swap1\n      pop\n        /* \"#utility.yul\":7494:7498   */\n      0x20\n        /* \"#utility.yul\":7488:7492   */\n      dup2\n        /* \"#utility.yul\":7484:7499   */\n      add\n        /* \"#utility.yul\":7476:7499   */\n      swap1\n      pop\n        /* \"#utility.yul\":7198:7506   */\n      swap2\n      swap1\n      pop\n      jump\t// out\n        /* \"#utility.yul\":7512:7660   */\n    tag_329:\n        /* \"#utility.yul\":7610:7616   */\n      dup3\n        /* \"#utility.yul\":7605:7608   */\n      dup2\n        /* \"#utility.yul\":7600:7603   */\n      dup4\n        /* \"#utility.yul\":7587:7617   */\n      calldatacopy\n        /* \"#utility.yul\":7651:7652   */\n      0x00\n        /* \"#utility.yul\":7642:7648   */\n      dup4\n        /* \"#utility.yul\":7637:7640   */\n      dup4\n        /* \"#utility.yul\":7633:7649   */\n      add\n        /* \"#utility.yul\":7626:7653   */\n      mstore\n        /* \"#utility.yul\":7512:7660   */\n      pop\n      pop\n      pop\n      jump\t// out\n        /* \"#utility.yul\":7666:8091   */\n    tag_330:\n        /* \"#utility.yul\":7744:7749   */\n      0x00\n        /* \"#utility.yul\":7769:7835   */\n      tag_450\n        /* \"#utility.yul\":7785:7834   */\n      tag_451\n        /* \"#utility.yul\":7827:7833   */\n      dup5\n        /* \"#utility.yul\":7785:7834   */\n      tag_328\n      jump\t// in\n    tag_451:\n        /* \"#utility.yul\":7769:7835   */\n      tag_327\n      jump\t// in\n    tag_450:\n        /* \"#utility.yul\":7760:7835   */\n      swap1\n      pop\n        /* \"#utility.yul\":7858:7864   */\n      dup3\n        /* \"#utility.yul\":7851:7856   */\n      dup2\n        /* \"#utility.yul\":7844:7865   */\n      mstore\n        /* \"#utility.yul\":7896:7900   */\n      0x20\n        /* \"#utility.yul\":7889:7894   */\n      dup2\n        /* \"#utility.yul\":7885:7901   */\n      add\n        /* \"#utility.yul\":7934:7937   */\n      dup5\n        /* \"#utility.yul\":7925:7931   */\n      dup5\n        /* \"#utility.yul\":7920:7923   */\n      dup5\n        /* \"#utility.yul\":7916:7932   */\n      add\n        /* \"#utility.yul\":7913:7938   */\n      gt\n        /* \"#utility.yul\":7910:8022   */\n      iszero\n      tag_452\n      jumpi\n        /* \"#utility.yul\":7941:8020   */\n      tag_453\n      tag_324\n      jump\t// in\n    tag_453:\n        /* \"#utility.yul\":7910:8022   */\n    tag_452:\n        /* \"#utility.yul\":8031:8085   */\n      tag_454\n        /* \"#utility.yul\":8078:8084   */\n      dup5\n        /* \"#utility.yul\":8073:8076   */\n      dup3\n        /* \"#utility.yul\":8068:8071   */\n      dup6\n        /* \"#utility.yul\":8031:8085   */\n      tag_329\n      jump\t// in\n    tag_454:\n        /* \"#utility.yul\":7750:8091   */\n      pop\n        /* \"#utility.yul\":7666:8091   */\n      swap4\n      swap3\n      pop\n      pop\n      pop\n      jump\t// out\n        /* \"#utility.yul\":8111:8451   */\n    tag_331:\n        /* \"#utility.yul\":8167:8172   */\n      0x00\n        /* \"#utility.yul\":8216:8219   */\n      dup3\n        /* \"#utility.yul\":8209:8213   */\n      0x1f\n        /* \"#utility.yul\":8201:8207   */\n      dup4\n        /* \"#utility.yul\":8197:8214   */\n      add\n        /* \"#utility.yul\":8193:8220   */\n      slt\n        /* \"#utility.yul\":8183:8305   */\n      tag_456\n      jumpi\n        /* \"#utility.yul\":8224:8303   */\n      tag_457\n      tag_323\n      jump\t// in\n    tag_457:\n        /* \"#utility.yul\":8183:8305   */\n    tag_456:\n        /* \"#utility.yul\":8341:8347   */\n      dup2\n        /* \"#utility.yul\":8328:8348   */\n      calldataload\n        /* \"#utility.yul\":8366:8445   */\n      tag_458\n        /* \"#utility.yul\":8441:8444   */\n      dup5\n        /* \"#utility.yul\":8433:8439   */\n      dup3\n        /* \"#utility.yul\":8426:8430   */\n      0x20\n        /* \"#utility.yul\":8418:8424   */\n      dup7\n        /* \"#utility.yul\":8414:8431   */\n      add\n        /* \"#utility.yul\":8366:8445   */\n      tag_330\n      jump\t// in\n    tag_458:\n        /* \"#utility.yul\":8357:8445   */\n      swap2\n      pop\n        /* \"#utility.yul\":8173:8451   */\n      pop\n        /* \"#utility.yul\":8111:8451   */\n      swap3\n      swap2\n      pop\n      pop\n      jump\t// out\n        /* \"#utility.yul\":8457:8966   */\n    tag_109:\n        /* \"#utility.yul\":8526:8532   */\n      0x00\n        /* \"#utility.yul\":8575:8577   */\n      0x20\n        /* \"#utility.yul\":8563:8572   */\n      dup3\n        /* \"#utility.yul\":8554:8561   */\n      dup5\n        /* \"#utility.yul\":8550:8573   */\n      sub\n        /* \"#utility.yul\":8546:8578   */\n      slt\n        /* \"#utility.yul\":8543:8662   */\n      iszero\n      tag_460\n      jumpi\n        /* \"#utility.yul\":8581:8660   */\n      tag_461\n      tag_305\n      jump\t// in\n    tag_461:\n        /* \"#utility.yul\":8543:8662   */\n    tag_460:\n        /* \"#utility.yul\":8729:8730   */\n      0x00\n        /* \"#utility.yul\":8718:8727   */\n      dup3\n        /* \"#utility.yul\":8714:8731   */\n      add\n        /* \"#utility.yul\":8701:8732   */\n      calldataload\n        /* \"#utility.yul\":8759:8777   */\n      0xffffffffffffffff\n        /* \"#utility.yul\":8751:8757   */\n      dup2\n        /* \"#utility.yul\":8748:8778   */\n      gt\n        /* \"#utility.yul\":8745:8862   */\n      iszero\n      tag_462\n      jumpi\n        /* \"#utility.yul\":8781:8860   */\n      tag_463\n      tag_306\n      jump\t// in\n    tag_463:\n        /* \"#utility.yul\":8745:8862   */\n    tag_462:\n        /* \"#utility.yul\":8886:8949   */\n      tag_464\n        /* \"#utility.yul\":8941:8948   */\n      dup5\n        /* \"#utility.yul\":8932:8938   */\n      dup3\n        /* \"#utility.yul\":8921:8930   */\n      dup6\n        /* \"#utility.yul\":8917:8939   */\n      add\n        /* \"#utility.yul\":8886:8949   */\n      tag_331\n      jump\t// in\n    tag_464:\n        /* \"#utility.yul\":8876:8949   */\n      swap2\n      pop\n        /* \"#utility.yul\":8672:8959   */\n      pop\n        /* \"#utility.yul\":8457:8966   */\n      swap3\n      swap2\n      pop\n      pop\n      jump\t// out\n        /* \"#utility.yul\":8972:9301   */\n    tag_114:\n        /* \"#utility.yul\":9031:9037   */\n      0x00\n        /* \"#utility.yul\":9080:9082   */\n      0x20\n        /* \"#utility.yul\":9068:9077   */\n      dup3\n        /* \"#utility.yul\":9059:9066   */\n      dup5\n        /* \"#utility.yul\":9055:9078   */\n      sub\n        /* \"#utility.yul\":9051:9083   */\n      slt\n        /* \"#utility.yul\":9048:9167   */\n      iszero\n      tag_466\n      jumpi\n        /* \"#utility.yul\":9086:9165   */\n      tag_467\n      tag_305\n      jump\t// in\n    tag_467:\n        /* \"#utility.yul\":9048:9167   */\n    tag_466:\n        /* \"#utility.yul\":9206:9207   */\n      0x00\n        /* \"#utility.yul\":9231:9284   */\n      tag_468\n        /* \"#utility.yul\":9276:9283   */\n      dup5\n        /* \"#utility.yul\":9267:9273   */\n      dup3\n        /* \"#utility.yul\":9256:9265   */\n      dup6\n        /* \"#utility.yul\":9252:9274   */\n      add\n        /* \"#utility.yul\":9231:9284   */\n      tag_313\n      jump\t// in\n    tag_468:\n        /* \"#utility.yul\":9221:9284   */\n      swap2\n      pop\n        /* \"#utility.yul\":9177:9294   */\n      pop\n        /* \"#utility.yul\":8972:9301   */\n      swap3\n      swap2\n      pop\n      pop\n      jump\t// out\n        /* \"#utility.yul\":9307:9781   */\n    tag_126:\n        /* \"#utility.yul\":9375:9381   */\n      0x00\n        /* \"#utility.yul\":9383:9389   */\n      0x00\n        /* \"#utility.yul\":9432:9434   */\n      0x40\n        /* \"#utility.yul\":9420:9429   */\n      dup4\n        /* \"#utility.yul\":9411:9418   */\n      dup6\n        /* \"#utility.yul\":9407:9430   */\n      sub\n        /* \"#utility.yul\":9403:9435   */\n      slt\n        /* \"#utility.yul\":9400:9519   */\n      iszero\n      tag_470\n      jumpi\n        /* \"#utility.yul\":9438:9517   */\n      tag_471\n      tag_305\n      jump\t// in\n    tag_471:\n        /* \"#utility.yul\":9400:9519   */\n    tag_470:\n        /* \"#utility.yul\":9558:9559   */\n      0x00\n        /* \"#utility.yul\":9583:9636   */\n      tag_472\n        /* \"#utility.yul\":9628:9635   */\n      dup6\n        /* \"#utility.yul\":9619:9625   */\n      dup3\n        /* \"#utility.yul\":9608:9617   */\n      dup7\n        /* \"#utility.yul\":9604:9626   */\n      add\n        /* \"#utility.yul\":9583:9636   */\n      tag_316\n      jump\t// in\n    tag_472:\n        /* \"#utility.yul\":9573:9636   */\n      swap3\n      pop\n        /* \"#utility.yul\":9529:9646   */\n      pop\n        /* \"#utility.yul\":9685:9687   */\n      0x20\n        /* \"#utility.yul\":9711:9764   */\n      tag_473\n        /* \"#utility.yul\":9756:9763   */\n      dup6\n        /* \"#utility.yul\":9747:9753   */\n      dup3\n        /* \"#utility.yul\":9736:9745   */\n      dup7\n        /* \"#utility.yul\":9732:9754   */\n      add\n        /* \"#utility.yul\":9711:9764   */\n      tag_316\n      jump\t// in\n    tag_473:\n        /* \"#utility.yul\":9701:9764   */\n      swap2\n      pop\n        /* \"#utility.yul\":9656:9774   */\n      pop\n        /* \"#utility.yul\":9307:9781   */\n      swap3\n      pop\n      swap3\n      swap1\n      pop\n      jump\t// out\n        /* \"#utility.yul\":9787:9957   */\n    tag_332:\n        /* \"#utility.yul\":9927:9949   */\n      0x4e6f206e61746976652076616c75652073656e74000000000000000000000000\n        /* \"#utility.yul\":9923:9924   */\n      0x00\n        /* \"#utility.yul\":9915:9921   */\n      dup3\n        /* \"#utility.yul\":9911:9925   */\n      add\n        /* \"#utility.yul\":9904:9950   */\n      mstore\n        /* \"#utility.yul\":9787:9957   */\n      pop\n      jump\t// out\n        /* \"#utility.yul\":9963:10329   */\n    tag_333:\n        /* \"#utility.yul\":10105:10108   */\n      0x00\n        /* \"#utility.yul\":10126:10193   */\n      tag_476\n        /* \"#utility.yul\":10190:10192   */\n      0x14\n        /* \"#utility.yul\":10185:10188   */\n      dup4\n        /* \"#utility.yul\":10126:10193   */\n      tag_300\n      jump\t// in\n    tag_476:\n        /* \"#utility.yul\":10119:10193   */\n      swap2\n      pop\n        /* \"#utility.yul\":10202:10295   */\n      tag_477\n        /* \"#utility.yul\":10291:10294   */\n      dup3\n        /* \"#utility.yul\":10202:10295   */\n      tag_332\n      jump\t// in\n    tag_477:\n        /* \"#utility.yul\":10320:10322   */\n      0x20\n        /* \"#utility.yul\":10315:10318   */\n      dup3\n        /* \"#utility.yul\":10311:10323   */\n      add\n        /* \"#utility.yul\":10304:10323   */\n      swap1\n      pop\n        /* \"#utility.yul\":9963:10329   */\n      swap2\n      swap1\n      pop\n      jump\t// out\n        /* \"#utility.yul\":10335:10754   */\n    tag_136:\n        /* \"#utility.yul\":10501:10505   */\n      0x00\n        /* \"#utility.yul\":10539:10541   */\n      0x20\n        /* \"#utility.yul\":10528:10537   */\n      dup3\n        /* \"#utility.yul\":10524:10542   */\n      add\n        /* \"#utility.yul\":10516:10542   */\n      swap1\n      pop\n        /* \"#utility.yul\":10588:10597   */\n      dup2\n        /* \"#utility.yul\":10582:10586   */\n      dup2\n        /* \"#utility.yul\":10578:10598   */\n      sub\n        /* \"#utility.yul\":10574:10575   */\n      0x00\n        /* \"#utility.yul\":10563:10572   */\n      dup4\n        /* \"#utility.yul\":10559:10576   */\n      add\n        /* \"#utility.yul\":10552:10599   */\n      mstore\n        /* \"#utility.yul\":10616:10747   */\n      tag_479\n        /* \"#utility.yul\":10742:10746   */\n      dup2\n        /* \"#utility.yul\":10616:10747   */\n      tag_333\n      jump\t// in\n    tag_479:\n        /* \"#utility.yul\":10608:10747   */\n      swap1\n      pop\n        /* \"#utility.yul\":10335:10754   */\n      swap2\n      swap1\n      pop\n      jump\t// out\n        /* \"#utility.yul\":10760:10940   */\n    tag_334:\n        /* \"#utility.yul\":10808:10885   */\n      0x4e487b7100000000000000000000000000000000000000000000000000000000\n        /* \"#utility.yul\":10805:10806   */\n      0x00\n        /* \"#utility.yul\":10798:10886   */\n      mstore\n        /* \"#utility.yul\":10905:10909   */\n      0x11\n        /* \"#utility.yul\":10902:10903   */\n      0x04\n        /* \"#utility.yul\":10895:10910   */\n      mstore\n        /* \"#utility.yul\":10929:10933   */\n      0x24\n        /* \"#utility.yul\":10926:10927   */\n      0x00\n        /* \"#utility.yul\":10919:10934   */\n      revert\n        /* \"#utility.yul\":10946:11356   */\n    tag_138:\n        /* \"#utility.yul\":10986:10993   */\n      0x00\n        /* \"#utility.yul\":11009:11029   */\n      tag_482\n        /* \"#utility.yul\":11027:11028   */\n      dup3\n        /* \"#utility.yul\":11009:11029   */\n      tag_311\n      jump\t// in\n    tag_482:\n        /* \"#utility.yul\":11004:11029   */\n      swap2\n      pop\n        /* \"#utility.yul\":11043:11063   */\n      tag_483\n        /* \"#utility.yul\":11061:11062   */\n      dup4\n        /* \"#utility.yul\":11043:11063   */\n      tag_311\n      jump\t// in\n    tag_483:\n        /* \"#utility.yul\":11038:11063   */\n      swap3\n      pop\n        /* \"#utility.yul\":11098:11099   */\n      dup3\n        /* \"#utility.yul\":11095:11096   */\n      dup3\n        /* \"#utility.yul\":11091:11100   */\n      mul\n        /* \"#utility.yul\":11120:11150   */\n      tag_484\n        /* \"#utility.yul\":11138:11149   */\n      dup2\n        /* \"#utility.yul\":11120:11150   */\n      tag_311\n      jump\t// in\n    tag_484:\n        /* \"#utility.yul\":11109:11150   */\n      swap2\n      pop\n        /* \"#utility.yul\":11299:11300   */\n      dup3\n        /* \"#utility.yul\":11290:11297   */\n      dup3\n        /* \"#utility.yul\":11286:11301   */\n      div\n        /* \"#utility.yul\":11283:11284   */\n      dup5\n        /* \"#utility.yul\":11280:11302   */\n      eq\n        /* \"#utility.yul\":11260:11261   */\n      dup4\n        /* \"#utility.yul\":11253:11262   */\n      iszero\n        /* \"#utility.yul\":11233:11316   */\n      or\n        /* \"#utility.yul\":11210:11349   */\n      tag_485\n      jumpi\n        /* \"#utility.yul\":11329:11347   */\n      tag_486\n      tag_334\n      jump\t// in\n    tag_486:\n        /* \"#utility.yul\":11210:11349   */\n    tag_485:\n        /* \"#utility.yul\":10994:11356   */\n      pop\n        /* \"#utility.yul\":10946:11356   */\n      swap3\n      swap2\n      pop\n      pop\n      jump\t// out\n        /* \"#utility.yul\":11362:11694   */\n    tag_142:\n        /* \"#utility.yul\":11483:11487   */\n      0x00\n        /* \"#utility.yul\":11521:11523   */\n      0x40\n        /* \"#utility.yul\":11510:11519   */\n      dup3\n        /* \"#utility.yul\":11506:11524   */\n      add\n        /* \"#utility.yul\":11498:11524   */\n      swap1\n      pop\n        /* \"#utility.yul\":11534:11605   */\n      tag_488\n        /* \"#utility.yul\":11602:11603   */\n      0x00\n        /* \"#utility.yul\":11591:11600   */\n      dup4\n        /* \"#utility.yul\":11587:11604   */\n      add\n        /* \"#utility.yul\":11578:11584   */\n      dup6\n        /* \"#utility.yul\":11534:11605   */\n      tag_319\n      jump\t// in\n    tag_488:\n        /* \"#utility.yul\":11615:11687   */\n      tag_489\n        /* \"#utility.yul\":11683:11685   */\n      0x20\n        /* \"#utility.yul\":11672:11681   */\n      dup4\n        /* \"#utility.yul\":11668:11686   */\n      add\n        /* \"#utility.yul\":11659:11665   */\n      dup5\n        /* \"#utility.yul\":11615:11687   */\n      tag_319\n      jump\t// in\n    tag_489:\n        /* \"#utility.yul\":11362:11694   */\n      swap4\n      swap3\n      pop\n      pop\n      pop\n      jump\t// out\n        /* \"#utility.yul\":11700:11880   */\n    tag_335:\n        /* \"#utility.yul\":11748:11825   */\n      0x4e487b7100000000000000000000000000000000000000000000000000000000\n        /* \"#utility.yul\":11745:11746   */\n      0x00\n        /* \"#utility.yul\":11738:11826   */\n      mstore\n        /* \"#utility.yul\":11845:11849   */\n      0x22\n        /* \"#utility.yul\":11842:11843   */\n      0x04\n        /* \"#utility.yul\":11835:11850   */\n      mstore\n        /* \"#utility.yul\":11869:11873   */\n      0x24\n        /* \"#utility.yul\":11866:11867   */\n      0x00\n        /* \"#utility.yul\":11859:11874   */\n      revert\n        /* \"#utility.yul\":11886:12206   */\n    tag_145:\n        /* \"#utility.yul\":11930:11936   */\n      0x00\n        /* \"#utility.yul\":11967:11968   */\n      0x02\n        /* \"#utility.yul\":11961:11965   */\n      dup3\n        /* \"#utility.yul\":11957:11969   */\n      div\n        /* \"#utility.yul\":11947:11969   */\n      swap1\n      pop\n        /* \"#utility.yul\":12014:12015   */\n      0x01\n        /* \"#utility.yul\":12008:12012   */\n      dup3\n        /* \"#utility.yul\":12004:12016   */\n      and\n        /* \"#utility.yul\":12035:12053   */\n      dup1\n        /* \"#utility.yul\":12025:12106   */\n      tag_492\n      jumpi\n        /* \"#utility.yul\":12091:12095   */\n      0x7f\n        /* \"#utility.yul\":12083:12089   */\n      dup3\n        /* \"#utility.yul\":12079:12096   */\n      and\n        /* \"#utility.yul\":12069:12096   */\n      swap2\n      pop\n        /* \"#utility.yul\":12025:12106   */\n    tag_492:\n        /* \"#utility.yul\":12153:12155   */\n      0x20\n        /* \"#utility.yul\":12145:12151   */\n      dup3\n        /* \"#utility.yul\":12142:12156   */\n      lt\n        /* \"#utility.yul\":12122:12140   */\n      dup2\n        /* \"#utility.yul\":12119:12157   */\n      sub\n        /* \"#utility.yul\":12116:12200   */\n      tag_493\n      jumpi\n        /* \"#utility.yul\":12172:12190   */\n      tag_494\n      tag_335\n      jump\t// in\n    tag_494:\n        /* \"#utility.yul\":12116:12200   */\n    tag_493:\n        /* \"#utility.yul\":11937:12206   */\n      pop\n        /* \"#utility.yul\":11886:12206   */\n      swap2\n      swap1\n      pop\n      jump\t// out\n        /* \"#utility.yul\":12212:12382   */\n    tag_336:\n        /* \"#utility.yul\":12352:12374   */\n      0x496e73756666696369656e742062616c616e6365000000000000000000000000\n        /* \"#utility.yul\":12348:12349   */\n      0x00\n        /* \"#utility.yul\":12340:12346   */\n      dup3\n        /* \"#utility.yul\":12336:12350   */\n      add\n        /* \"#utility.yul\":12329:12375   */\n      mstore\n        /* \"#utility.yul\":12212:12382   */\n      pop\n      jump\t// out\n        /* \"#utility.yul\":12388:12754   */\n    tag_337:\n        /* \"#utility.yul\":12530:12533   */\n      0x00\n        /* \"#utility.yul\":12551:12618   */\n      tag_497\n        /* \"#utility.yul\":12615:12617   */\n      0x14\n        /* \"#utility.yul\":12610:12613   */\n      dup4\n        /* \"#utility.yul\":12551:12618   */\n      tag_300\n      jump\t// in\n    tag_497:\n        /* \"#utility.yul\":12544:12618   */\n      swap2\n      pop\n        /* \"#utility.yul\":12627:12720   */\n      tag_498\n        /* \"#utility.yul\":12716:12719   */\n      dup3\n        /* \"#utility.yul\":12627:12720   */\n      tag_336\n      jump\t// in\n    tag_498:\n        /* \"#utility.yul\":12745:12747   */\n      0x20\n        /* \"#utility.yul\":12740:12743   */\n      dup3\n        /* \"#utility.yul\":12736:12748   */\n      add\n        /* \"#utility.yul\":12729:12748   */\n      swap1\n      pop\n        /* \"#utility.yul\":12388:12754   */\n      swap2\n      swap1\n      pop\n      jump\t// out\n        /* \"#utility.yul\":12760:13179   */\n    tag_156:\n        /* \"#utility.yul\":12926:12930   */\n      0x00\n        /* \"#utility.yul\":12964:12966   */\n      0x20\n        /* \"#utility.yul\":12953:12962   */\n      dup3\n        /* \"#utility.yul\":12949:12967   */\n      add\n        /* \"#utility.yul\":12941:12967   */\n      swap1\n      pop\n        /* \"#utility.yul\":13013:13022   */\n      dup2\n        /* \"#utility.yul\":13007:13011   */\n      dup2\n        /* \"#utility.yul\":13003:13023   */\n      sub\n        /* \"#utility.yul\":12999:13000   */\n      0x00\n        /* \"#utility.yul\":12988:12997   */\n      dup4\n        /* \"#utility.yul\":12984:13001   */\n      add\n        /* \"#utility.yul\":12977:13024   */\n      mstore\n        /* \"#utility.yul\":13041:13172   */\n      tag_500\n        /* \"#utility.yul\":13167:13171   */\n      dup2\n        /* \"#utility.yul\":13041:13172   */\n      tag_337\n      jump\t// in\n    tag_500:\n        /* \"#utility.yul\":13033:13172   */\n      swap1\n      pop\n        /* \"#utility.yul\":12760:13179   */\n      swap2\n      swap1\n      pop\n      jump\t// out\n        /* \"#utility.yul\":13185:13332   */\n    tag_338:\n        /* \"#utility.yul\":13286:13297   */\n      0x00\n        /* \"#utility.yul\":13323:13326   */\n      dup2\n        /* \"#utility.yul\":13308:13326   */\n      swap1\n      pop\n        /* \"#utility.yul\":13185:13332   */\n      swap3\n      swap2\n      pop\n      pop\n      jump\t// out\n        /* \"#utility.yul\":13338:13452   */\n    tag_339:\n      pop\n      jump\t// out\n        /* \"#utility.yul\":13458:13856   */\n    tag_340:\n        /* \"#utility.yul\":13617:13620   */\n      0x00\n        /* \"#utility.yul\":13638:13721   */\n      tag_504\n        /* \"#utility.yul\":13719:13720   */\n      0x00\n        /* \"#utility.yul\":13714:13717   */\n      dup4\n        /* \"#utility.yul\":13638:13721   */\n      tag_338\n      jump\t// in\n    tag_504:\n        /* \"#utility.yul\":13631:13721   */\n      swap2\n      pop\n        /* \"#utility.yul\":13730:13823   */\n      tag_505\n        /* \"#utility.yul\":13819:13822   */\n      dup3\n        /* \"#utility.yul\":13730:13823   */\n      tag_339\n      jump\t// in\n    tag_505:\n        /* \"#utility.yul\":13848:13849   */\n      0x00\n        /* \"#utility.yul\":13843:13846   */\n      dup3\n        /* \"#utility.yul\":13839:13850   */\n      add\n        /* \"#utility.yul\":13832:13850   */\n      swap1\n      pop\n        /* \"#utility.yul\":13458:13856   */\n      swap2\n      swap1\n      pop\n      jump\t// out\n        /* \"#utility.yul\":13862:14241   */\n    tag_158:\n        /* \"#utility.yul\":14046:14049   */\n      0x00\n        /* \"#utility.yul\":14068:14215   */\n      tag_507\n        /* \"#utility.yul\":14211:14214   */\n      dup3\n        /* \"#utility.yul\":14068:14215   */\n      tag_340\n      jump\t// in\n    tag_507:\n        /* \"#utility.yul\":14061:14215   */\n      swap2\n      pop\n        /* \"#utility.yul\":14232:14235   */\n      dup2\n        /* \"#utility.yul\":14225:14235   */\n      swap1\n      pop\n        /* \"#utility.yul\":13862:14241   */\n      swap2\n      swap1\n      pop\n      jump\t// out\n        /* \"#utility.yul\":14247:14412   */\n    tag_341:\n        /* \"#utility.yul\":14387:14404   */\n      0x5472616e73666572206661696c65640000000000000000000000000000000000\n        /* \"#utility.yul\":14383:14384   */\n      0x00\n        /* \"#utility.yul\":14375:14381   */\n      dup3\n        /* \"#utility.yul\":14371:14385   */\n      add\n        /* \"#utility.yul\":14364:14405   */\n      mstore\n        /* \"#utility.yul\":14247:14412   */\n      pop\n      jump\t// out\n        /* \"#utility.yul\":14418:14784   */\n    tag_342:\n        /* \"#utility.yul\":14560:14563   */\n      0x00\n        /* \"#utility.yul\":14581:14648   */\n      tag_510\n        /* \"#utility.yul\":14645:14647   */\n      0x0f\n        /* \"#utility.yul\":14640:14643   */\n      dup4\n        /* \"#utility.yul\":14581:14648   */\n      tag_300\n      jump\t// in\n    tag_510:\n        /* \"#utility.yul\":14574:14648   */\n      swap2\n      pop\n        /* \"#utility.yul\":14657:14750   */\n      tag_511\n        /* \"#utility.yul\":14746:14749   */\n      dup3\n        /* \"#utility.yul\":14657:14750   */\n      tag_341\n      jump\t// in\n    tag_511:\n        /* \"#utility.yul\":14775:14777   */\n      0x20\n        /* \"#utility.yul\":14770:14773   */\n      dup3\n        /* \"#utility.yul\":14766:14778   */\n      add\n        /* \"#utility.yul\":14759:14778   */\n      swap1\n      pop\n        /* \"#utility.yul\":14418:14784   */\n      swap2\n      swap1\n      pop\n      jump\t// out\n        /* \"#utility.yul\":14790:15209   */\n    tag_164:\n        /* \"#utility.yul\":14956:14960   */\n      0x00\n        /* \"#utility.yul\":14994:14996   */\n      0x20\n        /* \"#utility.yul\":14983:14992   */\n      dup3\n        /* \"#utility.yul\":14979:14997   */\n      add\n        /* \"#utility.yul\":14971:14997   */\n      swap1\n      pop\n        /* \"#utility.yul\":15043:15052   */\n      dup2\n        /* \"#utility.yul\":15037:15041   */\n      dup2\n        /* \"#utility.yul\":15033:15053   */\n      sub\n        /* \"#utility.yul\":15029:15030   */\n      0x00\n        /* \"#utility.yul\":15018:15027   */\n      dup4\n        /* \"#utility.yul\":15014:15031   */\n      add\n        /* \"#utility.yul\":15007:15054   */\n      mstore\n        /* \"#utility.yul\":15071:15202   */\n      tag_513\n        /* \"#utility.yul\":15197:15201   */\n      dup2\n        /* \"#utility.yul\":15071:15202   */\n      tag_342\n      jump\t// in\n    tag_513:\n        /* \"#utility.yul\":15063:15202   */\n      swap1\n      pop\n        /* \"#utility.yul\":14790:15209   */\n      swap2\n      swap1\n      pop\n      jump\t// out\n        /* \"#utility.yul\":15215:15547   */\n    tag_208:\n        /* \"#utility.yul\":15336:15340   */\n      0x00\n        /* \"#utility.yul\":15374:15376   */\n      0x40\n        /* \"#utility.yul\":15363:15372   */\n      dup3\n        /* \"#utility.yul\":15359:15377   */\n      add\n        /* \"#utility.yul\":15351:15377   */\n      swap1\n      pop\n        /* \"#utility.yul\":15387:15458   */\n      tag_515\n        /* \"#utility.yul\":15455:15456   */\n      0x00\n        /* \"#utility.yul\":15444:15453   */\n      dup4\n        /* \"#utility.yul\":15440:15457   */\n      add\n        /* \"#utility.yul\":15431:15437   */\n      dup6\n        /* \"#utility.yul\":15387:15458   */\n      tag_322\n      jump\t// in\n    tag_515:\n        /* \"#utility.yul\":15468:15540   */\n      tag_516\n        /* \"#utility.yul\":15536:15538   */\n      0x20\n        /* \"#utility.yul\":15525:15534   */\n      dup4\n        /* \"#utility.yul\":15521:15539   */\n      add\n        /* \"#utility.yul\":15512:15518   */\n      dup5\n        /* \"#utility.yul\":15468:15540   */\n      tag_319\n      jump\t// in\n    tag_516:\n        /* \"#utility.yul\":15215:15547   */\n      swap4\n      swap3\n      pop\n      pop\n      pop\n      jump\t// out\n        /* \"#utility.yul\":15553:15669   */\n    tag_343:\n        /* \"#utility.yul\":15623:15644   */\n      tag_518\n        /* \"#utility.yul\":15638:15643   */\n      dup2\n        /* \"#utility.yul\":15623:15644   */\n      tag_317\n      jump\t// in\n    tag_518:\n        /* \"#utility.yul\":15616:15621   */\n      dup2\n        /* \"#utility.yul\":15613:15645   */\n      eq\n        /* \"#utility.yul\":15603:15663   */\n      tag_519\n      jumpi\n        /* \"#utility.yul\":15659:15660   */\n      0x00\n        /* \"#utility.yul\":15656:15657   */\n      0x00\n        /* \"#utility.yul\":15649:15661   */\n      revert\n        /* \"#utility.yul\":15603:15663   */\n    tag_519:\n        /* \"#utility.yul\":15553:15669   */\n      pop\n      jump\t// out\n        /* \"#utility.yul\":15675:15812   */\n    tag_344:\n        /* \"#utility.yul\":15729:15734   */\n      0x00\n        /* \"#utility.yul\":15760:15766   */\n      dup2\n        /* \"#utility.yul\":15754:15767   */\n      mload\n        /* \"#utility.yul\":15745:15767   */\n      swap1\n      pop\n        /* \"#utility.yul\":15776:15806   */\n      tag_521\n        /* \"#utility.yul\":15800:15805   */\n      dup2\n        /* \"#utility.yul\":15776:15806   */\n      tag_343\n      jump\t// in\n    tag_521:\n        /* \"#utility.yul\":15675:15812   */\n      swap3\n      swap2\n      pop\n      pop\n      jump\t// out\n        /* \"#utility.yul\":15818:16163   */\n    tag_212:\n        /* \"#utility.yul\":15885:15891   */\n      0x00\n        /* \"#utility.yul\":15934:15936   */\n      0x20\n        /* \"#utility.yul\":15922:15931   */\n      dup3\n        /* \"#utility.yul\":15913:15920   */\n      dup5\n        /* \"#utility.yul\":15909:15932   */\n      sub\n        /* \"#utility.yul\":15905:15937   */\n      slt\n        /* \"#utility.yul\":15902:16021   */\n      iszero\n      tag_523\n      jumpi\n        /* \"#utility.yul\":15940:16019   */\n      tag_524\n      tag_305\n      jump\t// in\n    tag_524:\n        /* \"#utility.yul\":15902:16021   */\n    tag_523:\n        /* \"#utility.yul\":16060:16061   */\n      0x00\n        /* \"#utility.yul\":16085:16146   */\n      tag_525\n        /* \"#utility.yul\":16138:16145   */\n      dup5\n        /* \"#utility.yul\":16129:16135   */\n      dup3\n        /* \"#utility.yul\":16118:16127   */\n      dup6\n        /* \"#utility.yul\":16114:16136   */\n      add\n        /* \"#utility.yul\":16085:16146   */\n      tag_344\n      jump\t// in\n    tag_525:\n        /* \"#utility.yul\":16075:16146   */\n      swap2\n      pop\n        /* \"#utility.yul\":16031:16156   */\n      pop\n        /* \"#utility.yul\":15818:16163   */\n      swap3\n      swap2\n      pop\n      pop\n      jump\t// out\n        /* \"#utility.yul\":16169:16310   */\n    tag_345:\n        /* \"#utility.yul\":16218:16222   */\n      0x00\n        /* \"#utility.yul\":16241:16244   */\n      dup2\n        /* \"#utility.yul\":16233:16244   */\n      swap1\n      pop\n        /* \"#utility.yul\":16264:16267   */\n      dup2\n        /* \"#utility.yul\":16261:16262   */\n      0x00\n        /* \"#utility.yul\":16254:16268   */\n      mstore\n        /* \"#utility.yul\":16298:16302   */\n      0x20\n        /* \"#utility.yul\":16295:16296   */\n      0x00\n        /* \"#utility.yul\":16285:16303   */\n      keccak256\n        /* \"#utility.yul\":16277:16303   */\n      swap1\n      pop\n        /* \"#utility.yul\":16169:16310   */\n      swap2\n      swap1\n      pop\n      jump\t// out\n        /* \"#utility.yul\":16316:16409   */\n    tag_346:\n        /* \"#utility.yul\":16353:16359   */\n      0x00\n        /* \"#utility.yul\":16400:16402   */\n      0x20\n        /* \"#utility.yul\":16395:16397   */\n      0x1f\n        /* \"#utility.yul\":16388:16393   */\n      dup4\n        /* \"#utility.yul\":16384:16398   */\n      add\n        /* \"#utility.yul\":16380:16403   */\n      div\n        /* \"#utility.yul\":16370:16403   */\n      swap1\n      pop\n        /* \"#utility.yul\":16316:16409   */\n      swap2\n      swap1\n      pop\n      jump\t// out\n        /* \"#utility.yul\":16415:16522   */\n    tag_347:\n        /* \"#utility.yul\":16459:16467   */\n      0x00\n        /* \"#utility.yul\":16509:16514   */\n      dup3\n        /* \"#utility.yul\":16503:16507   */\n      dup3\n        /* \"#utility.yul\":16499:16515   */\n      shl\n        /* \"#utility.yul\":16478:16515   */\n      swap1\n      pop\n        /* \"#utility.yul\":16415:16522   */\n      swap3\n      swap2\n      pop\n      pop\n      jump\t// out\n        /* \"#utility.yul\":16528:16921   */\n    tag_348:\n        /* \"#utility.yul\":16597:16603   */\n      0x00\n        /* \"#utility.yul\":16647:16648   */\n      0x08\n        /* \"#utility.yul\":16635:16645   */\n      dup4\n        /* \"#utility.yul\":16631:16649   */\n      mul\n        /* \"#utility.yul\":16670:16767   */\n      tag_530\n        /* \"#utility.yul\":16700:16766   */\n      0xffffffffffffffffffffffffffffffffffffffffffffffffffffffffffffffff\n        /* \"#utility.yul\":16689:16698   */\n      dup3\n        /* \"#utility.yul\":16670:16767   */\n      tag_347\n      jump\t// in\n    tag_530:\n        /* \"#utility.yul\":16788:16827   */\n      tag_531\n        /* \"#utility.yul\":16818:16826   */\n      dup7\n        /* \"#utility.yul\":16807:16816   */\n      dup4\n        /* \"#utility.yul\":16788:16827   */\n      tag_347\n      jump\t// in\n    tag_531:\n        /* \"#utility.yul\":16776:16827   */\n      swap6\n      pop\n        /* \"#utility.yul\":16860:16864   */\n      dup1\n        /* \"#utility.yul\":16856:16865   */\n      not\n        /* \"#utility.yul\":16849:16854   */\n      dup5\n        /* \"#utility.yul\":16845:16866   */\n      and\n        /* \"#utility.yul\":16836:16866   */\n      swap4\n      pop\n        /* \"#utility.yul\":16909:16913   */\n      dup1\n        /* \"#utility.yul\":16899:16907   */\n      dup7\n        /* \"#utility.yul\":16895:16914   */\n      and\n        /* \"#utility.yul\":16888:16893   */\n      dup5\n        /* \"#utility.yul\":16885:16915   */\n      or\n        /* \"#utility.yul\":16875:16915   */\n      swap3\n      pop\n        /* \"#utility.yul\":16604:16921   */\n      pop\n      pop\n        /* \"#utility.yul\":16528:16921   */\n      swap4\n      swap3\n      pop\n      pop\n      pop\n      jump\t// out\n        /* \"#utility.yul\":16927:16987   */\n    tag_349:\n        /* \"#utility.yul\":16955:16958   */\n      0x00\n        /* \"#utility.yul\":16976:16981   */\n      dup2\n        /* \"#utility.yul\":16969:16981   */\n      swap1\n      pop\n        /* \"#utility.yul\":16927:16987   */\n      swap2\n      swap1\n      pop\n      jump\t// out\n        /* \"#utility.yul\":16993:17135   */\n    tag_350:\n        /* \"#utility.yul\":17043:17052   */\n      0x00\n        /* \"#utility.yul\":17076:17129   */\n      tag_534\n        /* \"#utility.yul\":17094:17128   */\n      tag_535\n        /* \"#utility.yul\":17103:17127   */\n      tag_536\n        /* \"#utility.yul\":17121:17126   */\n      dup5\n        /* \"#utility.yul\":17103:17127   */\n      tag_311\n      jump\t// in\n    tag_536:\n        /* \"#utility.yul\":17094:17128   */\n      tag_349\n      jump\t// in\n    tag_535:\n        /* \"#utility.yul\":17076:17129   */\n      tag_311\n      jump\t// in\n    tag_534:\n        /* \"#utility.yul\":17063:17129   */\n      swap1\n      pop\n        /* \"#utility.yul\":16993:17135   */\n      swap2\n      swap1\n      pop\n      jump\t// out\n        /* \"#utility.yul\":17141:17216   */\n    tag_351:\n        /* \"#utility.yul\":17184:17187   */\n      0x00\n        /* \"#utility.yul\":17205:17210   */\n      dup2\n        /* \"#utility.yul\":17198:17210   */\n      swap1\n      pop\n        /* \"#utility.yul\":17141:17216   */\n      swap2\n      swap1\n      pop\n      jump\t// out\n        /* \"#utility.yul\":17222:17491   */\n    tag_352:\n        /* \"#utility.yul\":17332:17371   */\n      tag_539\n        /* \"#utility.yul\":17363:17370   */\n      dup4\n        /* \"#utility.yul\":17332:17371   */\n      tag_350\n      jump\t// in\n    tag_539:\n        /* \"#utility.yul\":17393:17484   */\n      tag_540\n        /* \"#utility.yul\":17442:17483   */\n      tag_541\n        /* \"#utility.yul\":17466:17482   */\n      dup3\n        /* \"#utility.yul\":17442:17483   */\n      tag_351\n      jump\t// in\n    tag_541:\n        /* \"#utility.yul\":17434:17440   */\n      dup5\n        /* \"#utility.yul\":17427:17431   */\n      dup5\n        /* \"#utility.yul\":17421:17432   */\n      sload\n        /* \"#utility.yul\":17393:17484   */\n      tag_348\n      jump\t// in\n    tag_540:\n        /* \"#utility.yul\":17387:17391   */\n      dup3\n        /* \"#utility.yul\":17380:17485   */\n      sstore\n        /* \"#utility.yul\":17298:17491   */\n      pop\n        /* \"#utility.yul\":17222:17491   */\n      pop\n      pop\n      pop\n      jump\t// out\n        /* \"#utility.yul\":17497:17570   */\n    tag_353:\n        /* \"#utility.yul\":17542:17545   */\n      0x00\n        /* \"#utility.yul\":17563:17564   */\n      0x00\n        /* \"#utility.yul\":17556:17564   */\n      swap1\n      pop\n        /* \"#utility.yul\":17497:17570   */\n      swap1\n      jump\t// out\n        /* \"#utility.yul\":17576:17765   */\n    tag_354:\n        /* \"#utility.yul\":17653:17685   */\n      tag_544\n      tag_353\n      jump\t// in\n    tag_544:\n        /* \"#utility.yul\":17694:17759   */\n      tag_545\n        /* \"#utility.yul\":17752:17758   */\n      dup2\n        /* \"#utility.yul\":17744:17750   */\n      dup5\n        /* \"#utility.yul\":17738:17742   */\n      dup5\n        /* \"#utility.yul\":17694:17759   */\n      tag_352\n      jump\t// in\n    tag_545:\n        /* \"#utility.yul\":17629:17765   */\n      pop\n        /* \"#utility.yul\":17576:17765   */\n      pop\n      pop\n      jump\t// out\n        /* \"#utility.yul\":17771:17957   */\n    tag_355:\n        /* \"#utility.yul\":17831:17951   */\n    tag_547:\n        /* \"#utility.yul\":17848:17851   */\n      dup2\n        /* \"#utility.yul\":17841:17846   */\n      dup2\n        /* \"#utility.yul\":17838:17852   */\n      lt\n        /* \"#utility.yul\":17831:17951   */\n      iszero\n      tag_549\n      jumpi\n        /* \"#utility.yul\":17902:17941   */\n      tag_550\n        /* \"#utility.yul\":17939:17940   */\n      0x00\n        /* \"#utility.yul\":17932:17937   */\n      dup3\n        /* \"#utility.yul\":17902:17941   */\n      tag_354\n      jump\t// in\n    tag_550:\n        /* \"#utility.yul\":17875:17876   */\n      0x01\n        /* \"#utility.yul\":17868:17873   */\n      dup2\n        /* \"#utility.yul\":17864:17877   */\n      add\n        /* \"#utility.yul\":17855:17877   */\n      swap1\n      pop\n        /* \"#utility.yul\":17831:17951   */\n      jump(tag_547)\n    tag_549:\n        /* \"#utility.yul\":17771:17957   */\n      pop\n      pop\n      jump\t// out\n        /* \"#utility.yul\":17963:18506   */\n    tag_356:\n        /* \"#utility.yul\":18064:18066   */\n      0x1f\n        /* \"#utility.yul\":18059:18062   */\n      dup3\n        /* \"#utility.yul\":18056:18067   */\n      gt\n        /* \"#utility.yul\":18053:18499   */\n      iszero\n      tag_552\n      jumpi\n        /* \"#utility.yul\":18098:18136   */\n      tag_553\n        /* \"#utility.yul\":18130:18135   */\n      dup2\n        /* \"#utility.yul\":18098:18136   */\n      tag_345\n      jump\t// in\n    tag_553:\n        /* \"#utility.yul\":18182:18211   */\n      tag_554\n        /* \"#utility.yul\":18200:18210   */\n      dup5\n        /* \"#utility.yul\":18182:18211   */\n      tag_346\n      jump\t// in\n    tag_554:\n        /* \"#utility.yul\":18172:18180   */\n      dup2\n        /* \"#utility.yul\":18168:18212   */\n      add\n        /* \"#utility.yul\":18365:18367   */\n      0x20\n        /* \"#utility.yul\":18353:18363   */\n      dup6\n        /* \"#utility.yul\":18350:18368   */\n      lt\n        /* \"#utility.yul\":18347:18396   */\n      iszero\n      tag_555\n      jumpi\n        /* \"#utility.yul\":18386:18394   */\n      dup2\n        /* \"#utility.yul\":18371:18394   */\n      swap1\n      pop\n        /* \"#utility.yul\":18347:18396   */\n    tag_555:\n        /* \"#utility.yul\":18409:18489   */\n      tag_556\n        /* \"#utility.yul\":18465:18487   */\n      tag_557\n        /* \"#utility.yul\":18483:18486   */\n      dup6\n        /* \"#utility.yul\":18465:18487   */\n      tag_346\n      jump\t// in\n    tag_557:\n        /* \"#utility.yul\":18455:18463   */\n      dup4\n        /* \"#utility.yul\":18451:18488   */\n      add\n        /* \"#utility.yul\":18438:18449   */\n      dup3\n        /* \"#utility.yul\":18409:18489   */\n      tag_355\n      jump\t// in\n    tag_556:\n        /* \"#utility.yul\":18068:18499   */\n      pop\n      pop\n        /* \"#utility.yul\":18053:18499   */\n    tag_552:\n        /* \"#utility.yul\":17963:18506   */\n      pop\n      pop\n      pop\n      jump\t// out\n        /* \"#utility.yul\":18512:18629   */\n    tag_357:\n        /* \"#utility.yul\":18566:18574   */\n      0x00\n        /* \"#utility.yul\":18616:18621   */\n      dup3\n        /* \"#utility.yul\":18610:18614   */\n      dup3\n        /* \"#utility.yul\":18606:18622   */\n      shr\n        /* \"#utility.yul\":18585:18622   */\n      swap1\n      pop\n        /* \"#utility.yul\":18512:18629   */\n      swap3\n      swap2\n      pop\n      pop\n      jump\t// out\n        /* \"#utility.yul\":18635:18804   */\n    tag_358:\n        /* \"#utility.yul\":18679:18685   */\n      0x00\n        /* \"#utility.yul\":18712:18763   */\n      tag_560\n        /* \"#utility.yul\":18760:18761   */\n      0x00\n        /* \"#utility.yul\":18756:18762   */\n      not\n        /* \"#utility.yul\":18748:18753   */\n      dup5\n        /* \"#utility.yul\":18745:18746   */\n      0x08\n        /* \"#utility.yul\":18741:18754   */\n      mul\n        /* \"#utility.yul\":18712:18763   */\n      tag_357\n      jump\t// in\n    tag_560:\n        /* \"#utility.yul\":18708:18764   */\n      not\n        /* \"#utility.yul\":18793:18797   */\n      dup1\n        /* \"#utility.yul\":18787:18791   */\n      dup4\n        /* \"#utility.yul\":18783:18798   */\n      and\n        /* \"#utility.yul\":18773:18798   */\n      swap2\n      pop\n        /* \"#utility.yul\":18686:18804   */\n      pop\n        /* \"#utility.yul\":18635:18804   */\n      swap3\n      swap2\n      pop\n      pop\n      jump\t// out\n        /* \"#utility.yul\":18809:19104   */\n    tag_359:\n        /* \"#utility.yul\":18885:18889   */\n      0x00\n        /* \"#utility.yul\":19031:19060   */\n      tag_562\n        /* \"#utility.yul\":19056:19059   */\n      dup4\n        /* \"#utility.yul\":19050:19054   */\n      dup4\n        /* \"#utility.yul\":19031:19060   */\n      tag_358\n      jump\t// in\n    tag_562:\n        /* \"#utility.yul\":19023:19060   */\n      swap2\n      pop\n        /* \"#utility.yul\":19093:19096   */\n      dup3\n        /* \"#utility.yul\":19090:19091   */\n      0x02\n        /* \"#utility.yul\":19086:19097   */\n      mul\n        /* \"#utility.yul\":19080:19084   */\n      dup3\n        /* \"#utility.yul\":19077:19098   */\n      or\n        /* \"#utility.yul\":19069:19098   */\n      swap1\n      pop\n        /* \"#utility.yul\":18809:19104   */\n      swap3\n      swap2\n      pop\n      pop\n      jump\t// out\n        /* \"#utility.yul\":19109:20504   */\n    tag_222:\n        /* \"#utility.yul\":19226:19263   */\n      tag_564\n        /* \"#utility.yul\":19259:19262   */\n      dup3\n        /* \"#utility.yul\":19226:19263   */\n      tag_299\n      jump\t// in\n    tag_564:\n        /* \"#utility.yul\":19328:19346   */\n      0xffffffffffffffff\n        /* \"#utility.yul\":19320:19326   */\n      dup2\n        /* \"#utility.yul\":19317:19347   */\n      gt\n        /* \"#utility.yul\":19314:19370   */\n      iszero\n      tag_565\n      jumpi\n        /* \"#utility.yul\":19350:19368   */\n      tag_566\n      tag_325\n      jump\t// in\n    tag_566:\n        /* \"#utility.yul\":19314:19370   */\n    tag_565:\n        /* \"#utility.yul\":19394:19432   */\n      tag_567\n        /* \"#utility.yul\":19426:19430   */\n      dup3\n        /* \"#utility.yul\":19420:19431   */\n      sload\n        /* \"#utility.yul\":19394:19432   */\n      tag_145\n      jump\t// in\n    tag_567:\n        /* \"#utility.yul\":19479:19546   */\n      tag_568\n        /* \"#utility.yul\":19539:19545   */\n      dup3\n        /* \"#utility.yul\":19531:19537   */\n      dup3\n        /* \"#utility.yul\":19525:19529   */\n      dup6\n        /* \"#utility.yul\":19479:19546   */\n      tag_356\n      jump\t// in\n    tag_568:\n        /* \"#utility.yul\":19573:19574   */\n      0x00\n        /* \"#utility.yul\":19597:19601   */\n      0x20\n        /* \"#utility.yul\":19584:19601   */\n      swap1\n      pop\n        /* \"#utility.yul\":19629:19631   */\n      0x1f\n        /* \"#utility.yul\":19621:19627   */\n      dup4\n        /* \"#utility.yul\":19618:19632   */\n      gt\n        /* \"#utility.yul\":19646:19647   */\n      0x01\n        /* \"#utility.yul\":19641:20259   */\n      dup2\n      eq\n      tag_570\n      jumpi\n        /* \"#utility.yul\":20303:20304   */\n      0x00\n        /* \"#utility.yul\":20320:20326   */\n      dup5\n        /* \"#utility.yul\":20317:20394   */\n      iszero\n      tag_571\n      jumpi\n        /* \"#utility.yul\":20369:20378   */\n      dup3\n        /* \"#utility.yul\":20364:20367   */\n      dup8\n        /* \"#utility.yul\":20360:20379   */\n      add\n        /* \"#utility.yul\":20354:20380   */\n      mload\n        /* \"#utility.yul\":20345:20380   */\n      swap1\n      pop\n        /* \"#utility.yul\":20317:20394   */\n    tag_571:\n        /* \"#utility.yul\":20420:20487   */\n      tag_572\n        /* \"#utility.yul\":20480:20486   */\n      dup6\n        /* \"#utility.yul\":20473:20478   */\n      dup3\n        /* \"#utility.yul\":20420:20487   */\n      tag_359\n      jump\t// in\n    tag_572:\n        /* \"#utility.yul\":20414:20418   */\n      dup7\n        /* \"#utility.yul\":20407:20488   */\n      sstore\n        /* \"#utility.yul\":20276:20498   */\n      pop\n        /* \"#utility.yul\":19611:20498   */\n      jump(tag_569)\n        /* \"#utility.yul\":19641:20259   */\n    tag_570:\n        /* \"#utility.yul\":19693:19697   */\n      0x1f\n        /* \"#utility.yul\":19689:19698   */\n      not\n        /* \"#utility.yul\":19681:19687   */\n      dup5\n        /* \"#utility.yul\":19677:19699   */\n      and\n        /* \"#utility.yul\":19727:19764   */\n      tag_573\n        /* \"#utility.yul\":19759:19763   */\n      dup7\n        /* \"#utility.yul\":19727:19764   */\n      tag_345\n      jump\t// in\n    tag_573:\n        /* \"#utility.yul\":19786:19787   */\n      0x00\n        /* \"#utility.yul\":19800:20008   */\n    tag_574:\n        /* \"#utility.yul\":19814:19821   */\n      dup3\n        /* \"#utility.yul\":19811:19812   */\n      dup2\n        /* \"#utility.yul\":19808:19822   */\n      lt\n        /* \"#utility.yul\":19800:20008   */\n      iszero\n      tag_576\n      jumpi\n        /* \"#utility.yul\":19893:19902   */\n      dup5\n        /* \"#utility.yul\":19888:19891   */\n      dup10\n        /* \"#utility.yul\":19884:19903   */\n      add\n        /* \"#utility.yul\":19878:19904   */\n      mload\n        /* \"#utility.yul\":19870:19876   */\n      dup3\n        /* \"#utility.yul\":19863:19905   */\n      sstore\n        /* \"#utility.yul\":19944:19945   */\n      0x01\n        /* \"#utility.yul\":19936:19942   */\n      dup3\n        /* \"#utility.yul\":19932:19946   */\n      add\n        /* \"#utility.yul\":19922:19946   */\n      swap2\n      pop\n        /* \"#utility.yul\":19991:19993   */\n      0x20\n        /* \"#utility.yul\":19980:19989   */\n      dup6\n        /* \"#utility.yul\":19976:19994   */\n      add\n        /* \"#utility.yul\":19963:19994   */\n      swap5\n      pop\n        /* \"#utility.yul\":19837:19841   */\n      0x20\n        /* \"#utility.yul\":19834:19835   */\n      dup2\n        /* \"#utility.yul\":19830:19842   */\n      add\n        /* \"#utility.yul\":19825:19842   */\n      swap1\n      pop\n        /* \"#utility.yul\":19800:20008   */\n      jump(tag_574)\n    tag_576:\n        /* \"#utility.yul\":20036:20042   */\n      dup7\n        /* \"#utility.yul\":20027:20034   */\n      dup4\n        /* \"#utility.yul\":20024:20043   */\n      lt\n        /* \"#utility.yul\":20021:20200   */\n      iszero\n      tag_577\n      jumpi\n        /* \"#utility.yul\":20094:20103   */\n      dup5\n        /* \"#utility.yul\":20089:20092   */\n      dup10\n        /* \"#utility.yul\":20085:20104   */\n      add\n        /* \"#utility.yul\":20079:20105   */\n      mload\n        /* \"#utility.yul\":20137:20185   */\n      tag_578\n        /* \"#utility.yul\":20179:20183   */\n      0x1f\n        /* \"#utility.yul\":20171:20177   */\n      dup10\n        /* \"#utility.yul\":20167:20184   */\n      and\n        /* \"#utility.yul\":20156:20165   */\n      dup3\n        /* \"#utility.yul\":20137:20185   */\n      tag_358\n      jump\t// in\n    tag_578:\n        /* \"#utility.yul\":20129:20135   */\n      dup4\n        /* \"#utility.yul\":20122:20186   */\n      sstore\n        /* \"#utility.yul\":20044:20200   */\n      pop\n        /* \"#utility.yul\":20021:20200   */\n    tag_577:\n        /* \"#utility.yul\":20246:20247   */\n      0x01\n        /* \"#utility.yul\":20242:20243   */\n      0x02\n        /* \"#utility.yul\":20234:20240   */\n      dup9\n        /* \"#utility.yul\":20230:20244   */\n      mul\n        /* \"#utility.yul\":20226:20248   */\n      add\n        /* \"#utility.yul\":20220:20224   */\n      dup9\n        /* \"#utility.yul\":20213:20249   */\n      sstore\n        /* \"#utility.yul\":19648:20259   */\n      pop\n      pop\n      pop\n        /* \"#utility.yul\":19611:20498   */\n    tag_569:\n      pop\n        /* \"#utility.yul\":19201:20504   */\n      pop\n      pop\n      pop\n        /* \"#utility.yul\":19109:20504   */\n      pop\n      pop\n      jump\t// out\n        /* \"#utility.yul\":20510:21024   */\n    tag_224:\n        /* \"#utility.yul\":20671:20675   */\n      0x00\n        /* \"#utility.yul\":20709:20711   */\n      0x40\n        /* \"#utility.yul\":20698:20707   */\n      dup3\n        /* \"#utility.yul\":20694:20712   */\n      add\n        /* \"#utility.yul\":20686:20712   */\n      swap1\n      pop\n        /* \"#utility.yul\":20758:20767   */\n      dup2\n        /* \"#utility.yul\":20752:20756   */\n      dup2\n        /* \"#utility.yul\":20748:20768   */\n      sub\n        /* \"#utility.yul\":20744:20745   */\n      0x00\n        /* \"#utility.yul\":20733:20742   */\n      dup4\n        /* \"#utility.yul\":20729:20746   */\n      add\n        /* \"#utility.yul\":20722:20769   */\n      mstore\n        /* \"#utility.yul\":20786:20864   */\n      tag_580\n        /* \"#utility.yul\":20859:20863   */\n      dup2\n        /* \"#utility.yul\":20850:20856   */\n      dup6\n        /* \"#utility.yul\":20786:20864   */\n      tag_303\n      jump\t// in\n    tag_580:\n        /* \"#utility.yul\":20778:20864   */\n      swap1\n      pop\n        /* \"#utility.yul\":20911:20920   */\n      dup2\n        /* \"#utility.yul\":20905:20909   */\n      dup2\n        /* \"#utility.yul\":20901:20921   */\n      sub\n        /* \"#utility.yul\":20896:20898   */\n      0x20\n        /* \"#utility.yul\":20885:20894   */\n      dup4\n        /* \"#utility.yul\":20881:20899   */\n      add\n        /* \"#utility.yul\":20874:20922   */\n      mstore\n        /* \"#utility.yul\":20939:21017   */\n      tag_581\n        /* \"#utility.yul\":21012:21016   */\n      dup2\n        /* \"#utility.yul\":21003:21009   */\n      dup5\n        /* \"#utility.yul\":20939:21017   */\n      tag_303\n      jump\t// in\n    tag_581:\n        /* \"#utility.yul\":20931:21017   */\n      swap1\n      pop\n        /* \"#utility.yul\":20510:21024   */\n      swap4\n      swap3\n      pop\n      pop\n      pop\n      jump\t// out\n        /* \"#utility.yul\":21030:21472   */\n    tag_269:\n        /* \"#utility.yul\":21179:21183   */\n      0x00\n        /* \"#utility.yul\":21217:21219   */\n      0x60\n        /* \"#utility.yul\":21206:21215   */\n      dup3\n        /* \"#utility.yul\":21202:21220   */\n      add\n        /* \"#utility.yul\":21194:21220   */\n      swap1\n      pop\n        /* \"#utility.yul\":21230:21301   */\n      tag_583\n        /* \"#utility.yul\":21298:21299   */\n      0x00\n        /* \"#utility.yul\":21287:21296   */\n      dup4\n        /* \"#utility.yul\":21283:21300   */\n      add\n        /* \"#utility.yul\":21274:21280   */\n      dup7\n        /* \"#utility.yul\":21230:21301   */\n      tag_322\n      jump\t// in\n    tag_583:\n        /* \"#utility.yul\":21311:21383   */\n      tag_584\n        /* \"#utility.yul\":21379:21381   */\n      0x20\n        /* \"#utility.yul\":21368:21377   */\n      dup4\n        /* \"#utility.yul\":21364:21382   */\n      add\n        /* \"#utility.yul\":21355:21361   */\n      dup6\n        /* \"#utility.yul\":21311:21383   */\n      tag_319\n      jump\t// in\n    tag_584:\n        /* \"#utility.yul\":21393:21465   */\n      tag_585\n        /* \"#utility.yul\":21461:21463   */\n      0x40\n        /* \"#utility.yul\":21450:21459   */\n      dup4\n        /* \"#utility.yul\":21446:21464   */\n      add\n        /* \"#utility.yul\":21437:21443   */\n      dup5\n        /* \"#utility.yul\":21393:21465   */\n      tag_319\n      jump\t// in\n    tag_585:\n        /* \"#utility.yul\":21030:21472   */\n      swap5\n      swap4\n      pop\n      pop\n      pop\n      pop\n      jump\t// out\n        /* \"#utility.yul\":21478:21669   */\n    tag_285:\n        /* \"#utility.yul\":21518:21521   */\n      0x00\n        /* \"#utility.yul\":21537:21557   */\n      tag_587\n        /* \"#utility.yul\":21555:21556   */\n      dup3\n        /* \"#utility.yul\":21537:21557   */\n      tag_311\n      jump\t// in\n    tag_587:\n        /* \"#utility.yul\":21532:21557   */\n      swap2\n      pop\n        /* \"#utility.yul\":21571:21591   */\n      tag_588\n        /* \"#utility.yul\":21589:21590   */\n      dup4\n        /* \"#utility.yul\":21571:21591   */\n      tag_311\n      jump\t// in\n    tag_588:\n        /* \"#utility.yul\":21566:21591   */\n      swap3\n      pop\n        /* \"#utility.yul\":21614:21615   */\n      dup3\n        /* \"#utility.yul\":21611:21612   */\n      dup3\n        /* \"#utility.yul\":21607:21616   */\n      add\n        /* \"#utility.yul\":21600:21616   */\n      swap1\n      pop\n        /* \"#utility.yul\":21635:21638   */\n      dup1\n        /* \"#utility.yul\":21632:21633   */\n      dup3\n        /* \"#utility.yul\":21629:21639   */\n      gt\n        /* \"#utility.yul\":21626:21662   */\n      iszero\n      tag_589\n      jumpi\n        /* \"#utility.yul\":21642:21660   */\n      tag_590\n      tag_334\n      jump\t// in\n    tag_590:\n        /* \"#utility.yul\":21626:21662   */\n    tag_589:\n        /* \"#utility.yul\":21478:21669   */\n      swap3\n      swap2\n      pop\n      pop\n      jump\t// out\n\n    auxdata: 0xa26469706673582212208ceedbfe2a99cf303b1956e399c01d7f44d63684f2f5618c6d7c957938e4250664736f6c634300081e0033\n}\n",
				"bytecode": {
					"linkReferences": {},
					"object": "608060405234801561000f575f5ffd5b50604051612a6b380380612a6b83398181016040528101906100319190610600565b338484816003908161004391906108a3565b50806004908161005391906108a3565b5050505f73ffffffffffffffffffffffffffffffffffffffff168173ffffffffffffffffffffffffffffffffffffffff16036100c6575f6040517f1e4fbdf70000000000000000000000000000000000000000000000000000000081526004016100bd91906109b1565b60405180910390fd5b6100d58161011f60201b60201c565b5083600690816100e591906108a3565b5082600790816100f591906108a3565b50806008819055505f8211156101165761011533836101e260201b60201c565b5b50505050610a87565b5f60055f9054906101000a900473ffffffffffffffffffffffffffffffffffffffff1690508160055f6101000a81548173ffffffffffffffffffffffffffffffffffffffff021916908373ffffffffffffffffffffffffffffffffffffffff1602179055508173ffffffffffffffffffffffffffffffffffffffff168173ffffffffffffffffffffffffffffffffffffffff167f8be0079c531659141344cd1fd0a4f28419497f9722a3daafe3b4186f6b6457e060405160405180910390a35050565b5f73ffffffffffffffffffffffffffffffffffffffff168273ffffffffffffffffffffffffffffffffffffffff1603610252575f6040517fec442f0500000000000000000000000000000000000000000000000000000000815260040161024991906109b1565b60405180910390fd5b6102635f838361026760201b60201c565b5050565b5f73ffffffffffffffffffffffffffffffffffffffff168373ffffffffffffffffffffffffffffffffffffffff16036102b7578060025f8282546102ab91906109f7565b92505081905550610385565b5f5f5f8573ffffffffffffffffffffffffffffffffffffffff1673ffffffffffffffffffffffffffffffffffffffff1681526020019081526020015f2054905081811015610340578381836040517fe450d38c00000000000000000000000000000000000000000000000000000000815260040161033793929190610a39565b60405180910390fd5b8181035f5f8673ffffffffffffffffffffffffffffffffffffffff1673ffffffffffffffffffffffffffffffffffffffff1681526020019081526020015f2081905550505b5f73ffffffffffffffffffffffffffffffffffffffff168273ffffffffffffffffffffffffffffffffffffffff16036103cc578060025f8282540392505081905550610416565b805f5f8473ffffffffffffffffffffffffffffffffffffffff1673ffffffffffffffffffffffffffffffffffffffff1681526020019081526020015f205f82825401925050819055505b8173ffffffffffffffffffffffffffffffffffffffff168373ffffffffffffffffffffffffffffffffffffffff167fddf252ad1be2c89b69c2b068fc378daa952ba7f163c4a11628f55a4df523b3ef836040516104739190610a6e565b60405180910390a3505050565b5f604051905090565b5f5ffd5b5f5ffd5b5f5ffd5b5f5ffd5b5f601f19601f8301169050919050565b7f4e487b71000000000000000000000000000000000000000000000000000000005f52604160045260245ffd5b6104df82610499565b810181811067ffffffffffffffff821117156104fe576104fd6104a9565b5b80604052505050565b5f610510610480565b905061051c82826104d6565b919050565b5f67ffffffffffffffff82111561053b5761053a6104a9565b5b61054482610499565b9050602081019050919050565b8281835e5f83830152505050565b5f61057161056c84610521565b610507565b90508281526020810184848401111561058d5761058c610495565b5b610598848285610551565b509392505050565b5f82601f8301126105b4576105b3610491565b5b81516105c484826020860161055f565b91505092915050565b5f819050919050565b6105df816105cd565b81146105e9575f5ffd5b50565b5f815190506105fa816105d6565b92915050565b5f5f5f5f6080858703121561061857610617610489565b5b5f85015167ffffffffffffffff8111156106355761063461048d565b5b610641878288016105a0565b945050602085015167ffffffffffffffff8111156106625761066161048d565b5b61066e878288016105a0565b935050604061067f878288016105ec565b9250506060610690878288016105ec565b91505092959194509250565b5f81519050919050565b7f4e487b71000000000000000000000000000000000000000000000000000000005f52602260045260245ffd5b5f60028204905060018216806106ea57607f821691505b6020821081036106fd576106fc6106a6565b5b50919050565b5f819050815f5260205f209050919050565b5f6020601f8301049050919050565b5f82821b905092915050565b5f6008830261075f7fffffffffffffffffffffffffffffffffffffffffffffffffffffffffffffffff82610724565b6107698683610724565b95508019841693508086168417925050509392505050565b5f819050919050565b5f6107a461079f61079a846105cd565b610781565b6105cd565b9050919050565b5f819050919050565b6107bd8361078a565b6107d16107c9826107ab565b848454610730565b825550505050565b5f5f905090565b6107e86107d9565b6107f38184846107b4565b505050565b5b818110156108165761080b5f826107e0565b6001810190506107f9565b5050565b601f82111561085b5761082c81610703565b61083584610715565b81016020851015610844578190505b61085861085085610715565b8301826107f8565b50505b505050565b5f82821c905092915050565b5f61087b5f1984600802610860565b1980831691505092915050565b5f610893838361086c565b9150826002028217905092915050565b6108ac8261069c565b67ffffffffffffffff8111156108c5576108c46104a9565b5b6108cf82546106d3565b6108da82828561081a565b5f60209050601f83116001811461090b575f84156108f9578287015190505b6109038582610888565b86555061096a565b601f19841661091986610703565b5f5b828110156109405784890151825560018201915060208501945060208101905061091b565b8683101561095d5784890151610959601f89168261086c565b8355505b6001600288020188555050505b505050505050565b5f73ffffffffffffffffffffffffffffffffffffffff82169050919050565b5f61099b82610972565b9050919050565b6109ab81610991565b82525050565b5f6020820190506109c45f8301846109a2565b92915050565b7f4e487b71000000000000000000000000000000000000000000000000000000005f52601160045260245ffd5b5f610a01826105cd565b9150610a0c836105cd565b9250828201905080821115610a2457610a236109ca565b5b92915050565b610a33816105cd565b82525050565b5f606082019050610a4c5f8301866109a2565b610a596020830185610a2a565b610a666040830184610a2a565b949350505050565b5f602082019050610a815f830184610a2a565b92915050565b611fd780610a945f395ff3fe60806040526004361061012d575f3560e01c80638da5cb5b116100aa578063b84c82461161006e578063b84c8246146103ec578063bf35588b14610414578063c47f00271461043c578063d0e30db014610464578063dd62ed3e14610482578063f2fde38b146104be5761013e565b80638da5cb5b1461030c57806395d89b41146103365780639dc29fac14610360578063a9059cbb14610388578063b2118a8d146103c45761013e565b8063313ce567116100f1578063313ce5671461023e57806340c10f191461026857806370a0823114610290578063715018a6146102cc5780637e74a1ed146102e25761013e565b806306fdde031461014a57806307b18bde14610174578063095ea7b31461019c57806318160ddd146101d857806323b872dd146102025761013e565b3661013e5761013c33346104e6565b005b61014833346104e6565b005b348015610155575f5ffd5b5061015e610598565b60405161016b919061152b565b60405180910390f35b34801561017f575f5ffd5b5061019a600480360381019061019591906115e9565b610628565b005b3480156101a7575f5ffd5b506101c260048036038101906101bd9190611662565b61076e565b6040516101cf91906116ba565b60405180910390f35b3480156101e3575f5ffd5b506101ec610790565b6040516101f991906116e2565b60405180910390f35b34801561020d575f5ffd5b50610228600480360381019061022391906116fb565b610799565b60405161023591906116ba565b60405180910390f35b348015610249575f5ffd5b506102526107c7565b60405161025f9190611766565b60405180910390f35b348015610273575f5ffd5b5061028e60048036038101906102899190611662565b6107cf565b005b34801561029b575f5ffd5b506102b660048036038101906102b1919061177f565b6107e5565b6040516102c391906116e2565b60405180910390f35b3480156102d7575f5ffd5b506102e061082a565b005b3480156102ed575f5ffd5b506102f661083d565b60405161030391906116e2565b60405180910390f35b348015610317575f5ffd5b50610320610843565b60405161032d91906117b9565b60405180910390f35b348015610341575f5ffd5b5061034a61086b565b604051610357919061152b565b60405180910390f35b34801561036b575f5ffd5b5061038660048036038101906103819190611662565b6108fb565b005b348015610393575f5ffd5b506103ae60048036038101906103a99190611662565b610911565b6040516103bb91906116ba565b60405180910390f35b3480156103cf575f5ffd5b506103ea60048036038101906103e591906116fb565b610933565b005b3480156103f7575f5ffd5b50610412600480360381019061040d91906118fe565b6109bc565b005b34801561041f575f5ffd5b5061043a60048036038101906104359190611945565b610a9d565b005b348015610447575f5ffd5b50610462600480360381019061045d91906118fe565b610aea565b005b61046c610bcb565b60405161047991906116e2565b60405180910390f35b34801561048d575f5ffd5b506104a860048036038101906104a39190611970565b610be9565b6040516104b591906116e2565b60405180910390f35b3480156104c9575f5ffd5b506104e460048036038101906104df919061177f565b610c6b565b005b5f8111610528576040517f08c379a000000000000000000000000000000000000000000000000000000000815260040161051f906119f8565b60405180910390fd5b5f600854826105379190611a43565b90506105438382610cef565b8273ffffffffffffffffffffffffffffffffffffffff167f90890809c654f11d6e72a28fa60149770a0d11ec6c92319d6ceb2bb0a4ea1a15838360405161058b929190611a84565b60405180910390a2505050565b6060600680546105a790611ad8565b80601f01602080910402602001604051908101604052809291908181526020018280546105d390611ad8565b801561061e5780601f106105f55761010080835404028352916020019161061e565b820191905f5260205f20905b81548152906001019060200180831161060157829003601f168201915b5050505050905090565b610630610d6e565b80471015610673576040517f08c379a000000000000000000000000000000000000000000000000000000000815260040161066a90611b52565b60405180910390fd5b5f8273ffffffffffffffffffffffffffffffffffffffff168260405161069890611b9d565b5f6040518083038185875af1925050503d805f81146106d2576040519150601f19603f3d011682016040523d82523d5f602084013e6106d7565b606091505b505090508061071b576040517f08c379a000000000000000000000000000000000000000000000000000000000815260040161071290611bfb565b60405180910390fd5b8273ffffffffffffffffffffffffffffffffffffffff167f884edad9ce6fa2440d8a54cc123490eb96d2768479d49ff9c7366125a94243648360405161076191906116e2565b60405180910390a2505050565b5f5f610778610df5565b9050610785818585610dfc565b600191505092915050565b5f600254905090565b5f5f6107a3610df5565b90506107b0858285610e0e565b6107bb858585610ea1565b60019150509392505050565b5f6012905090565b6107d7610d6e565b6107e18282610cef565b5050565b5f5f5f8373ffffffffffffffffffffffffffffffffffffffff1673ffffffffffffffffffffffffffffffffffffffff1681526020019081526020015f20549050919050565b610832610d6e565b61083b5f610f91565b565b60085481565b5f60055f9054906101000a900473ffffffffffffffffffffffffffffffffffffffff16905090565b60606007805461087a90611ad8565b80601f01602080910402602001604051908101604052809291908181526020018280546108a690611ad8565b80156108f15780601f106108c8576101008083540402835291602001916108f1565b820191905f5260205f20905b8154815290600101906020018083116108d457829003601f168201915b5050505050905090565b610903610d6e565b61090d8282611054565b5050565b5f5f61091b610df5565b9050610928818585610ea1565b600191505092915050565b61093b610d6e565b8273ffffffffffffffffffffffffffffffffffffffff1663a9059cbb83836040518363ffffffff1660e01b8152600401610976929190611c19565b6020604051808303815f875af1158015610992573d5f5f3e3d5ffd5b505050506040513d601f19601f820116820180604052508101906109b69190611c6a565b50505050565b6109c4610d6e565b5f600780546109d290611ad8565b80601f01602080910402602001604051908101604052809291908181526020018280546109fe90611ad8565b8015610a495780601f10610a2057610100808354040283529160200191610a49565b820191905f5260205f20905b815481529060010190602001808311610a2c57829003601f168201915b505050505090508160079081610a5f9190611e35565b507fd7ad744cc76ebad190995130eec8ba506b3605612d23b5b9cef8e27f14d138b48183604051610a91929190611f04565b60405180910390a15050565b610aa5610d6e565b7f4ac9052a820bf4f8c02d7588587cae835573b5b99ea7ad4ca002f17f319f718660085482604051610ad8929190611a84565b60405180910390a18060088190555050565b610af2610d6e565b5f60068054610b0090611ad8565b80601f0160208091040260200160405190810160405280929190818152602001828054610b2c90611ad8565b8015610b775780601f10610b4e57610100808354040283529160200191610b77565b820191905f5260205f20905b815481529060010190602001808311610b5a57829003601f168201915b505050505090508160069081610b8d9190611e35565b507f6c20b91d1723b78732eba64ff11ebd7966a6e4af568a00fa4f6b72c20f58b02a8183604051610bbf929190611f04565b60405180910390a15050565b5f610bd633346104e6565b60085434610be49190611a43565b905090565b5f60015f8473ffffffffffffffffffffffffffffffffffffffff1673ffffffffffffffffffffffffffffffffffffffff1681526020019081526020015f205f8373ffffffffffffffffffffffffffffffffffffffff1673ffffffffffffffffffffffffffffffffffffffff1681526020019081526020015f2054905092915050565b610c73610d6e565b5f73ffffffffffffffffffffffffffffffffffffffff168173ffffffffffffffffffffffffffffffffffffffff1603610ce3575f6040517f1e4fbdf7000000000000000000000000000000000000000000000000000000008152600401610cda91906117b9565b60405180910390fd5b610cec81610f91565b50565b5f73ffffffffffffffffffffffffffffffffffffffff168273ffffffffffffffffffffffffffffffffffffffff1603610d5f575f6040517fec442f05000000000000000000000000000000000000000000000000000000008152600401610d5691906117b9565b60405180910390fd5b610d6a5f83836110d3565b5050565b610d76610df5565b73ffffffffffffffffffffffffffffffffffffffff16610d94610843565b73ffffffffffffffffffffffffffffffffffffffff1614610df357610db7610df5565b6040517f118cdaa7000000000000000000000000000000000000000000000000000000008152600401610dea91906117b9565b60405180910390fd5b565b5f33905090565b610e0983838360016112ec565b505050565b5f610e198484610be9565b90507fffffffffffffffffffffffffffffffffffffffffffffffffffffffffffffffff811015610e9b5781811015610e8c578281836040517ffb8f41b2000000000000000000000000000000000000000000000000000000008152600401610e8393929190611f39565b60405180910390fd5b610e9a84848484035f6112ec565b5b50505050565b5f73ffffffffffffffffffffffffffffffffffffffff168373ffffffffffffffffffffffffffffffffffffffff1603610f11575f6040517f96c6fd1e000000000000000000000000000000000000000000000000000000008152600401610f0891906117b9565b60405180910390fd5b5f73ffffffffffffffffffffffffffffffffffffffff168273ffffffffffffffffffffffffffffffffffffffff1603610f81575f6040517fec442f05000000000000000000000000000000000000000000000000000000008152600401610f7891906117b9565b60405180910390fd5b610f8c8383836110d3565b505050565b5f60055f9054906101000a900473ffffffffffffffffffffffffffffffffffffffff1690508160055f6101000a81548173ffffffffffffffffffffffffffffffffffffffff021916908373ffffffffffffffffffffffffffffffffffffffff1602179055508173ffffffffffffffffffffffffffffffffffffffff168173ffffffffffffffffffffffffffffffffffffffff167f8be0079c531659141344cd1fd0a4f28419497f9722a3daafe3b4186f6b6457e060405160405180910390a35050565b5f73ffffffffffffffffffffffffffffffffffffffff168273ffffffffffffffffffffffffffffffffffffffff16036110c4575f6040517f96c6fd1e0000000000000000000000000000000000000000000000000000000081526004016110bb91906117b9565b60405180910390fd5b6110cf825f836110d3565b5050565b5f73ffffffffffffffffffffffffffffffffffffffff168373ffffffffffffffffffffffffffffffffffffffff1603611123578060025f8282546111179190611f6e565b925050819055506111f1565b5f5f5f8573ffffffffffffffffffffffffffffffffffffffff1673ffffffffffffffffffffffffffffffffffffffff1681526020019081526020015f20549050818110156111ac578381836040517fe450d38c0000000000000000000000000000000000000000000000000000000081526004016111a393929190611f39565b60405180910390fd5b8181035f5f8673ffffffffffffffffffffffffffffffffffffffff1673ffffffffffffffffffffffffffffffffffffffff1681526020019081526020015f2081905550505b5f73ffffffffffffffffffffffffffffffffffffffff168273ffffffffffffffffffffffffffffffffffffffff1603611238578060025f8282540392505081905550611282565b805f5f8473ffffffffffffffffffffffffffffffffffffffff1673ffffffffffffffffffffffffffffffffffffffff1681526020019081526020015f205f82825401925050819055505b8173ffffffffffffffffffffffffffffffffffffffff168373ffffffffffffffffffffffffffffffffffffffff167fddf252ad1be2c89b69c2b068fc378daa952ba7f163c4a11628f55a4df523b3ef836040516112df91906116e2565b60405180910390a3505050565b5f73ffffffffffffffffffffffffffffffffffffffff168473ffffffffffffffffffffffffffffffffffffffff160361135c575f6040517fe602df0500000000000000000000000000000000000000000000000000000000815260040161135391906117b9565b60405180910390fd5b5f73ffffffffffffffffffffffffffffffffffffffff168373ffffffffffffffffffffffffffffffffffffffff16036113cc575f6040517f94280d620000000000000000000000000000000000000000000000000000000081526004016113c391906117b9565b60405180910390fd5b8160015f8673ffffffffffffffffffffffffffffffffffffffff1673ffffffffffffffffffffffffffffffffffffffff1681526020019081526020015f205f8573ffffffffffffffffffffffffffffffffffffffff1673ffffffffffffffffffffffffffffffffffffffff1681526020019081526020015f208190555080156114b5578273ffffffffffffffffffffffffffffffffffffffff168473ffffffffffffffffffffffffffffffffffffffff167f8c5be1e5ebec7d5bd14f71427d1e84f3dd0314c0f7b2291e5b200ac8c7c3b925846040516114ac91906116e2565b60405180910390a35b50505050565b5f81519050919050565b5f82825260208201905092915050565b8281835e5f83830152505050565b5f601f19601f8301169050919050565b5f6114fd826114bb565b61150781856114c5565b93506115178185602086016114d5565b611520816114e3565b840191505092915050565b5f6020820190508181035f83015261154381846114f3565b905092915050565b5f604051905090565b5f5ffd5b5f5ffd5b5f73ffffffffffffffffffffffffffffffffffffffff82169050919050565b5f6115858261155c565b9050919050565b6115958161157b565b811461159f575f5ffd5b50565b5f813590506115b08161158c565b92915050565b5f819050919050565b6115c8816115b6565b81146115d2575f5ffd5b50565b5f813590506115e3816115bf565b92915050565b5f5f604083850312156115ff576115fe611554565b5b5f61160c858286016115a2565b925050602061161d858286016115d5565b9150509250929050565b5f6116318261155c565b9050919050565b61164181611627565b811461164b575f5ffd5b50565b5f8135905061165c81611638565b92915050565b5f5f6040838503121561167857611677611554565b5b5f6116858582860161164e565b9250506020611696858286016115d5565b9150509250929050565b5f8115159050919050565b6116b4816116a0565b82525050565b5f6020820190506116cd5f8301846116ab565b92915050565b6116dc816115b6565b82525050565b5f6020820190506116f55f8301846116d3565b92915050565b5f5f5f6060848603121561171257611711611554565b5b5f61171f8682870161164e565b93505060206117308682870161164e565b9250506040611741868287016115d5565b9150509250925092565b5f60ff82169050919050565b6117608161174b565b82525050565b5f6020820190506117795f830184611757565b92915050565b5f6020828403121561179457611793611554565b5b5f6117a18482850161164e565b91505092915050565b6117b381611627565b82525050565b5f6020820190506117cc5f8301846117aa565b92915050565b5f5ffd5b5f5ffd5b7f4e487b71000000000000000000000000000000000000000000000000000000005f52604160045260245ffd5b611810826114e3565b810181811067ffffffffffffffff8211171561182f5761182e6117da565b5b80604052505050565b5f61184161154b565b905061184d8282611807565b919050565b5f67ffffffffffffffff82111561186c5761186b6117da565b5b611875826114e3565b9050602081019050919050565b828183375f83830152505050565b5f6118a261189d84611852565b611838565b9050828152602081018484840111156118be576118bd6117d6565b5b6118c9848285611882565b509392505050565b5f82601f8301126118e5576118e46117d2565b5b81356118f5848260208601611890565b91505092915050565b5f6020828403121561191357611912611554565b5b5f82013567ffffffffffffffff8111156119305761192f611558565b5b61193c848285016118d1565b91505092915050565b5f6020828403121561195a57611959611554565b5b5f611967848285016115d5565b91505092915050565b5f5f6040838503121561198657611985611554565b5b5f6119938582860161164e565b92505060206119a48582860161164e565b9150509250929050565b7f4e6f206e61746976652076616c75652073656e740000000000000000000000005f82015250565b5f6119e26014836114c5565b91506119ed826119ae565b602082019050919050565b5f6020820190508181035f830152611a0f816119d6565b9050919050565b7f4e487b71000000000000000000000000000000000000000000000000000000005f52601160045260245ffd5b5f611a4d826115b6565b9150611a58836115b6565b9250828202611a66816115b6565b91508282048414831517611a7d57611a7c611a16565b5b5092915050565b5f604082019050611a975f8301856116d3565b611aa460208301846116d3565b9392505050565b7f4e487b71000000000000000000000000000000000000000000000000000000005f52602260045260245ffd5b5f6002820490506001821680611aef57607f821691505b602082108103611b0257611b01611aab565b5b50919050565b7f496e73756666696369656e742062616c616e63650000000000000000000000005f82015250565b5f611b3c6014836114c5565b9150611b4782611b08565b602082019050919050565b5f6020820190508181035f830152611b6981611b30565b9050919050565b5f81905092915050565b50565b5f611b885f83611b70565b9150611b9382611b7a565b5f82019050919050565b5f611ba782611b7d565b9150819050919050565b7f5472616e73666572206661696c656400000000000000000000000000000000005f82015250565b5f611be5600f836114c5565b9150611bf082611bb1565b602082019050919050565b5f6020820190508181035f830152611c1281611bd9565b9050919050565b5f604082019050611c2c5f8301856117aa565b611c3960208301846116d3565b9392505050565b611c49816116a0565b8114611c53575f5ffd5b50565b5f81519050611c6481611c40565b92915050565b5f60208284031215611c7f57611c7e611554565b5b5f611c8c84828501611c56565b91505092915050565b5f819050815f5260205f209050919050565b5f6020601f8301049050919050565b5f82821b905092915050565b5f60088302611cf17fffffffffffffffffffffffffffffffffffffffffffffffffffffffffffffffff82611cb6565b611cfb8683611cb6565b95508019841693508086168417925050509392505050565b5f819050919050565b5f611d36611d31611d2c846115b6565b611d13565b6115b6565b9050919050565b5f819050919050565b611d4f83611d1c565b611d63611d5b82611d3d565b848454611cc2565b825550505050565b5f5f905090565b611d7a611d6b565b611d85818484611d46565b505050565b5b81811015611da857611d9d5f82611d72565b600181019050611d8b565b5050565b601f821115611ded57611dbe81611c95565b611dc784611ca7565b81016020851015611dd6578190505b611dea611de285611ca7565b830182611d8a565b50505b505050565b5f82821c905092915050565b5f611e0d5f1984600802611df2565b1980831691505092915050565b5f611e258383611dfe565b9150826002028217905092915050565b611e3e826114bb565b67ffffffffffffffff811115611e5757611e566117da565b5b611e618254611ad8565b611e6c828285611dac565b5f60209050601f831160018114611e9d575f8415611e8b578287015190505b611e958582611e1a565b865550611efc565b601f198416611eab86611c95565b5f5b82811015611ed257848901518255600182019150602085019450602081019050611ead565b86831015611eef5784890151611eeb601f891682611dfe565b8355505b6001600288020188555050505b505050505050565b5f6040820190508181035f830152611f1c81856114f3565b90508181036020830152611f3081846114f3565b90509392505050565b5f606082019050611f4c5f8301866117aa565b611f5960208301856116d3565b611f6660408301846116d3565b949350505050565b5f611f78826115b6565b9150611f83836115b6565b9250828201905080821115611f9b57611f9a611a16565b5b9291505056fea26469706673582212208ceedbfe2a99cf303b1956e399c01d7f44d63684f2f5618c6d7c957938e4250664736f6c634300081e0033",
					"opcodes": "PUSH1 0x80 PUSH1 0x40 MSTORE CALLVALUE DUP1 ISZERO PUSH2 0xF JUMPI PUSH0 PUSH0 REVERT JUMPDEST POP PUSH1 0x40 MLOAD PUSH2 0x2A6B CODESIZE SUB DUP1 PUSH2 0x2A6B DUP4 CODECOPY DUP2 DUP2 ADD PUSH1 0x40 MSTORE DUP2 ADD SWAP1 PUSH2 0x31 SWAP2 SWAP1 PUSH2 0x600 JUMP JUMPDEST CALLER DUP5 DUP5 DUP2 PUSH1 0x3 SWAP1 DUP2 PUSH2 0x43 SWAP2 SWAP1 PUSH2 0x8A3 JUMP JUMPDEST POP DUP1 PUSH1 0x4 SWAP1 DUP2 PUSH2 0x53 SWAP2 SWAP1 PUSH2 0x8A3 JUMP JUMPDEST POP POP POP PUSH0 PUSH20 0xFFFFFFFFFFFFFFFFFFFFFFFFFFFFFFFFFFFFFFFF AND DUP2 PUSH20 0xFFFFFFFFFFFFFFFFFFFFFFFFFFFFFFFFFFFFFFFF AND SUB PUSH2 0xC6 JUMPI PUSH0 PUSH1 0x40 MLOAD PUSH32 0x1E4FBDF700000000000000000000000000000000000000000000000000000000 DUP2 MSTORE PUSH1 0x4 ADD PUSH2 0xBD SWAP2 SWAP1 PUSH2 0x9B1 JUMP JUMPDEST PUSH1 0x40 MLOAD DUP1 SWAP2 SUB SWAP1 REVERT JUMPDEST PUSH2 0xD5 DUP2 PUSH2 0x11F PUSH1 0x20 SHL PUSH1 0x20 SHR JUMP JUMPDEST POP DUP4 PUSH1 0x6 SWAP1 DUP2 PUSH2 0xE5 SWAP2 SWAP1 PUSH2 0x8A3 JUMP JUMPDEST POP DUP3 PUSH1 0x7 SWAP1 DUP2 PUSH2 0xF5 SWAP2 SWAP1 PUSH2 0x8A3 JUMP JUMPDEST POP DUP1 PUSH1 0x8 DUP2 SWAP1 SSTORE POP PUSH0 DUP3 GT ISZERO PUSH2 0x116 JUMPI PUSH2 0x115 CALLER DUP4 PUSH2 0x1E2 PUSH1 0x20 SHL PUSH1 0x20 SHR JUMP JUMPDEST JUMPDEST POP POP POP POP PUSH2 0xA87 JUMP JUMPDEST PUSH0 PUSH1 0x5 PUSH0 SWAP1 SLOAD SWAP1 PUSH2 0x100 EXP SWAP1 DIV PUSH20 0xFFFFFFFFFFFFFFFFFFFFFFFFFFFFFFFFFFFFFFFF AND SWAP1 POP DUP2 PUSH1 0x5 PUSH0 PUSH2 0x100 EXP DUP2 SLOAD DUP2 PUSH20 0xFFFFFFFFFFFFFFFFFFFFFFFFFFFFFFFFFFFFFFFF MUL NOT AND SWAP1 DUP4 PUSH20 0xFFFFFFFFFFFFFFFFFFFFFFFFFFFFFFFFFFFFFFFF AND MUL OR SWAP1 SSTORE POP DUP2 PUSH20 0xFFFFFFFFFFFFFFFFFFFFFFFFFFFFFFFFFFFFFFFF AND DUP2 PUSH20 0xFFFFFFFFFFFFFFFFFFFFFFFFFFFFFFFFFFFFFFFF AND PUSH32 0x8BE0079C531659141344CD1FD0A4F28419497F9722A3DAAFE3B4186F6B6457E0 PUSH1 0x40 MLOAD PUSH1 0x40 MLOAD DUP1 SWAP2 SUB SWAP1 LOG3 POP POP JUMP JUMPDEST PUSH0 PUSH20 0xFFFFFFFFFFFFFFFFFFFFFFFFFFFFFFFFFFFFFFFF AND DUP3 PUSH20 0xFFFFFFFFFFFFFFFFFFFFFFFFFFFFFFFFFFFFFFFF AND SUB PUSH2 0x252 JUMPI PUSH0 PUSH1 0x40 MLOAD PUSH32 0xEC442F0500000000000000000000000000000000000000000000000000000000 DUP2 MSTORE PUSH1 0x4 ADD PUSH2 0x249 SWAP2 SWAP1 PUSH2 0x9B1 JUMP JUMPDEST PUSH1 0x40 MLOAD DUP1 SWAP2 SUB SWAP1 REVERT JUMPDEST PUSH2 0x263 PUSH0 DUP4 DUP4 PUSH2 0x267 PUSH1 0x20 SHL PUSH1 0x20 SHR JUMP JUMPDEST POP POP JUMP JUMPDEST PUSH0 PUSH20 0xFFFFFFFFFFFFFFFFFFFFFFFFFFFFFFFFFFFFFFFF AND DUP4 PUSH20 0xFFFFFFFFFFFFFFFFFFFFFFFFFFFFFFFFFFFFFFFF AND SUB PUSH2 0x2B7 JUMPI DUP1 PUSH1 0x2 PUSH0 DUP3 DUP3 SLOAD PUSH2 0x2AB SWAP2 SWAP1 PUSH2 0x9F7 JUMP JUMPDEST SWAP3 POP POP DUP2 SWAP1 SSTORE POP PUSH2 0x385 JUMP JUMPDEST PUSH0 PUSH0 PUSH0 DUP6 PUSH20 0xFFFFFFFFFFFFFFFFFFFFFFFFFFFFFFFFFFFFFFFF AND PUSH20 0xFFFFFFFFFFFFFFFFFFFFFFFFFFFFFFFFFFFFFFFF AND DUP2 MSTORE PUSH1 0x20 ADD SWAP1 DUP2 MSTORE PUSH1 0x20 ADD PUSH0 KECCAK256 SLOAD SWAP1 POP DUP2 DUP2 LT ISZERO PUSH2 0x340 JUMPI DUP4 DUP2 DUP4 PUSH1 0x40 MLOAD PUSH32 0xE450D38C00000000000000000000000000000000000000000000000000000000 DUP2 MSTORE PUSH1 0x4 ADD PUSH2 0x337 SWAP4 SWAP3 SWAP2 SWAP1 PUSH2 0xA39 JUMP JUMPDEST PUSH1 0x40 MLOAD DUP1 SWAP2 SUB SWAP1 REVERT JUMPDEST DUP2 DUP2 SUB PUSH0 PUSH0 DUP7 PUSH20 0xFFFFFFFFFFFFFFFFFFFFFFFFFFFFFFFFFFFFFFFF AND PUSH20 0xFFFFFFFFFFFFFFFFFFFFFFFFFFFFFFFFFFFFFFFF AND DUP2 MSTORE PUSH1 0x20 ADD SWAP1 DUP2 MSTORE PUSH1 0x20 ADD PUSH0 KECCAK256 DUP2 SWAP1 SSTORE POP POP JUMPDEST PUSH0 PUSH20 0xFFFFFFFFFFFFFFFFFFFFFFFFFFFFFFFFFFFFFFFF AND DUP3 PUSH20 0xFFFFFFFFFFFFFFFFFFFFFFFFFFFFFFFFFFFFFFFF AND SUB PUSH2 0x3CC JUMPI DUP1 PUSH1 0x2 PUSH0 DUP3 DUP3 SLOAD SUB SWAP3 POP POP DUP2 SWAP1 SSTORE POP PUSH2 0x416 JUMP JUMPDEST DUP1 PUSH0 PUSH0 DUP5 PUSH20 0xFFFFFFFFFFFFFFFFFFFFFFFFFFFFFFFFFFFFFFFF AND PUSH20 0xFFFFFFFFFFFFFFFFFFFFFFFFFFFFFFFFFFFFFFFF AND DUP2 MSTORE PUSH1 0x20 ADD SWAP1 DUP2 MSTORE PUSH1 0x20 ADD PUSH0 KECCAK256 PUSH0 DUP3 DUP3 SLOAD ADD SWAP3 POP POP DUP2 SWAP1 SSTORE POP JUMPDEST DUP2 PUSH20 0xFFFFFFFFFFFFFFFFFFFFFFFFFFFFFFFFFFFFFFFF AND DUP4 PUSH20 0xFFFFFFFFFFFFFFFFFFFFFFFFFFFFFFFFFFFFFFFF AND PUSH32 0xDDF252AD1BE2C89B69C2B068FC378DAA952BA7F163C4A11628F55A4DF523B3EF DUP4 PUSH1 0x40 MLOAD PUSH2 0x473 SWAP2 SWAP1 PUSH2 0xA6E JUMP JUMPDEST PUSH1 0x40 MLOAD DUP1 SWAP2 SUB SWAP1 LOG3 POP POP POP JUMP JUMPDEST PUSH0 PUSH1 0x40 MLOAD SWAP1 POP SWAP1 JUMP JUMPDEST PUSH0 PUSH0 REVERT JUMPDEST PUSH0 PUSH0 REVERT JUMPDEST PUSH0 PUSH0 REVERT JUMPDEST PUSH0 PUSH0 REVERT JUMPDEST PUSH0 PUSH1 0x1F NOT PUSH1 0x1F DUP4 ADD AND SWAP1 POP SWAP2 SWAP1 POP JUMP JUMPDEST PUSH32 0x4E487B7100000000000000000000000000000000000000000000000000000000 PUSH0 MSTORE PUSH1 0x41 PUSH1 0x4 MSTORE PUSH1 0x24 PUSH0 REVERT JUMPDEST PUSH2 0x4DF DUP3 PUSH2 0x499 JUMP JUMPDEST DUP2 ADD DUP2 DUP2 LT PUSH8 0xFFFFFFFFFFFFFFFF DUP3 GT OR ISZERO PUSH2 0x4FE JUMPI PUSH2 0x4FD PUSH2 0x4A9 JUMP JUMPDEST JUMPDEST DUP1 PUSH1 0x40 MSTORE POP POP POP JUMP JUMPDEST PUSH0 PUSH2 0x510 PUSH2 0x480 JUMP JUMPDEST SWAP1 POP PUSH2 0x51C DUP3 DUP3 PUSH2 0x4D6 JUMP JUMPDEST SWAP2 SWAP1 POP JUMP JUMPDEST PUSH0 PUSH8 0xFFFFFFFFFFFFFFFF DUP3 GT ISZERO PUSH2 0x53B JUMPI PUSH2 0x53A PUSH2 0x4A9 JUMP JUMPDEST JUMPDEST PUSH2 0x544 DUP3 PUSH2 0x499 JUMP JUMPDEST SWAP1 POP PUSH1 0x20 DUP2 ADD SWAP1 POP SWAP2 SWAP1 POP JUMP JUMPDEST DUP3 DUP2 DUP4 MCOPY PUSH0 DUP4 DUP4 ADD MSTORE POP POP POP JUMP JUMPDEST PUSH0 PUSH2 0x571 PUSH2 0x56C DUP5 PUSH2 0x521 JUMP JUMPDEST PUSH2 0x507 JUMP JUMPDEST SWAP1 POP DUP3 DUP2 MSTORE PUSH1 0x20 DUP2 ADD DUP5 DUP5 DUP5 ADD GT ISZERO PUSH2 0x58D JUMPI PUSH2 0x58C PUSH2 0x495 JUMP JUMPDEST JUMPDEST PUSH2 0x598 DUP5 DUP3 DUP6 PUSH2 0x551 JUMP JUMPDEST POP SWAP4 SWAP3 POP POP POP JUMP JUMPDEST PUSH0 DUP3 PUSH1 0x1F DUP4 ADD SLT PUSH2 0x5B4 JUMPI PUSH2 0x5B3 PUSH2 0x491 JUMP JUMPDEST JUMPDEST DUP2 MLOAD PUSH2 0x5C4 DUP5 DUP3 PUSH1 0x20 DUP7 ADD PUSH2 0x55F JUMP JUMPDEST SWAP2 POP POP SWAP3 SWAP2 POP POP JUMP JUMPDEST PUSH0 DUP2 SWAP1 POP SWAP2 SWAP1 POP JUMP JUMPDEST PUSH2 0x5DF DUP2 PUSH2 0x5CD JUMP JUMPDEST DUP2 EQ PUSH2 0x5E9 JUMPI PUSH0 PUSH0 REVERT JUMPDEST POP JUMP JUMPDEST PUSH0 DUP2 MLOAD SWAP1 POP PUSH2 0x5FA DUP2 PUSH2 0x5D6 JUMP JUMPDEST SWAP3 SWAP2 POP POP JUMP JUMPDEST PUSH0 PUSH0 PUSH0 PUSH0 PUSH1 0x80 DUP6 DUP8 SUB SLT ISZERO PUSH2 0x618 JUMPI PUSH2 0x617 PUSH2 0x489 JUMP JUMPDEST JUMPDEST PUSH0 DUP6 ADD MLOAD PUSH8 0xFFFFFFFFFFFFFFFF DUP2 GT ISZERO PUSH2 0x635 JUMPI PUSH2 0x634 PUSH2 0x48D JUMP JUMPDEST JUMPDEST PUSH2 0x641 DUP8 DUP3 DUP9 ADD PUSH2 0x5A0 JUMP JUMPDEST SWAP5 POP POP PUSH1 0x20 DUP6 ADD MLOAD PUSH8 0xFFFFFFFFFFFFFFFF DUP2 GT ISZERO PUSH2 0x662 JUMPI PUSH2 0x661 PUSH2 0x48D JUMP JUMPDEST JUMPDEST PUSH2 0x66E DUP8 DUP3 DUP9 ADD PUSH2 0x5A0 JUMP JUMPDEST SWAP4 POP POP PUSH1 0x40 PUSH2 0x67F DUP8 DUP3 DUP9 ADD PUSH2 0x5EC JUMP JUMPDEST SWAP3 POP POP PUSH1 0x60 PUSH2 0x690 DUP8 DUP3 DUP9 ADD PUSH2 0x5EC JUMP JUMPDEST SWAP2 POP POP SWAP3 SWAP6 SWAP2 SWAP5 POP SWAP3 POP JUMP JUMPDEST PUSH0 DUP2 MLOAD SWAP1 POP SWAP2 SWAP1 POP JUMP JUMPDEST PUSH32 0x4E487B7100000000000000000000000000000000000000000000000000000000 PUSH0 MSTORE PUSH1 0x22 PUSH1 0x4 MSTORE PUSH1 0x24 PUSH0 REVERT JUMPDEST PUSH0 PUSH1 0x2 DUP3 DIV SWAP1 POP PUSH1 0x1 DUP3 AND DUP1 PUSH2 0x6EA JUMPI PUSH1 0x7F DUP3 AND SWAP2 POP JUMPDEST PUSH1 0x20 DUP3 LT DUP2 SUB PUSH2 0x6FD JUMPI PUSH2 0x6FC PUSH2 0x6A6 JUMP JUMPDEST JUMPDEST POP SWAP2 SWAP1 POP JUMP JUMPDEST PUSH0 DUP2 SWAP1 POP DUP2 PUSH0 MSTORE PUSH1 0x20 PUSH0 KECCAK256 SWAP1 POP SWAP2 SWAP1 POP JUMP JUMPDEST PUSH0 PUSH1 0x20 PUSH1 0x1F DUP4 ADD DIV SWAP1 POP SWAP2 SWAP1 POP JUMP JUMPDEST PUSH0 DUP3 DUP3 SHL SWAP1 POP SWAP3 SWAP2 POP POP JUMP JUMPDEST PUSH0 PUSH1 0x8 DUP4 MUL PUSH2 0x75F PUSH32 0xFFFFFFFFFFFFFFFFFFFFFFFFFFFFFFFFFFFFFFFFFFFFFFFFFFFFFFFFFFFFFFFF DUP3 PUSH2 0x724 JUMP JUMPDEST PUSH2 0x769 DUP7 DUP4 PUSH2 0x724 JUMP JUMPDEST SWAP6 POP DUP1 NOT DUP5 AND SWAP4 POP DUP1 DUP7 AND DUP5 OR SWAP3 POP POP POP SWAP4 SWAP3 POP POP POP JUMP JUMPDEST PUSH0 DUP2 SWAP1 POP SWAP2 SWAP1 POP JUMP JUMPDEST PUSH0 PUSH2 0x7A4 PUSH2 0x79F PUSH2 0x79A DUP5 PUSH2 0x5CD JUMP JUMPDEST PUSH2 0x781 JUMP JUMPDEST PUSH2 0x5CD JUMP JUMPDEST SWAP1 POP SWAP2 SWAP1 POP JUMP JUMPDEST PUSH0 DUP2 SWAP1 POP SWAP2 SWAP1 POP JUMP JUMPDEST PUSH2 0x7BD DUP4 PUSH2 0x78A JUMP JUMPDEST PUSH2 0x7D1 PUSH2 0x7C9 DUP3 PUSH2 0x7AB JUMP JUMPDEST DUP5 DUP5 SLOAD PUSH2 0x730 JUMP JUMPDEST DUP3 SSTORE POP POP POP POP JUMP JUMPDEST PUSH0 PUSH0 SWAP1 POP SWAP1 JUMP JUMPDEST PUSH2 0x7E8 PUSH2 0x7D9 JUMP JUMPDEST PUSH2 0x7F3 DUP2 DUP5 DUP5 PUSH2 0x7B4 JUMP JUMPDEST POP POP POP JUMP JUMPDEST JUMPDEST DUP2 DUP2 LT ISZERO PUSH2 0x816 JUMPI PUSH2 0x80B PUSH0 DUP3 PUSH2 0x7E0 JUMP JUMPDEST PUSH1 0x1 DUP2 ADD SWAP1 POP PUSH2 0x7F9 JUMP JUMPDEST POP POP JUMP JUMPDEST PUSH1 0x1F DUP3 GT ISZERO PUSH2 0x85B JUMPI PUSH2 0x82C DUP2 PUSH2 0x703 JUMP JUMPDEST PUSH2 0x835 DUP5 PUSH2 0x715 JUMP JUMPDEST DUP2 ADD PUSH1 0x20 DUP6 LT ISZERO PUSH2 0x844 JUMPI DUP2 SWAP1 POP JUMPDEST PUSH2 0x858 PUSH2 0x850 DUP6 PUSH2 0x715 JUMP JUMPDEST DUP4 ADD DUP3 PUSH2 0x7F8 JUMP JUMPDEST POP POP JUMPDEST POP POP POP JUMP JUMPDEST PUSH0 DUP3 DUP3 SHR SWAP1 POP SWAP3 SWAP2 POP POP JUMP JUMPDEST PUSH0 PUSH2 0x87B PUSH0 NOT DUP5 PUSH1 0x8 MUL PUSH2 0x860 JUMP JUMPDEST NOT DUP1 DUP4 AND SWAP2 POP POP SWAP3 SWAP2 POP POP JUMP JUMPDEST PUSH0 PUSH2 0x893 DUP4 DUP4 PUSH2 0x86C JUMP JUMPDEST SWAP2 POP DUP3 PUSH1 0x2 MUL DUP3 OR SWAP1 POP SWAP3 SWAP2 POP POP JUMP JUMPDEST PUSH2 0x8AC DUP3 PUSH2 0x69C JUMP JUMPDEST PUSH8 0xFFFFFFFFFFFFFFFF DUP2 GT ISZERO PUSH2 0x8C5 JUMPI PUSH2 0x8C4 PUSH2 0x4A9 JUMP JUMPDEST JUMPDEST PUSH2 0x8CF DUP3 SLOAD PUSH2 0x6D3 JUMP JUMPDEST PUSH2 0x8DA DUP3 DUP3 DUP6 PUSH2 0x81A JUMP JUMPDEST PUSH0 PUSH1 0x20 SWAP1 POP PUSH1 0x1F DUP4 GT PUSH1 0x1 DUP2 EQ PUSH2 0x90B JUMPI PUSH0 DUP5 ISZERO PUSH2 0x8F9 JUMPI DUP3 DUP8 ADD MLOAD SWAP1 POP JUMPDEST PUSH2 0x903 DUP6 DUP3 PUSH2 0x888 JUMP JUMPDEST DUP7 SSTORE POP PUSH2 0x96A JUMP JUMPDEST PUSH1 0x1F NOT DUP5 AND PUSH2 0x919 DUP7 PUSH2 0x703 JUMP JUMPDEST PUSH0 JUMPDEST DUP3 DUP2 LT ISZERO PUSH2 0x940 JUMPI DUP5 DUP10 ADD MLOAD DUP3 SSTORE PUSH1 0x1 DUP3 ADD SWAP2 POP PUSH1 0x20 DUP6 ADD SWAP5 POP PUSH1 0x20 DUP2 ADD SWAP1 POP PUSH2 0x91B JUMP JUMPDEST DUP7 DUP4 LT ISZERO PUSH2 0x95D JUMPI DUP5 DUP10 ADD MLOAD PUSH2 0x959 PUSH1 0x1F DUP10 AND DUP3 PUSH2 0x86C JUMP JUMPDEST DUP4 SSTORE POP JUMPDEST PUSH1 0x1 PUSH1 0x2 DUP9 MUL ADD DUP9 SSTORE POP POP POP JUMPDEST POP POP POP POP POP POP JUMP JUMPDEST PUSH0 PUSH20 0xFFFFFFFFFFFFFFFFFFFFFFFFFFFFFFFFFFFFFFFF DUP3 AND SWAP1 POP SWAP2 SWAP1 POP JUMP JUMPDEST PUSH0 PUSH2 0x99B DUP3 PUSH2 0x972 JUMP JUMPDEST SWAP1 POP SWAP2 SWAP1 POP JUMP JUMPDEST PUSH2 0x9AB DUP2 PUSH2 0x991 JUMP JUMPDEST DUP3 MSTORE POP POP JUMP JUMPDEST PUSH0 PUSH1 0x20 DUP3 ADD SWAP1 POP PUSH2 0x9C4 PUSH0 DUP4 ADD DUP5 PUSH2 0x9A2 JUMP JUMPDEST SWAP3 SWAP2 POP POP JUMP JUMPDEST PUSH32 0x4E487B7100000000000000000000000000000000000000000000000000000000 PUSH0 MSTORE PUSH1 0x11 PUSH1 0x4 MSTORE PUSH1 0x24 PUSH0 REVERT JUMPDEST PUSH0 PUSH2 0xA01 DUP3 PUSH2 0x5CD JUMP JUMPDEST SWAP2 POP PUSH2 0xA0C DUP4 PUSH2 0x5CD JUMP JUMPDEST SWAP3 POP DUP3 DUP3 ADD SWAP1 POP DUP1 DUP3 GT ISZERO PUSH2 0xA24 JUMPI PUSH2 0xA23 PUSH2 0x9CA JUMP JUMPDEST JUMPDEST SWAP3 SWAP2 POP POP JUMP JUMPDEST PUSH2 0xA33 DUP2 PUSH2 0x5CD JUMP JUMPDEST DUP3 MSTORE POP POP JUMP JUMPDEST PUSH0 PUSH1 0x60 DUP3 ADD SWAP1 POP PUSH2 0xA4C PUSH0 DUP4 ADD DUP7 PUSH2 0x9A2 JUMP JUMPDEST PUSH2 0xA59 PUSH1 0x20 DUP4 ADD DUP6 PUSH2 0xA2A JUMP JUMPDEST PUSH2 0xA66 PUSH1 0x40 DUP4 ADD DUP5 PUSH2 0xA2A JUMP JUMPDEST SWAP5 SWAP4 POP POP POP POP JUMP JUMPDEST PUSH0 PUSH1 0x20 DUP3 ADD SWAP1 POP PUSH2 0xA81 PUSH0 DUP4 ADD DUP5 PUSH2 0xA2A JUMP JUMPDEST SWAP3 SWAP2 POP POP JUMP JUMPDEST PUSH2 0x1FD7 DUP1 PUSH2 0xA94 PUSH0 CODECOPY PUSH0 RETURN INVALID PUSH1 0x80 PUSH1 0x40 MSTORE PUSH1 0x4 CALLDATASIZE LT PUSH2 0x12D JUMPI PUSH0 CALLDATALOAD PUSH1 0xE0 SHR DUP1 PUSH4 0x8DA5CB5B GT PUSH2 0xAA JUMPI DUP1 PUSH4 0xB84C8246 GT PUSH2 0x6E JUMPI DUP1 PUSH4 0xB84C8246 EQ PUSH2 0x3EC JUMPI DUP1 PUSH4 0xBF35588B EQ PUSH2 0x414 JUMPI DUP1 PUSH4 0xC47F0027 EQ PUSH2 0x43C JUMPI DUP1 PUSH4 0xD0E30DB0 EQ PUSH2 0x464 JUMPI DUP1 PUSH4 0xDD62ED3E EQ PUSH2 0x482 JUMPI DUP1 PUSH4 0xF2FDE38B EQ PUSH2 0x4BE JUMPI PUSH2 0x13E JUMP JUMPDEST DUP1 PUSH4 0x8DA5CB5B EQ PUSH2 0x30C JUMPI DUP1 PUSH4 0x95D89B41 EQ PUSH2 0x336 JUMPI DUP1 PUSH4 0x9DC29FAC EQ PUSH2 0x360 JUMPI DUP1 PUSH4 0xA9059CBB EQ PUSH2 0x388 JUMPI DUP1 PUSH4 0xB2118A8D EQ PUSH2 0x3C4 JUMPI PUSH2 0x13E JUMP JUMPDEST DUP1 PUSH4 0x313CE567 GT PUSH2 0xF1 JUMPI DUP1 PUSH4 0x313CE567 EQ PUSH2 0x23E JUMPI DUP1 PUSH4 0x40C10F19 EQ PUSH2 0x268 JUMPI DUP1 PUSH4 0x70A08231 EQ PUSH2 0x290 JUMPI DUP1 PUSH4 0x715018A6 EQ PUSH2 0x2CC JUMPI DUP1 PUSH4 0x7E74A1ED EQ PUSH2 0x2E2 JUMPI PUSH2 0x13E JUMP JUMPDEST DUP1 PUSH4 0x6FDDE03 EQ PUSH2 0x14A JUMPI DUP1 PUSH4 0x7B18BDE EQ PUSH2 0x174 JUMPI DUP1 PUSH4 0x95EA7B3 EQ PUSH2 0x19C JUMPI DUP1 PUSH4 0x18160DDD EQ PUSH2 0x1D8 JUMPI DUP1 PUSH4 0x23B872DD EQ PUSH2 0x202 JUMPI PUSH2 0x13E JUMP JUMPDEST CALLDATASIZE PUSH2 0x13E JUMPI PUSH2 0x13C CALLER CALLVALUE PUSH2 0x4E6 JUMP JUMPDEST STOP JUMPDEST PUSH2 0x148 CALLER CALLVALUE PUSH2 0x4E6 JUMP JUMPDEST STOP JUMPDEST CALLVALUE DUP1 ISZERO PUSH2 0x155 JUMPI PUSH0 PUSH0 REVERT JUMPDEST POP PUSH2 0x15E PUSH2 0x598 JUMP JUMPDEST PUSH1 0x40 MLOAD PUSH2 0x16B SWAP2 SWAP1 PUSH2 0x152B JUMP JUMPDEST PUSH1 0x40 MLOAD DUP1 SWAP2 SUB SWAP1 RETURN JUMPDEST CALLVALUE DUP1 ISZERO PUSH2 0x17F JUMPI PUSH0 PUSH0 REVERT JUMPDEST POP PUSH2 0x19A PUSH1 0x4 DUP1 CALLDATASIZE SUB DUP2 ADD SWAP1 PUSH2 0x195 SWAP2 SWAP1 PUSH2 0x15E9 JUMP JUMPDEST PUSH2 0x628 JUMP JUMPDEST STOP JUMPDEST CALLVALUE DUP1 ISZERO PUSH2 0x1A7 JUMPI PUSH0 PUSH0 REVERT JUMPDEST POP PUSH2 0x1C2 PUSH1 0x4 DUP1 CALLDATASIZE SUB DUP2 ADD SWAP1 PUSH2 0x1BD SWAP2 SWAP1 PUSH2 0x1662 JUMP JUMPDEST PUSH2 0x76E JUMP JUMPDEST PUSH1 0x40 MLOAD PUSH2 0x1CF SWAP2 SWAP1 PUSH2 0x16BA JUMP JUMPDEST PUSH1 0x40 MLOAD DUP1 SWAP2 SUB SWAP1 RETURN JUMPDEST CALLVALUE DUP1 ISZERO PUSH2 0x1E3 JUMPI PUSH0 PUSH0 REVERT JUMPDEST POP PUSH2 0x1EC PUSH2 0x790 JUMP JUMPDEST PUSH1 0x40 MLOAD PUSH2 0x1F9 SWAP2 SWAP1 PUSH2 0x16E2 JUMP JUMPDEST PUSH1 0x40 MLOAD DUP1 SWAP2 SUB SWAP1 RETURN JUMPDEST CALLVALUE DUP1 ISZERO PUSH2 0x20D JUMPI PUSH0 PUSH0 REVERT JUMPDEST POP PUSH2 0x228 PUSH1 0x4 DUP1 CALLDATASIZE SUB DUP2 ADD SWAP1 PUSH2 0x223 SWAP2 SWAP1 PUSH2 0x16FB JUMP JUMPDEST PUSH2 0x799 JUMP JUMPDEST PUSH1 0x40 MLOAD PUSH2 0x235 SWAP2 SWAP1 PUSH2 0x16BA JUMP JUMPDEST PUSH1 0x40 MLOAD DUP1 SWAP2 SUB SWAP1 RETURN JUMPDEST CALLVALUE DUP1 ISZERO PUSH2 0x249 JUMPI PUSH0 PUSH0 REVERT JUMPDEST POP PUSH2 0x252 PUSH2 0x7C7 JUMP JUMPDEST PUSH1 0x40 MLOAD PUSH2 0x25F SWAP2 SWAP1 PUSH2 0x1766 JUMP JUMPDEST PUSH1 0x40 MLOAD DUP1 SWAP2 SUB SWAP1 RETURN JUMPDEST CALLVALUE DUP1 ISZERO PUSH2 0x273 JUMPI PUSH0 PUSH0 REVERT JUMPDEST POP PUSH2 0x28E PUSH1 0x4 DUP1 CALLDATASIZE SUB DUP2 ADD SWAP1 PUSH2 0x289 SWAP2 SWAP1 PUSH2 0x1662 JUMP JUMPDEST PUSH2 0x7CF JUMP JUMPDEST STOP JUMPDEST CALLVALUE DUP1 ISZERO PUSH2 0x29B JUMPI PUSH0 PUSH0 REVERT JUMPDEST POP PUSH2 0x2B6 PUSH1 0x4 DUP1 CALLDATASIZE SUB DUP2 ADD SWAP1 PUSH2 0x2B1 SWAP2 SWAP1 PUSH2 0x177F JUMP JUMPDEST PUSH2 0x7E5 JUMP JUMPDEST PUSH1 0x40 MLOAD PUSH2 0x2C3 SWAP2 SWAP1 PUSH2 0x16E2 JUMP JUMPDEST PUSH1 0x40 MLOAD DUP1 SWAP2 SUB SWAP1 RETURN JUMPDEST CALLVALUE DUP1 ISZERO PUSH2 0x2D7 JUMPI PUSH0 PUSH0 REVERT JUMPDEST POP PUSH2 0x2E0 PUSH2 0x82A JUMP JUMPDEST STOP JUMPDEST CALLVALUE DUP1 ISZERO PUSH2 0x2ED JUMPI PUSH0 PUSH0 REVERT JUMPDEST POP PUSH2 0x2F6 PUSH2 0x83D JUMP JUMPDEST PUSH1 0x40 MLOAD PUSH2 0x303 SWAP2 SWAP1 PUSH2 0x16E2 JUMP JUMPDEST PUSH1 0x40 MLOAD DUP1 SWAP2 SUB SWAP1 RETURN JUMPDEST CALLVALUE DUP1 ISZERO PUSH2 0x317 JUMPI PUSH0 PUSH0 REVERT JUMPDEST POP PUSH2 0x320 PUSH2 0x843 JUMP JUMPDEST PUSH1 0x40 MLOAD PUSH2 0x32D SWAP2 SWAP1 PUSH2 0x17B9 JUMP JUMPDEST PUSH1 0x40 MLOAD DUP1 SWAP2 SUB SWAP1 RETURN JUMPDEST CALLVALUE DUP1 ISZERO PUSH2 0x341 JUMPI PUSH0 PUSH0 REVERT JUMPDEST POP PUSH2 0x34A PUSH2 0x86B JUMP JUMPDEST PUSH1 0x40 MLOAD PUSH2 0x357 SWAP2 SWAP1 PUSH2 0x152B JUMP JUMPDEST PUSH1 0x40 MLOAD DUP1 SWAP2 SUB SWAP1 RETURN JUMPDEST CALLVALUE DUP1 ISZERO PUSH2 0x36B JUMPI PUSH0 PUSH0 REVERT JUMPDEST POP PUSH2 0x386 PUSH1 0x4 DUP1 CALLDATASIZE SUB DUP2 ADD SWAP1 PUSH2 0x381 SWAP2 SWAP1 PUSH2 0x1662 JUMP JUMPDEST PUSH2 0x8FB JUMP JUMPDEST STOP JUMPDEST CALLVALUE DUP1 ISZERO PUSH2 0x393 JUMPI PUSH0 PUSH0 REVERT JUMPDEST POP PUSH2 0x3AE PUSH1 0x4 DUP1 CALLDATASIZE SUB DUP2 ADD SWAP1 PUSH2 0x3A9 SWAP2 SWAP1 PUSH2 0x1662 JUMP JUMPDEST PUSH2 0x911 JUMP JUMPDEST PUSH1 0x40 MLOAD PUSH2 0x3BB SWAP2 SWAP1 PUSH2 0x16BA JUMP JUMPDEST PUSH1 0x40 MLOAD DUP1 SWAP2 SUB SWAP1 RETURN JUMPDEST CALLVALUE DUP1 ISZERO PUSH2 0x3CF JUMPI PUSH0 PUSH0 REVERT JUMPDEST POP PUSH2 0x3EA PUSH1 0x4 DUP1 CALLDATASIZE SUB DUP2 ADD SWAP1 PUSH2 0x3E5 SWAP2 SWAP1 PUSH2 0x16FB JUMP JUMPDEST PUSH2 0x933 JUMP JUMPDEST STOP JUMPDEST CALLVALUE DUP1 ISZERO PUSH2 0x3F7 JUMPI PUSH0 PUSH0 REVERT JUMPDEST POP PUSH2 0x412 PUSH1 0x4 DUP1 CALLDATASIZE SUB DUP2 ADD SWAP1 PUSH2 0x40D SWAP2 SWAP1 PUSH2 0x18FE JUMP JUMPDEST PUSH2 0x9BC JUMP JUMPDEST STOP JUMPDEST CALLVALUE DUP1 ISZERO PUSH2 0x41F JUMPI PUSH0 PUSH0 REVERT JUMPDEST POP PUSH2 0x43A PUSH1 0x4 DUP1 CALLDATASIZE SUB DUP2 ADD SWAP1 PUSH2 0x435 SWAP2 SWAP1 PUSH2 0x1945 JUMP JUMPDEST PUSH2 0xA9D JUMP JUMPDEST STOP JUMPDEST CALLVALUE DUP1 ISZERO PUSH2 0x447 JUMPI PUSH0 PUSH0 REVERT JUMPDEST POP PUSH2 0x462 PUSH1 0x4 DUP1 CALLDATASIZE SUB DUP2 ADD SWAP1 PUSH2 0x45D SWAP2 SWAP1 PUSH2 0x18FE JUMP JUMPDEST PUSH2 0xAEA JUMP JUMPDEST STOP JUMPDEST PUSH2 0x46C PUSH2 0xBCB JUMP JUMPDEST PUSH1 0x40 MLOAD PUSH2 0x479 SWAP2 SWAP1 PUSH2 0x16E2 JUMP JUMPDEST PUSH1 0x40 MLOAD DUP1 SWAP2 SUB SWAP1 RETURN JUMPDEST CALLVALUE DUP1 ISZERO PUSH2 0x48D JUMPI PUSH0 PUSH0 REVERT JUMPDEST POP PUSH2 0x4A8 PUSH1 0x4 DUP1 CALLDATASIZE SUB DUP2 ADD SWAP1 PUSH2 0x4A3 SWAP2 SWAP1 PUSH2 0x1970 JUMP JUMPDEST PUSH2 0xBE9 JUMP JUMPDEST PUSH1 0x40 MLOAD PUSH2 0x4B5 SWAP2 SWAP1 PUSH2 0x16E2 JUMP JUMPDEST PUSH1 0x40 MLOAD DUP1 SWAP2 SUB SWAP1 RETURN JUMPDEST CALLVALUE DUP1 ISZERO PUSH2 0x4C9 JUMPI PUSH0 PUSH0 REVERT JUMPDEST POP PUSH2 0x4E4 PUSH1 0x4 DUP1 CALLDATASIZE SUB DUP2 ADD SWAP1 PUSH2 0x4DF SWAP2 SWAP1 PUSH2 0x177F JUMP JUMPDEST PUSH2 0xC6B JUMP JUMPDEST STOP JUMPDEST PUSH0 DUP2 GT PUSH2 0x528 JUMPI PUSH1 0x40 MLOAD PUSH32 0x8C379A000000000000000000000000000000000000000000000000000000000 DUP2 MSTORE PUSH1 0x4 ADD PUSH2 0x51F SWAP1 PUSH2 0x19F8 JUMP JUMPDEST PUSH1 0x40 MLOAD DUP1 SWAP2 SUB SWAP1 REVERT JUMPDEST PUSH0 PUSH1 0x8 SLOAD DUP3 PUSH2 0x537 SWAP2 SWAP1 PUSH2 0x1A43 JUMP JUMPDEST SWAP1 POP PUSH2 0x543 DUP4 DUP3 PUSH2 0xCEF JUMP JUMPDEST DUP3 PUSH20 0xFFFFFFFFFFFFFFFFFFFFFFFFFFFFFFFFFFFFFFFF AND PUSH32 0x90890809C654F11D6E72A28FA60149770A0D11EC6C92319D6CEB2BB0A4EA1A15 DUP4 DUP4 PUSH1 0x40 MLOAD PUSH2 0x58B SWAP3 SWAP2 SWAP1 PUSH2 0x1A84 JUMP JUMPDEST PUSH1 0x40 MLOAD DUP1 SWAP2 SUB SWAP1 LOG2 POP POP POP JUMP JUMPDEST PUSH1 0x60 PUSH1 0x6 DUP1 SLOAD PUSH2 0x5A7 SWAP1 PUSH2 0x1AD8 JUMP JUMPDEST DUP1 PUSH1 0x1F ADD PUSH1 0x20 DUP1 SWAP2 DIV MUL PUSH1 0x20 ADD PUSH1 0x40 MLOAD SWAP1 DUP2 ADD PUSH1 0x40 MSTORE DUP1 SWAP3 SWAP2 SWAP1 DUP2 DUP2 MSTORE PUSH1 0x20 ADD DUP3 DUP1 SLOAD PUSH2 0x5D3 SWAP1 PUSH2 0x1AD8 JUMP JUMPDEST DUP1 ISZERO PUSH2 0x61E JUMPI DUP1 PUSH1 0x1F LT PUSH2 0x5F5 JUMPI PUSH2 0x100 DUP1 DUP4 SLOAD DIV MUL DUP4 MSTORE SWAP2 PUSH1 0x20 ADD SWAP2 PUSH2 0x61E JUMP JUMPDEST DUP3 ADD SWAP2 SWAP1 PUSH0 MSTORE PUSH1 0x20 PUSH0 KECCAK256 SWAP1 JUMPDEST DUP2 SLOAD DUP2 MSTORE SWAP1 PUSH1 0x1 ADD SWAP1 PUSH1 0x20 ADD DUP1 DUP4 GT PUSH2 0x601 JUMPI DUP3 SWAP1 SUB PUSH1 0x1F AND DUP3 ADD SWAP2 JUMPDEST POP POP POP POP POP SWAP1 POP SWAP1 JUMP JUMPDEST PUSH2 0x630 PUSH2 0xD6E JUMP JUMPDEST DUP1 SELFBALANCE LT ISZERO PUSH2 0x673 JUMPI PUSH1 0x40 MLOAD PUSH32 0x8C379A000000000000000000000000000000000000000000000000000000000 DUP2 MSTORE PUSH1 0x4 ADD PUSH2 0x66A SWAP1 PUSH2 0x1B52 JUMP JUMPDEST PUSH1 0x40 MLOAD DUP1 SWAP2 SUB SWAP1 REVERT JUMPDEST PUSH0 DUP3 PUSH20 0xFFFFFFFFFFFFFFFFFFFFFFFFFFFFFFFFFFFFFFFF AND DUP3 PUSH1 0x40 MLOAD PUSH2 0x698 SWAP1 PUSH2 0x1B9D JUMP JUMPDEST PUSH0 PUSH1 0x40 MLOAD DUP1 DUP4 SUB DUP2 DUP6 DUP8 GAS CALL SWAP3 POP POP POP RETURNDATASIZE DUP1 PUSH0 DUP2 EQ PUSH2 0x6D2 JUMPI PUSH1 0x40 MLOAD SWAP2 POP PUSH1 0x1F NOT PUSH1 0x3F RETURNDATASIZE ADD AND DUP3 ADD PUSH1 0x40 MSTORE RETURNDATASIZE DUP3 MSTORE RETURNDATASIZE PUSH0 PUSH1 0x20 DUP5 ADD RETURNDATACOPY PUSH2 0x6D7 JUMP JUMPDEST PUSH1 0x60 SWAP2 POP JUMPDEST POP POP SWAP1 POP DUP1 PUSH2 0x71B JUMPI PUSH1 0x40 MLOAD PUSH32 0x8C379A000000000000000000000000000000000000000000000000000000000 DUP2 MSTORE PUSH1 0x4 ADD PUSH2 0x712 SWAP1 PUSH2 0x1BFB JUMP JUMPDEST PUSH1 0x40 MLOAD DUP1 SWAP2 SUB SWAP1 REVERT JUMPDEST DUP3 PUSH20 0xFFFFFFFFFFFFFFFFFFFFFFFFFFFFFFFFFFFFFFFF AND PUSH32 0x884EDAD9CE6FA2440D8A54CC123490EB96D2768479D49FF9C7366125A9424364 DUP4 PUSH1 0x40 MLOAD PUSH2 0x761 SWAP2 SWAP1 PUSH2 0x16E2 JUMP JUMPDEST PUSH1 0x40 MLOAD DUP1 SWAP2 SUB SWAP1 LOG2 POP POP POP JUMP JUMPDEST PUSH0 PUSH0 PUSH2 0x778 PUSH2 0xDF5 JUMP JUMPDEST SWAP1 POP PUSH2 0x785 DUP2 DUP6 DUP6 PUSH2 0xDFC JUMP JUMPDEST PUSH1 0x1 SWAP2 POP POP SWAP3 SWAP2 POP POP JUMP JUMPDEST PUSH0 PUSH1 0x2 SLOAD SWAP1 POP SWAP1 JUMP JUMPDEST PUSH0 PUSH0 PUSH2 0x7A3 PUSH2 0xDF5 JUMP JUMPDEST SWAP1 POP PUSH2 0x7B0 DUP6 DUP3 DUP6 PUSH2 0xE0E JUMP JUMPDEST PUSH2 0x7BB DUP6 DUP6 DUP6 PUSH2 0xEA1 JUMP JUMPDEST PUSH1 0x1 SWAP2 POP POP SWAP4 SWAP3 POP POP POP JUMP JUMPDEST PUSH0 PUSH1 0x12 SWAP1 POP SWAP1 JUMP JUMPDEST PUSH2 0x7D7 PUSH2 0xD6E JUMP JUMPDEST PUSH2 0x7E1 DUP3 DUP3 PUSH2 0xCEF JUMP JUMPDEST POP POP JUMP JUMPDEST PUSH0 PUSH0 PUSH0 DUP4 PUSH20 0xFFFFFFFFFFFFFFFFFFFFFFFFFFFFFFFFFFFFFFFF AND PUSH20 0xFFFFFFFFFFFFFFFFFFFFFFFFFFFFFFFFFFFFFFFF AND DUP2 MSTORE PUSH1 0x20 ADD SWAP1 DUP2 MSTORE PUSH1 0x20 ADD PUSH0 KECCAK256 SLOAD SWAP1 POP SWAP2 SWAP1 POP JUMP JUMPDEST PUSH2 0x832 PUSH2 0xD6E JUMP JUMPDEST PUSH2 0x83B PUSH0 PUSH2 0xF91 JUMP JUMPDEST JUMP JUMPDEST PUSH1 0x8 SLOAD DUP2 JUMP JUMPDEST PUSH0 PUSH1 0x5 PUSH0 SWAP1 SLOAD SWAP1 PUSH2 0x100 EXP SWAP1 DIV PUSH20 0xFFFFFFFFFFFFFFFFFFFFFFFFFFFFFFFFFFFFFFFF AND SWAP1 POP SWAP1 JUMP JUMPDEST PUSH1 0x60 PUSH1 0x7 DUP1 SLOAD PUSH2 0x87A SWAP1 PUSH2 0x1AD8 JUMP JUMPDEST DUP1 PUSH1 0x1F ADD PUSH1 0x20 DUP1 SWAP2 DIV MUL PUSH1 0x20 ADD PUSH1 0x40 MLOAD SWAP1 DUP2 ADD PUSH1 0x40 MSTORE DUP1 SWAP3 SWAP2 SWAP1 DUP2 DUP2 MSTORE PUSH1 0x20 ADD DUP3 DUP1 SLOAD PUSH2 0x8A6 SWAP1 PUSH2 0x1AD8 JUMP JUMPDEST DUP1 ISZERO PUSH2 0x8F1 JUMPI DUP1 PUSH1 0x1F LT PUSH2 0x8C8 JUMPI PUSH2 0x100 DUP1 DUP4 SLOAD DIV MUL DUP4 MSTORE SWAP2 PUSH1 0x20 ADD SWAP2 PUSH2 0x8F1 JUMP JUMPDEST DUP3 ADD SWAP2 SWAP1 PUSH0 MSTORE PUSH1 0x20 PUSH0 KECCAK256 SWAP1 JUMPDEST DUP2 SLOAD DUP2 MSTORE SWAP1 PUSH1 0x1 ADD SWAP1 PUSH1 0x20 ADD DUP1 DUP4 GT PUSH2 0x8D4 JUMPI DUP3 SWAP1 SUB PUSH1 0x1F AND DUP3 ADD SWAP2 JUMPDEST POP POP POP POP POP SWAP1 POP SWAP1 JUMP JUMPDEST PUSH2 0x903 PUSH2 0xD6E JUMP JUMPDEST PUSH2 0x90D DUP3 DUP3 PUSH2 0x1054 JUMP JUMPDEST POP POP JUMP JUMPDEST PUSH0 PUSH0 PUSH2 0x91B PUSH2 0xDF5 JUMP JUMPDEST SWAP1 POP PUSH2 0x928 DUP2 DUP6 DUP6 PUSH2 0xEA1 JUMP JUMPDEST PUSH1 0x1 SWAP2 POP POP SWAP3 SWAP2 POP POP JUMP JUMPDEST PUSH2 0x93B PUSH2 0xD6E JUMP JUMPDEST DUP3 PUSH20 0xFFFFFFFFFFFFFFFFFFFFFFFFFFFFFFFFFFFFFFFF AND PUSH4 0xA9059CBB DUP4 DUP4 PUSH1 0x40 MLOAD DUP4 PUSH4 0xFFFFFFFF AND PUSH1 0xE0 SHL DUP2 MSTORE PUSH1 0x4 ADD PUSH2 0x976 SWAP3 SWAP2 SWAP1 PUSH2 0x1C19 JUMP JUMPDEST PUSH1 0x20 PUSH1 0x40 MLOAD DUP1 DUP4 SUB DUP2 PUSH0 DUP8 GAS CALL ISZERO DUP1 ISZERO PUSH2 0x992 JUMPI RETURNDATASIZE PUSH0 PUSH0 RETURNDATACOPY RETURNDATASIZE PUSH0 REVERT JUMPDEST POP POP POP POP PUSH1 0x40 MLOAD RETURNDATASIZE PUSH1 0x1F NOT PUSH1 0x1F DUP3 ADD AND DUP3 ADD DUP1 PUSH1 0x40 MSTORE POP DUP2 ADD SWAP1 PUSH2 0x9B6 SWAP2 SWAP1 PUSH2 0x1C6A JUMP JUMPDEST POP POP POP POP JUMP JUMPDEST PUSH2 0x9C4 PUSH2 0xD6E JUMP JUMPDEST PUSH0 PUSH1 0x7 DUP1 SLOAD PUSH2 0x9D2 SWAP1 PUSH2 0x1AD8 JUMP JUMPDEST DUP1 PUSH1 0x1F ADD PUSH1 0x20 DUP1 SWAP2 DIV MUL PUSH1 0x20 ADD PUSH1 0x40 MLOAD SWAP1 DUP2 ADD PUSH1 0x40 MSTORE DUP1 SWAP3 SWAP2 SWAP1 DUP2 DUP2 MSTORE PUSH1 0x20 ADD DUP3 DUP1 SLOAD PUSH2 0x9FE SWAP1 PUSH2 0x1AD8 JUMP JUMPDEST DUP1 ISZERO PUSH2 0xA49 JUMPI DUP1 PUSH1 0x1F LT PUSH2 0xA20 JUMPI PUSH2 0x100 DUP1 DUP4 SLOAD DIV MUL DUP4 MSTORE SWAP2 PUSH1 0x20 ADD SWAP2 PUSH2 0xA49 JUMP JUMPDEST DUP3 ADD SWAP2 SWAP1 PUSH0 MSTORE PUSH1 0x20 PUSH0 KECCAK256 SWAP1 JUMPDEST DUP2 SLOAD DUP2 MSTORE SWAP1 PUSH1 0x1 ADD SWAP1 PUSH1 0x20 ADD DUP1 DUP4 GT PUSH2 0xA2C JUMPI DUP3 SWAP1 SUB PUSH1 0x1F AND DUP3 ADD SWAP2 JUMPDEST POP POP POP POP POP SWAP1 POP DUP2 PUSH1 0x7 SWAP1 DUP2 PUSH2 0xA5F SWAP2 SWAP1 PUSH2 0x1E35 JUMP JUMPDEST POP PUSH32 0xD7AD744CC76EBAD190995130EEC8BA506B3605612D23B5B9CEF8E27F14D138B4 DUP2 DUP4 PUSH1 0x40 MLOAD PUSH2 0xA91 SWAP3 SWAP2 SWAP1 PUSH2 0x1F04 JUMP JUMPDEST PUSH1 0x40 MLOAD DUP1 SWAP2 SUB SWAP1 LOG1 POP POP JUMP JUMPDEST PUSH2 0xAA5 PUSH2 0xD6E JUMP JUMPDEST PUSH32 0x4AC9052A820BF4F8C02D7588587CAE835573B5B99EA7AD4CA002F17F319F7186 PUSH1 0x8 SLOAD DUP3 PUSH1 0x40 MLOAD PUSH2 0xAD8 SWAP3 SWAP2 SWAP1 PUSH2 0x1A84 JUMP JUMPDEST PUSH1 0x40 MLOAD DUP1 SWAP2 SUB SWAP1 LOG1 DUP1 PUSH1 0x8 DUP2 SWAP1 SSTORE POP POP JUMP JUMPDEST PUSH2 0xAF2 PUSH2 0xD6E JUMP JUMPDEST PUSH0 PUSH1 0x6 DUP1 SLOAD PUSH2 0xB00 SWAP1 PUSH2 0x1AD8 JUMP JUMPDEST DUP1 PUSH1 0x1F ADD PUSH1 0x20 DUP1 SWAP2 DIV MUL PUSH1 0x20 ADD PUSH1 0x40 MLOAD SWAP1 DUP2 ADD PUSH1 0x40 MSTORE DUP1 SWAP3 SWAP2 SWAP1 DUP2 DUP2 MSTORE PUSH1 0x20 ADD DUP3 DUP1 SLOAD PUSH2 0xB2C SWAP1 PUSH2 0x1AD8 JUMP JUMPDEST DUP1 ISZERO PUSH2 0xB77 JUMPI DUP1 PUSH1 0x1F LT PUSH2 0xB4E JUMPI PUSH2 0x100 DUP1 DUP4 SLOAD DIV MUL DUP4 MSTORE SWAP2 PUSH1 0x20 ADD SWAP2 PUSH2 0xB77 JUMP JUMPDEST DUP3 ADD SWAP2 SWAP1 PUSH0 MSTORE PUSH1 0x20 PUSH0 KECCAK256 SWAP1 JUMPDEST DUP2 SLOAD DUP2 MSTORE SWAP1 PUSH1 0x1 ADD SWAP1 PUSH1 0x20 ADD DUP1 DUP4 GT PUSH2 0xB5A JUMPI DUP3 SWAP1 SUB PUSH1 0x1F AND DUP3 ADD SWAP2 JUMPDEST POP POP POP POP POP SWAP1 POP DUP2 PUSH1 0x6 SWAP1 DUP2 PUSH2 0xB8D SWAP2 SWAP1 PUSH2 0x1E35 JUMP JUMPDEST POP PUSH32 0x6C20B91D1723B78732EBA64FF11EBD7966A6E4AF568A00FA4F6B72C20F58B02A DUP2 DUP4 PUSH1 0x40 MLOAD PUSH2 0xBBF SWAP3 SWAP2 SWAP1 PUSH2 0x1F04 JUMP JUMPDEST PUSH1 0x40 MLOAD DUP1 SWAP2 SUB SWAP1 LOG1 POP POP JUMP JUMPDEST PUSH0 PUSH2 0xBD6 CALLER CALLVALUE PUSH2 0x4E6 JUMP JUMPDEST PUSH1 0x8 SLOAD CALLVALUE PUSH2 0xBE4 SWAP2 SWAP1 PUSH2 0x1A43 JUMP JUMPDEST SWAP1 POP SWAP1 JUMP JUMPDEST PUSH0 PUSH1 0x1 PUSH0 DUP5 PUSH20 0xFFFFFFFFFFFFFFFFFFFFFFFFFFFFFFFFFFFFFFFF AND PUSH20 0xFFFFFFFFFFFFFFFFFFFFFFFFFFFFFFFFFFFFFFFF AND DUP2 MSTORE PUSH1 0x20 ADD SWAP1 DUP2 MSTORE PUSH1 0x20 ADD PUSH0 KECCAK256 PUSH0 DUP4 PUSH20 0xFFFFFFFFFFFFFFFFFFFFFFFFFFFFFFFFFFFFFFFF AND PUSH20 0xFFFFFFFFFFFFFFFFFFFFFFFFFFFFFFFFFFFFFFFF AND DUP2 MSTORE PUSH1 0x20 ADD SWAP1 DUP2 MSTORE PUSH1 0x20 ADD PUSH0 KECCAK256 SLOAD SWAP1 POP SWAP3 SWAP2 POP POP JUMP JUMPDEST PUSH2 0xC73 PUSH2 0xD6E JUMP JUMPDEST PUSH0 PUSH20 0xFFFFFFFFFFFFFFFFFFFFFFFFFFFFFFFFFFFFFFFF AND DUP2 PUSH20 0xFFFFFFFFFFFFFFFFFFFFFFFFFFFFFFFFFFFFFFFF AND SUB PUSH2 0xCE3 JUMPI PUSH0 PUSH1 0x40 MLOAD PUSH32 0x1E4FBDF700000000000000000000000000000000000000000000000000000000 DUP2 MSTORE PUSH1 0x4 ADD PUSH2 0xCDA SWAP2 SWAP1 PUSH2 0x17B9 JUMP JUMPDEST PUSH1 0x40 MLOAD DUP1 SWAP2 SUB SWAP1 REVERT JUMPDEST PUSH2 0xCEC DUP2 PUSH2 0xF91 JUMP JUMPDEST POP JUMP JUMPDEST PUSH0 PUSH20 0xFFFFFFFFFFFFFFFFFFFFFFFFFFFFFFFFFFFFFFFF AND DUP3 PUSH20 0xFFFFFFFFFFFFFFFFFFFFFFFFFFFFFFFFFFFFFFFF AND SUB PUSH2 0xD5F JUMPI PUSH0 PUSH1 0x40 MLOAD PUSH32 0xEC442F0500000000000000000000000000000000000000000000000000000000 DUP2 MSTORE PUSH1 0x4 ADD PUSH2 0xD56 SWAP2 SWAP1 PUSH2 0x17B9 JUMP JUMPDEST PUSH1 0x40 MLOAD DUP1 SWAP2 SUB SWAP1 REVERT JUMPDEST PUSH2 0xD6A PUSH0 DUP4 DUP4 PUSH2 0x10D3 JUMP JUMPDEST POP POP JUMP JUMPDEST PUSH2 0xD76 PUSH2 0xDF5 JUMP JUMPDEST PUSH20 0xFFFFFFFFFFFFFFFFFFFFFFFFFFFFFFFFFFFFFFFF AND PUSH2 0xD94 PUSH2 0x843 JUMP JUMPDEST PUSH20 0xFFFFFFFFFFFFFFFFFFFFFFFFFFFFFFFFFFFFFFFF AND EQ PUSH2 0xDF3 JUMPI PUSH2 0xDB7 PUSH2 0xDF5 JUMP JUMPDEST PUSH1 0x40 MLOAD PUSH32 0x118CDAA700000000000000000000000000000000000000000000000000000000 DUP2 MSTORE PUSH1 0x4 ADD PUSH2 0xDEA SWAP2 SWAP1 PUSH2 0x17B9 JUMP JUMPDEST PUSH1 0x40 MLOAD DUP1 SWAP2 SUB SWAP1 REVERT JUMPDEST JUMP JUMPDEST PUSH0 CALLER SWAP1 POP SWAP1 JUMP JUMPDEST PUSH2 0xE09 DUP4 DUP4 DUP4 PUSH1 0x1 PUSH2 0x12EC JUMP JUMPDEST POP POP POP JUMP JUMPDEST PUSH0 PUSH2 0xE19 DUP5 DUP5 PUSH2 0xBE9 JUMP JUMPDEST SWAP1 POP PUSH32 0xFFFFFFFFFFFFFFFFFFFFFFFFFFFFFFFFFFFFFFFFFFFFFFFFFFFFFFFFFFFFFFFF DUP2 LT ISZERO PUSH2 0xE9B JUMPI DUP2 DUP2 LT ISZERO PUSH2 0xE8C JUMPI DUP3 DUP2 DUP4 PUSH1 0x40 MLOAD PUSH32 0xFB8F41B200000000000000000000000000000000000000000000000000000000 DUP2 MSTORE PUSH1 0x4 ADD PUSH2 0xE83 SWAP4 SWAP3 SWAP2 SWAP1 PUSH2 0x1F39 JUMP JUMPDEST PUSH1 0x40 MLOAD DUP1 SWAP2 SUB SWAP1 REVERT JUMPDEST PUSH2 0xE9A DUP5 DUP5 DUP5 DUP5 SUB PUSH0 PUSH2 0x12EC JUMP JUMPDEST JUMPDEST POP POP POP POP JUMP JUMPDEST PUSH0 PUSH20 0xFFFFFFFFFFFFFFFFFFFFFFFFFFFFFFFFFFFFFFFF AND DUP4 PUSH20 0xFFFFFFFFFFFFFFFFFFFFFFFFFFFFFFFFFFFFFFFF AND SUB PUSH2 0xF11 JUMPI PUSH0 PUSH1 0x40 MLOAD PUSH32 0x96C6FD1E00000000000000000000000000000000000000000000000000000000 DUP2 MSTORE PUSH1 0x4 ADD PUSH2 0xF08 SWAP2 SWAP1 PUSH2 0x17B9 JUMP JUMPDEST PUSH1 0x40 MLOAD DUP1 SWAP2 SUB SWAP1 REVERT JUMPDEST PUSH0 PUSH20 0xFFFFFFFFFFFFFFFFFFFFFFFFFFFFFFFFFFFFFFFF AND DUP3 PUSH20 0xFFFFFFFFFFFFFFFFFFFFFFFFFFFFFFFFFFFFFFFF AND SUB PUSH2 0xF81 JUMPI PUSH0 PUSH1 0x40 MLOAD PUSH32 0xEC442F0500000000000000000000000000000000000000000000000000000000 DUP2 MSTORE PUSH1 0x4 ADD PUSH2 0xF78 SWAP2 SWAP1 PUSH2 0x17B9 JUMP JUMPDEST PUSH1 0x40 MLOAD DUP1 SWAP2 SUB SWAP1 REVERT JUMPDEST PUSH2 0xF8C DUP4 DUP4 DUP4 PUSH2 0x10D3 JUMP JUMPDEST POP POP POP JUMP JUMPDEST PUSH0 PUSH1 0x5 PUSH0 SWAP1 SLOAD SWAP1 PUSH2 0x100 EXP SWAP1 DIV PUSH20 0xFFFFFFFFFFFFFFFFFFFFFFFFFFFFFFFFFFFFFFFF AND SWAP1 POP DUP2 PUSH1 0x5 PUSH0 PUSH2 0x100 EXP DUP2 SLOAD DUP2 PUSH20 0xFFFFFFFFFFFFFFFFFFFFFFFFFFFFFFFFFFFFFFFF MUL NOT AND SWAP1 DUP4 PUSH20 0xFFFFFFFFFFFFFFFFFFFFFFFFFFFFFFFFFFFFFFFF AND MUL OR SWAP1 SSTORE POP DUP2 PUSH20 0xFFFFFFFFFFFFFFFFFFFFFFFFFFFFFFFFFFFFFFFF AND DUP2 PUSH20 0xFFFFFFFFFFFFFFFFFFFFFFFFFFFFFFFFFFFFFFFF AND PUSH32 0x8BE0079C531659141344CD1FD0A4F28419497F9722A3DAAFE3B4186F6B6457E0 PUSH1 0x40 MLOAD PUSH1 0x40 MLOAD DUP1 SWAP2 SUB SWAP1 LOG3 POP POP JUMP JUMPDEST PUSH0 PUSH20 0xFFFFFFFFFFFFFFFFFFFFFFFFFFFFFFFFFFFFFFFF AND DUP3 PUSH20 0xFFFFFFFFFFFFFFFFFFFFFFFFFFFFFFFFFFFFFFFF AND SUB PUSH2 0x10C4 JUMPI PUSH0 PUSH1 0x40 MLOAD PUSH32 0x96C6FD1E00000000000000000000000000000000000000000000000000000000 DUP2 MSTORE PUSH1 0x4 ADD PUSH2 0x10BB SWAP2 SWAP1 PUSH2 0x17B9 JUMP JUMPDEST PUSH1 0x40 MLOAD DUP1 SWAP2 SUB SWAP1 REVERT JUMPDEST PUSH2 0x10CF DUP3 PUSH0 DUP4 PUSH2 0x10D3 JUMP JUMPDEST POP POP JUMP JUMPDEST PUSH0 PUSH20 0xFFFFFFFFFFFFFFFFFFFFFFFFFFFFFFFFFFFFFFFF AND DUP4 PUSH20 0xFFFFFFFFFFFFFFFFFFFFFFFFFFFFFFFFFFFFFFFF AND SUB PUSH2 0x1123 JUMPI DUP1 PUSH1 0x2 PUSH0 DUP3 DUP3 SLOAD PUSH2 0x1117 SWAP2 SWAP1 PUSH2 0x1F6E JUMP JUMPDEST SWAP3 POP POP DUP2 SWAP1 SSTORE POP PUSH2 0x11F1 JUMP JUMPDEST PUSH0 PUSH0 PUSH0 DUP6 PUSH20 0xFFFFFFFFFFFFFFFFFFFFFFFFFFFFFFFFFFFFFFFF AND PUSH20 0xFFFFFFFFFFFFFFFFFFFFFFFFFFFFFFFFFFFFFFFF AND DUP2 MSTORE PUSH1 0x20 ADD SWAP1 DUP2 MSTORE PUSH1 0x20 ADD PUSH0 KECCAK256 SLOAD SWAP1 POP DUP2 DUP2 LT ISZERO PUSH2 0x11AC JUMPI DUP4 DUP2 DUP4 PUSH1 0x40 MLOAD PUSH32 0xE450D38C00000000000000000000000000000000000000000000000000000000 DUP2 MSTORE PUSH1 0x4 ADD PUSH2 0x11A3 SWAP4 SWAP3 SWAP2 SWAP1 PUSH2 0x1F39 JUMP JUMPDEST PUSH1 0x40 MLOAD DUP1 SWAP2 SUB SWAP1 REVERT JUMPDEST DUP2 DUP2 SUB PUSH0 PUSH0 DUP7 PUSH20 0xFFFFFFFFFFFFFFFFFFFFFFFFFFFFFFFFFFFFFFFF AND PUSH20 0xFFFFFFFFFFFFFFFFFFFFFFFFFFFFFFFFFFFFFFFF AND DUP2 MSTORE PUSH1 0x20 ADD SWAP1 DUP2 MSTORE PUSH1 0x20 ADD PUSH0 KECCAK256 DUP2 SWAP1 SSTORE POP POP JUMPDEST PUSH0 PUSH20 0xFFFFFFFFFFFFFFFFFFFFFFFFFFFFFFFFFFFFFFFF AND DUP3 PUSH20 0xFFFFFFFFFFFFFFFFFFFFFFFFFFFFFFFFFFFFFFFF AND SUB PUSH2 0x1238 JUMPI DUP1 PUSH1 0x2 PUSH0 DUP3 DUP3 SLOAD SUB SWAP3 POP POP DUP2 SWAP1 SSTORE POP PUSH2 0x1282 JUMP JUMPDEST DUP1 PUSH0 PUSH0 DUP5 PUSH20 0xFFFFFFFFFFFFFFFFFFFFFFFFFFFFFFFFFFFFFFFF AND PUSH20 0xFFFFFFFFFFFFFFFFFFFFFFFFFFFFFFFFFFFFFFFF AND DUP2 MSTORE PUSH1 0x20 ADD SWAP1 DUP2 MSTORE PUSH1 0x20 ADD PUSH0 KECCAK256 PUSH0 DUP3 DUP3 SLOAD ADD SWAP3 POP POP DUP2 SWAP1 SSTORE POP JUMPDEST DUP2 PUSH20 0xFFFFFFFFFFFFFFFFFFFFFFFFFFFFFFFFFFFFFFFF AND DUP4 PUSH20 0xFFFFFFFFFFFFFFFFFFFFFFFFFFFFFFFFFFFFFFFF AND PUSH32 0xDDF252AD1BE2C89B69C2B068FC378DAA952BA7F163C4A11628F55A4DF523B3EF DUP4 PUSH1 0x40 MLOAD PUSH2 0x12DF SWAP2 SWAP1 PUSH2 0x16E2 JUMP JUMPDEST PUSH1 0x40 MLOAD DUP1 SWAP2 SUB SWAP1 LOG3 POP POP POP JUMP JUMPDEST PUSH0 PUSH20 0xFFFFFFFFFFFFFFFFFFFFFFFFFFFFFFFFFFFFFFFF AND DUP5 PUSH20 0xFFFFFFFFFFFFFFFFFFFFFFFFFFFFFFFFFFFFFFFF AND SUB PUSH2 0x135C JUMPI PUSH0 PUSH1 0x40 MLOAD PUSH32 0xE602DF0500000000000000000000000000000000000000000000000000000000 DUP2 MSTORE PUSH1 0x4 ADD PUSH2 0x1353 SWAP2 SWAP1 PUSH2 0x17B9 JUMP JUMPDEST PUSH1 0x40 MLOAD DUP1 SWAP2 SUB SWAP1 REVERT JUMPDEST PUSH0 PUSH20 0xFFFFFFFFFFFFFFFFFFFFFFFFFFFFFFFFFFFFFFFF AND DUP4 PUSH20 0xFFFFFFFFFFFFFFFFFFFFFFFFFFFFFFFFFFFFFFFF AND SUB PUSH2 0x13CC JUMPI PUSH0 PUSH1 0x40 MLOAD PUSH32 0x94280D6200000000000000000000000000000000000000000000000000000000 DUP2 MSTORE PUSH1 0x4 ADD PUSH2 0x13C3 SWAP2 SWAP1 PUSH2 0x17B9 JUMP JUMPDEST PUSH1 0x40 MLOAD DUP1 SWAP2 SUB SWAP1 REVERT JUMPDEST DUP2 PUSH1 0x1 PUSH0 DUP7 PUSH20 0xFFFFFFFFFFFFFFFFFFFFFFFFFFFFFFFFFFFFFFFF AND PUSH20 0xFFFFFFFFFFFFFFFFFFFFFFFFFFFFFFFFFFFFFFFF AND DUP2 MSTORE PUSH1 0x20 ADD SWAP1 DUP2 MSTORE PUSH1 0x20 ADD PUSH0 KECCAK256 PUSH0 DUP6 PUSH20 0xFFFFFFFFFFFFFFFFFFFFFFFFFFFFFFFFFFFFFFFF AND PUSH20 0xFFFFFFFFFFFFFFFFFFFFFFFFFFFFFFFFFFFFFFFF AND DUP2 MSTORE PUSH1 0x20 ADD SWAP1 DUP2 MSTORE PUSH1 0x20 ADD PUSH0 KECCAK256 DUP2 SWAP1 SSTORE POP DUP1 ISZERO PUSH2 0x14B5 JUMPI DUP3 PUSH20 0xFFFFFFFFFFFFFFFFFFFFFFFFFFFFFFFFFFFFFFFF AND DUP5 PUSH20 0xFFFFFFFFFFFFFFFFFFFFFFFFFFFFFFFFFFFFFFFF AND PUSH32 0x8C5BE1E5EBEC7D5BD14F71427D1E84F3DD0314C0F7B2291E5B200AC8C7C3B925 DUP5 PUSH1 0x40 MLOAD PUSH2 0x14AC SWAP2 SWAP1 PUSH2 0x16E2 JUMP JUMPDEST PUSH1 0x40 MLOAD DUP1 SWAP2 SUB SWAP1 LOG3 JUMPDEST POP POP POP POP JUMP JUMPDEST PUSH0 DUP2 MLOAD SWAP1 POP SWAP2 SWAP1 POP JUMP JUMPDEST PUSH0 DUP3 DUP3 MSTORE PUSH1 0x20 DUP3 ADD SWAP1 POP SWAP3 SWAP2 POP POP JUMP JUMPDEST DUP3 DUP2 DUP4 MCOPY PUSH0 DUP4 DUP4 ADD MSTORE POP POP POP JUMP JUMPDEST PUSH0 PUSH1 0x1F NOT PUSH1 0x1F DUP4 ADD AND SWAP1 POP SWAP2 SWAP1 POP JUMP JUMPDEST PUSH0 PUSH2 0x14FD DUP3 PUSH2 0x14BB JUMP JUMPDEST PUSH2 0x1507 DUP2 DUP6 PUSH2 0x14C5 JUMP JUMPDEST SWAP4 POP PUSH2 0x1517 DUP2 DUP6 PUSH1 0x20 DUP7 ADD PUSH2 0x14D5 JUMP JUMPDEST PUSH2 0x1520 DUP2 PUSH2 0x14E3 JUMP JUMPDEST DUP5 ADD SWAP2 POP POP SWAP3 SWAP2 POP POP JUMP JUMPDEST PUSH0 PUSH1 0x20 DUP3 ADD SWAP1 POP DUP2 DUP2 SUB PUSH0 DUP4 ADD MSTORE PUSH2 0x1543 DUP2 DUP5 PUSH2 0x14F3 JUMP JUMPDEST SWAP1 POP SWAP3 SWAP2 POP POP JUMP JUMPDEST PUSH0 PUSH1 0x40 MLOAD SWAP1 POP SWAP1 JUMP JUMPDEST PUSH0 PUSH0 REVERT JUMPDEST PUSH0 PUSH0 REVERT JUMPDEST PUSH0 PUSH20 0xFFFFFFFFFFFFFFFFFFFFFFFFFFFFFFFFFFFFFFFF DUP3 AND SWAP1 POP SWAP2 SWAP1 POP JUMP JUMPDEST PUSH0 PUSH2 0x1585 DUP3 PUSH2 0x155C JUMP JUMPDEST SWAP1 POP SWAP2 SWAP1 POP JUMP JUMPDEST PUSH2 0x1595 DUP2 PUSH2 0x157B JUMP JUMPDEST DUP2 EQ PUSH2 0x159F JUMPI PUSH0 PUSH0 REVERT JUMPDEST POP JUMP JUMPDEST PUSH0 DUP2 CALLDATALOAD SWAP1 POP PUSH2 0x15B0 DUP2 PUSH2 0x158C JUMP JUMPDEST SWAP3 SWAP2 POP POP JUMP JUMPDEST PUSH0 DUP2 SWAP1 POP SWAP2 SWAP1 POP JUMP JUMPDEST PUSH2 0x15C8 DUP2 PUSH2 0x15B6 JUMP JUMPDEST DUP2 EQ PUSH2 0x15D2 JUMPI PUSH0 PUSH0 REVERT JUMPDEST POP JUMP JUMPDEST PUSH0 DUP2 CALLDATALOAD SWAP1 POP PUSH2 0x15E3 DUP2 PUSH2 0x15BF JUMP JUMPDEST SWAP3 SWAP2 POP POP JUMP JUMPDEST PUSH0 PUSH0 PUSH1 0x40 DUP4 DUP6 SUB SLT ISZERO PUSH2 0x15FF JUMPI PUSH2 0x15FE PUSH2 0x1554 JUMP JUMPDEST JUMPDEST PUSH0 PUSH2 0x160C DUP6 DUP3 DUP7 ADD PUSH2 0x15A2 JUMP JUMPDEST SWAP3 POP POP PUSH1 0x20 PUSH2 0x161D DUP6 DUP3 DUP7 ADD PUSH2 0x15D5 JUMP JUMPDEST SWAP2 POP POP SWAP3 POP SWAP3 SWAP1 POP JUMP JUMPDEST PUSH0 PUSH2 0x1631 DUP3 PUSH2 0x155C JUMP JUMPDEST SWAP1 POP SWAP2 SWAP1 POP JUMP JUMPDEST PUSH2 0x1641 DUP2 PUSH2 0x1627 JUMP JUMPDEST DUP2 EQ PUSH2 0x164B JUMPI PUSH0 PUSH0 REVERT JUMPDEST POP JUMP JUMPDEST PUSH0 DUP2 CALLDATALOAD SWAP1 POP PUSH2 0x165C DUP2 PUSH2 0x1638 JUMP JUMPDEST SWAP3 SWAP2 POP POP JUMP JUMPDEST PUSH0 PUSH0 PUSH1 0x40 DUP4 DUP6 SUB SLT ISZERO PUSH2 0x1678 JUMPI PUSH2 0x1677 PUSH2 0x1554 JUMP JUMPDEST JUMPDEST PUSH0 PUSH2 0x1685 DUP6 DUP3 DUP7 ADD PUSH2 0x164E JUMP JUMPDEST SWAP3 POP POP PUSH1 0x20 PUSH2 0x1696 DUP6 DUP3 DUP7 ADD PUSH2 0x15D5 JUMP JUMPDEST SWAP2 POP POP SWAP3 POP SWAP3 SWAP1 POP JUMP JUMPDEST PUSH0 DUP2 ISZERO ISZERO SWAP1 POP SWAP2 SWAP1 POP JUMP JUMPDEST PUSH2 0x16B4 DUP2 PUSH2 0x16A0 JUMP JUMPDEST DUP3 MSTORE POP POP JUMP JUMPDEST PUSH0 PUSH1 0x20 DUP3 ADD SWAP1 POP PUSH2 0x16CD PUSH0 DUP4 ADD DUP5 PUSH2 0x16AB JUMP JUMPDEST SWAP3 SWAP2 POP POP JUMP JUMPDEST PUSH2 0x16DC DUP2 PUSH2 0x15B6 JUMP JUMPDEST DUP3 MSTORE POP POP JUMP JUMPDEST PUSH0 PUSH1 0x20 DUP3 ADD SWAP1 POP PUSH2 0x16F5 PUSH0 DUP4 ADD DUP5 PUSH2 0x16D3 JUMP JUMPDEST SWAP3 SWAP2 POP POP JUMP JUMPDEST PUSH0 PUSH0 PUSH0 PUSH1 0x60 DUP5 DUP7 SUB SLT ISZERO PUSH2 0x1712 JUMPI PUSH2 0x1711 PUSH2 0x1554 JUMP JUMPDEST JUMPDEST PUSH0 PUSH2 0x171F DUP7 DUP3 DUP8 ADD PUSH2 0x164E JUMP JUMPDEST SWAP4 POP POP PUSH1 0x20 PUSH2 0x1730 DUP7 DUP3 DUP8 ADD PUSH2 0x164E JUMP JUMPDEST SWAP3 POP POP PUSH1 0x40 PUSH2 0x1741 DUP7 DUP3 DUP8 ADD PUSH2 0x15D5 JUMP JUMPDEST SWAP2 POP POP SWAP3 POP SWAP3 POP SWAP3 JUMP JUMPDEST PUSH0 PUSH1 0xFF DUP3 AND SWAP1 POP SWAP2 SWAP1 POP JUMP JUMPDEST PUSH2 0x1760 DUP2 PUSH2 0x174B JUMP JUMPDEST DUP3 MSTORE POP POP JUMP JUMPDEST PUSH0 PUSH1 0x20 DUP3 ADD SWAP1 POP PUSH2 0x1779 PUSH0 DUP4 ADD DUP5 PUSH2 0x1757 JUMP JUMPDEST SWAP3 SWAP2 POP POP JUMP JUMPDEST PUSH0 PUSH1 0x20 DUP3 DUP5 SUB SLT ISZERO PUSH2 0x1794 JUMPI PUSH2 0x1793 PUSH2 0x1554 JUMP JUMPDEST JUMPDEST PUSH0 PUSH2 0x17A1 DUP5 DUP3 DUP6 ADD PUSH2 0x164E JUMP JUMPDEST SWAP2 POP POP SWAP3 SWAP2 POP POP JUMP JUMPDEST PUSH2 0x17B3 DUP2 PUSH2 0x1627 JUMP JUMPDEST DUP3 MSTORE POP POP JUMP JUMPDEST PUSH0 PUSH1 0x20 DUP3 ADD SWAP1 POP PUSH2 0x17CC PUSH0 DUP4 ADD DUP5 PUSH2 0x17AA JUMP JUMPDEST SWAP3 SWAP2 POP POP JUMP JUMPDEST PUSH0 PUSH0 REVERT JUMPDEST PUSH0 PUSH0 REVERT JUMPDEST PUSH32 0x4E487B7100000000000000000000000000000000000000000000000000000000 PUSH0 MSTORE PUSH1 0x41 PUSH1 0x4 MSTORE PUSH1 0x24 PUSH0 REVERT JUMPDEST PUSH2 0x1810 DUP3 PUSH2 0x14E3 JUMP JUMPDEST DUP2 ADD DUP2 DUP2 LT PUSH8 0xFFFFFFFFFFFFFFFF DUP3 GT OR ISZERO PUSH2 0x182F JUMPI PUSH2 0x182E PUSH2 0x17DA JUMP JUMPDEST JUMPDEST DUP1 PUSH1 0x40 MSTORE POP POP POP JUMP JUMPDEST PUSH0 PUSH2 0x1841 PUSH2 0x154B JUMP JUMPDEST SWAP1 POP PUSH2 0x184D DUP3 DUP3 PUSH2 0x1807 JUMP JUMPDEST SWAP2 SWAP1 POP JUMP JUMPDEST PUSH0 PUSH8 0xFFFFFFFFFFFFFFFF DUP3 GT ISZERO PUSH2 0x186C JUMPI PUSH2 0x186B PUSH2 0x17DA JUMP JUMPDEST JUMPDEST PUSH2 0x1875 DUP3 PUSH2 0x14E3 JUMP JUMPDEST SWAP1 POP PUSH1 0x20 DUP2 ADD SWAP1 POP SWAP2 SWAP1 POP JUMP JUMPDEST DUP3 DUP2 DUP4 CALLDATACOPY PUSH0 DUP4 DUP4 ADD MSTORE POP POP POP JUMP JUMPDEST PUSH0 PUSH2 0x18A2 PUSH2 0x189D DUP5 PUSH2 0x1852 JUMP JUMPDEST PUSH2 0x1838 JUMP JUMPDEST SWAP1 POP DUP3 DUP2 MSTORE PUSH1 0x20 DUP2 ADD DUP5 DUP5 DUP5 ADD GT ISZERO PUSH2 0x18BE JUMPI PUSH2 0x18BD PUSH2 0x17D6 JUMP JUMPDEST JUMPDEST PUSH2 0x18C9 DUP5 DUP3 DUP6 PUSH2 0x1882 JUMP JUMPDEST POP SWAP4 SWAP3 POP POP POP JUMP JUMPDEST PUSH0 DUP3 PUSH1 0x1F DUP4 ADD SLT PUSH2 0x18E5 JUMPI PUSH2 0x18E4 PUSH2 0x17D2 JUMP JUMPDEST JUMPDEST DUP2 CALLDATALOAD PUSH2 0x18F5 DUP5 DUP3 PUSH1 0x20 DUP7 ADD PUSH2 0x1890 JUMP JUMPDEST SWAP2 POP POP SWAP3 SWAP2 POP POP JUMP JUMPDEST PUSH0 PUSH1 0x20 DUP3 DUP5 SUB SLT ISZERO PUSH2 0x1913 JUMPI PUSH2 0x1912 PUSH2 0x1554 JUMP JUMPDEST JUMPDEST PUSH0 DUP3 ADD CALLDATALOAD PUSH8 0xFFFFFFFFFFFFFFFF DUP2 GT ISZERO PUSH2 0x1930 JUMPI PUSH2 0x192F PUSH2 0x1558 JUMP JUMPDEST JUMPDEST PUSH2 0x193C DUP5 DUP3 DUP6 ADD PUSH2 0x18D1 JUMP JUMPDEST SWAP2 POP POP SWAP3 SWAP2 POP POP JUMP JUMPDEST PUSH0 PUSH1 0x20 DUP3 DUP5 SUB SLT ISZERO PUSH2 0x195A JUMPI PUSH2 0x1959 PUSH2 0x1554 JUMP JUMPDEST JUMPDEST PUSH0 PUSH2 0x1967 DUP5 DUP3 DUP6 ADD PUSH2 0x15D5 JUMP JUMPDEST SWAP2 POP POP SWAP3 SWAP2 POP POP JUMP JUMPDEST PUSH0 PUSH0 PUSH1 0x40 DUP4 DUP6 SUB SLT ISZERO PUSH2 0x1986 JUMPI PUSH2 0x1985 PUSH2 0x1554 JUMP JUMPDEST JUMPDEST PUSH0 PUSH2 0x1993 DUP6 DUP3 DUP7 ADD PUSH2 0x164E JUMP JUMPDEST SWAP3 POP POP PUSH1 0x20 PUSH2 0x19A4 DUP6 DUP3 DUP7 ADD PUSH2 0x164E JUMP JUMPDEST SWAP2 POP POP SWAP3 POP SWAP3 SWAP1 POP JUMP JUMPDEST PUSH32 0x4E6F206E61746976652076616C75652073656E74000000000000000000000000 PUSH0 DUP3 ADD MSTORE POP JUMP JUMPDEST PUSH0 PUSH2 0x19E2 PUSH1 0x14 DUP4 PUSH2 0x14C5 JUMP JUMPDEST SWAP2 POP PUSH2 0x19ED DUP3 PUSH2 0x19AE JUMP JUMPDEST PUSH1 0x20 DUP3 ADD SWAP1 POP SWAP2 SWAP1 POP JUMP JUMPDEST PUSH0 PUSH1 0x20 DUP3 ADD SWAP1 POP DUP2 DUP2 SUB PUSH0 DUP4 ADD MSTORE PUSH2 0x1A0F DUP2 PUSH2 0x19D6 JUMP JUMPDEST SWAP1 POP SWAP2 SWAP1 POP JUMP JUMPDEST PUSH32 0x4E487B7100000000000000000000000000000000000000000000000000000000 PUSH0 MSTORE PUSH1 0x11 PUSH1 0x4 MSTORE PUSH1 0x24 PUSH0 REVERT JUMPDEST PUSH0 PUSH2 0x1A4D DUP3 PUSH2 0x15B6 JUMP JUMPDEST SWAP2 POP PUSH2 0x1A58 DUP4 PUSH2 0x15B6 JUMP JUMPDEST SWAP3 POP DUP3 DUP3 MUL PUSH2 0x1A66 DUP2 PUSH2 0x15B6 JUMP JUMPDEST SWAP2 POP DUP3 DUP3 DIV DUP5 EQ DUP4 ISZERO OR PUSH2 0x1A7D JUMPI PUSH2 0x1A7C PUSH2 0x1A16 JUMP JUMPDEST JUMPDEST POP SWAP3 SWAP2 POP POP JUMP JUMPDEST PUSH0 PUSH1 0x40 DUP3 ADD SWAP1 POP PUSH2 0x1A97 PUSH0 DUP4 ADD DUP6 PUSH2 0x16D3 JUMP JUMPDEST PUSH2 0x1AA4 PUSH1 0x20 DUP4 ADD DUP5 PUSH2 0x16D3 JUMP JUMPDEST SWAP4 SWAP3 POP POP POP JUMP JUMPDEST PUSH32 0x4E487B7100000000000000000000000000000000000000000000000000000000 PUSH0 MSTORE PUSH1 0x22 PUSH1 0x4 MSTORE PUSH1 0x24 PUSH0 REVERT JUMPDEST PUSH0 PUSH1 0x2 DUP3 DIV SWAP1 POP PUSH1 0x1 DUP3 AND DUP1 PUSH2 0x1AEF JUMPI PUSH1 0x7F DUP3 AND SWAP2 POP JUMPDEST PUSH1 0x20 DUP3 LT DUP2 SUB PUSH2 0x1B02 JUMPI PUSH2 0x1B01 PUSH2 0x1AAB JUMP JUMPDEST JUMPDEST POP SWAP2 SWAP1 POP JUMP JUMPDEST PUSH32 0x496E73756666696369656E742062616C616E6365000000000000000000000000 PUSH0 DUP3 ADD MSTORE POP JUMP JUMPDEST PUSH0 PUSH2 0x1B3C PUSH1 0x14 DUP4 PUSH2 0x14C5 JUMP JUMPDEST SWAP2 POP PUSH2 0x1B47 DUP3 PUSH2 0x1B08 JUMP JUMPDEST PUSH1 0x20 DUP3 ADD SWAP1 POP SWAP2 SWAP1 POP JUMP JUMPDEST PUSH0 PUSH1 0x20 DUP3 ADD SWAP1 POP DUP2 DUP2 SUB PUSH0 DUP4 ADD MSTORE PUSH2 0x1B69 DUP2 PUSH2 0x1B30 JUMP JUMPDEST SWAP1 POP SWAP2 SWAP1 POP JUMP JUMPDEST PUSH0 DUP2 SWAP1 POP SWAP3 SWAP2 POP POP JUMP JUMPDEST POP JUMP JUMPDEST PUSH0 PUSH2 0x1B88 PUSH0 DUP4 PUSH2 0x1B70 JUMP JUMPDEST SWAP2 POP PUSH2 0x1B93 DUP3 PUSH2 0x1B7A JUMP JUMPDEST PUSH0 DUP3 ADD SWAP1 POP SWAP2 SWAP1 POP JUMP JUMPDEST PUSH0 PUSH2 0x1BA7 DUP3 PUSH2 0x1B7D JUMP JUMPDEST SWAP2 POP DUP2 SWAP1 POP SWAP2 SWAP1 POP JUMP JUMPDEST PUSH32 0x5472616E73666572206661696C65640000000000000000000000000000000000 PUSH0 DUP3 ADD MSTORE POP JUMP JUMPDEST PUSH0 PUSH2 0x1BE5 PUSH1 0xF DUP4 PUSH2 0x14C5 JUMP JUMPDEST SWAP2 POP PUSH2 0x1BF0 DUP3 PUSH2 0x1BB1 JUMP JUMPDEST PUSH1 0x20 DUP3 ADD SWAP1 POP SWAP2 SWAP1 POP JUMP JUMPDEST PUSH0 PUSH1 0x20 DUP3 ADD SWAP1 POP DUP2 DUP2 SUB PUSH0 DUP4 ADD MSTORE PUSH2 0x1C12 DUP2 PUSH2 0x1BD9 JUMP JUMPDEST SWAP1 POP SWAP2 SWAP1 POP JUMP JUMPDEST PUSH0 PUSH1 0x40 DUP3 ADD SWAP1 POP PUSH2 0x1C2C PUSH0 DUP4 ADD DUP6 PUSH2 0x17AA JUMP JUMPDEST PUSH2 0x1C39 PUSH1 0x20 DUP4 ADD DUP5 PUSH2 0x16D3 JUMP JUMPDEST SWAP4 SWAP3 POP POP POP JUMP JUMPDEST PUSH2 0x1C49 DUP2 PUSH2 0x16A0 JUMP JUMPDEST DUP2 EQ PUSH2 0x1C53 JUMPI PUSH0 PUSH0 REVERT JUMPDEST POP JUMP JUMPDEST PUSH0 DUP2 MLOAD SWAP1 POP PUSH2 0x1C64 DUP2 PUSH2 0x1C40 JUMP JUMPDEST SWAP3 SWAP2 POP POP JUMP JUMPDEST PUSH0 PUSH1 0x20 DUP3 DUP5 SUB SLT ISZERO PUSH2 0x1C7F JUMPI PUSH2 0x1C7E PUSH2 0x1554 JUMP JUMPDEST JUMPDEST PUSH0 PUSH2 0x1C8C DUP5 DUP3 DUP6 ADD PUSH2 0x1C56 JUMP JUMPDEST SWAP2 POP POP SWAP3 SWAP2 POP POP JUMP JUMPDEST PUSH0 DUP2 SWAP1 POP DUP2 PUSH0 MSTORE PUSH1 0x20 PUSH0 KECCAK256 SWAP1 POP SWAP2 SWAP1 POP JUMP JUMPDEST PUSH0 PUSH1 0x20 PUSH1 0x1F DUP4 ADD DIV SWAP1 POP SWAP2 SWAP1 POP JUMP JUMPDEST PUSH0 DUP3 DUP3 SHL SWAP1 POP SWAP3 SWAP2 POP POP JUMP JUMPDEST PUSH0 PUSH1 0x8 DUP4 MUL PUSH2 0x1CF1 PUSH32 0xFFFFFFFFFFFFFFFFFFFFFFFFFFFFFFFFFFFFFFFFFFFFFFFFFFFFFFFFFFFFFFFF DUP3 PUSH2 0x1CB6 JUMP JUMPDEST PUSH2 0x1CFB DUP7 DUP4 PUSH2 0x1CB6 JUMP JUMPDEST SWAP6 POP DUP1 NOT DUP5 AND SWAP4 POP DUP1 DUP7 AND DUP5 OR SWAP3 POP POP POP SWAP4 SWAP3 POP POP POP JUMP JUMPDEST PUSH0 DUP2 SWAP1 POP SWAP2 SWAP1 POP JUMP JUMPDEST PUSH0 PUSH2 0x1D36 PUSH2 0x1D31 PUSH2 0x1D2C DUP5 PUSH2 0x15B6 JUMP JUMPDEST PUSH2 0x1D13 JUMP JUMPDEST PUSH2 0x15B6 JUMP JUMPDEST SWAP1 POP SWAP2 SWAP1 POP JUMP JUMPDEST PUSH0 DUP2 SWAP1 POP SWAP2 SWAP1 POP JUMP JUMPDEST PUSH2 0x1D4F DUP4 PUSH2 0x1D1C JUMP JUMPDEST PUSH2 0x1D63 PUSH2 0x1D5B DUP3 PUSH2 0x1D3D JUMP JUMPDEST DUP5 DUP5 SLOAD PUSH2 0x1CC2 JUMP JUMPDEST DUP3 SSTORE POP POP POP POP JUMP JUMPDEST PUSH0 PUSH0 SWAP1 POP SWAP1 JUMP JUMPDEST PUSH2 0x1D7A PUSH2 0x1D6B JUMP JUMPDEST PUSH2 0x1D85 DUP2 DUP5 DUP5 PUSH2 0x1D46 JUMP JUMPDEST POP POP POP JUMP JUMPDEST JUMPDEST DUP2 DUP2 LT ISZERO PUSH2 0x1DA8 JUMPI PUSH2 0x1D9D PUSH0 DUP3 PUSH2 0x1D72 JUMP JUMPDEST PUSH1 0x1 DUP2 ADD SWAP1 POP PUSH2 0x1D8B JUMP JUMPDEST POP POP JUMP JUMPDEST PUSH1 0x1F DUP3 GT ISZERO PUSH2 0x1DED JUMPI PUSH2 0x1DBE DUP2 PUSH2 0x1C95 JUMP JUMPDEST PUSH2 0x1DC7 DUP5 PUSH2 0x1CA7 JUMP JUMPDEST DUP2 ADD PUSH1 0x20 DUP6 LT ISZERO PUSH2 0x1DD6 JUMPI DUP2 SWAP1 POP JUMPDEST PUSH2 0x1DEA PUSH2 0x1DE2 DUP6 PUSH2 0x1CA7 JUMP JUMPDEST DUP4 ADD DUP3 PUSH2 0x1D8A JUMP JUMPDEST POP POP JUMPDEST POP POP POP JUMP JUMPDEST PUSH0 DUP3 DUP3 SHR SWAP1 POP SWAP3 SWAP2 POP POP JUMP JUMPDEST PUSH0 PUSH2 0x1E0D PUSH0 NOT DUP5 PUSH1 0x8 MUL PUSH2 0x1DF2 JUMP JUMPDEST NOT DUP1 DUP4 AND SWAP2 POP POP SWAP3 SWAP2 POP POP JUMP JUMPDEST PUSH0 PUSH2 0x1E25 DUP4 DUP4 PUSH2 0x1DFE JUMP JUMPDEST SWAP2 POP DUP3 PUSH1 0x2 MUL DUP3 OR SWAP1 POP SWAP3 SWAP2 POP POP JUMP JUMPDEST PUSH2 0x1E3E DUP3 PUSH2 0x14BB JUMP JUMPDEST PUSH8 0xFFFFFFFFFFFFFFFF DUP2 GT ISZERO PUSH2 0x1E57 JUMPI PUSH2 0x1E56 PUSH2 0x17DA JUMP JUMPDEST JUMPDEST PUSH2 0x1E61 DUP3 SLOAD PUSH2 0x1AD8 JUMP JUMPDEST PUSH2 0x1E6C DUP3 DUP3 DUP6 PUSH2 0x1DAC JUMP JUMPDEST PUSH0 PUSH1 0x20 SWAP1 POP PUSH1 0x1F DUP4 GT PUSH1 0x1 DUP2 EQ PUSH2 0x1E9D JUMPI PUSH0 DUP5 ISZERO PUSH2 0x1E8B JUMPI DUP3 DUP8 ADD MLOAD SWAP1 POP JUMPDEST PUSH2 0x1E95 DUP6 DUP3 PUSH2 0x1E1A JUMP JUMPDEST DUP7 SSTORE POP PUSH2 0x1EFC JUMP JUMPDEST PUSH1 0x1F NOT DUP5 AND PUSH2 0x1EAB DUP7 PUSH2 0x1C95 JUMP JUMPDEST PUSH0 JUMPDEST DUP3 DUP2 LT ISZERO PUSH2 0x1ED2 JUMPI DUP5 DUP10 ADD MLOAD DUP3 SSTORE PUSH1 0x1 DUP3 ADD SWAP2 POP PUSH1 0x20 DUP6 ADD SWAP5 POP PUSH1 0x20 DUP2 ADD SWAP1 POP PUSH2 0x1EAD JUMP JUMPDEST DUP7 DUP4 LT ISZERO PUSH2 0x1EEF JUMPI DUP5 DUP10 ADD MLOAD PUSH2 0x1EEB PUSH1 0x1F DUP10 AND DUP3 PUSH2 0x1DFE JUMP JUMPDEST DUP4 SSTORE POP JUMPDEST PUSH1 0x1 PUSH1 0x2 DUP9 MUL ADD DUP9 SSTORE POP POP POP JUMPDEST POP POP POP POP POP POP JUMP JUMPDEST PUSH0 PUSH1 0x40 DUP3 ADD SWAP1 POP DUP2 DUP2 SUB PUSH0 DUP4 ADD MSTORE PUSH2 0x1F1C DUP2 DUP6 PUSH2 0x14F3 JUMP JUMPDEST SWAP1 POP DUP2 DUP2 SUB PUSH1 0x20 DUP4 ADD MSTORE PUSH2 0x1F30 DUP2 DUP5 PUSH2 0x14F3 JUMP JUMPDEST SWAP1 POP SWAP4 SWAP3 POP POP POP JUMP JUMPDEST PUSH0 PUSH1 0x60 DUP3 ADD SWAP1 POP PUSH2 0x1F4C PUSH0 DUP4 ADD DUP7 PUSH2 0x17AA JUMP JUMPDEST PUSH2 0x1F59 PUSH1 0x20 DUP4 ADD DUP6 PUSH2 0x16D3 JUMP JUMPDEST PUSH2 0x1F66 PUSH1 0x40 DUP4 ADD DUP5 PUSH2 0x16D3 JUMP JUMPDEST SWAP5 SWAP4 POP POP POP POP JUMP JUMPDEST PUSH0 PUSH2 0x1F78 DUP3 PUSH2 0x15B6 JUMP JUMPDEST SWAP2 POP PUSH2 0x1F83 DUP4 PUSH2 0x15B6 JUMP JUMPDEST SWAP3 POP DUP3 DUP3 ADD SWAP1 POP DUP1 DUP3 GT ISZERO PUSH2 0x1F9B JUMPI PUSH2 0x1F9A PUSH2 0x1A16 JUMP JUMPDEST JUMPDEST SWAP3 SWAP2 POP POP JUMP INVALID LOG2 PUSH5 0x6970667358 0x22 SLT KECCAK256 DUP13 RETURNCONTRACT 0xDB INVALID 0x2A SWAP10 0xCF ADDRESS EXTCODESIZE NOT JUMP CALLF 0x99C0 SAR PUSH32 0x44D63684F2F5618C6D7C957938E4250664736F6C634300081E00330000000000 "
				},
				"gasEstimates": {
					"creation": {
						"codeDepositCost": "1630200",
						"executionCost": "infinite",
						"totalCost": "infinite"
					},
					"external": {
						"": "infinite",
						"allowance(address,address)": "infinite",
						"approve(address,uint256)": "infinite",
						"balanceOf(address)": "2895",
						"burn(address,uint256)": "infinite",
						"decimals()": "361",
						"deposit()": "infinite",
						"depositRate()": "2536",
						"mint(address,uint256)": "infinite",
						"name()": "infinite",
						"owner()": "2538",
						"renounceOwnership()": "infinite",
						"rescueERC20(address,address,uint256)": "infinite",
						"setDepositRate(uint256)": "infinite",
						"setName(string)": "infinite",
						"setSymbol(string)": "infinite",
						"symbol()": "infinite",
						"totalSupply()": "2522",
						"transfer(address,uint256)": "infinite",
						"transferFrom(address,address,uint256)": "infinite",
						"transferOwnership(address)": "infinite",
						"withdrawNative(address,uint256)": "infinite"
					},
					"internal": {
						"_handleDeposit(address,uint256)": "infinite"
					}
				},
				"methodIdentifiers": {
					"allowance(address,address)": "dd62ed3e",
					"approve(address,uint256)": "095ea7b3",
					"balanceOf(address)": "70a08231",
					"burn(address,uint256)": "9dc29fac",
					"decimals()": "313ce567",
					"deposit()": "d0e30db0",
					"depositRate()": "7e74a1ed",
					"mint(address,uint256)": "40c10f19",
					"name()": "06fdde03",
					"owner()": "8da5cb5b",
					"renounceOwnership()": "715018a6",
					"rescueERC20(address,address,uint256)": "b2118a8d",
					"setDepositRate(uint256)": "bf35588b",
					"setName(string)": "c47f0027",
					"setSymbol(string)": "b84c8246",
					"symbol()": "95d89b41",
					"totalSupply()": "18160ddd",
					"transfer(address,uint256)": "a9059cbb",
					"transferFrom(address,address,uint256)": "23b872dd",
					"transferOwnership(address)": "f2fde38b",
					"withdrawNative(address,uint256)": "07b18bde"
				}
			},
			"storageLayout": {
				"storage": [
					{
						"astId": 636,
						"contract": "Somniatoken_fixed.sol:SomniaToken",
						"label": "_balances",
						"offset": 0,
						"slot": "0",
						"type": "t_mapping(t_address,t_uint256)"
					},
					{
						"astId": 642,
						"contract": "Somniatoken_fixed.sol:SomniaToken",
						"label": "_allowances",
						"offset": 0,
						"slot": "1",
						"type": "t_mapping(t_address,t_mapping(t_address,t_uint256))"
					},
					{
						"astId": 644,
						"contract": "Somniatoken_fixed.sol:SomniaToken",
						"label": "_totalSupply",
						"offset": 0,
						"slot": "2",
						"type": "t_uint256"
					},
					{
						"astId": 646,
						"contract": "Somniatoken_fixed.sol:SomniaToken",
						"label": "_name",
						"offset": 0,
						"slot": "3",
						"type": "t_string_storage"
					},
					{
						"astId": 648,
						"contract": "Somniatoken_fixed.sol:SomniaToken",
						"label": "_symbol",
						"offset": 0,
						"slot": "4",
						"type": "t_string_storage"
					},
					{
						"astId": 337,
						"contract": "Somniatoken_fixed.sol:SomniaToken",
						"label": "_owner",
						"offset": 0,
						"slot": "5",
						"type": "t_address"
					},
					{
						"astId": 9,
						"contract": "Somniatoken_fixed.sol:SomniaToken",
						"label": "_customName",
						"offset": 0,
						"slot": "6",
						"type": "t_string_storage"
					},
					{
						"astId": 11,
						"contract": "Somniatoken_fixed.sol:SomniaToken",
						"label": "_customSymbol",
						"offset": 0,
						"slot": "7",
						"type": "t_string_storage"
					},
					{
						"astId": 13,
						"contract": "Somniatoken_fixed.sol:SomniaToken",
						"label": "depositRate",
						"offset": 0,
						"slot": "8",
						"type": "t_uint256"
					}
				],
				"types": {
					"t_address": {
						"encoding": "inplace",
						"label": "address",
						"numberOfBytes": "20"
					},
					"t_mapping(t_address,t_mapping(t_address,t_uint256))": {
						"encoding": "mapping",
						"key": "t_address",
						"label": "mapping(address => mapping(address => uint256))",
						"numberOfBytes": "32",
						"value": "t_mapping(t_address,t_uint256)"
					},
					"t_mapping(t_address,t_uint256)": {
						"encoding": "mapping",
						"key": "t_address",
						"label": "mapping(address => uint256)",
						"numberOfBytes": "32",
						"value": "t_uint256"
					},
					"t_string_storage": {
						"encoding": "bytes",
						"label": "string",
						"numberOfBytes": "32"
					},
					"t_uint256": {
						"encoding": "inplace",
						"label": "uint256",
						"numberOfBytes": "32"
					}
				}
			},
			"userdoc": {
				"kind": "user",
				"methods": {},
				"version": 1
			}
		}
	}
}