{
	"data": {
		"bytecode": {
			"linkReferences": {},
			"object": "608060405234801561000f575f5ffd5b50604051612a6b380380612a6b83398181016040528101906100319190610600565b338484816003908161004391906108a3565b50806004908161005391906108a3565b5050505f73ffffffffffffffffffffffffffffffffffffffff168173ffffffffffffffffffffffffffffffffffffffff16036100c6575f6040517f1e4fbdf70000000000000000000000000000000000000000000000000000000081526004016100bd91906109b1565b60405180910390fd5b6100d58161011f60201b60201c565b5083600690816100e591906108a3565b5082600790816100f591906108a3565b50806008819055505f8211156101165761011533836101e260201b60201c565b5b50505050610a87565b5f60055f9054906101000a900473ffffffffffffffffffffffffffffffffffffffff1690508160055f6101000a81548173ffffffffffffffffffffffffffffffffffffffff021916908373ffffffffffffffffffffffffffffffffffffffff1602179055508173ffffffffffffffffffffffffffffffffffffffff168173ffffffffffffffffffffffffffffffffffffffff167f8be0079c531659141344cd1fd0a4f28419497f9722a3daafe3b4186f6b6457e060405160405180910390a35050565b5f73ffffffffffffffffffffffffffffffffffffffff168273ffffffffffffffffffffffffffffffffffffffff1603610252575f6040517fec442f0500000000000000000000000000000000000000000000000000000000815260040161024991906109b1565b60405180910390fd5b6102635f838361026760201b60201c565b5050565b5f73ffffffffffffffffffffffffffffffffffffffff168373ffffffffffffffffffffffffffffffffffffffff16036102b7578060025f8282546102ab91906109f7565b92505081905550610385565b5f5f5f8573ffffffffffffffffffffffffffffffffffffffff1673ffffffffffffffffffffffffffffffffffffffff1681526020019081526020015f2054905081811015610340578381836040517fe450d38c00000000000000000000000000000000000000000000000000000000815260040161033793929190610a39565b60405180910390fd5b8181035f5f8673ffffffffffffffffffffffffffffffffffffffff1673ffffffffffffffffffffffffffffffffffffffff1681526020019081526020015f2081905550505b5f73ffffffffffffffffffffffffffffffffffffffff168273ffffffffffffffffffffffffffffffffffffffff16036103cc578060025f8282540392505081905550610416565b805f5f8473ffffffffffffffffffffffffffffffffffffffff1673ffffffffffffffffffffffffffffffffffffffff1681526020019081526020015f205f82825401925050819055505b8173ffffffffffffffffffffffffffffffffffffffff168373ffffffffffffffffffffffffffffffffffffffff167fddf252ad1be2c89b69c2b068fc378daa952ba7f163c4a11628f55a4df523b3ef836040516104739190610a6e565b60405180910390a3505050565b5f604051905090565b5f5ffd5b5f5ffd5b5f5ffd5b5f5ffd5b5f601f19601f8301169050919050565b7f4e487b71000000000000000000000000000000000000000000000000000000005f52604160045260245ffd5b6104df82610499565b810181811067ffffffffffffffff821117156104fe576104fd6104a9565b5b80604052505050565b5f610510610480565b905061051c82826104d6565b919050565b5f67ffffffffffffffff82111561053b5761053a6104a9565b5b61054482610499565b9050602081019050919050565b8281835e5f83830152505050565b5f61057161056c84610521565b610507565b90508281526020810184848401111561058d5761058c610495565b5b610598848285610551565b509392505050565b5f82601f8301126105b4576105b3610491565b5b81516105c484826020860161055f565b91505092915050565b5f819050919050565b6105df816105cd565b81146105e9575f5ffd5b50565b5f815190506105fa816105d6565b92915050565b5f5f5f5f6080858703121561061857610617610489565b5b5f85015167ffffffffffffffff8111156106355761063461048d565b5b610641878288016105a0565b945050602085015167ffffffffffffffff8111156106625761066161048d565b5b61066e878288016105a0565b935050604061067f878288016105ec565b9250506060610690878288016105ec565b91505092959194509250565b5f81519050919050565b7f4e487b71000000000000000000000000000000000000000000000000000000005f52602260045260245ffd5b5f60028204905060018216806106ea57607f821691505b6020821081036106fd576106fc6106a6565b5b50919050565b5f819050815f5260205f209050919050565b5f6020601f8301049050919050565b5f82821b905092915050565b5f6008830261075f7fffffffffffffffffffffffffffffffffffffffffffffffffffffffffffffffff82610724565b6107698683610724565b95508019841693508086168417925050509392505050565b5f819050919050565b5f6107a461079f61079a846105cd565b610781565b6105cd565b9050919050565b5f819050919050565b6107bd8361078a565b6107d16107c9826107ab565b848454610730565b825550505050565b5f5f905090565b6107e86107d9565b6107f38184846107b4565b505050565b5b818110156108165761080b5f826107e0565b6001810190506107f9565b5050565b601f82111561085b5761082c81610703565b61083584610715565b81016020851015610844578190505b61085861085085610715565b8301826107f8565b50505b505050565b5f82821c905092915050565b5f61087b5f1984600802610860565b1980831691505092915050565b5f610893838361086c565b9150826002028217905092915050565b6108ac8261069c565b67ffffffffffffffff8111156108c5576108c46104a9565b5b6108cf82546106d3565b6108da82828561081a565b5f60209050601f83116001811461090b575f84156108f9578287015190505b6109038582610888565b86555061096a565b601f19841661091986610703565b5f5b828110156109405784890151825560018201915060208501945060208101905061091b565b8683101561095d5784890151610959601f89168261086c565b8355505b6001600288020188555050505b505050505050565b5f73ffffffffffffffffffffffffffffffffffffffff82169050919050565b5f61099b82610972565b9050919050565b6109ab81610991565b82525050565b5f6020820190506109c45f8301846109a2565b92915050565b7f4e487b71000000000000000000000000000000000000000000000000000000005f52601160045260245ffd5b5f610a01826105cd565b9150610a0c836105cd565b9250828201905080821115610a2457610a236109ca565b5b92915050565b610a33816105cd565b82525050565b5f606082019050610a4c5f8301866109a2565b610a596020830185610a2a565b610a666040830184610a2a565b949350505050565b5f602082019050610a815f830184610a2a565b92915050565b611fd780610a945f395ff3fe60806040526004361061012d575f3560e01c80638da5cb5b116100aa578063b84c82461161006e578063b84c8246146103ec578063bf35588b14610414578063c47f00271461043c578063d0e30db014610464578063dd62ed3e14610482578063f2fde38b146104be5761013e565b80638da5cb5b1461030c57806395d89b41146103365780639dc29fac14610360578063a9059cbb14610388578063b2118a8d146103c45761013e565b8063313ce567116100f1578063313ce5671461023e57806340c10f191461026857806370a0823114610290578063715018a6146102cc5780637e74a1ed146102e25761013e565b806306fdde031461014a57806307b18bde14610174578063095ea7b31461019c57806318160ddd146101d857806323b872dd146102025761013e565b3661013e5761013c33346104e6565b005b61014833346104e6565b005b348015610155575f5ffd5b5061015e610598565b60405161016b919061152b565b60405180910390f35b34801561017f575f5ffd5b5061019a600480360381019061019591906115e9565b610628565b005b3480156101a7575f5ffd5b506101c260048036038101906101bd9190611662565b61076e565b6040516101cf91906116ba565b60405180910390f35b3480156101e3575f5ffd5b506101ec610790565b6040516101f991906116e2565b60405180910390f35b34801561020d575f5ffd5b50610228600480360381019061022391906116fb565b610799565b60405161023591906116ba565b60405180910390f35b348015610249575f5ffd5b506102526107c7565b60405161025f9190611766565b60405180910390f35b348015610273575f5ffd5b5061028e60048036038101906102899190611662565b6107cf565b005b34801561029b575f5ffd5b506102b660048036038101906102b1919061177f565b6107e5565b6040516102c391906116e2565b60405180910390f35b3480156102d7575f5ffd5b506102e061082a565b005b3480156102ed575f5ffd5b506102f661083d565b60405161030391906116e2565b60405180910390f35b348015610317575f5ffd5b50610320610843565b60405161032d91906117b9565b60405180910390f35b348015610341575f5ffd5b5061034a61086b565b604051610357919061152b565b60405180910390f35b34801561036b575f5ffd5b5061038660048036038101906103819190611662565b6108fb565b005b348015610393575f5ffd5b506103ae60048036038101906103a99190611662565b610911565b6040516103bb91906116ba565b60405180910390f35b3480156103cf575f5ffd5b506103ea60048036038101906103e591906116fb565b610933565b005b3480156103f7575f5ffd5b50610412600480360381019061040d91906118fe565b6109bc565b005b34801561041f575f5ffd5b5061043a60048036038101906104359190611945565b610a9d565b005b348015610447575f5ffd5b50610462600480360381019061045d91906118fe565b610aea565b005b61046c610bcb565b60405161047991906116e2565b60405180910390f35b34801561048d575f5ffd5b506104a860048036038101906104a39190611970565b610be9565b6040516104b591906116e2565b60405180910390f35b3480156104c9575f5ffd5b506104e460048036038101906104df919061177f565b610c6b565b005b5f8111610528576040517f08c379a000000000000000000000000000000000000000000000000000000000815260040161051f906119f8565b60405180910390fd5b5f600854826105379190611a43565b90506105438382610cef565b8273ffffffffffffffffffffffffffffffffffffffff167f90890809c654f11d6e72a28fa60149770a0d11ec6c92319d6ceb2bb0a4ea1a15838360405161058b929190611a84565b60405180910390a2505050565b6060600680546105a790611ad8565b80601f01602080910402602001604051908101604052809291908181526020018280546105d390611ad8565b801561061e5780601f106105f55761010080835404028352916020019161061e565b820191905f5260205f20905b81548152906001019060200180831161060157829003601f168201915b5050505050905090565b610630610d6e565b80471015610673576040517f08c379a000000000000000000000000000000000000000000000000000000000815260040161066a90611b52565b60405180910390fd5b5f8273ffffffffffffffffffffffffffffffffffffffff168260405161069890611b9d565b5f6040518083038185875af1925050503d805f81146106d2576040519150601f19603f3d011682016040523d82523d5f602084013e6106d7565b606091505b505090508061071b576040517f08c379a000000000000000000000000000000000000000000000000000000000815260040161071290611bfb565b60405180910390fd5b8273ffffffffffffffffffffffffffffffffffffffff167f884edad9ce6fa2440d8a54cc123490eb96d2768479d49ff9c7366125a94243648360405161076191906116e2565b60405180910390a2505050565b5f5f610778610df5565b9050610785818585610dfc565b600191505092915050565b5f600254905090565b5f5f6107a3610df5565b90506107b0858285610e0e565b6107bb858585610ea1565b60019150509392505050565b5f6012905090565b6107d7610d6e565b6107e18282610cef565b5050565b5f5f5f8373ffffffffffffffffffffffffffffffffffffffff1673ffffffffffffffffffffffffffffffffffffffff1681526020019081526020015f20549050919050565b610832610d6e565b61083b5f610f91565b565b60085481565b5f60055f9054906101000a900473ffffffffffffffffffffffffffffffffffffffff16905090565b60606007805461087a90611ad8565b80601f01602080910402602001604051908101604052809291908181526020018280546108a690611ad8565b80156108f15780601f106108c8576101008083540402835291602001916108f1565b820191905f5260205f20905b8154815290600101906020018083116108d457829003601f168201915b5050505050905090565b610903610d6e565b61090d8282611054565b5050565b5f5f61091b610df5565b9050610928818585610ea1565b600191505092915050565b61093b610d6e565b8273ffffffffffffffffffffffffffffffffffffffff1663a9059cbb83836040518363ffffffff1660e01b8152600401610976929190611c19565b6020604051808303815f875af1158015610992573d5f5f3e3d5ffd5b505050506040513d601f19601f820116820180604052508101906109b69190611c6a565b50505050565b6109c4610d6e565b5f600780546109d290611ad8565b80601f01602080910402602001604051908101604052809291908181526020018280546109fe90611ad8565b8015610a495780601f10610a2057610100808354040283529160200191610a49565b820191905f5260205f20905b815481529060010190602001808311610a2c57829003601f168201915b505050505090508160079081610a5f9190611e35565b507fd7ad744cc76ebad190995130eec8ba506b3605612d23b5b9cef8e27f14d138b48183604051610a91929190611f04565b60405180910390a15050565b610aa5610d6e565b7f4ac9052a820bf4f8c02d7588587cae835573b5b99ea7ad4ca002f17f319f718660085482604051610ad8929190611a84565b60405180910390a18060088190555050565b610af2610d6e565b5f60068054610b0090611ad8565b80601f0160208091040260200160405190810160405280929190818152602001828054610b2c90611ad8565b8015610b775780601f10610b4e57610100808354040283529160200191610b77565b820191905f5260205f20905b815481529060010190602001808311610b5a57829003601f168201915b505050505090508160069081610b8d9190611e35565b507f6c20b91d1723b78732eba64ff11ebd7966a6e4af568a00fa4f6b72c20f58b02a8183604051610bbf929190611f04565b60405180910390a15050565b5f610bd633346104e6565b60085434610be49190611a43565b905090565b5f60015f8473ffffffffffffffffffffffffffffffffffffffff1673ffffffffffffffffffffffffffffffffffffffff1681526020019081526020015f205f8373ffffffffffffffffffffffffffffffffffffffff1673ffffffffffffffffffffffffffffffffffffffff1681526020019081526020015f2054905092915050565b610c73610d6e565b5f73ffffffffffffffffffffffffffffffffffffffff168173ffffffffffffffffffffffffffffffffffffffff1603610ce3575f6040517f1e4fbdf7000000000000000000000000000000000000000000000000000000008152600401610cda91906117b9565b60405180910390fd5b610cec81610f91565b50565b5f73ffffffffffffffffffffffffffffffffffffffff168273ffffffffffffffffffffffffffffffffffffffff1603610d5f575f6040517fec442f05000000000000000000000000000000000000000000000000000000008152600401610d5691906117b9565b60405180910390fd5b610d6a5f83836110d3565b5050565b610d76610df5565b73ffffffffffffffffffffffffffffffffffffffff16610d94610843565b73ffffffffffffffffffffffffffffffffffffffff1614610df357610db7610df5565b6040517f118cdaa7000000000000000000000000000000000000000000000000000000008152600401610dea91906117b9565b60405180910390fd5b565b5f33905090565b610e0983838360016112ec565b505050565b5f610e198484610be9565b90507fffffffffffffffffffffffffffffffffffffffffffffffffffffffffffffffff811015610e9b5781811015610e8c578281836040517ffb8f41b2000000000000000000000000000000000000000000000000000000008152600401610e8393929190611f39565b60405180910390fd5b610e9a84848484035f6112ec565b5b50505050565b5f73ffffffffffffffffffffffffffffffffffffffff168373ffffffffffffffffffffffffffffffffffffffff1603610f11575f6040517f96c6fd1e000000000000000000000000000000000000000000000000000000008152600401610f0891906117b9565b60405180910390fd5b5f73ffffffffffffffffffffffffffffffffffffffff168273ffffffffffffffffffffffffffffffffffffffff1603610f81575f6040517fec442f05000000000000000000000000000000000000000000000000000000008152600401610f7891906117b9565b60405180910390fd5b610f8c8383836110d3565b505050565b5f60055f9054906101000a900473ffffffffffffffffffffffffffffffffffffffff1690508160055f6101000a81548173ffffffffffffffffffffffffffffffffffffffff021916908373ffffffffffffffffffffffffffffffffffffffff1602179055508173ffffffffffffffffffffffffffffffffffffffff168173ffffffffffffffffffffffffffffffffffffffff167f8be0079c531659141344cd1fd0a4f28419497f9722a3daafe3b4186f6b6457e060405160405180910390a35050565b5f73ffffffffffffffffffffffffffffffffffffffff168273ffffffffffffffffffffffffffffffffffffffff16036110c4575f6040517f96c6fd1e0000000000000000000000000000000000000000000000000000000081526004016110bb91906117b9565b60405180910390fd5b6110cf825f836110d3565b5050565b5f73ffffffffffffffffffffffffffffffffffffffff168373ffffffffffffffffffffffffffffffffffffffff1603611123578060025f8282546111179190611f6e565b925050819055506111f1565b5f5f5f8573ffffffffffffffffffffffffffffffffffffffff1673ffffffffffffffffffffffffffffffffffffffff1681526020019081526020015f20549050818110156111ac578381836040517fe450d38c0000000000000000000000000000000000000000000000000000000081526004016111a393929190611f39565b60405180910390fd5b8181035f5f8673ffffffffffffffffffffffffffffffffffffffff1673ffffffffffffffffffffffffffffffffffffffff1681526020019081526020015f2081905550505b5f73ffffffffffffffffffffffffffffffffffffffff168273ffffffffffffffffffffffffffffffffffffffff1603611238578060025f8282540392505081905550611282565b805f5f8473ffffffffffffffffffffffffffffffffffffffff1673ffffffffffffffffffffffffffffffffffffffff1681526020019081526020015f205f82825401925050819055505b8173ffffffffffffffffffffffffffffffffffffffff168373ffffffffffffffffffffffffffffffffffffffff167fddf252ad1be2c89b69c2b068fc378daa952ba7f163c4a11628f55a4df523b3ef836040516112df91906116e2565b60405180910390a3505050565b5f73ffffffffffffffffffffffffffffffffffffffff168473ffffffffffffffffffffffffffffffffffffffff160361135c575f6040517fe602df0500000000000000000000000000000000000000000000000000000000815260040161135391906117b9565b60405180910390fd5b5f73ffffffffffffffffffffffffffffffffffffffff168373ffffffffffffffffffffffffffffffffffffffff16036113cc575f6040517f94280d620000000000000000000000000000000000000000000000000000000081526004016113c391906117b9565b60405180910390fd5b8160015f8673ffffffffffffffffffffffffffffffffffffffff1673ffffffffffffffffffffffffffffffffffffffff1681526020019081526020015f205f8573ffffffffffffffffffffffffffffffffffffffff1673ffffffffffffffffffffffffffffffffffffffff1681526020019081526020015f208190555080156114b5578273ffffffffffffffffffffffffffffffffffffffff168473ffffffffffffffffffffffffffffffffffffffff167f8c5be1e5ebec7d5bd14f71427d1e84f3dd0314c0f7b2291e5b200ac8c7c3b925846040516114ac91906116e2565b60405180910390a35b50505050565b5f81519050919050565b5f82825260208201905092915050565b8281835e5f83830152505050565b5f601f19601f8301169050919050565b5f6114fd826114bb565b61150781856114c5565b93506115178185602086016114d5565b611520816114e3565b840191505092915050565b5f6020820190508181035f83015261154381846114f3565b905092915050565b5f604051905090565b5f5ffd5b5f5ffd5b5f73ffffffffffffffffffffffffffffffffffffffff82169050919050565b5f6115858261155c565b9050919050565b6115958161157b565b811461159f575f5ffd5b50565b5f813590506115b08161158c565b92915050565b5f819050919050565b6115c8816115b6565b81146115d2575f5ffd5b50565b5f813590506115e3816115bf565b92915050565b5f5f604083850312156115ff576115fe611554565b5b5f61160c858286016115a2565b925050602061161d858286016115d5565b9150509250929050565b5f6116318261155c565b9050919050565b61164181611627565b811461164b575f5ffd5b50565b5f8135905061165c81611638565b92915050565b5f5f6040838503121561167857611677611554565b5b5f6116858582860161164e565b9250506020611696858286016115d5565b9150509250929050565b5f8115159050919050565b6116b4816116a0565b82525050565b5f6020820190506116cd5f8301846116ab565b92915050565b6116dc816115b6565b82525050565b5f6020820190506116f55f8301846116d3565b92915050565b5f5f5f6060848603121561171257611711611554565b5b5f61171f8682870161164e565b93505060206117308682870161164e565b9250506040611741868287016115d5565b9150509250925092565b5f60ff82169050919050565b6117608161174b565b82525050565b5f6020820190506117795f830184611757565b92915050565b5f6020828403121561179457611793611554565b5b5f6117a18482850161164e565b91505092915050565b6117b381611627565b82525050565b5f6020820190506117cc5f8301846117aa565b92915050565b5f5ffd5b5f5ffd5b7f4e487b71000000000000000000000000000000000000000000000000000000005f52604160045260245ffd5b611810826114e3565b810181811067ffffffffffffffff8211171561182f5761182e6117da565b5b80604052505050565b5f61184161154b565b905061184d8282611807565b919050565b5f67ffffffffffffffff82111561186c5761186b6117da565b5b611875826114e3565b9050602081019050919050565b828183375f83830152505050565b5f6118a261189d84611852565b611838565b9050828152602081018484840111156118be576118bd6117d6565b5b6118c9848285611882565b509392505050565b5f82601f8301126118e5576118e46117d2565b5b81356118f5848260208601611890565b91505092915050565b5f6020828403121561191357611912611554565b5b5f82013567ffffffffffffffff8111156119305761192f611558565b5b61193c848285016118d1565b91505092915050565b5f6020828403121561195a57611959611554565b5b5f611967848285016115d5565b91505092915050565b5f5f6040838503121561198657611985611554565b5b5f6119938582860161164e565b92505060206119a48582860161164e565b9150509250929050565b7f4e6f206e61746976652076616c75652073656e740000000000000000000000005f82015250565b5f6119e26014836114c5565b91506119ed826119ae565b602082019050919050565b5f6020820190508181035f830152611a0f816119d6565b9050919050565b7f4e487b71000000000000000000000000000000000000000000000000000000005f52601160045260245ffd5b5f611a4d826115b6565b9150611a58836115b6565b9250828202611a66816115b6565b91508282048414831517611a7d57611a7c611a16565b5b5092915050565b5f604082019050611a975f8301856116d3565b611aa460208301846116d3565b9392505050565b7f4e487b71000000000000000000000000000000000000000000000000000000005f52602260045260245ffd5b5f6002820490506001821680611aef57607f821691505b602082108103611b0257611b01611aab565b5b50919050565b7f496e73756666696369656e742062616c616e63650000000000000000000000005f82015250565b5f611b3c6014836114c5565b9150611b4782611b08565b602082019050919050565b5f6020820190508181035f830152611b6981611b30565b9050919050565b5f81905092915050565b50565b5f611b885f83611b70565b9150611b9382611b7a565b5f82019050919050565b5f611ba782611b7d565b9150819050919050565b7f5472616e73666572206661696c656400000000000000000000000000000000005f82015250565b5f611be5600f836114c5565b9150611bf082611bb1565b602082019050919050565b5f6020820190508181035f830152611c1281611bd9565b9050919050565b5f604082019050611c2c5f8301856117aa565b611c3960208301846116d3565b9392505050565b611c49816116a0565b8114611c53575f5ffd5b50565b5f81519050611c6481611c40565b92915050565b5f60208284031215611c7f57611c7e611554565b5b5f611c8c84828501611c56565b91505092915050565b5f819050815f5260205f209050919050565b5f6020601f8301049050919050565b5f82821b905092915050565b5f60088302611cf17fffffffffffffffffffffffffffffffffffffffffffffffffffffffffffffffff82611cb6565b611cfb8683611cb6565b95508019841693508086168417925050509392505050565b5f819050919050565b5f611d36611d31611d2c846115b6565b611d13565b6115b6565b9050919050565b5f819050919050565b611d4f83611d1c565b611d63611d5b82611d3d565b848454611cc2565b825550505050565b5f5f905090565b611d7a611d6b565b611d85818484611d46565b505050565b5b81811015611da857611d9d5f82611d72565b600181019050611d8b565b5050565b601f821115611ded57611dbe81611c95565b611dc784611ca7565b81016020851015611dd6578190505b611dea611de285611ca7565b830182611d8a565b50505b505050565b5f82821c905092915050565b5f611e0d5f1984600802611df2565b1980831691505092915050565b5f611e258383611dfe565b9150826002028217905092915050565b611e3e826114bb565b67ffffffffffffffff811115611e5757611e566117da565b5b611e618254611ad8565b611e6c828285611dac565b5f60209050601f831160018114611e9d575f8415611e8b578287015190505b611e958582611e1a565b865550611efc565b601f198416611eab86611c95565b5f5b82811015611ed257848901518255600182019150602085019450602081019050611ead565b86831015611eef5784890151611eeb601f891682611dfe565b8355505b6001600288020188555050505b505050505050565b5f6040820190508181035f830152611f1c81856114f3565b90508181036020830152611f3081846114f3565b90509392505050565b5f606082019050611f4c5f8301866117aa565b611f5960208301856116d3565b611f6660408301846116d3565b949350505050565b5f611f78826115b6565b9150611f83836115b6565b9250828201905080821115611f9b57611f9a611a16565b5b9291505056fea26469706673582212208ceedbfe2a99cf303b1956e399c01d7f44d63684f2f5618c6d7c957938e4250664736f6c634300081e0033",
			"opcodes": "PUSH1 0x80 PUSH1 0x40 MSTORE CALLVALUE DUP1 ISZERO PUSH2 0xF JUMPI PUSH0 PUSH0 REVERT JUMPDEST POP PUSH1 0x40 MLOAD PUSH2 0x2A6B CODESIZE SUB DUP1 PUSH2 0x2A6B DUP4 CODECOPY DUP2 DUP2 ADD PUSH1 0x40 MSTORE DUP2 ADD SWAP1 PUSH2 0x31 SWAP2 SWAP1 PUSH2 0x600 JUMP JUMPDEST CALLER DUP5 DUP5 DUP2 PUSH1 0x3 SWAP1 DUP2 PUSH2 0x43 SWAP2 SWAP1 PUSH2 0x8A3 JUMP JUMPDEST POP DUP1 PUSH1 0x4 SWAP1 DUP2 PUSH2 0x53 SWAP2 SWAP1 PUSH2 0x8A3 JUMP JUMPDEST POP POP POP PUSH0 PUSH20 0xFFFFFFFFFFFFFFFFFFFFFFFFFFFFFFFFFFFFFFFF AND DUP2 PUSH20 0xFFFFFFFFFFFFFFFFFFFFFFFFFFFFFFFFFFFFFFFF AND SUB PUSH2 0xC6 JUMPI PUSH0 PUSH1 0x40 MLOAD PUSH32 0x1E4FBDF700000000000000000000000000000000000000000000000000000000 DUP2 MSTORE PUSH1 0x4 ADD PUSH2 0xBD SWAP2 SWAP1 PUSH2 0x9B1 JUMP JUMPDEST PUSH1 0x40 MLOAD DUP1 SWAP2 SUB SWAP1 REVERT JUMPDEST PUSH2 0xD5 DUP2 PUSH2 0x11F PUSH1 0x20 SHL PUSH1 0x20 SHR JUMP JUMPDEST POP DUP4 PUSH1 0x6 SWAP1 DUP2 PUSH2 0xE5 SWAP2 SWAP1 PUSH2 0x8A3 JUMP JUMPDEST POP DUP3 PUSH1 0x7 SWAP1 DUP2 PUSH2 0xF5 SWAP2 SWAP1 PUSH2 0x8A3 JUMP JUMPDEST POP DUP1 PUSH1 0x8 DUP2 SWAP1 SSTORE POP PUSH0 DUP3 GT ISZERO PUSH2 0x116 JUMPI PUSH2 0x115 CALLER DUP4 PUSH2 0x1E2 PUSH1 0x20 SHL PUSH1 0x20 SHR JUMP JUMPDEST JUMPDEST POP POP POP POP PUSH2 0xA87 JUMP JUMPDEST PUSH0 PUSH1 0x5 PUSH0 SWAP1 SLOAD SWAP1 PUSH2 0x100 EXP SWAP1 DIV PUSH20 0xFFFFFFFFFFFFFFFFFFFFFFFFFFFFFFFFFFFFFFFF AND SWAP1 POP DUP2 PUSH1 0x5 PUSH0 PUSH2 0x100 EXP DUP2 SLOAD DUP2 PUSH20 0xFFFFFFFFFFFFFFFFFFFFFFFFFFFFFFFFFFFFFFFF MUL NOT AND SWAP1 DUP4 PUSH20 0xFFFFFFFFFFFFFFFFFFFFFFFFFFFFFFFFFFFFFFFF AND MUL OR SWAP1 SSTORE POP DUP2 PUSH20 0xFFFFFFFFFFFFFFFFFFFFFFFFFFFFFFFFFFFFFFFF AND DUP2 PUSH20 0xFFFFFFFFFFFFFFFFFFFFFFFFFFFFFFFFFFFFFFFF AND PUSH32 0x8BE0079C531659141344CD1FD0A4F28419497F9722A3DAAFE3B4186F6B6457E0 PUSH1 0x40 MLOAD PUSH1 0x40 MLOAD DUP1 SWAP2 SUB SWAP1 LOG3 POP POP JUMP JUMPDEST PUSH0 PUSH20 0xFFFFFFFFFFFFFFFFFFFFFFFFFFFFFFFFFFFFFFFF AND DUP3 PUSH20 0xFFFFFFFFFFFFFFFFFFFFFFFFFFFFFFFFFFFFFFFF AND SUB PUSH2 0x252 JUMPI PUSH0 PUSH1 0x40 MLOAD PUSH32 0xEC442F0500000000000000000000000000000000000000000000000000000000 DUP2 MSTORE PUSH1 0x4 ADD PUSH2 0x249 SWAP2 SWAP1 PUSH2 0x9B1 JUMP JUMPDEST PUSH1 0x40 MLOAD DUP1 SWAP2 SUB SWAP1 REVERT JUMPDEST PUSH2 0x263 PUSH0 DUP4 DUP4 PUSH2 0x267 PUSH1 0x20 SHL PUSH1 0x20 SHR JUMP JUMPDEST POP POP JUMP JUMPDEST PUSH0 PUSH20 0xFFFFFFFFFFFFFFFFFFFFFFFFFFFFFFFFFFFFFFFF AND DUP4 PUSH20 0xFFFFFFFFFFFFFFFFFFFFFFFFFFFFFFFFFFFFFFFF AND SUB PUSH2 0x2B7 JUMPI DUP1 PUSH1 0x2 PUSH0 DUP3 DUP3 SLOAD PUSH2 0x2AB SWAP2 SWAP1 PUSH2 0x9F7 JUMP JUMPDEST SWAP3 POP POP DUP2 SWAP1 SSTORE POP PUSH2 0x385 JUMP JUMPDEST PUSH0 PUSH0 PUSH0 DUP6 PUSH20 0xFFFFFFFFFFFFFFFFFFFFFFFFFFFFFFFFFFFFFFFF AND PUSH20 0xFFFFFFFFFFFFFFFFFFFFFFFFFFFFFFFFFFFFFFFF AND DUP2 MSTORE PUSH1 0x20 ADD SWAP1 DUP2 MSTORE PUSH1 0x20 ADD PUSH0 KECCAK256 SLOAD SWAP1 POP DUP2 DUP2 LT ISZERO PUSH2 0x340 JUMPI DUP4 DUP2 DUP4 PUSH1 0x40 MLOAD PUSH32 0xE450D38C00000000000000000000000000000000000000000000000000000000 DUP2 MSTORE PUSH1 0x4 ADD PUSH2 0x337 SWAP4 SWAP3 SWAP2 SWAP1 PUSH2 0xA39 JUMP JUMPDEST PUSH1 0x40 MLOAD DUP1 SWAP2 SUB SWAP1 REVERT JUMPDEST DUP2 DUP2 SUB PUSH0 PUSH0 DUP7 PUSH20 0xFFFFFFFFFFFFFFFFFFFFFFFFFFFFFFFFFFFFFFFF AND PUSH20 0xFFFFFFFFFFFFFFFFFFFFFFFFFFFFFFFFFFFFFFFF AND DUP2 MSTORE PUSH1 0x20 ADD SWAP1 DUP2 MSTORE PUSH1 0x20 ADD PUSH0 KECCAK256 DUP2 SWAP1 SSTORE POP POP JUMPDEST PUSH0 PUSH20 0xFFFFFFFFFFFFFFFFFFFFFFFFFFFFFFFFFFFFFFFF AND DUP3 PUSH20 0xFFFFFFFFFFFFFFFFFFFFFFFFFFFFFFFFFFFFFFFF AND SUB PUSH2 0x3CC JUMPI DUP1 PUSH1 0x2 PUSH0 DUP3 DUP3 SLOAD SUB SWAP3 POP POP DUP2 SWAP1 SSTORE POP PUSH2 0x416 JUMP JUMPDEST DUP1 PUSH0 PUSH0 DUP5 PUSH20 0xFFFFFFFFFFFFFFFFFFFFFFFFFFFFFFFFFFFFFFFF AND PUSH20 0xFFFFFFFFFFFFFFFFFFFFFFFFFFFFFFFFFFFFFFFF AND DUP2 MSTORE PUSH1 0x20 ADD SWAP1 DUP2 MSTORE PUSH1 0x20 ADD PUSH0 KECCAK256 PUSH0 DUP3 DUP3 SLOAD ADD SWAP3 POP POP DUP2 SWAP1 SSTORE POP JUMPDEST DUP2 PUSH20 0xFFFFFFFFFFFFFFFFFFFFFFFFFFFFFFFFFFFFFFFF AND DUP4 PUSH20 0xFFFFFFFFFFFFFFFFFFFFFFFFFFFFFFFFFFFFFFFF AND PUSH32 0xDDF252AD1BE2C89B69C2B068FC378DAA952BA7F163C4A11628F55A4DF523B3EF DUP4 PUSH1 0x40 MLOAD PUSH2 0x473 SWAP2 SWAP1 PUSH2 0xA6E JUMP JUMPDEST PUSH1 0x40 MLOAD DUP1 SWAP2 SUB SWAP1 LOG3 POP POP POP JUMP JUMPDEST PUSH0 PUSH1 0x40 MLOAD SWAP1 POP SWAP1 JUMP JUMPDEST PUSH0 PUSH0 REVERT JUMPDEST PUSH0 PUSH0 REVERT JUMPDEST PUSH0 PUSH0 REVERT JUMPDEST PUSH0 PUSH0 REVERT JUMPDEST PUSH0 PUSH1 0x1F NOT PUSH1 0x1F DUP4 ADD AND SWAP1 POP SWAP2 SWAP1 POP JUMP JUMPDEST PUSH32 0x4E487B7100000000000000000000000000000000000000000000000000000000 PUSH0 MSTORE PUSH1 0x41 PUSH1 0x4 MSTORE PUSH1 0x24 PUSH0 REVERT JUMPDEST PUSH2 0x4DF DUP3 PUSH2 0x499 JUMP JUMPDEST DUP2 ADD DUP2 DUP2 LT PUSH8 0xFFFFFFFFFFFFFFFF DUP3 GT OR ISZERO PUSH2 0x4FE JUMPI PUSH2 0x4FD PUSH2 0x4A9 JUMP JUMPDEST JUMPDEST DUP1 PUSH1 0x40 MSTORE POP POP POP JUMP JUMPDEST PUSH0 PUSH2 0x510 PUSH2 0x480 JUMP JUMPDEST SWAP1 POP PUSH2 0x51C DUP3 DUP3 PUSH2 0x4D6 JUMP JUMPDEST SWAP2 SWAP1 POP JUMP JUMPDEST PUSH0 PUSH8 0xFFFFFFFFFFFFFFFF DUP3 GT ISZERO PUSH2 0x53B JUMPI PUSH2 0x53A PUSH2 0x4A9 JUMP JUMPDEST JUMPDEST PUSH2 0x544 DUP3 PUSH2 0x499 JUMP JUMPDEST SWAP1 POP PUSH1 0x20 DUP2 ADD SWAP1 POP SWAP2 SWAP1 POP JUMP JUMPDEST DUP3 DUP2 DUP4 MCOPY PUSH0 DUP4 DUP4 ADD MSTORE POP POP POP JUMP JUMPDEST PUSH0 PUSH2 0x571 PUSH2 0x56C DUP5 PUSH2 0x521 JUMP JUMPDEST PUSH2 0x507 JUMP JUMPDEST SWAP1 POP DUP3 DUP2 MSTORE PUSH1 0x20 DUP2 ADD DUP5 DUP5 DUP5 ADD GT ISZERO PUSH2 0x58D JUMPI PUSH2 0x58C PUSH2 0x495 JUMP JUMPDEST JUMPDEST PUSH2 0x598 DUP5 DUP3 DUP6 PUSH2 0x551 JUMP JUMPDEST POP SWAP4 SWAP3 POP POP POP JUMP JUMPDEST PUSH0 DUP3 PUSH1 0x1F DUP4 ADD SLT PUSH2 0x5B4 JUMPI PUSH2 0x5B3 PUSH2 0x491 JUMP JUMPDEST JUMPDEST DUP2 MLOAD PUSH2 0x5C4 DUP5 DUP3 PUSH1 0x20 DUP7 ADD PUSH2 0x55F JUMP JUMPDEST SWAP2 POP POP SWAP3 SWAP2 POP POP JUMP JUMPDEST PUSH0 DUP2 SWAP1 POP SWAP2 SWAP1 POP JUMP JUMPDEST PUSH2 0x5DF DUP2 PUSH2 0x5CD JUMP JUMPDEST DUP2 EQ PUSH2 0x5E9 JUMPI PUSH0 PUSH0 REVERT JUMPDEST POP JUMP JUMPDEST PUSH0 DUP2 MLOAD SWAP1 POP PUSH2 0x5FA DUP2 PUSH2 0x5D6 JUMP JUMPDEST SWAP3 SWAP2 POP POP JUMP JUMPDEST PUSH0 PUSH0 PUSH0 PUSH0 PUSH1 0x80 DUP6 DUP8 SUB SLT ISZERO PUSH2 0x618 JUMPI PUSH2 0x617 PUSH2 0x489 JUMP JUMPDEST JUMPDEST PUSH0 DUP6 ADD MLOAD PUSH8 0xFFFFFFFFFFFFFFFF DUP2 GT ISZERO PUSH2 0x635 JUMPI PUSH2 0x634 PUSH2 0x48D JUMP JUMPDEST JUMPDEST PUSH2 0x641 DUP8 DUP3 DUP9 ADD PUSH2 0x5A0 JUMP JUMPDEST SWAP5 POP POP PUSH1 0x20 DUP6 ADD MLOAD PUSH8 0xFFFFFFFFFFFFFFFF DUP2 GT ISZERO PUSH2 0x662 JUMPI PUSH2 0x661 PUSH2 0x48D JUMP JUMPDEST JUMPDEST PUSH2 0x66E DUP8 DUP3 DUP9 ADD PUSH2 0x5A0 JUMP JUMPDEST SWAP4 POP POP PUSH1 0x40 PUSH2 0x67F DUP8 DUP3 DUP9 ADD PUSH2 0x5EC JUMP JUMPDEST SWAP3 POP POP PUSH1 0x60 PUSH2 0x690 DUP8 DUP3 DUP9 ADD PUSH2 0x5EC JUMP JUMPDEST SWAP2 POP POP SWAP3 SWAP6 SWAP2 SWAP5 POP SWAP3 POP JUMP JUMPDEST PUSH0 DUP2 MLOAD SWAP1 POP SWAP2 SWAP1 POP JUMP JUMPDEST PUSH32 0x4E487B7100000000000000000000000000000000000000000000000000000000 PUSH0 MSTORE PUSH1 0x22 PUSH1 0x4 MSTORE PUSH1 0x24 PUSH0 REVERT JUMPDEST PUSH0 PUSH1 0x2 DUP3 DIV SWAP1 POP PUSH1 0x1 DUP3 AND DUP1 PUSH2 0x6EA JUMPI PUSH1 0x7F DUP3 AND SWAP2 POP JUMPDEST PUSH1 0x20 DUP3 LT DUP2 SUB PUSH2 0x6FD JUMPI PUSH2 0x6FC PUSH2 0x6A6 JUMP JUMPDEST JUMPDEST POP SWAP2 SWAP1 POP JUMP JUMPDEST PUSH0 DUP2 SWAP1 POP DUP2 PUSH0 MSTORE PUSH1 0x20 PUSH0 KECCAK256 SWAP1 POP SWAP2 SWAP1 POP JUMP JUMPDEST PUSH0 PUSH1 0x20 PUSH1 0x1F DUP4 ADD DIV SWAP1 POP SWAP2 SWAP1 POP JUMP JUMPDEST PUSH0 DUP3 DUP3 SHL SWAP1 POP SWAP3 SWAP2 POP POP JUMP JUMPDEST PUSH0 PUSH1 0x8 DUP4 MUL PUSH2 0x75F PUSH32 0xFFFFFFFFFFFFFFFFFFFFFFFFFFFFFFFFFFFFFFFFFFFFFFFFFFFFFFFFFFFFFFFF DUP3 PUSH2 0x724 JUMP JUMPDEST PUSH2 0x769 DUP7 DUP4 PUSH2 0x724 JUMP JUMPDEST SWAP6 POP DUP1 NOT DUP5 AND SWAP4 POP DUP1 DUP7 AND DUP5 OR SWAP3 POP POP POP SWAP4 SWAP3 POP POP POP JUMP JUMPDEST PUSH0 DUP2 SWAP1 POP SWAP2 SWAP1 POP JUMP JUMPDEST PUSH0 PUSH2 0x7A4 PUSH2 0x79F PUSH2 0x79A DUP5 PUSH2 0x5CD JUMP JUMPDEST PUSH2 0x781 JUMP JUMPDEST PUSH2 0x5CD JUMP JUMPDEST SWAP1 POP SWAP2 SWAP1 POP JUMP JUMPDEST PUSH0 DUP2 SWAP1 POP SWAP2 SWAP1 POP JUMP JUMPDEST PUSH2 0x7BD DUP4 PUSH2 0x78A JUMP JUMPDEST PUSH2 0x7D1 PUSH2 0x7C9 DUP3 PUSH2 0x7AB JUMP JUMPDEST DUP5 DUP5 SLOAD PUSH2 0x730 JUMP JUMPDEST DUP3 SSTORE POP POP POP POP JUMP JUMPDEST PUSH0 PUSH0 SWAP1 POP SWAP1 JUMP JUMPDEST PUSH2 0x7E8 PUSH2 0x7D9 JUMP JUMPDEST PUSH2 0x7F3 DUP2 DUP5 DUP5 PUSH2 0x7B4 JUMP JUMPDEST POP POP POP JUMP JUMPDEST JUMPDEST DUP2 DUP2 LT ISZERO PUSH2 0x816 JUMPI PUSH2 0x80B PUSH0 DUP3 PUSH2 0x7E0 JUMP JUMPDEST PUSH1 0x1 DUP2 ADD SWAP1 POP PUSH2 0x7F9 JUMP JUMPDEST POP POP JUMP JUMPDEST PUSH1 0x1F DUP3 GT ISZERO PUSH2 0x85B JUMPI PUSH2 0x82C DUP2 PUSH2 0x703 JUMP JUMPDEST PUSH2 0x835 DUP5 PUSH2 0x715 JUMP JUMPDEST DUP2 ADD PUSH1 0x20 DUP6 LT ISZERO PUSH2 0x844 JUMPI DUP2 SWAP1 POP JUMPDEST PUSH2 0x858 PUSH2 0x850 DUP6 PUSH2 0x715 JUMP JUMPDEST DUP4 ADD DUP3 PUSH2 0x7F8 JUMP JUMPDEST POP POP JUMPDEST POP POP POP JUMP JUMPDEST PUSH0 DUP3 DUP3 SHR SWAP1 POP SWAP3 SWAP2 POP POP JUMP JUMPDEST PUSH0 PUSH2 0x87B PUSH0 NOT DUP5 PUSH1 0x8 MUL PUSH2 0x860 JUMP JUMPDEST NOT DUP1 DUP4 AND SWAP2 POP POP SWAP3 SWAP2 POP POP JUMP JUMPDEST PUSH0 PUSH2 0x893 DUP4 DUP4 PUSH2 0x86C JUMP JUMPDEST SWAP2 POP DUP3 PUSH1 0x2 MUL DUP3 OR SWAP1 POP SWAP3 SWAP2 POP POP JUMP JUMPDEST PUSH2 0x8AC DUP3 PUSH2 0x69C JUMP JUMPDEST PUSH8 0xFFFFFFFFFFFFFFFF DUP2 GT ISZERO PUSH2 0x8C5 JUMPI PUSH2 0x8C4 PUSH2 0x4A9 JUMP JUMPDEST JUMPDEST PUSH2 0x8CF DUP3 SLOAD PUSH2 0x6D3 JUMP JUMPDEST PUSH2 0x8DA DUP3 DUP3 DUP6 PUSH2 0x81A JUMP JUMPDEST PUSH0 PUSH1 0x20 SWAP1 POP PUSH1 0x1F DUP4 GT PUSH1 0x1 DUP2 EQ PUSH2 0x90B JUMPI PUSH0 DUP5 ISZERO PUSH2 0x8F9 JUMPI DUP3 DUP8 ADD MLOAD SWAP1 POP JUMPDEST PUSH2 0x903 DUP6 DUP3 PUSH2 0x888 JUMP JUMPDEST DUP7 SSTORE POP PUSH2 0x96A JUMP JUMPDEST PUSH1 0x1F NOT DUP5 AND PUSH2 0x919 DUP7 PUSH2 0x703 JUMP JUMPDEST PUSH0 JUMPDEST DUP3 DUP2 LT ISZERO PUSH2 0x940 JUMPI DUP5 DUP10 ADD MLOAD DUP3 SSTORE PUSH1 0x1 DUP3 ADD SWAP2 POP PUSH1 0x20 DUP6 ADD SWAP5 POP PUSH1 0x20 DUP2 ADD SWAP1 POP PUSH2 0x91B JUMP JUMPDEST DUP7 DUP4 LT ISZERO PUSH2 0x95D JUMPI DUP5 DUP10 ADD MLOAD PUSH2 0x959 PUSH1 0x1F DUP10 AND DUP3 PUSH2 0x86C JUMP JUMPDEST DUP4 SSTORE POP JUMPDEST PUSH1 0x1 PUSH1 0x2 DUP9 MUL ADD DUP9 SSTORE POP POP POP JUMPDEST POP POP POP POP POP POP JUMP JUMPDEST PUSH0 PUSH20 0xFFFFFFFFFFFFFFFFFFFFFFFFFFFFFFFFFFFFFFFF DUP3 AND SWAP1 POP SWAP2 SWAP1 POP JUMP JUMPDEST PUSH0 PUSH2 0x99B DUP3 PUSH2 0x972 JUMP JUMPDEST SWAP1 POP SWAP2 SWAP1 POP JUMP JUMPDEST PUSH2 0x9AB DUP2 PUSH2 0x991 JUMP JUMPDEST DUP3 MSTORE POP POP JUMP JUMPDEST PUSH0 PUSH1 0x20 DUP3 ADD SWAP1 POP PUSH2 0x9C4 PUSH0 DUP4 ADD DUP5 PUSH2 0x9A2 JUMP JUMPDEST SWAP3 SWAP2 POP POP JUMP JUMPDEST PUSH32 0x4E487B7100000000000000000000000000000000000000000000000000000000 PUSH0 MSTORE PUSH1 0x11 PUSH1 0x4 MSTORE PUSH1 0x24 PUSH0 REVERT JUMPDEST PUSH0 PUSH2 0xA01 DUP3 PUSH2 0x5CD JUMP JUMPDEST SWAP2 POP PUSH2 0xA0C DUP4 PUSH2 0x5CD JUMP JUMPDEST SWAP3 POP DUP3 DUP3 ADD SWAP1 POP DUP1 DUP3 GT ISZERO PUSH2 0xA24 JUMPI PUSH2 0xA23 PUSH2 0x9CA JUMP JUMPDEST JUMPDEST SWAP3 SWAP2 POP POP JUMP JUMPDEST PUSH2 0xA33 DUP2 PUSH2 0x5CD JUMP JUMPDEST DUP3 MSTORE POP POP JUMP JUMPDEST PUSH0 PUSH1 0x60 DUP3 ADD SWAP1 POP PUSH2 0xA4C PUSH0 DUP4 ADD DUP7 PUSH2 0x9A2 JUMP JUMPDEST PUSH2 0xA59 PUSH1 0x20 DUP4 ADD DUP6 PUSH2 0xA2A JUMP JUMPDEST PUSH2 0xA66 PUSH1 0x40 DUP4 ADD DUP5 PUSH2 0xA2A JUMP JUMPDEST SWAP5 SWAP4 POP POP POP POP JUMP JUMPDEST PUSH0 PUSH1 0x20 DUP3 ADD SWAP1 POP PUSH2 0xA81 PUSH0 DUP4 ADD DUP5 PUSH2 0xA2A JUMP JUMPDEST SWAP3 SWAP2 POP POP JUMP JUMPDEST PUSH2 0x1FD7 DUP1 PUSH2 0xA94 PUSH0 CODECOPY PUSH0 RETURN INVALID PUSH1 0x80 PUSH1 0x40 MSTORE PUSH1 0x4 CALLDATASIZE LT PUSH2 0x12D JUMPI PUSH0 CALLDATALOAD PUSH1 0xE0 SHR DUP1 PUSH4 0x8DA5CB5B GT PUSH2 0xAA JUMPI DUP1 PUSH4 0xB84C8246 GT PUSH2 0x6E JUMPI DUP1 PUSH4 0xB84C8246 EQ PUSH2 0x3EC JUMPI DUP1 PUSH4 0xBF35588B EQ PUSH2 0x414 JUMPI DUP1 PUSH4 0xC47F0027 EQ PUSH2 0x43C JUMPI DUP1 PUSH4 0xD0E30DB0 EQ PUSH2 0x464 JUMPI DUP1 PUSH4 0xDD62ED3E EQ PUSH2 0x482 JUMPI DUP1 PUSH4 0xF2FDE38B EQ PUSH2 0x4BE JUMPI PUSH2 0x13E JUMP JUMPDEST DUP1 PUSH4 0x8DA5CB5B EQ PUSH2 0x30C JUMPI DUP1 PUSH4 0x95D89B41 EQ PUSH2 0x336 JUMPI DUP1 PUSH4 0x9DC29FAC EQ PUSH2 0x360 JUMPI DUP1 PUSH4 0xA9059CBB EQ PUSH2 0x388 JUMPI DUP1 PUSH4 0xB2118A8D EQ PUSH2 0x3C4 JUMPI PUSH2 0x13E JUMP JUMPDEST DUP1 PUSH4 0x313CE567 GT PUSH2 0xF1 JUMPI DUP1 PUSH4 0x313CE567 EQ PUSH2 0x23E JUMPI DUP1 PUSH4 0x40C10F19 EQ PUSH2 0x268 JUMPI DUP1 PUSH4 0x70A08231 EQ PUSH2 0x290 JUMPI DUP1 PUSH4 0x715018A6 EQ PUSH2 0x2CC JUMPI DUP1 PUSH4 0x7E74A1ED EQ PUSH2 0x2E2 JUMPI PUSH2 0x13E JUMP JUMPDEST DUP1 PUSH4 0x6FDDE03 EQ PUSH2 0x14A JUMPI DUP1 PUSH4 0x7B18BDE EQ PUSH2 0x174 JUMPI DUP1 PUSH4 0x95EA7B3 EQ PUSH2 0x19C JUMPI DUP1 PUSH4 0x18160DDD EQ PUSH2 0x1D8 JUMPI DUP1 PUSH4 0x23B872DD EQ PUSH2 0x202 JUMPI PUSH2 0x13E JUMP JUMPDEST CALLDATASIZE PUSH2 0x13E JUMPI PUSH2 0x13C CALLER CALLVALUE PUSH2 0x4E6 JUMP JUMPDEST STOP JUMPDEST PUSH2 0x148 CALLER CALLVALUE PUSH2 0x4E6 JUMP JUMPDEST STOP JUMPDEST CALLVALUE DUP1 ISZERO PUSH2 0x155 JUMPI PUSH0 PUSH0 REVERT JUMPDEST POP PUSH2 0x15E PUSH2 0x598 JUMP JUMPDEST PUSH1 0x40 MLOAD PUSH2 0x16B SWAP2 SWAP1 PUSH2 0x152B JUMP JUMPDEST PUSH1 0x40 MLOAD DUP1 SWAP2 SUB SWAP1 RETURN JUMPDEST CALLVALUE DUP1 ISZERO PUSH2 0x17F JUMPI PUSH0 PUSH0 REVERT JUMPDEST POP PUSH2 0x19A PUSH1 0x4 DUP1 CALLDATASIZE SUB DUP2 ADD SWAP1 PUSH2 0x195 SWAP2 SWAP1 PUSH2 0x15E9 JUMP JUMPDEST PUSH2 0x628 JUMP JUMPDEST STOP JUMPDEST CALLVALUE DUP1 ISZERO PUSH2 0x1A7 JUMPI PUSH0 PUSH0 REVERT JUMPDEST POP PUSH2 0x1C2 PUSH1 0x4 DUP1 CALLDATASIZE SUB DUP2 ADD SWAP1 PUSH2 0x1BD SWAP2 SWAP1 PUSH2 0x1662 JUMP JUMPDEST PUSH2 0x76E JUMP JUMPDEST PUSH1 0x40 MLOAD PUSH2 0x1CF SWAP2 SWAP1 PUSH2 0x16BA JUMP JUMPDEST PUSH1 0x40 MLOAD DUP1 SWAP2 SUB SWAP1 RETURN JUMPDEST CALLVALUE DUP1 ISZERO PUSH2 0x1E3 JUMPI PUSH0 PUSH0 REVERT JUMPDEST POP PUSH2 0x1EC PUSH2 0x790 JUMP JUMPDEST PUSH1 0x40 MLOAD PUSH2 0x1F9 SWAP2 SWAP1 PUSH2 0x16E2 JUMP JUMPDEST PUSH1 0x40 MLOAD DUP1 SWAP2 SUB SWAP1 RETURN JUMPDEST CALLVALUE DUP1 ISZERO PUSH2 0x20D JUMPI PUSH0 PUSH0 REVERT JUMPDEST POP PUSH2 0x228 PUSH1 0x4 DUP1 CALLDATASIZE SUB DUP2 ADD SWAP1 PUSH2 0x223 SWAP2 SWAP1 PUSH2 0x16FB JUMP JUMPDEST PUSH2 0x799 JUMP JUMPDEST PUSH1 0x40 MLOAD PUSH2 0x235 SWAP2 SWAP1 PUSH2 0x16BA JUMP JUMPDEST PUSH1 0x40 MLOAD DUP1 SWAP2 SUB SWAP1 RETURN JUMPDEST CALLVALUE DUP1 ISZERO PUSH2 0x249 JUMPI PUSH0 PUSH0 REVERT JUMPDEST POP PUSH2 0x252 PUSH2 0x7C7 JUMP JUMPDEST PUSH1 0x40 MLOAD PUSH2 0x25F SWAP2 SWAP1 PUSH2 0x1766 JUMP JUMPDEST PUSH1 0x40 MLOAD DUP1 SWAP2 SUB SWAP1 RETURN JUMPDEST CALLVALUE DUP1 ISZERO PUSH2 0x273 JUMPI PUSH0 PUSH0 REVERT JUMPDEST POP PUSH2 0x28E PUSH1 0x4 DUP1 CALLDATASIZE SUB DUP2 ADD SWAP1 PUSH2 0x289 SWAP2 SWAP1 PUSH2 0x1662 JUMP JUMPDEST PUSH2 0x7CF JUMP JUMPDEST STOP JUMPDEST CALLVALUE DUP1 ISZERO PUSH2 0x29B JUMPI PUSH0 PUSH0 REVERT JUMPDEST POP PUSH2 0x2B6 PUSH1 0x4 DUP1 CALLDATASIZE SUB DUP2 ADD SWAP1 PUSH2 0x2B1 SWAP2 SWAP1 PUSH2 0x177F JUMP JUMPDEST PUSH2 0x7E5 JUMP JUMPDEST PUSH1 0x40 MLOAD PUSH2 0x2C3 SWAP2 SWAP1 PUSH2 0x16E2 JUMP JUMPDEST PUSH1 0x40 MLOAD DUP1 SWAP2 SUB SWAP1 RETURN JUMPDEST CALLVALUE DUP1 ISZERO PUSH2 0x2D7 JUMPI PUSH0 PUSH0 REVERT JUMPDEST POP PUSH2 0x2E0 PUSH2 0x82A JUMP JUMPDEST STOP JUMPDEST CALLVALUE DUP1 ISZERO PUSH2 0x2ED JUMPI PUSH0 PUSH0 REVERT JUMPDEST POP PUSH2 0x2F6 PUSH2 0x83D JUMP JUMPDEST PUSH1 0x40 MLOAD PUSH2 0x303 SWAP2 SWAP1 PUSH2 0x16E2 JUMP JUMPDEST PUSH1 0x40 MLOAD DUP1 SWAP2 SUB SWAP1 RETURN JUMPDEST CALLVALUE DUP1 ISZERO PUSH2 0x317 JUMPI PUSH0 PUSH0 REVERT JUMPDEST POP PUSH2 0x320 PUSH2 0x843 JUMP JUMPDEST PUSH1 0x40 MLOAD PUSH2 0x32D SWAP2 SWAP1 PUSH2 0x17B9 JUMP JUMPDEST PUSH1 0x40 MLOAD DUP1 SWAP2 SUB SWAP1 RETURN JUMPDEST CALLVALUE DUP1 ISZERO PUSH2 0x341 JUMPI PUSH0 PUSH0 REVERT JUMPDEST POP PUSH2 0x34A PUSH2 0x86B JUMP JUMPDEST PUSH1 0x40 MLOAD PUSH2 0x357 SWAP2 SWAP1 PUSH2 0x152B JUMP JUMPDEST PUSH1 0x40 MLOAD DUP1 SWAP2 SUB SWAP1 RETURN JUMPDEST CALLVALUE DUP1 ISZERO PUSH2 0x36B JUMPI PUSH0 PUSH0 REVERT JUMPDEST POP PUSH2 0x386 PUSH1 0x4 DUP1 CALLDATASIZE SUB DUP2 ADD SWAP1 PUSH2 0x381 SWAP2 SWAP1 PUSH2 0x1662 JUMP JUMPDEST PUSH2 0x8FB JUMP JUMPDEST STOP JUMPDEST CALLVALUE DUP1 ISZERO PUSH2 0x393 JUMPI PUSH0 PUSH0 REVERT JUMPDEST POP PUSH2 0x3AE PUSH1 0x4 DUP1 CALLDATASIZE SUB DUP2 ADD SWAP1 PUSH2 0x3A9 SWAP2 SWAP1 PUSH2 0x1662 JUMP JUMPDEST PUSH2 0x911 JUMP JUMPDEST PUSH1 0x40 MLOAD PUSH2 0x3BB SWAP2 SWAP1 PUSH2 0x16BA JUMP JUMPDEST PUSH1 0x40 MLOAD DUP1 SWAP2 SUB SWAP1 RETURN JUMPDEST CALLVALUE DUP1 ISZERO PUSH2 0x3CF JUMPI PUSH0 PUSH0 REVERT JUMPDEST POP PUSH2 0x3EA PUSH1 0x4 DUP1 CALLDATASIZE SUB DUP2 ADD SWAP1 PUSH2 0x3E5 SWAP2 SWAP1 PUSH2 0x16FB JUMP JUMPDEST PUSH2 0x933 JUMP JUMPDEST STOP JUMPDEST CALLVALUE DUP1 ISZERO PUSH2 0x3F7 JUMPI PUSH0 PUSH0 REVERT JUMPDEST POP PUSH2 0x412 PUSH1 0x4 DUP1 CALLDATASIZE SUB DUP2 ADD SWAP1 PUSH2 0x40D SWAP2 SWAP1 PUSH2 0x18FE JUMP JUMPDEST PUSH2 0x9BC JUMP JUMPDEST STOP JUMPDEST CALLVALUE DUP1 ISZERO PUSH2 0x41F JUMPI PUSH0 PUSH0 REVERT JUMPDEST POP PUSH2 0x43A PUSH1 0x4 DUP1 CALLDATASIZE SUB DUP2 ADD SWAP1 PUSH2 0x435 SWAP2 SWAP1 PUSH2 0x1945 JUMP JUMPDEST PUSH2 0xA9D JUMP JUMPDEST STOP JUMPDEST CALLVALUE DUP1 ISZERO PUSH2 0x447 JUMPI PUSH0 PUSH0 REVERT JUMPDEST POP PUSH2 0x462 PUSH1 0x4 DUP1 CALLDATASIZE SUB DUP2 ADD SWAP1 PUSH2 0x45D SWAP2 SWAP1 PUSH2 0x18FE JUMP JUMPDEST PUSH2 0xAEA JUMP JUMPDEST STOP JUMPDEST PUSH2 0x46C PUSH2 0xBCB JUMP JUMPDEST PUSH1 0x40 MLOAD PUSH2 0x479 SWAP2 SWAP1 PUSH2 0x16E2 JUMP JUMPDEST PUSH1 0x40 MLOAD DUP1 SWAP2 SUB SWAP1 RETURN JUMPDEST CALLVALUE DUP1 ISZERO PUSH2 0x48D JUMPI PUSH0 PUSH0 REVERT JUMPDEST POP PUSH2 0x4A8 PUSH1 0x4 DUP1 CALLDATASIZE SUB DUP2 ADD SWAP1 PUSH2 0x4A3 SWAP2 SWAP1 PUSH2 0x1970 JUMP JUMPDEST PUSH2 0xBE9 JUMP JUMPDEST PUSH1 0x40 MLOAD PUSH2 0x4B5 SWAP2 SWAP1 PUSH2 0x16E2 JUMP JUMPDEST PUSH1 0x40 MLOAD DUP1 SWAP2 SUB SWAP1 RETURN JUMPDEST CALLVALUE DUP1 ISZERO PUSH2 0x4C9 JUMPI PUSH0 PUSH0 REVERT JUMPDEST POP PUSH2 0x4E4 PUSH1 0x4 DUP1 CALLDATASIZE SUB DUP2 ADD SWAP1 PUSH2 0x4DF SWAP2 SWAP1 PUSH2 0x177F JUMP JUMPDEST PUSH2 0xC6B JUMP JUMPDEST STOP JUMPDEST PUSH0 DUP2 GT PUSH2 0x528 JUMPI PUSH1 0x40 MLOAD PUSH32 0x8C379A000000000000000000000000000000000000000000000000000000000 DUP2 MSTORE PUSH1 0x4 ADD PUSH2 0x51F SWAP1 PUSH2 0x19F8 JUMP JUMPDEST PUSH1 0x40 MLOAD DUP1 SWAP2 SUB SWAP1 REVERT JUMPDEST PUSH0 PUSH1 0x8 SLOAD DUP3 PUSH2 0x537 SWAP2 SWAP1 PUSH2 0x1A43 JUMP JUMPDEST SWAP1 POP PUSH2 0x543 DUP4 DUP3 PUSH2 0xCEF JUMP JUMPDEST DUP3 PUSH20 0xFFFFFFFFFFFFFFFFFFFFFFFFFFFFFFFFFFFFFFFF AND PUSH32 0x90890809C654F11D6E72A28FA60149770A0D11EC6C92319D6CEB2BB0A4EA1A15 DUP4 DUP4 PUSH1 0x40 MLOAD PUSH2 0x58B SWAP3 SWAP2 SWAP1 PUSH2 0x1A84 JUMP JUMPDEST PUSH1 0x40 MLOAD DUP1 SWAP2 SUB SWAP1 LOG2 POP POP POP JUMP JUMPDEST PUSH1 0x60 PUSH1 0x6 DUP1 SLOAD PUSH2 0x5A7 SWAP1 PUSH2 0x1AD8 JUMP JUMPDEST DUP1 PUSH1 0x1F ADD PUSH1 0x20 DUP1 SWAP2 DIV MUL PUSH1 0x20 ADD PUSH1 0x40 MLOAD SWAP1 DUP2 ADD PUSH1 0x40 MSTORE DUP1 SWAP3 SWAP2 SWAP1 DUP2 DUP2 MSTORE PUSH1 0x20 ADD DUP3 DUP1 SLOAD PUSH2 0x5D3 SWAP1 PUSH2 0x1AD8 JUMP JUMPDEST DUP1 ISZERO PUSH2 0x61E JUMPI DUP1 PUSH1 0x1F LT PUSH2 0x5F5 JUMPI PUSH2 0x100 DUP1 DUP4 SLOAD DIV MUL DUP4 MSTORE SWAP2 PUSH1 0x20 ADD SWAP2 PUSH2 0x61E JUMP JUMPDEST DUP3 ADD SWAP2 SWAP1 PUSH0 MSTORE PUSH1 0x20 PUSH0 KECCAK256 SWAP1 JUMPDEST DUP2 SLOAD DUP2 MSTORE SWAP1 PUSH1 0x1 ADD SWAP1 PUSH1 0x20 ADD DUP1 DUP4 GT PUSH2 0x601 JUMPI DUP3 SWAP1 SUB PUSH1 0x1F AND DUP3 ADD SWAP2 JUMPDEST POP POP POP POP POP SWAP1 POP SWAP1 JUMP JUMPDEST PUSH2 0x630 PUSH2 0xD6E JUMP JUMPDEST DUP1 SELFBALANCE LT ISZERO PUSH2 0x673 JUMPI PUSH1 0x40 MLOAD PUSH32 0x8C379A000000000000000000000000000000000000000000000000000000000 DUP2 MSTORE PUSH1 0x4 ADD PUSH2 0x66A SWAP1 PUSH2 0x1B52 JUMP JUMPDEST PUSH1 0x40 MLOAD DUP1 SWAP2 SUB SWAP1 REVERT JUMPDEST PUSH0 DUP3 PUSH20 0xFFFFFFFFFFFFFFFFFFFFFFFFFFFFFFFFFFFFFFFF AND DUP3 PUSH1 0x40 MLOAD PUSH2 0x698 SWAP1 PUSH2 0x1B9D JUMP JUMPDEST PUSH0 PUSH1 0x40 MLOAD DUP1 DUP4 SUB DUP2 DUP6 DUP8 GAS CALL SWAP3 POP POP POP RETURNDATASIZE DUP1 PUSH0 DUP2 EQ PUSH2 0x6D2 JUMPI PUSH1 0x40 MLOAD SWAP2 POP PUSH1 0x1F NOT PUSH1 0x3F RETURNDATASIZE ADD AND DUP3 ADD PUSH1 0x40 MSTORE RETURNDATASIZE DUP3 MSTORE RETURNDATASIZE PUSH0 PUSH1 0x20 DUP5 ADD RETURNDATACOPY PUSH2 0x6D7 JUMP JUMPDEST PUSH1 0x60 SWAP2 POP JUMPDEST POP POP SWAP1 POP DUP1 PUSH2 0x71B JUMPI PUSH1 0x40 MLOAD PUSH32 0x8C379A000000000000000000000000000000000000000000000000000000000 DUP2 MSTORE PUSH1 0x4 ADD PUSH2 0x712 SWAP1 PUSH2 0x1BFB JUMP JUMPDEST PUSH1 0x40 MLOAD DUP1 SWAP2 SUB SWAP1 REVERT JUMPDEST DUP3 PUSH20 0xFFFFFFFFFFFFFFFFFFFFFFFFFFFFFFFFFFFFFFFF AND PUSH32 0x884EDAD9CE6FA2440D8A54CC123490EB96D2768479D49FF9C7366125A9424364 DUP4 PUSH1 0x40 MLOAD PUSH2 0x761 SWAP2 SWAP1 PUSH2 0x16E2 JUMP JUMPDEST PUSH1 0x40 MLOAD DUP1 SWAP2 SUB SWAP1 LOG2 POP POP POP JUMP JUMPDEST PUSH0 PUSH0 PUSH2 0x778 PUSH2 0xDF5 JUMP JUMPDEST SWAP1 POP PUSH2 0x785 DUP2 DUP6 DUP6 PUSH2 0xDFC JUMP JUMPDEST PUSH1 0x1 SWAP2 POP POP SWAP3 SWAP2 POP POP JUMP JUMPDEST PUSH0 PUSH1 0x2 SLOAD SWAP1 POP SWAP1 JUMP JUMPDEST PUSH0 PUSH0 PUSH2 0x7A3 PUSH2 0xDF5 JUMP JUMPDEST SWAP1 POP PUSH2 0x7B0 DUP6 DUP3 DUP6 PUSH2 0xE0E JUMP JUMPDEST PUSH2 0x7BB DUP6 DUP6 DUP6 PUSH2 0xEA1 JUMP JUMPDEST PUSH1 0x1 SWAP2 POP POP SWAP4 SWAP3 POP POP POP JUMP JUMPDEST PUSH0 PUSH1 0x12 SWAP1 POP SWAP1 JUMP JUMPDEST PUSH2 0x7D7 PUSH2 0xD6E JUMP JUMPDEST PUSH2 0x7E1 DUP3 DUP3 PUSH2 0xCEF JUMP JUMPDEST POP POP JUMP JUMPDEST PUSH0 PUSH0 PUSH0 DUP4 PUSH20 0xFFFFFFFFFFFFFFFFFFFFFFFFFFFFFFFFFFFFFFFF AND PUSH20 0xFFFFFFFFFFFFFFFFFFFFFFFFFFFFFFFFFFFFFFFF AND DUP2 MSTORE PUSH1 0x20 ADD SWAP1 DUP2 MSTORE PUSH1 0x20 ADD PUSH0 KECCAK256 SLOAD SWAP1 POP SWAP2 SWAP1 POP JUMP JUMPDEST PUSH2 0x832 PUSH2 0xD6E JUMP JUMPDEST PUSH2 0x83B PUSH0 PUSH2 0xF91 JUMP JUMPDEST JUMP JUMPDEST PUSH1 0x8 SLOAD DUP2 JUMP JUMPDEST PUSH0 PUSH1 0x5 PUSH0 SWAP1 SLOAD SWAP1 PUSH2 0x100 EXP SWAP1 DIV PUSH20 0xFFFFFFFFFFFFFFFFFFFFFFFFFFFFFFFFFFFFFFFF AND SWAP1 POP SWAP1 JUMP JUMPDEST PUSH1 0x60 PUSH1 0x7 DUP1 SLOAD PUSH2 0x87A SWAP1 PUSH2 0x1AD8 JUMP JUMPDEST DUP1 PUSH1 0x1F ADD PUSH1 0x20 DUP1 SWAP2 DIV MUL PUSH1 0x20 ADD PUSH1 0x40 MLOAD SWAP1 DUP2 ADD PUSH1 0x40 MSTORE DUP1 SWAP3 SWAP2 SWAP1 DUP2 DUP2 MSTORE PUSH1 0x20 ADD DUP3 DUP1 SLOAD PUSH2 0x8A6 SWAP1 PUSH2 0x1AD8 JUMP JUMPDEST DUP1 ISZERO PUSH2 0x8F1 JUMPI DUP1 PUSH1 0x1F LT PUSH2 0x8C8 JUMPI PUSH2 0x100 DUP1 DUP4 SLOAD DIV MUL DUP4 MSTORE SWAP2 PUSH1 0x20 ADD SWAP2 PUSH2 0x8F1 JUMP JUMPDEST DUP3 ADD SWAP2 SWAP1 PUSH0 MSTORE PUSH1 0x20 PUSH0 KECCAK256 SWAP1 JUMPDEST DUP2 SLOAD DUP2 MSTORE SWAP1 PUSH1 0x1 ADD SWAP1 PUSH1 0x20 ADD DUP1 DUP4 GT PUSH2 0x8D4 JUMPI DUP3 SWAP1 SUB PUSH1 0x1F AND DUP3 ADD SWAP2 JUMPDEST POP POP POP POP POP SWAP1 POP SWAP1 JUMP JUMPDEST PUSH2 0x903 PUSH2 0xD6E JUMP JUMPDEST PUSH2 0x90D DUP3 DUP3 PUSH2 0x1054 JUMP JUMPDEST POP POP JUMP JUMPDEST PUSH0 PUSH0 PUSH2 0x91B PUSH2 0xDF5 JUMP JUMPDEST SWAP1 POP PUSH2 0x928 DUP2 DUP6 DUP6 PUSH2 0xEA1 JUMP JUMPDEST PUSH1 0x1 SWAP2 POP POP SWAP3 SWAP2 POP POP JUMP JUMPDEST PUSH2 0x93B PUSH2 0xD6E JUMP JUMPDEST DUP3 PUSH20 0xFFFFFFFFFFFFFFFFFFFFFFFFFFFFFFFFFFFFFFFF AND PUSH4 0xA9059CBB DUP4 DUP4 PUSH1 0x40 MLOAD DUP4 PUSH4 0xFFFFFFFF AND PUSH1 0xE0 SHL DUP2 MSTORE PUSH1 0x4 ADD PUSH2 0x976 SWAP3 SWAP2 SWAP1 PUSH2 0x1C19 JUMP JUMPDEST PUSH1 0x20 PUSH1 0x40 MLOAD DUP1 DUP4 SUB DUP2 PUSH0 DUP8 GAS CALL ISZERO DUP1 ISZERO PUSH2 0x992 JUMPI RETURNDATASIZE PUSH0 PUSH0 RETURNDATACOPY RETURNDATASIZE PUSH0 REVERT JUMPDEST POP POP POP POP PUSH1 0x40 MLOAD RETURNDATASIZE PUSH1 0x1F NOT PUSH1 0x1F DUP3 ADD AND DUP3 ADD DUP1 PUSH1 0x40 MSTORE POP DUP2 ADD SWAP1 PUSH2 0x9B6 SWAP2 SWAP1 PUSH2 0x1C6A JUMP JUMPDEST POP POP POP POP JUMP JUMPDEST PUSH2 0x9C4 PUSH2 0xD6E JUMP JUMPDEST PUSH0 PUSH1 0x7 DUP1 SLOAD PUSH2 0x9D2 SWAP1 PUSH2 0x1AD8 JUMP JUMPDEST DUP1 PUSH1 0x1F ADD PUSH1 0x20 DUP1 SWAP2 DIV MUL PUSH1 0x20 ADD PUSH1 0x40 MLOAD SWAP1 DUP2 ADD PUSH1 0x40 MSTORE DUP1 SWAP3 SWAP2 SWAP1 DUP2 DUP2 MSTORE PUSH1 0x20 ADD DUP3 DUP1 SLOAD PUSH2 0x9FE SWAP1 PUSH2 0x1AD8 JUMP JUMPDEST DUP1 ISZERO PUSH2 0xA49 JUMPI DUP1 PUSH1 0x1F LT PUSH2 0xA20 JUMPI PUSH2 0x100 DUP1 DUP4 SLOAD DIV MUL DUP4 MSTORE SWAP2 PUSH1 0x20 ADD SWAP2 PUSH2 0xA49 JUMP JUMPDEST DUP3 ADD SWAP2 SWAP1 PUSH0 MSTORE PUSH1 0x20 PUSH0 KECCAK256 SWAP1 JUMPDEST DUP2 SLOAD DUP2 MSTORE SWAP1 PUSH1 0x1 ADD SWAP1 PUSH1 0x20 ADD DUP1 DUP4 GT PUSH2 0xA2C JUMPI DUP3 SWAP1 SUB PUSH1 0x1F AND DUP3 ADD SWAP2 JUMPDEST POP POP POP POP POP SWAP1 POP DUP2 PUSH1 0x7 SWAP1 DUP2 PUSH2 0xA5F SWAP2 SWAP1 PUSH2 0x1E35 JUMP JUMPDEST POP PUSH32 0xD7AD744CC76EBAD190995130EEC8BA506B3605612D23B5B9CEF8E27F14D138B4 DUP2 DUP4 PUSH1 0x40 MLOAD PUSH2 0xA91 SWAP3 SWAP2 SWAP1 PUSH2 0x1F04 JUMP JUMPDEST PUSH1 0x40 MLOAD DUP1 SWAP2 SUB SWAP1 LOG1 POP POP JUMP JUMPDEST PUSH2 0xAA5 PUSH2 0xD6E JUMP JUMPDEST PUSH32 0x4AC9052A820BF4F8C02D7588587CAE835573B5B99EA7AD4CA002F17F319F7186 PUSH1 0x8 SLOAD DUP3 PUSH1 0x40 MLOAD PUSH2 0xAD8 SWAP3 SWAP2 SWAP1 PUSH2 0x1A84 JUMP JUMPDEST PUSH1 0x40 MLOAD DUP1 SWAP2 SUB SWAP1 LOG1 DUP1 PUSH1 0x8 DUP2 SWAP1 SSTORE POP POP JUMP JUMPDEST PUSH2 0xAF2 PUSH2 0xD6E JUMP JUMPDEST PUSH0 PUSH1 0x6 DUP1 SLOAD PUSH2 0xB00 SWAP1 PUSH2 0x1AD8 JUMP JUMPDEST DUP1 PUSH1 0x1F ADD PUSH1 0x20 DUP1 SWAP2 DIV MUL PUSH1 0x20 ADD PUSH1 0x40 MLOAD SWAP1 DUP2 ADD PUSH1 0x40 MSTORE DUP1 SWAP3 SWAP2 SWAP1 DUP2 DUP2 MSTORE PUSH1 0x20 ADD DUP3 DUP1 SLOAD PUSH2 0xB2C SWAP1 PUSH2 0x1AD8 JUMP JUMPDEST DUP1 ISZERO PUSH2 0xB77 JUMPI DUP1 PUSH1 0x1F LT PUSH2 0xB4E JUMPI PUSH2 0x100 DUP1 DUP4 SLOAD DIV MUL DUP4 MSTORE SWAP2 PUSH1 0x20 ADD SWAP2 PUSH2 0xB77 JUMP JUMPDEST DUP3 ADD SWAP2 SWAP1 PUSH0 MSTORE PUSH1 0x20 PUSH0 KECCAK256 SWAP1 JUMPDEST DUP2 SLOAD DUP2 MSTORE SWAP1 PUSH1 0x1 ADD SWAP1 PUSH1 0x20 ADD DUP1 DUP4 GT PUSH2 0xB5A JUMPI DUP3 SWAP1 SUB PUSH1 0x1F AND DUP3 ADD SWAP2 JUMPDEST POP POP POP POP POP SWAP1 POP DUP2 PUSH1 0x6 SWAP1 DUP2 PUSH2 0xB8D SWAP2 SWAP1 PUSH2 0x1E35 JUMP JUMPDEST POP PUSH32 0x6C20B91D1723B78732EBA64FF11EBD7966A6E4AF568A00FA4F6B72C20F58B02A DUP2 DUP4 PUSH1 0x40 MLOAD PUSH2 0xBBF SWAP3 SWAP2 SWAP1 PUSH2 0x1F04 JUMP JUMPDEST PUSH1 0x40 MLOAD DUP1 SWAP2 SUB SWAP1 LOG1 POP POP JUMP JUMPDEST PUSH0 PUSH2 0xBD6 CALLER CALLVALUE PUSH2 0x4E6 JUMP JUMPDEST PUSH1 0x8 SLOAD CALLVALUE PUSH2 0xBE4 SWAP2 SWAP1 PUSH2 0x1A43 JUMP JUMPDEST SWAP1 POP SWAP1 JUMP JUMPDEST PUSH0 PUSH1 0x1 PUSH0 DUP5 PUSH20 0xFFFFFFFFFFFFFFFFFFFFFFFFFFFFFFFFFFFFFFFF AND PUSH20 0xFFFFFFFFFFFFFFFFFFFFFFFFFFFFFFFFFFFFFFFF AND DUP2 MSTORE PUSH1 0x20 ADD SWAP1 DUP2 MSTORE PUSH1 0x20 ADD PUSH0 KECCAK256 PUSH0 DUP4 PUSH20 0xFFFFFFFFFFFFFFFFFFFFFFFFFFFFFFFFFFFFFFFF AND PUSH20 0xFFFFFFFFFFFFFFFFFFFFFFFFFFFFFFFFFFFFFFFF AND DUP2 MSTORE PUSH1 0x20 ADD SWAP1 DUP2 MSTORE PUSH1 0x20 ADD PUSH0 KECCAK256 SLOAD SWAP1 POP SWAP3 SWAP2 POP POP JUMP JUMPDEST PUSH2 0xC73 PUSH2 0xD6E JUMP JUMPDEST PUSH0 PUSH20 0xFFFFFFFFFFFFFFFFFFFFFFFFFFFFFFFFFFFFFFFF AND DUP2 PUSH20 0xFFFFFFFFFFFFFFFFFFFFFFFFFFFFFFFFFFFFFFFF AND SUB PUSH2 0xCE3 JUMPI PUSH0 PUSH1 0x40 MLOAD PUSH32 0x1E4FBDF700000000000000000000000000000000000000000000000000000000 DUP2 MSTORE PUSH1 0x4 ADD PUSH2 0xCDA SWAP2 SWAP1 PUSH2 0x17B9 JUMP JUMPDEST PUSH1 0x40 MLOAD DUP1 SWAP2 SUB SWAP1 REVERT JUMPDEST PUSH2 0xCEC DUP2 PUSH2 0xF91 JUMP JUMPDEST POP JUMP JUMPDEST PUSH0 PUSH20 0xFFFFFFFFFFFFFFFFFFFFFFFFFFFFFFFFFFFFFFFF AND DUP3 PUSH20 0xFFFFFFFFFFFFFFFFFFFFFFFFFFFFFFFFFFFFFFFF AND SUB PUSH2 0xD5F JUMPI PUSH0 PUSH1 0x40 MLOAD PUSH32 0xEC442F0500000000000000000000000000000000000000000000000000000000 DUP2 MSTORE PUSH1 0x4 ADD PUSH2 0xD56 SWAP2 SWAP1 PUSH2 0x17B9 JUMP JUMPDEST PUSH1 0x40 MLOAD DUP1 SWAP2 SUB SWAP1 REVERT JUMPDEST PUSH2 0xD6A PUSH0 DUP4 DUP4 PUSH2 0x10D3 JUMP JUMPDEST POP POP JUMP JUMPDEST PUSH2 0xD76 PUSH2 0xDF5 JUMP JUMPDEST PUSH20 0xFFFFFFFFFFFFFFFFFFFFFFFFFFFFFFFFFFFFFFFF AND PUSH2 0xD94 PUSH2 0x843 JUMP JUMPDEST PUSH20 0xFFFFFFFFFFFFFFFFFFFFFFFFFFFFFFFFFFFFFFFF AND EQ PUSH2 0xDF3 JUMPI PUSH2 0xDB7 PUSH2 0xDF5 JUMP JUMPDEST PUSH1 0x40 MLOAD PUSH32 0x118CDAA700000000000000000000000000000000000000000000000000000000 DUP2 MSTORE PUSH1 0x4 ADD PUSH2 0xDEA SWAP2 SWAP1 PUSH2 0x17B9 JUMP JUMPDEST PUSH1 0x40 MLOAD DUP1 SWAP2 SUB SWAP1 REVERT JUMPDEST JUMP JUMPDEST PUSH0 CALLER SWAP1 POP SWAP1 JUMP JUMPDEST PUSH2 0xE09 DUP4 DUP4 DUP4 PUSH1 0x1 PUSH2 0x12EC JUMP JUMPDEST POP POP POP JUMP JUMPDEST PUSH0 PUSH2 0xE19 DUP5 DUP5 PUSH2 0xBE9 JUMP JUMPDEST SWAP1 POP PUSH32 0xFFFFFFFFFFFFFFFFFFFFFFFFFFFFFFFFFFFFFFFFFFFFFFFFFFFFFFFFFFFFFFFF DUP2 LT ISZERO PUSH2 0xE9B JUMPI DUP2 DUP2 LT ISZERO PUSH2 0xE8C JUMPI DUP3 DUP2 DUP4 PUSH1 0x40 MLOAD PUSH32 0xFB8F41B200000000000000000000000000000000000000000000000000000000 DUP2 MSTORE PUSH1 0x4 ADD PUSH2 0xE83 SWAP4 SWAP3 SWAP2 SWAP1 PUSH2 0x1F39 JUMP JUMPDEST PUSH1 0x40 MLOAD DUP1 SWAP2 SUB SWAP1 REVERT JUMPDEST PUSH2 0xE9A DUP5 DUP5 DUP5 DUP5 SUB PUSH0 PUSH2 0x12EC JUMP JUMPDEST JUMPDEST POP POP POP POP JUMP JUMPDEST PUSH0 PUSH20 0xFFFFFFFFFFFFFFFFFFFFFFFFFFFFFFFFFFFFFFFF AND DUP4 PUSH20 0xFFFFFFFFFFFFFFFFFFFFFFFFFFFFFFFFFFFFFFFF AND SUB PUSH2 0xF11 JUMPI PUSH0 PUSH1 0x40 MLOAD PUSH32 0x96C6FD1E00000000000000000000000000000000000000000000000000000000 DUP2 MSTORE PUSH1 0x4 ADD PUSH2 0xF08 SWAP2 SWAP1 PUSH2 0x17B9 JUMP JUMPDEST PUSH1 0x40 MLOAD DUP1 SWAP2 SUB SWAP1 REVERT JUMPDEST PUSH0 PUSH20 0xFFFFFFFFFFFFFFFFFFFFFFFFFFFFFFFFFFFFFFFF AND DUP3 PUSH20 0xFFFFFFFFFFFFFFFFFFFFFFFFFFFFFFFFFFFFFFFF AND SUB PUSH2 0xF81 JUMPI PUSH0 PUSH1 0x40 MLOAD PUSH32 0xEC442F0500000000000000000000000000000000000000000000000000000000 DUP2 MSTORE PUSH1 0x4 ADD PUSH2 0xF78 SWAP2 SWAP1 PUSH2 0x17B9 JUMP JUMPDEST PUSH1 0x40 MLOAD DUP1 SWAP2 SUB SWAP1 REVERT JUMPDEST PUSH2 0xF8C DUP4 DUP4 DUP4 PUSH2 0x10D3 JUMP JUMPDEST POP POP POP JUMP JUMPDEST PUSH0 PUSH1 0x5 PUSH0 SWAP1 SLOAD SWAP1 PUSH2 0x100 EXP SWAP1 DIV PUSH20 0xFFFFFFFFFFFFFFFFFFFFFFFFFFFFFFFFFFFFFFFF AND SWAP1 POP DUP2 PUSH1 0x5 PUSH0 PUSH2 0x100 EXP DUP2 SLOAD DUP2 PUSH20 0xFFFFFFFFFFFFFFFFFFFFFFFFFFFFFFFFFFFFFFFF MUL NOT AND SWAP1 DUP4 PUSH20 0xFFFFFFFFFFFFFFFFFFFFFFFFFFFFFFFFFFFFFFFF AND MUL OR SWAP1 SSTORE POP DUP2 PUSH20 0xFFFFFFFFFFFFFFFFFFFFFFFFFFFFFFFFFFFFFFFF AND DUP2 PUSH20 0xFFFFFFFFFFFFFFFFFFFFFFFFFFFFFFFFFFFFFFFF AND PUSH32 0x8BE0079C531659141344CD1FD0A4F28419497F9722A3DAAFE3B4186F6B6457E0 PUSH1 0x40 MLOAD PUSH1 0x40 MLOAD DUP1 SWAP2 SUB SWAP1 LOG3 POP POP JUMP JUMPDEST PUSH0 PUSH20 0xFFFFFFFFFFFFFFFFFFFFFFFFFFFFFFFFFFFFFFFF AND DUP3 PUSH20 0xFFFFFFFFFFFFFFFFFFFFFFFFFFFFFFFFFFFFFFFF AND SUB PUSH2 0x10C4 JUMPI PUSH0 PUSH1 0x40 MLOAD PUSH32 0x96C6FD1E00000000000000000000000000000000000000000000000000000000 DUP2 MSTORE PUSH1 0x4 ADD PUSH2 0x10BB SWAP2 SWAP1 PUSH2 0x17B9 JUMP JUMPDEST PUSH1 0x40 MLOAD DUP1 SWAP2 SUB SWAP1 REVERT JUMPDEST PUSH2 0x10CF DUP3 PUSH0 DUP4 PUSH2 0x10D3 JUMP JUMPDEST POP POP JUMP JUMPDEST PUSH0 PUSH20 0xFFFFFFFFFFFFFFFFFFFFFFFFFFFFFFFFFFFFFFFF AND DUP4 PUSH20 0xFFFFFFFFFFFFFFFFFFFFFFFFFFFFFFFFFFFFFFFF AND SUB PUSH2 0x1123 JUMPI DUP1 PUSH1 0x2 PUSH0 DUP3 DUP3 SLOAD PUSH2 0x1117 SWAP2 SWAP1 PUSH2 0x1F6E JUMP JUMPDEST SWAP3 POP POP DUP2 SWAP1 SSTORE POP PUSH2 0x11F1 JUMP JUMPDEST PUSH0 PUSH0 PUSH0 DUP6 PUSH20 0xFFFFFFFFFFFFFFFFFFFFFFFFFFFFFFFFFFFFFFFF AND PUSH20 0xFFFFFFFFFFFFFFFFFFFFFFFFFFFFFFFFFFFFFFFF AND DUP2 MSTORE PUSH1 0x20 ADD SWAP1 DUP2 MSTORE PUSH1 0x20 ADD PUSH0 KECCAK256 SLOAD SWAP1 POP DUP2 DUP2 LT ISZERO PUSH2 0x11AC JUMPI DUP4 DUP2 DUP4 PUSH1 0x40 MLOAD PUSH32 0xE450D38C00000000000000000000000000000000000000000000000000000000 DUP2 MSTORE PUSH1 0x4 ADD PUSH2 0x11A3 SWAP4 SWAP3 SWAP2 SWAP1 PUSH2 0x1F39 JUMP JUMPDEST PUSH1 0x40 MLOAD DUP1 SWAP2 SUB SWAP1 REVERT JUMPDEST DUP2 DUP2 SUB PUSH0 PUSH0 DUP7 PUSH20 0xFFFFFFFFFFFFFFFFFFFFFFFFFFFFFFFFFFFFFFFF AND PUSH20 0xFFFFFFFFFFFFFFFFFFFFFFFFFFFFFFFFFFFFFFFF AND DUP2 MSTORE PUSH1 0x20 ADD SWAP1 DUP2 MSTORE PUSH1 0x20 ADD PUSH0 KECCAK256 DUP2 SWAP1 SSTORE POP POP JUMPDEST PUSH0 PUSH20 0xFFFFFFFFFFFFFFFFFFFFFFFFFFFFFFFFFFFFFFFF AND DUP3 PUSH20 0xFFFFFFFFFFFFFFFFFFFFFFFFFFFFFFFFFFFFFFFF AND SUB PUSH2 0x1238 JUMPI DUP1 PUSH1 0x2 PUSH0 DUP3 DUP3 SLOAD SUB SWAP3 POP POP DUP2 SWAP1 SSTORE POP PUSH2 0x1282 JUMP JUMPDEST DUP1 PUSH0 PUSH0 DUP5 PUSH20 0xFFFFFFFFFFFFFFFFFFFFFFFFFFFFFFFFFFFFFFFF AND PUSH20 0xFFFFFFFFFFFFFFFFFFFFFFFFFFFFFFFFFFFFFFFF AND DUP2 MSTORE PUSH1 0x20 ADD SWAP1 DUP2 MSTORE PUSH1 0x20 ADD PUSH0 KECCAK256 PUSH0 DUP3 DUP3 SLOAD ADD SWAP3 POP POP DUP2 SWAP1 SSTORE POP JUMPDEST DUP2 PUSH20 0xFFFFFFFFFFFFFFFFFFFFFFFFFFFFFFFFFFFFFFFF AND DUP4 PUSH20 0xFFFFFFFFFFFFFFFFFFFFFFFFFFFFFFFFFFFFFFFF AND PUSH32 0xDDF252AD1BE2C89B69C2B068FC378DAA952BA7F163C4A11628F55A4DF523B3EF DUP4 PUSH1 0x40 MLOAD PUSH2 0x12DF SWAP2 SWAP1 PUSH2 0x16E2 JUMP JUMPDEST PUSH1 0x40 MLOAD DUP1 SWAP2 SUB SWAP1 LOG3 POP POP POP JUMP JUMPDEST PUSH0 PUSH20 0xFFFFFFFFFFFFFFFFFFFFFFFFFFFFFFFFFFFFFFFF AND DUP5 PUSH20 0xFFFFFFFFFFFFFFFFFFFFFFFFFFFFFFFFFFFFFFFF AND SUB PUSH2 0x135C JUMPI PUSH0 PUSH1 0x40 MLOAD PUSH32 0xE602DF0500000000000000000000000000000000000000000000000000000000 DUP2 MSTORE PUSH1 0x4 ADD PUSH2 0x1353 SWAP2 SWAP1 PUSH2 0x17B9 JUMP JUMPDEST PUSH1 0x40 MLOAD DUP1 SWAP2 SUB SWAP1 REVERT JUMPDEST PUSH0 PUSH20 0xFFFFFFFFFFFFFFFFFFFFFFFFFFFFFFFFFFFFFFFF AND DUP4 PUSH20 0xFFFFFFFFFFFFFFFFFFFFFFFFFFFFFFFFFFFFFFFF AND SUB PUSH2 0x13CC JUMPI PUSH0 PUSH1 0x40 MLOAD PUSH32 0x94280D6200000000000000000000000000000000000000000000000000000000 DUP2 MSTORE PUSH1 0x4 ADD PUSH2 0x13C3 SWAP2 SWAP1 PUSH2 0x17B9 JUMP JUMPDEST PUSH1 0x40 MLOAD DUP1 SWAP2 SUB SWAP1 REVERT JUMPDEST DUP2 PUSH1 0x1 PUSH0 DUP7 PUSH20 0xFFFFFFFFFFFFFFFFFFFFFFFFFFFFFFFFFFFFFFFF AND PUSH20 0xFFFFFFFFFFFFFFFFFFFFFFFFFFFFFFFFFFFFFFFF AND DUP2 MSTORE PUSH1 0x20 ADD SWAP1 DUP2 MSTORE PUSH1 0x20 ADD PUSH0 KECCAK256 PUSH0 DUP6 PUSH20 0xFFFFFFFFFFFFFFFFFFFFFFFFFFFFFFFFFFFFFFFF AND PUSH20 0xFFFFFFFFFFFFFFFFFFFFFFFFFFFFFFFFFFFFFFFF AND DUP2 MSTORE PUSH1 0x20 ADD SWAP1 DUP2 MSTORE PUSH1 0x20 ADD PUSH0 KECCAK256 DUP2 SWAP1 SSTORE POP DUP1 ISZERO PUSH2 0x14B5 JUMPI DUP3 PUSH20 0xFFFFFFFFFFFFFFFFFFFFFFFFFFFFFFFFFFFFFFFF AND DUP5 PUSH20 0xFFFFFFFFFFFFFFFFFFFFFFFFFFFFFFFFFFFFFFFF AND PUSH32 0x8C5BE1E5EBEC7D5BD14F71427D1E84F3DD0314C0F7B2291E5B200AC8C7C3B925 DUP5 PUSH1 0x40 MLOAD PUSH2 0x14AC SWAP2 SWAP1 PUSH2 0x16E2 JUMP JUMPDEST PUSH1 0x40 MLOAD DUP1 SWAP2 SUB SWAP1 LOG3 JUMPDEST POP POP POP POP JUMP JUMPDEST PUSH0 DUP2 MLOAD SWAP1 POP SWAP2 SWAP1 POP JUMP JUMPDEST PUSH0 DUP3 DUP3 MSTORE PUSH1 0x20 DUP3 ADD SWAP1 POP SWAP3 SWAP2 POP POP JUMP JUMPDEST DUP3 DUP2 DUP4 MCOPY PUSH0 DUP4 DUP4 ADD MSTORE POP POP POP JUMP JUMPDEST PUSH0 PUSH1 0x1F NOT PUSH1 0x1F DUP4 ADD AND SWAP1 POP SWAP2 SWAP1 POP JUMP JUMPDEST PUSH0 PUSH2 0x14FD DUP3 PUSH2 0x14BB JUMP JUMPDEST PUSH2 0x1507 DUP2 DUP6 PUSH2 0x14C5 JUMP JUMPDEST SWAP4 POP PUSH2 0x1517 DUP2 DUP6 PUSH1 0x20 DUP7 ADD PUSH2 0x14D5 JUMP JUMPDEST PUSH2 0x1520 DUP2 PUSH2 0x14E3 JUMP JUMPDEST DUP5 ADD SWAP2 POP POP SWAP3 SWAP2 POP POP JUMP JUMPDEST PUSH0 PUSH1 0x20 DUP3 ADD SWAP1 POP DUP2 DUP2 SUB PUSH0 DUP4 ADD MSTORE PUSH2 0x1543 DUP2 DUP5 PUSH2 0x14F3 JUMP JUMPDEST SWAP1 POP SWAP3 SWAP2 POP POP JUMP JUMPDEST PUSH0 PUSH1 0x40 MLOAD SWAP1 POP SWAP1 JUMP JUMPDEST PUSH0 PUSH0 REVERT JUMPDEST PUSH0 PUSH0 REVERT JUMPDEST PUSH0 PUSH20 0xFFFFFFFFFFFFFFFFFFFFFFFFFFFFFFFFFFFFFFFF DUP3 AND SWAP1 POP SWAP2 SWAP1 POP JUMP JUMPDEST PUSH0 PUSH2 0x1585 DUP3 PUSH2 0x155C JUMP JUMPDEST SWAP1 POP SWAP2 SWAP1 POP JUMP JUMPDEST PUSH2 0x1595 DUP2 PUSH2 0x157B JUMP JUMPDEST DUP2 EQ PUSH2 0x159F JUMPI PUSH0 PUSH0 REVERT JUMPDEST POP JUMP JUMPDEST PUSH0 DUP2 CALLDATALOAD SWAP1 POP PUSH2 0x15B0 DUP2 PUSH2 0x158C JUMP JUMPDEST SWAP3 SWAP2 POP POP JUMP JUMPDEST PUSH0 DUP2 SWAP1 POP SWAP2 SWAP1 POP JUMP JUMPDEST PUSH2 0x15C8 DUP2 PUSH2 0x15B6 JUMP JUMPDEST DUP2 EQ PUSH2 0x15D2 JUMPI PUSH0 PUSH0 REVERT JUMPDEST POP JUMP JUMPDEST PUSH0 DUP2 CALLDATALOAD SWAP1 POP PUSH2 0x15E3 DUP2 PUSH2 0x15BF JUMP JUMPDEST SWAP3 SWAP2 POP POP JUMP JUMPDEST PUSH0 PUSH0 PUSH1 0x40 DUP4 DUP6 SUB SLT ISZERO PUSH2 0x15FF JUMPI PUSH2 0x15FE PUSH2 0x1554 JUMP JUMPDEST JUMPDEST PUSH0 PUSH2 0x160C DUP6 DUP3 DUP7 ADD PUSH2 0x15A2 JUMP JUMPDEST SWAP3 POP POP PUSH1 0x20 PUSH2 0x161D DUP6 DUP3 DUP7 ADD PUSH2 0x15D5 JUMP JUMPDEST SWAP2 POP POP SWAP3 POP SWAP3 SWAP1 POP JUMP JUMPDEST PUSH0 PUSH2 0x1631 DUP3 PUSH2 0x155C JUMP JUMPDEST SWAP1 POP SWAP2 SWAP1 POP JUMP JUMPDEST PUSH2 0x1641 DUP2 PUSH2 0x1627 JUMP JUMPDEST DUP2 EQ PUSH2 0x164B JUMPI PUSH0 PUSH0 REVERT JUMPDEST POP JUMP JUMPDEST PUSH0 DUP2 CALLDATALOAD SWAP1 POP PUSH2 0x165C DUP2 PUSH2 0x1638 JUMP JUMPDEST SWAP3 SWAP2 POP POP JUMP JUMPDEST PUSH0 PUSH0 PUSH1 0x40 DUP4 DUP6 SUB SLT ISZERO PUSH2 0x1678 JUMPI PUSH2 0x1677 PUSH2 0x1554 JUMP JUMPDEST JUMPDEST PUSH0 PUSH2 0x1685 DUP6 DUP3 DUP7 ADD PUSH2 0x164E JUMP JUMPDEST SWAP3 POP POP PUSH1 0x20 PUSH2 0x1696 DUP6 DUP3 DUP7 ADD PUSH2 0x15D5 JUMP JUMPDEST SWAP2 POP POP SWAP3 POP SWAP3 SWAP1 POP JUMP JUMPDEST PUSH0 DUP2 ISZERO ISZERO SWAP1 POP SWAP2 SWAP1 POP JUMP JUMPDEST PUSH2 0x16B4 DUP2 PUSH2 0x16A0 JUMP JUMPDEST DUP3 MSTORE POP POP JUMP JUMPDEST PUSH0 PUSH1 0x20 DUP3 ADD SWAP1 POP PUSH2 0x16CD PUSH0 DUP4 ADD DUP5 PUSH2 0x16AB JUMP JUMPDEST SWAP3 SWAP2 POP POP JUMP JUMPDEST PUSH2 0x16DC DUP2 PUSH2 0x15B6 JUMP JUMPDEST DUP3 MSTORE POP POP JUMP JUMPDEST PUSH0 PUSH1 0x20 DUP3 ADD SWAP1 POP PUSH2 0x16F5 PUSH0 DUP4 ADD DUP5 PUSH2 0x16D3 JUMP JUMPDEST SWAP3 SWAP2 POP POP JUMP JUMPDEST PUSH0 PUSH0 PUSH0 PUSH1 0x60 DUP5 DUP7 SUB SLT ISZERO PUSH2 0x1712 JUMPI PUSH2 0x1711 PUSH2 0x1554 JUMP JUMPDEST JUMPDEST PUSH0 PUSH2 0x171F DUP7 DUP3 DUP8 ADD PUSH2 0x164E JUMP JUMPDEST SWAP4 POP POP PUSH1 0x20 PUSH2 0x1730 DUP7 DUP3 DUP8 ADD PUSH2 0x164E JUMP JUMPDEST SWAP3 POP POP PUSH1 0x40 PUSH2 0x1741 DUP7 DUP3 DUP8 ADD PUSH2 0x15D5 JUMP JUMPDEST SWAP2 POP POP SWAP3 POP SWAP3 POP SWAP3 JUMP JUMPDEST PUSH0 PUSH1 0xFF DUP3 AND SWAP1 POP SWAP2 SWAP1 POP JUMP JUMPDEST PUSH2 0x1760 DUP2 PUSH2 0x174B JUMP JUMPDEST DUP3 MSTORE POP POP JUMP JUMPDEST PUSH0 PUSH1 0x20 DUP3 ADD SWAP1 POP PUSH2 0x1779 PUSH0 DUP4 ADD DUP5 PUSH2 0x1757 JUMP JUMPDEST SWAP3 SWAP2 POP POP JUMP JUMPDEST PUSH0 PUSH1 0x20 DUP3 DUP5 SUB SLT ISZERO PUSH2 0x1794 JUMPI PUSH2 0x1793 PUSH2 0x1554 JUMP JUMPDEST JUMPDEST PUSH0 PUSH2 0x17A1 DUP5 DUP3 DUP6 ADD PUSH2 0x164E JUMP JUMPDEST SWAP2 POP POP SWAP3 SWAP2 POP POP JUMP JUMPDEST PUSH2 0x17B3 DUP2 PUSH2 0x1627 JUMP JUMPDEST DUP3 MSTORE POP POP JUMP JUMPDEST PUSH0 PUSH1 0x20 DUP3 ADD SWAP1 POP PUSH2 0x17CC PUSH0 DUP4 ADD DUP5 PUSH2 0x17AA JUMP JUMPDEST SWAP3 SWAP2 POP POP JUMP JUMPDEST PUSH0 PUSH0 REVERT JUMPDEST PUSH0 PUSH0 REVERT JUMPDEST PUSH32 0x4E487B7100000000000000000000000000000000000000000000000000000000 PUSH0 MSTORE PUSH1 0x41 PUSH1 0x4 MSTORE PUSH1 0x24 PUSH0 REVERT JUMPDEST PUSH2 0x1810 DUP3 PUSH2 0x14E3 JUMP JUMPDEST DUP2 ADD DUP2 DUP2 LT PUSH8 0xFFFFFFFFFFFFFFFF DUP3 GT OR ISZERO PUSH2 0x182F JUMPI PUSH2 0x182E PUSH2 0x17DA JUMP JUMPDEST JUMPDEST DUP1 PUSH1 0x40 MSTORE POP POP POP JUMP JUMPDEST PUSH0 PUSH2 0x1841 PUSH2 0x154B JUMP JUMPDEST SWAP1 POP PUSH2 0x184D DUP3 DUP3 PUSH2 0x1807 JUMP JUMPDEST SWAP2 SWAP1 POP JUMP JUMPDEST PUSH0 PUSH8 0xFFFFFFFFFFFFFFFF DUP3 GT ISZERO PUSH2 0x186C JUMPI PUSH2 0x186B PUSH2 0x17DA JUMP JUMPDEST JUMPDEST PUSH2 0x1875 DUP3 PUSH2 0x14E3 JUMP JUMPDEST SWAP1 POP PUSH1 0x20 DUP2 ADD SWAP1 POP SWAP2 SWAP1 POP JUMP JUMPDEST DUP3 DUP2 DUP4 CALLDATACOPY PUSH0 DUP4 DUP4 ADD MSTORE POP POP POP JUMP JUMPDEST PUSH0 PUSH2 0x18A2 PUSH2 0x189D DUP5 PUSH2 0x1852 JUMP JUMPDEST PUSH2 0x1838 JUMP JUMPDEST SWAP1 POP DUP3 DUP2 MSTORE PUSH1 0x20 DUP2 ADD DUP5 DUP5 DUP5 ADD GT ISZERO PUSH2 0x18BE JUMPI PUSH2 0x18BD PUSH2 0x17D6 JUMP JUMPDEST JUMPDEST PUSH2 0x18C9 DUP5 DUP3 DUP6 PUSH2 0x1882 JUMP JUMPDEST POP SWAP4 SWAP3 POP POP POP JUMP JUMPDEST PUSH0 DUP3 PUSH1 0x1F DUP4 ADD SLT PUSH2 0x18E5 JUMPI PUSH2 0x18E4 PUSH2 0x17D2 JUMP JUMPDEST JUMPDEST DUP2 CALLDATALOAD PUSH2 0x18F5 DUP5 DUP3 PUSH1 0x20 DUP7 ADD PUSH2 0x1890 JUMP JUMPDEST SWAP2 POP POP SWAP3 SWAP2 POP POP JUMP JUMPDEST PUSH0 PUSH1 0x20 DUP3 DUP5 SUB SLT ISZERO PUSH2 0x1913 JUMPI PUSH2 0x1912 PUSH2 0x1554 JUMP JUMPDEST JUMPDEST PUSH0 DUP3 ADD CALLDATALOAD PUSH8 0xFFFFFFFFFFFFFFFF DUP2 GT ISZERO PUSH2 0x1930 JUMPI PUSH2 0x192F PUSH2 0x1558 JUMP JUMPDEST JUMPDEST PUSH2 0x193C DUP5 DUP3 DUP6 ADD PUSH2 0x18D1 JUMP JUMPDEST SWAP2 POP POP SWAP3 SWAP2 POP POP JUMP JUMPDEST PUSH0 PUSH1 0x20 DUP3 DUP5 SUB SLT ISZERO PUSH2 0x195A JUMPI PUSH2 0x1959 PUSH2 0x1554 JUMP JUMPDEST JUMPDEST PUSH0 PUSH2 0x1967 DUP5 DUP3 DUP6 ADD PUSH2 0x15D5 JUMP JUMPDEST SWAP2 POP POP SWAP3 SWAP2 POP POP JUMP JUMPDEST PUSH0 PUSH0 PUSH1 0x40 DUP4 DUP6 SUB SLT ISZERO PUSH2 0x1986 JUMPI PUSH2 0x1985 PUSH2 0x1554 JUMP JUMPDEST JUMPDEST PUSH0 PUSH2 0x1993 DUP6 DUP3 DUP7 ADD PUSH2 0x164E JUMP JUMPDEST SWAP3 POP POP PUSH1 0x20 PUSH2 0x19A4 DUP6 DUP3 DUP7 ADD PUSH2 0x164E JUMP JUMPDEST SWAP2 POP POP SWAP3 POP SWAP3 SWAP1 POP JUMP JUMPDEST PUSH32 0x4E6F206E61746976652076616C75652073656E74000000000000000000000000 PUSH0 DUP3 ADD MSTORE POP JUMP JUMPDEST PUSH0 PUSH2 0x19E2 PUSH1 0x14 DUP4 PUSH2 0x14C5 JUMP JUMPDEST SWAP2 POP PUSH2 0x19ED DUP3 PUSH2 0x19AE JUMP JUMPDEST PUSH1 0x20 DUP3 ADD SWAP1 POP SWAP2 SWAP1 POP JUMP JUMPDEST PUSH0 PUSH1 0x20 DUP3 ADD SWAP1 POP DUP2 DUP2 SUB PUSH0 DUP4 ADD MSTORE PUSH2 0x1A0F DUP2 PUSH2 0x19D6 JUMP JUMPDEST SWAP1 POP SWAP2 SWAP1 POP JUMP JUMPDEST PUSH32 0x4E487B7100000000000000000000000000000000000000000000000000000000 PUSH0 MSTORE PUSH1 0x11 PUSH1 0x4 MSTORE PUSH1 0x24 PUSH0 REVERT JUMPDEST PUSH0 PUSH2 0x1A4D DUP3 PUSH2 0x15B6 JUMP JUMPDEST SWAP2 POP PUSH2 0x1A58 DUP4 PUSH2 0x15B6 JUMP JUMPDEST SWAP3 POP DUP3 DUP3 MUL PUSH2 0x1A66 DUP2 PUSH2 0x15B6 JUMP JUMPDEST SWAP2 POP DUP3 DUP3 DIV DUP5 EQ DUP4 ISZERO OR PUSH2 0x1A7D JUMPI PUSH2 0x1A7C PUSH2 0x1A16 JUMP JUMPDEST JUMPDEST POP SWAP3 SWAP2 POP POP JUMP JUMPDEST PUSH0 PUSH1 0x40 DUP3 ADD SWAP1 POP PUSH2 0x1A97 PUSH0 DUP4 ADD DUP6 PUSH2 0x16D3 JUMP JUMPDEST PUSH2 0x1AA4 PUSH1 0x20 DUP4 ADD DUP5 PUSH2 0x16D3 JUMP JUMPDEST SWAP4 SWAP3 POP POP POP JUMP JUMPDEST PUSH32 0x4E487B7100000000000000000000000000000000000000000000000000000000 PUSH0 MSTORE PUSH1 0x22 PUSH1 0x4 MSTORE PUSH1 0x24 PUSH0 REVERT JUMPDEST PUSH0 PUSH1 0x2 DUP3 DIV SWAP1 POP PUSH1 0x1 DUP3 AND DUP1 PUSH2 0x1AEF JUMPI PUSH1 0x7F DUP3 AND SWAP2 POP JUMPDEST PUSH1 0x20 DUP3 LT DUP2 SUB PUSH2 0x1B02 JUMPI PUSH2 0x1B01 PUSH2 0x1AAB JUMP JUMPDEST JUMPDEST POP SWAP2 SWAP1 POP JUMP JUMPDEST PUSH32 0x496E73756666696369656E742062616C616E6365000000000000000000000000 PUSH0 DUP3 ADD MSTORE POP JUMP JUMPDEST PUSH0 PUSH2 0x1B3C PUSH1 0x14 DUP4 PUSH2 0x14C5 JUMP JUMPDEST SWAP2 POP PUSH2 0x1B47 DUP3 PUSH2 0x1B08 JUMP JUMPDEST PUSH1 0x20 DUP3 ADD SWAP1 POP SWAP2 SWAP1 POP JUMP JUMPDEST PUSH0 PUSH1 0x20 DUP3 ADD SWAP1 POP DUP2 DUP2 SUB PUSH0 DUP4 ADD MSTORE PUSH2 0x1B69 DUP2 PUSH2 0x1B30 JUMP JUMPDEST SWAP1 POP SWAP2 SWAP1 POP JUMP JUMPDEST PUSH0 DUP2 SWAP1 POP SWAP3 SWAP2 POP POP JUMP JUMPDEST POP JUMP JUMPDEST PUSH0 PUSH2 0x1B88 PUSH0 DUP4 PUSH2 0x1B70 JUMP JUMPDEST SWAP2 POP PUSH2 0x1B93 DUP3 PUSH2 0x1B7A JUMP JUMPDEST PUSH0 DUP3 ADD SWAP1 POP SWAP2 SWAP1 POP JUMP JUMPDEST PUSH0 PUSH2 0x1BA7 DUP3 PUSH2 0x1B7D JUMP JUMPDEST SWAP2 POP DUP2 SWAP1 POP SWAP2 SWAP1 POP JUMP JUMPDEST PUSH32 0x5472616E73666572206661696C65640000000000000000000000000000000000 PUSH0 DUP3 ADD MSTORE POP JUMP JUMPDEST PUSH0 PUSH2 0x1BE5 PUSH1 0xF DUP4 PUSH2 0x14C5 JUMP JUMPDEST SWAP2 POP PUSH2 0x1BF0 DUP3 PUSH2 0x1BB1 JUMP JUMPDEST PUSH1 0x20 DUP3 ADD SWAP1 POP SWAP2 SWAP1 POP JUMP JUMPDEST PUSH0 PUSH1 0x20 DUP3 ADD SWAP1 POP DUP2 DUP2 SUB PUSH0 DUP4 ADD MSTORE PUSH2 0x1C12 DUP2 PUSH2 0x1BD9 JUMP JUMPDEST SWAP1 POP SWAP2 SWAP1 POP JUMP JUMPDEST PUSH0 PUSH1 0x40 DUP3 ADD SWAP1 POP PUSH2 0x1C2C PUSH0 DUP4 ADD DUP6 PUSH2 0x17AA JUMP JUMPDEST PUSH2 0x1C39 PUSH1 0x20 DUP4 ADD DUP5 PUSH2 0x16D3 JUMP JUMPDEST SWAP4 SWAP3 POP POP POP JUMP JUMPDEST PUSH2 0x1C49 DUP2 PUSH2 0x16A0 JUMP JUMPDEST DUP2 EQ PUSH2 0x1C53 JUMPI PUSH0 PUSH0 REVERT JUMPDEST POP JUMP JUMPDEST PUSH0 DUP2 MLOAD SWAP1 POP PUSH2 0x1C64 DUP2 PUSH2 0x1C40 JUMP JUMPDEST SWAP3 SWAP2 POP POP JUMP JUMPDEST PUSH0 PUSH1 0x20 DUP3 DUP5 SUB SLT ISZERO PUSH2 0x1C7F JUMPI PUSH2 0x1C7E PUSH2 0x1554 JUMP JUMPDEST JUMPDEST PUSH0 PUSH2 0x1C8C DUP5 DUP3 DUP6 ADD PUSH2 0x1C56 JUMP JUMPDEST SWAP2 POP POP SWAP3 SWAP2 POP POP JUMP JUMPDEST PUSH0 DUP2 SWAP1 POP DUP2 PUSH0 MSTORE PUSH1 0x20 PUSH0 KECCAK256 SWAP1 POP SWAP2 SWAP1 POP JUMP JUMPDEST PUSH0 PUSH1 0x20 PUSH1 0x1F DUP4 ADD DIV SWAP1 POP SWAP2 SWAP1 POP JUMP JUMPDEST PUSH0 DUP3 DUP3 SHL SWAP1 POP SWAP3 SWAP2 POP POP JUMP JUMPDEST PUSH0 PUSH1 0x8 DUP4 MUL PUSH2 0x1CF1 PUSH32 0xFFFFFFFFFFFFFFFFFFFFFFFFFFFFFFFFFFFFFFFFFFFFFFFFFFFFFFFFFFFFFFFF DUP3 PUSH2 0x1CB6 JUMP JUMPDEST PUSH2 0x1CFB DUP7 DUP4 PUSH2 0x1CB6 JUMP JUMPDEST SWAP6 POP DUP1 NOT DUP5 AND SWAP4 POP DUP1 DUP7 AND DUP5 OR SWAP3 POP POP POP SWAP4 SWAP3 POP POP POP JUMP JUMPDEST PUSH0 DUP2 SWAP1 POP SWAP2 SWAP1 POP JUMP JUMPDEST PUSH0 PUSH2 0x1D36 PUSH2 0x1D31 PUSH2 0x1D2C DUP5 PUSH2 0x15B6 JUMP JUMPDEST PUSH2 0x1D13 JUMP JUMPDEST PUSH2 0x15B6 JUMP JUMPDEST SWAP1 POP SWAP2 SWAP1 POP JUMP JUMPDEST PUSH0 DUP2 SWAP1 POP SWAP2 SWAP1 POP JUMP JUMPDEST PUSH2 0x1D4F DUP4 PUSH2 0x1D1C JUMP JUMPDEST PUSH2 0x1D63 PUSH2 0x1D5B DUP3 PUSH2 0x1D3D JUMP JUMPDEST DUP5 DUP5 SLOAD PUSH2 0x1CC2 JUMP JUMPDEST DUP3 SSTORE POP POP POP POP JUMP JUMPDEST PUSH0 PUSH0 SWAP1 POP SWAP1 JUMP JUMPDEST PUSH2 0x1D7A PUSH2 0x1D6B JUMP JUMPDEST PUSH2 0x1D85 DUP2 DUP5 DUP5 PUSH2 0x1D46 JUMP JUMPDEST POP POP POP JUMP JUMPDEST JUMPDEST DUP2 DUP2 LT ISZERO PUSH2 0x1DA8 JUMPI PUSH2 0x1D9D PUSH0 DUP3 PUSH2 0x1D72 JUMP JUMPDEST PUSH1 0x1 DUP2 ADD SWAP1 POP PUSH2 0x1D8B JUMP JUMPDEST POP POP JUMP JUMPDEST PUSH1 0x1F DUP3 GT ISZERO PUSH2 0x1DED JUMPI PUSH2 0x1DBE DUP2 PUSH2 0x1C95 JUMP JUMPDEST PUSH2 0x1DC7 DUP5 PUSH2 0x1CA7 JUMP JUMPDEST DUP2 ADD PUSH1 0x20 DUP6 LT ISZERO PUSH2 0x1DD6 JUMPI DUP2 SWAP1 POP JUMPDEST PUSH2 0x1DEA PUSH2 0x1DE2 DUP6 PUSH2 0x1CA7 JUMP JUMPDEST DUP4 ADD DUP3 PUSH2 0x1D8A JUMP JUMPDEST POP POP JUMPDEST POP POP POP JUMP JUMPDEST PUSH0 DUP3 DUP3 SHR SWAP1 POP SWAP3 SWAP2 POP POP JUMP JUMPDEST PUSH0 PUSH2 0x1E0D PUSH0 NOT DUP5 PUSH1 0x8 MUL PUSH2 0x1DF2 JUMP JUMPDEST NOT DUP1 DUP4 AND SWAP2 POP POP SWAP3 SWAP2 POP POP JUMP JUMPDEST PUSH0 PUSH2 0x1E25 DUP4 DUP4 PUSH2 0x1DFE JUMP JUMPDEST SWAP2 POP DUP3 PUSH1 0x2 MUL DUP3 OR SWAP1 POP SWAP3 SWAP2 POP POP JUMP JUMPDEST PUSH2 0x1E3E DUP3 PUSH2 0x14BB JUMP JUMPDEST PUSH8 0xFFFFFFFFFFFFFFFF DUP2 GT ISZERO PUSH2 0x1E57 JUMPI PUSH2 0x1E56 PUSH2 0x17DA JUMP JUMPDEST JUMPDEST PUSH2 0x1E61 DUP3 SLOAD PUSH2 0x1AD8 JUMP JUMPDEST PUSH2 0x1E6C DUP3 DUP3 DUP6 PUSH2 0x1DAC JUMP JUMPDEST PUSH0 PUSH1 0x20 SWAP1 POP PUSH1 0x1F DUP4 GT PUSH1 0x1 DUP2 EQ PUSH2 0x1E9D JUMPI PUSH0 DUP5 ISZERO PUSH2 0x1E8B JUMPI DUP3 DUP8 ADD MLOAD SWAP1 POP JUMPDEST PUSH2 0x1E95 DUP6 DUP3 PUSH2 0x1E1A JUMP JUMPDEST DUP7 SSTORE POP PUSH2 0x1EFC JUMP JUMPDEST PUSH1 0x1F NOT DUP5 AND PUSH2 0x1EAB DUP7 PUSH2 0x1C95 JUMP JUMPDEST PUSH0 JUMPDEST DUP3 DUP2 LT ISZERO PUSH2 0x1ED2 JUMPI DUP5 DUP10 ADD MLOAD DUP3 SSTORE PUSH1 0x1 DUP3 ADD SWAP2 POP PUSH1 0x20 DUP6 ADD SWAP5 POP PUSH1 0x20 DUP2 ADD SWAP1 POP PUSH2 0x1EAD JUMP JUMPDEST DUP7 DUP4 LT ISZERO PUSH2 0x1EEF JUMPI DUP5 DUP10 ADD MLOAD PUSH2 0x1EEB PUSH1 0x1F DUP10 AND DUP3 PUSH2 0x1DFE JUMP JUMPDEST DUP4 SSTORE POP JUMPDEST PUSH1 0x1 PUSH1 0x2 DUP9 MUL ADD DUP9 SSTORE POP POP POP JUMPDEST POP POP POP POP POP POP JUMP JUMPDEST PUSH0 PUSH1 0x40 DUP3 ADD SWAP1 POP DUP2 DUP2 SUB PUSH0 DUP4 ADD MSTORE PUSH2 0x1F1C DUP2 DUP6 PUSH2 0x14F3 JUMP JUMPDEST SWAP1 POP DUP2 DUP2 SUB PUSH1 0x20 DUP4 ADD MSTORE PUSH2 0x1F30 DUP2 DUP5 PUSH2 0x14F3 JUMP JUMPDEST SWAP1 POP SWAP4 SWAP3 POP POP POP JUMP JUMPDEST PUSH0 PUSH1 0x60 DUP3 ADD SWAP1 POP PUSH2 0x1F4C PUSH0 DUP4 ADD DUP7 PUSH2 0x17AA JUMP JUMPDEST PUSH2 0x1F59 PUSH1 0x20 DUP4 ADD DUP6 PUSH2 0x16D3 JUMP JUMPDEST PUSH2 0x1F66 PUSH1 0x40 DUP4 ADD DUP5 PUSH2 0x16D3 JUMP JUMPDEST SWAP5 SWAP4 POP POP POP POP JUMP JUMPDEST PUSH0 PUSH2 0x1F78 DUP3 PUSH2 0x15B6 JUMP JUMPDEST SWAP2 POP PUSH2 0x1F83 DUP4 PUSH2 0x15B6 JUMP JUMPDEST SWAP3 POP DUP3 DUP3 ADD SWAP1 POP DUP1 DUP3 GT ISZERO PUSH2 0x1F9B JUMPI PUSH2 0x1F9A PUSH2 0x1A16 JUMP JUMPDEST JUMPDEST SWAP3 SWAP2 POP POP JUMP INVALID LOG2 PUSH5 0x6970667358 0x22 SLT KECCAK256 DUP13 RETURNCONTRACT 0xDB INVALID 0x2A SWAP10 0xCF ADDRESS EXTCODESIZE NOT JUMP CALLF 0x99C0 SAR PUSH32 0x44D63684F2F5618C6D7C957938E4250664736F6C634300081E00330000000000 "
		},
		"gasEstimates": {
			"creation": {
				"codeDepositCost": "1630200",
				"executionCost": "infinite",
				"totalCost": "infinite"
			},
			"external": {
				"": "infinite",
				"allowance(address,address)": "infinite",
				"approve(address,uint256)": "infinite",
				"balanceOf(address)": "2895",
				"burn(address,uint256)": "infinite",
				"decimals()": "361",
				"deposit()": "infinite",
				"depositRate()": "2536",
				"mint(address,uint256)": "infinite",
				"name()": "infinite",
				"owner()": "2538",
				"renounceOwnership()": "infinite",
				"rescueERC20(address,address,uint256)": "infinite",
				"setDepositRate(uint256)": "infinite",
				"setName(string)": "infinite",
				"setSymbol(string)": "infinite",
				"symbol()": "infinite",
				"totalSupply()": "2522",
				"transfer(address,uint256)": "infinite",
				"transferFrom(address,address,uint256)": "infinite",
				"transferOwnership(address)": "infinite",
				"withdrawNative(address,uint256)": "infinite"
			},
			"internal": {
				"_handleDeposit(address,uint256)": "infinite"
			}
		},
		"methodIdentifiers": {
			"allowance(address,address)": "dd62ed3e",
			"approve(address,uint256)": "095ea7b3",
			"balanceOf(address)": "70a08231",
			"burn(address,uint256)": "9dc29fac",
			"decimals()": "313ce567",
			"deposit()": "d0e30db0",
			"depositRate()": "7e74a1ed",
			"mint(address,uint256)": "40c10f19",
			"name()": "06fdde03",
			"owner()": "8da5cb5b",
			"renounceOwnership()": "715018a6",
			"rescueERC20(address,address,uint256)": "b2118a8d",
			"setDepositRate(uint256)": "bf35588b",
			"setName(string)": "c47f0027",
			"setSymbol(string)": "b84c8246",
			"symbol()": "95d89b41",
			"totalSupply()": "18160ddd",
			"transfer(address,uint256)": "a9059cbb",
			"transferFrom(address,address,uint256)": "23b872dd",
			"transferOwnership(address)": "f2fde38b",
			"withdrawNative(address,uint256)": "07b18bde"
		}
	},
	"abi": [
		{
			"inputs": [
				{
					"internalType": "string",
					"name": "initialName",
					"type": "string"
				},
				{
					"internalType": "string",
					"name": "initialSymbol",
					"type": "string"
				},
				{
					"internalType": "uint256",
					"name": "initialSupply",
					"type": "uint256"
				},
				{
					"internalType": "uint256",
					"name": "initialDepositRate",
					"type": "uint256"
				}
			],
			"stateMutability": "nonpayable",
			"type": "constructor"
		},
		{
			"inputs": [
				{
					"internalType": "address",
					"name": "spender",
					"type": "address"
				},
				{
					"internalType": "uint256",
					"name": "allowance",
					"type": "uint256"
				},
				{
					"internalType": "uint256",
					"name": "needed",
					"type": "uint256"
				}
			],
			"name": "ERC20InsufficientAllowance",
			"type": "error"
		},
		{
			"inputs": [
				{
					"internalType": "address",
					"name": "sender",
					"type": "address"
				},
				{
					"internalType": "uint256",
					"name": "balance",
					"type": "uint256"
				},
				{
					"internalType": "uint256",
					"name": "needed",
					"type": "uint256"
				}
			],
			"name": "ERC20InsufficientBalance",
			"type": "error"
		},
		{
			"inputs": [
				{
					"internalType": "address",
					"name": "approver",
					"type": "address"
				}
			],
			"name": "ERC20InvalidApprover",
			"type": "error"
		},
		{
			"inputs": [
				{
					"internalType": "address",
					"name": "receiver",
					"type": "address"
				}
			],
			"name": "ERC20InvalidReceiver",
			"type": "error"
		},
		{
			"inputs": [
				{
					"internalType": "address",
					"name": "sender",
					"type": "address"
				}
			],
			"name": "ERC20InvalidSender",
			"type": "error"
		},
		{
			"inputs": [
				{
					"internalType": "address",
					"name": "spender",
					"type": "address"
				}
			],
			"name": "ERC20InvalidSpender",
			"type": "error"
		},
		{
			"inputs": [
				{
					"internalType": "address",
					"name": "owner",
					"type": "address"
				}
			],
			"name": "OwnableInvalidOwner",
			"type": "error"
		},
		{
			"inputs": [
				{
					"internalType": "address",
					"name": "account",
					"type": "address"
				}
			],
			"name": "OwnableUnauthorizedAccount",
			"type": "error"
		},
		{
			"anonymous": false,
			"inputs": [
				{
					"indexed": true,
					"internalType": "address",
					"name": "owner",
					"type": "address"
				},
				{
					"indexed": true,
					"internalType": "address",
					"name": "spender",
					"type": "address"
				},
				{
					"indexed": false,
					"internalType": "uint256",
					"name": "value",
					"type": "uint256"
				}
			],
			"name": "Approval",
			"type": "event"
		},
		{
			"anonymous": false,
			"inputs": [
				{
					"indexed": true,
					"internalType": "address",
					"name": "from",
					"type": "address"
				},
				{
					"indexed": false,
					"internalType": "uint256",
					"name": "nativeAmount",
					"type": "uint256"
				},
				{
					"indexed": false,
					"internalType": "uint256",
					"name": "mintedTokens",
					"type": "uint256"
				}
			],
			"name": "Deposit",
			"type": "event"
		},
		{
			"anonymous": false,
			"inputs": [
				{
					"indexed": false,
					"internalType": "string",
					"name": "oldName",
					"type": "string"
				},
				{
					"indexed": false,
					"internalType": "string",
					"name": "newName",
					"type": "string"
				}
			],
			"name": "NameChanged",
			"type": "event"
		},
		{
			"anonymous": false,
			"inputs": [
				{
					"indexed": true,
					"internalType": "address",
					"name": "previousOwner",
					"type": "address"
				},
				{
					"indexed": true,
					"internalType": "address",
					"name": "newOwner",
					"type": "address"
				}
			],
			"name": "OwnershipTransferred",
			"type": "event"
		},
		{
			"anonymous": false,
			"inputs": [
				{
					"indexed": false,
					"internalType": "uint256",
					"name": "oldRate",
					"type": "uint256"
				},
				{
					"indexed": false,
					"internalType": "uint256",
					"name": "newRate",
					"type": "uint256"
				}
			],
			"name": "RateChanged",
			"type": "event"
		},
		{
			"anonymous": false,
			"inputs": [
				{
					"indexed": false,
					"internalType": "string",
					"name": "oldSymbol",
					"type": "string"
				},
				{
					"indexed": false,
					"internalType": "string",
					"name": "newSymbol",
					"type": "string"
				}
			],
			"name": "SymbolChanged",
			"type": "event"
		},
		{
			"anonymous": false,
			"inputs": [
				{
					"indexed": true,
					"internalType": "address",
					"name": "from",
					"type": "address"
				},
				{
					"indexed": true,
					"internalType": "address",
					"name": "to",
					"type": "address"
				},
				{
					"indexed": false,
					"internalType": "uint256",
					"name": "value",
					"type": "uint256"
				}
			],
			"name": "Transfer",
			"type": "event"
		},
		{
			"anonymous": false,
			"inputs": [
				{
					"indexed": true,
					"internalType": "address",
					"name": "to",
					"type": "address"
				},
				{
					"indexed": false,
					"internalType": "uint256",
					"name": "amount",
					"type": "uint256"
				}
			],
			"name": "Withdraw",
			"type": "event"
		},
		{
			"stateMutability": "payable",
			"type": "fallback"
		},
		{
			"inputs": [
				{
					"internalType": "address",
					"name": "owner",
					"type": "address"
				},
				{
					"internalType": "address",
					"name": "spender",
					"type": "address"
				}
			],
			"name": "allowance",
			"outputs": [
				{
					"internalType": "uint256",
					"name": "",
					"type": "uint256"
				}
			],
			"stateMutability": "view",
			"type": "function"
		},
		{
			"inputs": [
				{
					"internalType": "address",
					"name": "spender",
					"type": "address"
				},
				{
					"internalType": "uint256",
					"name": "value",
					"type": "uint256"
				}
			],
			"name": "approve",
			"outputs": [
				{
					"internalType": "bool",
					"name": "",
					"type": "bool"
				}
			],
			"stateMutability": "nonpayable",
			"type": "function"
		},
		{
			"inputs": [
				{
					"internalType": "address",
					"name": "account",
					"type": "address"
				}
			],
			"name": "balanceOf",
			"outputs": [
				{
					"internalType": "uint256",
					"name": "",
					"type": "uint256"
				}
			],
			"stateMutability": "view",
			"type": "function"
		},
		{
			"inputs": [
				{
					"internalType": "address",
					"name": "from",
					"type": "address"
				},
				{
					"internalType": "uint256",
					"name": "amount",
					"type": "uint256"
				}
			],
			"name": "burn",
			"outputs": [],
			"stateMutability": "nonpayable",
			"type": "function"
		},
		{
			"inputs": [],
			"name": "decimals",
			"outputs": [
				{
					"internalType": "uint8",
					"name": "",
					"type": "uint8"
				}
			],
			"stateMutability": "view",
			"type": "function"
		},
		{
			"inputs": [],
			"name": "deposit",
			"outputs": [
				{
					"internalType": "uint256",
					"name": "minted",
					"type": "uint256"
				}
			],
			"stateMutability": "payable",
			"type": "function"
		},
		{
			"inputs": [],
			"name": "depositRate",
			"outputs": [
				{
					"internalType": "uint256",
					"name": "",
					"type": "uint256"
				}
			],
			"stateMutability": "view",
			"type": "function"
		},
		{
			"inputs": [
				{
					"internalType": "address",
					"name": "to",
					"type": "address"
				},
				{
					"internalType": "uint256",
					"name": "amount",
					"type": "uint256"
				}
			],
			"name": "mint",
			"outputs": [],
			"stateMutability": "nonpayable",
			"type": "function"
		},
		{
			"inputs": [],
			"name": "name",
			"outputs": [
				{
					"internalType": "string",
					"name": "",
					"type": "string"
				}
			],
			"stateMutability": "view",
			"type": "function"
		},
		{
			"inputs": [],
			"name": "owner",
			"outputs": [
				{
					"internalType": "address",
					"name": "",
					"type": "address"
				}
			],
			"stateMutability": "view",
			"type": "function"
		},
		{
			"inputs": [],
			"name": "renounceOwnership",
			"outputs": [],
			"stateMutability": "nonpayable",
			"type": "function"
		},
		{
			"inputs": [
				{
					"internalType": "address",
					"name": "tokenAddress",
					"type": "address"
				},
				{
					"internalType": "address",
					"name": "to",
					"type": "address"
				},
				{
					"internalType": "uint256",
					"name": "amount",
					"type": "uint256"
				}
			],
			"name": "rescueERC20",
			"outputs": [],
			"stateMutability": "nonpayable",
			"type": "function"
		},
		{
			"inputs": [
				{
					"internalType": "uint256",
					"name": "newRate",
					"type": "uint256"
				}
			],
			"name": "setDepositRate",
			"outputs": [],
			"stateMutability": "nonpayable",
			"type": "function"
		},
		{
			"inputs": [
				{
					"internalType": "string",
					"name": "newName",
					"type": "string"
				}
			],
			"name": "setName",
			"outputs": [],
			"stateMutability": "nonpayable",
			"type": "function"
		},
		{
			"inputs": [
				{
					"internalType": "string",
					"name": "newSymbol",
					"type": "string"
				}
			],
			"name": "setSymbol",
			"outputs": [],
			"stateMutability": "nonpayable",
			"type": "function"
		},
		{
			"inputs": [],
			"name": "symbol",
			"outputs": [
				{
					"internalType": "string",
					"name": "",
					"type": "string"
				}
			],
			"stateMutability": "view",
			"type": "function"
		},
		{
			"inputs": [],
			"name": "totalSupply",
			"outputs": [
				{
					"internalType": "uint256",
					"name": "",
					"type": "uint256"
				}
			],
			"stateMutability": "view",
			"type": "function"
		},
		{
			"inputs": [
				{
					"internalType": "address",
					"name": "to",
					"type": "address"
				},
				{
					"internalType": "uint256",
					"name": "value",
					"type": "uint256"
				}
			],
			"name": "transfer",
			"outputs": [
				{
					"internalType": "bool",
					"name": "",
					"type": "bool"
				}
			],
			"stateMutability": "nonpayable",
			"type": "function"
		},
		{
			"inputs": [
				{
					"internalType": "address",
					"name": "from",
					"type": "address"
				},
				{
					"internalType": "address",
					"name": "to",
					"type": "address"
				},
				{
					"internalType": "uint256",
					"name": "value",
					"type": "uint256"
				}
			],
			"name": "transferFrom",
			"outputs": [
				{
					"internalType": "bool",
					"name": "",
					"type": "bool"
				}
			],
			"stateMutability": "nonpayable",
			"type": "function"
		},
		{
			"inputs": [
				{
					"internalType": "address",
					"name": "newOwner",
					"type": "address"
				}
			],
			"name": "transferOwnership",
			"outputs": [],
			"stateMutability": "nonpayable",
			"type": "function"
		},
		{
			"inputs": [
				{
					"internalType": "address payable",
					"name": "to",
					"type": "address"
				},
				{
					"internalType": "uint256",
					"name": "amount",
					"type": "uint256"
				}
			],
			"name": "withdrawNative",
			"outputs": [],
			"stateMutability": "nonpayable",
			"type": "function"
		},
		{
			"stateMutability": "payable",
			"type": "receive"
		}
	]
}